{
	"contract/voting.sol": {
		"Election": {
			"abi": [
				{
					"inputs": [
						{
							"internalType": "address[]",
							"name": "_candidates",
							"type": "address[]"
						}
					],
					"stateMutability": "nonpayable",
					"type": "constructor"
				},
				{
					"inputs": [],
					"name": "electionCandidates",
					"outputs": [
						{
							"internalType": "address[]",
							"name": "_addresses",
							"type": "address[]"
						}
					],
					"stateMutability": "view",
					"type": "function"
				},
				{
					"inputs": [],
					"name": "eligibleVoters",
					"outputs": [
						{
							"internalType": "address[]",
							"name": "_addresses",
							"type": "address[]"
						}
					],
					"stateMutability": "view",
					"type": "function"
				},
				{
					"inputs": [],
					"name": "endElection",
					"outputs": [],
					"stateMutability": "nonpayable",
					"type": "function"
				},
				{
					"inputs": [
						{
							"internalType": "uint256",
							"name": "_candidateId",
							"type": "uint256"
						}
					],
					"name": "getCandidate",
					"outputs": [
						{
							"internalType": "address",
							"name": "",
							"type": "address"
						}
					],
					"stateMutability": "view",
					"type": "function"
				},
				{
					"inputs": [],
					"name": "getWinningCandidate",
					"outputs": [
						{
							"internalType": "address",
							"name": "",
							"type": "address"
						}
					],
					"stateMutability": "view",
					"type": "function"
				},
				{
					"inputs": [],
					"name": "realTimeVote",
					"outputs": [
						{
							"internalType": "uint256[]",
							"name": "_vote",
							"type": "uint256[]"
						}
					],
					"stateMutability": "view",
					"type": "function"
				},
				{
					"inputs": [],
					"name": "restartElection",
					"outputs": [],
					"stateMutability": "nonpayable",
					"type": "function"
				},
				{
					"inputs": [
						{
							"internalType": "address",
							"name": "_candidate",
							"type": "address"
						}
					],
					"name": "voteAsDelegate",
					"outputs": [],
					"stateMutability": "nonpayable",
					"type": "function"
				},
				{
					"inputs": [
						{
							"internalType": "address",
							"name": "_candidate",
							"type": "address"
						}
					],
					"name": "voteCandidate",
					"outputs": [],
					"stateMutability": "nonpayable",
					"type": "function"
				},
				{
					"inputs": [
						{
							"internalType": "address",
							"name": "_candidate",
							"type": "address"
						}
					],
					"name": "voteChange",
					"outputs": [],
					"stateMutability": "nonpayable",
					"type": "function"
				},
				{
					"inputs": [],
					"name": "voteRevoke",
					"outputs": [],
					"stateMutability": "nonpayable",
					"type": "function"
				},
				{
					"inputs": [],
					"name": "votedVoters",
					"outputs": [
						{
							"internalType": "address[]",
							"name": "_addresses",
							"type": "address[]"
						}
					],
					"stateMutability": "view",
					"type": "function"
				},
				{
					"inputs": [
						{
							"internalType": "address",
							"name": "_nonvoter",
							"type": "address"
						}
					],
					"name": "voterDelegate",
					"outputs": [],
					"stateMutability": "nonpayable",
					"type": "function"
				},
				{
					"inputs": [
						{
							"internalType": "address",
							"name": "_voter",
							"type": "address"
						}
					],
					"name": "whitelistVoter",
					"outputs": [],
					"stateMutability": "nonpayable",
					"type": "function"
				}
			],
			"devdoc": {
				"kind": "dev",
				"methods": {},
				"version": 1
			},
			"evm": {
				"assembly": "    /* \"contract/voting.sol\":102:9841  contract Election {... */\n  mstore(0x40, 0x80)\n    /* \"contract/voting.sol\":423:424  0 */\n  0x00\n    /* \"contract/voting.sol\":402:424  uint numCandidates = 0 */\n  dup1\n  sstore\n    /* \"contract/voting.sol\":447:448  0 */\n  0x00\n    /* \"contract/voting.sol\":430:448  uint numVoters = 0 */\n  0x01\n  sstore\n    /* \"contract/voting.sol\":829:830  0 */\n  0x00\n    /* \"contract/voting.sol\":805:830  uint endElectionCount = 0 */\n  0x0b\n  sstore\n    /* \"contract/voting.sol\":864:865  0 */\n  0x00\n    /* \"contract/voting.sol\":836:865  uint restartElectionCount = 0 */\n  0x0c\n  sstore\n    /* \"contract/voting.sol\":872:1183  constructor(address[] memory _candidates) {... */\n  callvalue\n  dup1\n  iszero\n  tag_1\n  jumpi\n  0x00\n  dup1\n  revert\ntag_1:\n  pop\n  mload(0x40)\n  sub(codesize, bytecodeSize)\n  dup1\n  bytecodeSize\n  dup4\n  codecopy\n  dup2\n  dup2\n  add\n  0x40\n  mstore\n  dup2\n  add\n  swap1\n  tag_2\n  swap2\n  swap1\n  tag_3\n  jump\t// in\ntag_2:\n    /* \"contract/voting.sol\":928:934  uint i */\n  0x00\n    /* \"contract/voting.sol\":924:1129  for(uint i = 0; i < _candidates.length; i ++) {... */\ntag_6:\n    /* \"contract/voting.sol\":944:955  _candidates */\n  dup2\n    /* \"contract/voting.sol\":944:962  _candidates.length */\n  mload\n    /* \"contract/voting.sol\":940:941  i */\n  dup2\n    /* \"contract/voting.sol\":940:962  i < _candidates.length */\n  lt\n    /* \"contract/voting.sol\":924:1129  for(uint i = 0; i < _candidates.length; i ++) {... */\n  iszero\n  tag_7\n  jumpi\n    /* \"contract/voting.sol\":984:994  candidates */\n  0x07\n    /* \"contract/voting.sol\":1000:1028  Candidate(_candidates[i], 0) */\n  mload(0x40)\n  dup1\n  0x40\n  add\n  0x40\n  mstore\n  dup1\n    /* \"contract/voting.sol\":1010:1021  _candidates */\n  dup5\n    /* \"contract/voting.sol\":1022:1023  i */\n  dup5\n    /* \"contract/voting.sol\":1010:1024  _candidates[i] */\n  dup2\n  mload\n  dup2\n  lt\n  tag_9\n  jumpi\n  tag_10\n  tag_11\n  jump\t// in\ntag_10:\ntag_9:\n  0x20\n  mul\n  0x20\n  add\n  add\n  mload\n    /* \"contract/voting.sol\":1000:1028  Candidate(_candidates[i], 0) */\n  0xffffffffffffffffffffffffffffffffffffffff\n  and\n  dup2\n  mstore\n  0x20\n  add\n    /* \"contract/voting.sol\":1026:1027  0 */\n  0x00\n    /* \"contract/voting.sol\":1000:1028  Candidate(_candidates[i], 0) */\n  dup2\n  mstore\n  pop\n    /* \"contract/voting.sol\":984:1029  candidates.push(Candidate(_candidates[i], 0)) */\n  swap1\n  dup1\n  0x01\n  dup2\n  sload\n  add\n  dup1\n  dup3\n  sstore\n  dup1\n  swap2\n  pop\n  pop\n  0x01\n  swap1\n  sub\n  swap1\n  0x00\n  mstore\n  keccak256(0x00, 0x20)\n  swap1\n  0x02\n  mul\n  add\n  0x00\n  swap1\n  swap2\n  swap1\n  swap2\n  swap1\n  swap2\n  pop\n  0x00\n  dup3\n  add\n  mload\n  dup2\n  0x00\n  add\n  exp(0x0100, 0x00)\n  dup2\n  sload\n  dup2\n  0xffffffffffffffffffffffffffffffffffffffff\n  mul\n  not\n  and\n  swap1\n  dup4\n  0xffffffffffffffffffffffffffffffffffffffff\n  and\n  mul\n  or\n  swap1\n  sstore\n  pop\n  0x20\n  dup3\n  add\n  mload\n  dup2\n  0x01\n  add\n  sstore\n  pop\n  pop\n    /* \"contract/voting.sol\":1060:1061  1 */\n  0x01\n    /* \"contract/voting.sol\":1043:1056  numCandidates */\n  0x00\n  dup1\n    /* \"contract/voting.sol\":1043:1061  numCandidates += 1 */\n  dup3\n  dup3\n  sload\n  tag_13\n  swap2\n  swap1\n  tag_14\n  jump\t// in\ntag_13:\n  swap3\n  pop\n  pop\n  dup2\n  swap1\n  sstore\n  pop\n    /* \"contract/voting.sol\":1105:1118  numCandidates */\n  sload(0x00)\n    /* \"contract/voting.sol\":1075:1086  candidateId */\n  0x02\n    /* \"contract/voting.sol\":1075:1102  candidateId[_candidates[i]] */\n  0x00\n    /* \"contract/voting.sol\":1087:1098  _candidates */\n  dup5\n    /* \"contract/voting.sol\":1099:1100  i */\n  dup5\n    /* \"contract/voting.sol\":1087:1101  _candidates[i] */\n  dup2\n  mload\n  dup2\n  lt\n  tag_15\n  jumpi\n  tag_16\n  tag_11\n  jump\t// in\ntag_16:\ntag_15:\n  0x20\n  mul\n  0x20\n  add\n  add\n  mload\n    /* \"contract/voting.sol\":1075:1102  candidateId[_candidates[i]] */\n  0xffffffffffffffffffffffffffffffffffffffff\n  and\n  0xffffffffffffffffffffffffffffffffffffffff\n  and\n  dup2\n  mstore\n  0x20\n  add\n  swap1\n  dup2\n  mstore\n  0x20\n  add\n  0x00\n  keccak256\n    /* \"contract/voting.sol\":1075:1118  candidateId[_candidates[i]] = numCandidates */\n  dup2\n  swap1\n  sstore\n  pop\n    /* \"contract/voting.sol\":964:968  i ++ */\n  dup1\n  dup1\n  0x01\n  add\n  swap2\n  pop\n  pop\n    /* \"contract/voting.sol\":924:1129  for(uint i = 0; i < _candidates.length; i ++) {... */\n  jump(tag_6)\ntag_7:\n  pop\n    /* \"contract/voting.sol\":1149:1154  false */\n  0x00\n    /* \"contract/voting.sol\":1138:1146  finished */\n  0x06\n  0x00\n    /* \"contract/voting.sol\":1138:1154  finished = false */\n  0x0100\n  exp\n  dup2\n  sload\n  dup2\n  0xff\n  mul\n  not\n  and\n  swap1\n  dup4\n  iszero\n  iszero\n  mul\n  or\n  swap1\n  sstore\n  pop\n    /* \"contract/voting.sol\":1175:1176  0 */\n  0x00\n    /* \"contract/voting.sol\":1164:1172  winnerId */\n  0x05\n    /* \"contract/voting.sol\":1164:1176  winnerId = 0 */\n  dup2\n  swap1\n  sstore\n  pop\n    /* \"contract/voting.sol\":872:1183  constructor(address[] memory _candidates) {... */\n  pop\n    /* \"contract/voting.sol\":102:9841  contract Election {... */\n  jump(tag_17)\n    /* \"#utility.yul\":7:82   */\ntag_18:\n    /* \"#utility.yul\":40:46   */\n  0x00\n    /* \"#utility.yul\":73:75   */\n  0x40\n    /* \"#utility.yul\":67:76   */\n  mload\n    /* \"#utility.yul\":57:76   */\n  swap1\n  pop\n    /* \"#utility.yul\":7:82   */\n  swap1\n  jump\t// out\n    /* \"#utility.yul\":88:205   */\ntag_19:\n    /* \"#utility.yul\":197:198   */\n  0x00\n    /* \"#utility.yul\":194:195   */\n  dup1\n    /* \"#utility.yul\":187:199   */\n  revert\n    /* \"#utility.yul\":211:328   */\ntag_20:\n    /* \"#utility.yul\":320:321   */\n  0x00\n    /* \"#utility.yul\":317:318   */\n  dup1\n    /* \"#utility.yul\":310:322   */\n  revert\n    /* \"#utility.yul\":334:451   */\ntag_21:\n    /* \"#utility.yul\":443:444   */\n  0x00\n    /* \"#utility.yul\":440:441   */\n  dup1\n    /* \"#utility.yul\":433:445   */\n  revert\n    /* \"#utility.yul\":457:559   */\ntag_22:\n    /* \"#utility.yul\":498:504   */\n  0x00\n    /* \"#utility.yul\":549:551   */\n  0x1f\n    /* \"#utility.yul\":545:552   */\n  not\n    /* \"#utility.yul\":540:542   */\n  0x1f\n    /* \"#utility.yul\":533:538   */\n  dup4\n    /* \"#utility.yul\":529:543   */\n  add\n    /* \"#utility.yul\":525:553   */\n  and\n    /* \"#utility.yul\":515:553   */\n  swap1\n  pop\n    /* \"#utility.yul\":457:559   */\n  swap2\n  swap1\n  pop\n  jump\t// out\n    /* \"#utility.yul\":565:745   */\ntag_23:\n    /* \"#utility.yul\":613:690   */\n  0x4e487b7100000000000000000000000000000000000000000000000000000000\n    /* \"#utility.yul\":610:611   */\n  0x00\n    /* \"#utility.yul\":603:691   */\n  mstore\n    /* \"#utility.yul\":710:714   */\n  0x41\n    /* \"#utility.yul\":707:708   */\n  0x04\n    /* \"#utility.yul\":700:715   */\n  mstore\n    /* \"#utility.yul\":734:738   */\n  0x24\n    /* \"#utility.yul\":731:732   */\n  0x00\n    /* \"#utility.yul\":724:739   */\n  revert\n    /* \"#utility.yul\":751:1032   */\ntag_24:\n    /* \"#utility.yul\":834:861   */\n  tag_44\n    /* \"#utility.yul\":856:860   */\n  dup3\n    /* \"#utility.yul\":834:861   */\n  tag_22\n  jump\t// in\ntag_44:\n    /* \"#utility.yul\":826:832   */\n  dup2\n    /* \"#utility.yul\":822:862   */\n  add\n    /* \"#utility.yul\":964:970   */\n  dup2\n    /* \"#utility.yul\":952:962   */\n  dup2\n    /* \"#utility.yul\":949:971   */\n  lt\n    /* \"#utility.yul\":928:946   */\n  0xffffffffffffffff\n    /* \"#utility.yul\":916:926   */\n  dup3\n    /* \"#utility.yul\":913:947   */\n  gt\n    /* \"#utility.yul\":910:972   */\n  or\n    /* \"#utility.yul\":907:995   */\n  iszero\n  tag_45\n  jumpi\n    /* \"#utility.yul\":975:993   */\n  tag_46\n  tag_23\n  jump\t// in\ntag_46:\n    /* \"#utility.yul\":907:995   */\ntag_45:\n    /* \"#utility.yul\":1015:1025   */\n  dup1\n    /* \"#utility.yul\":1011:1013   */\n  0x40\n    /* \"#utility.yul\":1004:1026   */\n  mstore\n    /* \"#utility.yul\":794:1032   */\n  pop\n    /* \"#utility.yul\":751:1032   */\n  pop\n  pop\n  jump\t// out\n    /* \"#utility.yul\":1038:1167   */\ntag_25:\n    /* \"#utility.yul\":1072:1078   */\n  0x00\n    /* \"#utility.yul\":1099:1119   */\n  tag_48\n  tag_18\n  jump\t// in\ntag_48:\n    /* \"#utility.yul\":1089:1119   */\n  swap1\n  pop\n    /* \"#utility.yul\":1128:1161   */\n  tag_49\n    /* \"#utility.yul\":1156:1160   */\n  dup3\n    /* \"#utility.yul\":1148:1154   */\n  dup3\n    /* \"#utility.yul\":1128:1161   */\n  tag_24\n  jump\t// in\ntag_49:\n    /* \"#utility.yul\":1038:1167   */\n  swap2\n  swap1\n  pop\n  jump\t// out\n    /* \"#utility.yul\":1173:1484   */\ntag_26:\n    /* \"#utility.yul\":1250:1254   */\n  0x00\n    /* \"#utility.yul\":1340:1358   */\n  0xffffffffffffffff\n    /* \"#utility.yul\":1332:1338   */\n  dup3\n    /* \"#utility.yul\":1329:1359   */\n  gt\n    /* \"#utility.yul\":1326:1382   */\n  iszero\n  tag_51\n  jumpi\n    /* \"#utility.yul\":1362:1380   */\n  tag_52\n  tag_23\n  jump\t// in\ntag_52:\n    /* \"#utility.yul\":1326:1382   */\ntag_51:\n    /* \"#utility.yul\":1412:1416   */\n  0x20\n    /* \"#utility.yul\":1404:1410   */\n  dup3\n    /* \"#utility.yul\":1400:1417   */\n  mul\n    /* \"#utility.yul\":1392:1417   */\n  swap1\n  pop\n    /* \"#utility.yul\":1472:1476   */\n  0x20\n    /* \"#utility.yul\":1466:1470   */\n  dup2\n    /* \"#utility.yul\":1462:1477   */\n  add\n    /* \"#utility.yul\":1454:1477   */\n  swap1\n  pop\n    /* \"#utility.yul\":1173:1484   */\n  swap2\n  swap1\n  pop\n  jump\t// out\n    /* \"#utility.yul\":1490:1607   */\ntag_27:\n    /* \"#utility.yul\":1599:1600   */\n  0x00\n    /* \"#utility.yul\":1596:1597   */\n  dup1\n    /* \"#utility.yul\":1589:1601   */\n  revert\n    /* \"#utility.yul\":1613:1739   */\ntag_28:\n    /* \"#utility.yul\":1650:1657   */\n  0x00\n    /* \"#utility.yul\":1690:1732   */\n  0xffffffffffffffffffffffffffffffffffffffff\n    /* \"#utility.yul\":1683:1688   */\n  dup3\n    /* \"#utility.yul\":1679:1733   */\n  and\n    /* \"#utility.yul\":1668:1733   */\n  swap1\n  pop\n    /* \"#utility.yul\":1613:1739   */\n  swap2\n  swap1\n  pop\n  jump\t// out\n    /* \"#utility.yul\":1745:1841   */\ntag_29:\n    /* \"#utility.yul\":1782:1789   */\n  0x00\n    /* \"#utility.yul\":1811:1835   */\n  tag_56\n    /* \"#utility.yul\":1829:1834   */\n  dup3\n    /* \"#utility.yul\":1811:1835   */\n  tag_28\n  jump\t// in\ntag_56:\n    /* \"#utility.yul\":1800:1835   */\n  swap1\n  pop\n    /* \"#utility.yul\":1745:1841   */\n  swap2\n  swap1\n  pop\n  jump\t// out\n    /* \"#utility.yul\":1847:1969   */\ntag_30:\n    /* \"#utility.yul\":1920:1944   */\n  tag_58\n    /* \"#utility.yul\":1938:1943   */\n  dup2\n    /* \"#utility.yul\":1920:1944   */\n  tag_29\n  jump\t// in\ntag_58:\n    /* \"#utility.yul\":1913:1918   */\n  dup2\n    /* \"#utility.yul\":1910:1945   */\n  eq\n    /* \"#utility.yul\":1900:1963   */\n  tag_59\n  jumpi\n    /* \"#utility.yul\":1959:1960   */\n  0x00\n    /* \"#utility.yul\":1956:1957   */\n  dup1\n    /* \"#utility.yul\":1949:1961   */\n  revert\n    /* \"#utility.yul\":1900:1963   */\ntag_59:\n    /* \"#utility.yul\":1847:1969   */\n  pop\n  jump\t// out\n    /* \"#utility.yul\":1975:2118   */\ntag_31:\n    /* \"#utility.yul\":2032:2037   */\n  0x00\n    /* \"#utility.yul\":2063:2069   */\n  dup2\n    /* \"#utility.yul\":2057:2070   */\n  mload\n    /* \"#utility.yul\":2048:2070   */\n  swap1\n  pop\n    /* \"#utility.yul\":2079:2112   */\n  tag_61\n    /* \"#utility.yul\":2106:2111   */\n  dup2\n    /* \"#utility.yul\":2079:2112   */\n  tag_30\n  jump\t// in\ntag_61:\n    /* \"#utility.yul\":1975:2118   */\n  swap3\n  swap2\n  pop\n  pop\n  jump\t// out\n    /* \"#utility.yul\":2141:2873   */\ntag_32:\n    /* \"#utility.yul\":2248:2253   */\n  0x00\n    /* \"#utility.yul\":2273:2354   */\n  tag_63\n    /* \"#utility.yul\":2289:2353   */\n  tag_64\n    /* \"#utility.yul\":2346:2352   */\n  dup5\n    /* \"#utility.yul\":2289:2353   */\n  tag_26\n  jump\t// in\ntag_64:\n    /* \"#utility.yul\":2273:2354   */\n  tag_25\n  jump\t// in\ntag_63:\n    /* \"#utility.yul\":2264:2354   */\n  swap1\n  pop\n    /* \"#utility.yul\":2374:2379   */\n  dup1\n    /* \"#utility.yul\":2403:2409   */\n  dup4\n    /* \"#utility.yul\":2396:2401   */\n  dup3\n    /* \"#utility.yul\":2389:2410   */\n  mstore\n    /* \"#utility.yul\":2437:2441   */\n  0x20\n    /* \"#utility.yul\":2430:2435   */\n  dup3\n    /* \"#utility.yul\":2426:2442   */\n  add\n    /* \"#utility.yul\":2419:2442   */\n  swap1\n  pop\n    /* \"#utility.yul\":2490:2494   */\n  0x20\n    /* \"#utility.yul\":2482:2488   */\n  dup5\n    /* \"#utility.yul\":2478:2495   */\n  mul\n    /* \"#utility.yul\":2470:2476   */\n  dup4\n    /* \"#utility.yul\":2466:2496   */\n  add\n    /* \"#utility.yul\":2519:2522   */\n  dup6\n    /* \"#utility.yul\":2511:2517   */\n  dup2\n    /* \"#utility.yul\":2508:2523   */\n  gt\n    /* \"#utility.yul\":2505:2627   */\n  iszero\n  tag_65\n  jumpi\n    /* \"#utility.yul\":2538:2617   */\n  tag_66\n  tag_27\n  jump\t// in\ntag_66:\n    /* \"#utility.yul\":2505:2627   */\ntag_65:\n    /* \"#utility.yul\":2653:2659   */\n  dup4\n    /* \"#utility.yul\":2636:2867   */\ntag_67:\n    /* \"#utility.yul\":2670:2676   */\n  dup2\n    /* \"#utility.yul\":2665:2668   */\n  dup2\n    /* \"#utility.yul\":2662:2677   */\n  lt\n    /* \"#utility.yul\":2636:2867   */\n  iszero\n  tag_69\n  jumpi\n    /* \"#utility.yul\":2745:2748   */\n  dup1\n    /* \"#utility.yul\":2774:2822   */\n  tag_70\n    /* \"#utility.yul\":2818:2821   */\n  dup9\n    /* \"#utility.yul\":2806:2816   */\n  dup3\n    /* \"#utility.yul\":2774:2822   */\n  tag_31\n  jump\t// in\ntag_70:\n    /* \"#utility.yul\":2769:2772   */\n  dup5\n    /* \"#utility.yul\":2762:2823   */\n  mstore\n    /* \"#utility.yul\":2852:2856   */\n  0x20\n    /* \"#utility.yul\":2847:2850   */\n  dup5\n    /* \"#utility.yul\":2843:2857   */\n  add\n    /* \"#utility.yul\":2836:2857   */\n  swap4\n  pop\n    /* \"#utility.yul\":2712:2867   */\n  pop\n    /* \"#utility.yul\":2696:2700   */\n  0x20\n    /* \"#utility.yul\":2691:2694   */\n  dup2\n    /* \"#utility.yul\":2687:2701   */\n  add\n    /* \"#utility.yul\":2680:2701   */\n  swap1\n  pop\n    /* \"#utility.yul\":2636:2867   */\n  jump(tag_67)\ntag_69:\n    /* \"#utility.yul\":2640:2661   */\n  pop\n    /* \"#utility.yul\":2254:2873   */\n  pop\n  pop\n    /* \"#utility.yul\":2141:2873   */\n  swap4\n  swap3\n  pop\n  pop\n  pop\n  jump\t// out\n    /* \"#utility.yul\":2896:3281   */\ntag_33:\n    /* \"#utility.yul\":2978:2983   */\n  0x00\n    /* \"#utility.yul\":3027:3030   */\n  dup3\n    /* \"#utility.yul\":3020:3024   */\n  0x1f\n    /* \"#utility.yul\":3012:3018   */\n  dup4\n    /* \"#utility.yul\":3008:3025   */\n  add\n    /* \"#utility.yul\":3004:3031   */\n  slt\n    /* \"#utility.yul\":2994:3116   */\n  tag_72\n  jumpi\n    /* \"#utility.yul\":3035:3114   */\n  tag_73\n  tag_21\n  jump\t// in\ntag_73:\n    /* \"#utility.yul\":2994:3116   */\ntag_72:\n    /* \"#utility.yul\":3145:3151   */\n  dup2\n    /* \"#utility.yul\":3139:3152   */\n  mload\n    /* \"#utility.yul\":3170:3275   */\n  tag_74\n    /* \"#utility.yul\":3271:3274   */\n  dup5\n    /* \"#utility.yul\":3263:3269   */\n  dup3\n    /* \"#utility.yul\":3256:3260   */\n  0x20\n    /* \"#utility.yul\":3248:3254   */\n  dup7\n    /* \"#utility.yul\":3244:3261   */\n  add\n    /* \"#utility.yul\":3170:3275   */\n  tag_32\n  jump\t// in\ntag_74:\n    /* \"#utility.yul\":3161:3275   */\n  swap2\n  pop\n    /* \"#utility.yul\":2984:3281   */\n  pop\n    /* \"#utility.yul\":2896:3281   */\n  swap3\n  swap2\n  pop\n  pop\n  jump\t// out\n    /* \"#utility.yul\":3287:3841   */\ntag_3:\n    /* \"#utility.yul\":3382:3388   */\n  0x00\n    /* \"#utility.yul\":3431:3433   */\n  0x20\n    /* \"#utility.yul\":3419:3428   */\n  dup3\n    /* \"#utility.yul\":3410:3417   */\n  dup5\n    /* \"#utility.yul\":3406:3429   */\n  sub\n    /* \"#utility.yul\":3402:3434   */\n  slt\n    /* \"#utility.yul\":3399:3518   */\n  iszero\n  tag_76\n  jumpi\n    /* \"#utility.yul\":3437:3516   */\n  tag_77\n  tag_19\n  jump\t// in\ntag_77:\n    /* \"#utility.yul\":3399:3518   */\ntag_76:\n    /* \"#utility.yul\":3578:3579   */\n  0x00\n    /* \"#utility.yul\":3567:3576   */\n  dup3\n    /* \"#utility.yul\":3563:3580   */\n  add\n    /* \"#utility.yul\":3557:3581   */\n  mload\n    /* \"#utility.yul\":3608:3626   */\n  0xffffffffffffffff\n    /* \"#utility.yul\":3600:3606   */\n  dup2\n    /* \"#utility.yul\":3597:3627   */\n  gt\n    /* \"#utility.yul\":3594:3711   */\n  iszero\n  tag_78\n  jumpi\n    /* \"#utility.yul\":3630:3709   */\n  tag_79\n  tag_20\n  jump\t// in\ntag_79:\n    /* \"#utility.yul\":3594:3711   */\ntag_78:\n    /* \"#utility.yul\":3735:3824   */\n  tag_80\n    /* \"#utility.yul\":3816:3823   */\n  dup5\n    /* \"#utility.yul\":3807:3813   */\n  dup3\n    /* \"#utility.yul\":3796:3805   */\n  dup6\n    /* \"#utility.yul\":3792:3814   */\n  add\n    /* \"#utility.yul\":3735:3824   */\n  tag_33\n  jump\t// in\ntag_80:\n    /* \"#utility.yul\":3725:3824   */\n  swap2\n  pop\n    /* \"#utility.yul\":3528:3834   */\n  pop\n    /* \"#utility.yul\":3287:3841   */\n  swap3\n  swap2\n  pop\n  pop\n  jump\t// out\n    /* \"#utility.yul\":3847:4027   */\ntag_11:\n    /* \"#utility.yul\":3895:3972   */\n  0x4e487b7100000000000000000000000000000000000000000000000000000000\n    /* \"#utility.yul\":3892:3893   */\n  0x00\n    /* \"#utility.yul\":3885:3973   */\n  mstore\n    /* \"#utility.yul\":3992:3996   */\n  0x32\n    /* \"#utility.yul\":3989:3990   */\n  0x04\n    /* \"#utility.yul\":3982:3997   */\n  mstore\n    /* \"#utility.yul\":4016:4020   */\n  0x24\n    /* \"#utility.yul\":4013:4014   */\n  0x00\n    /* \"#utility.yul\":4006:4021   */\n  revert\n    /* \"#utility.yul\":4033:4110   */\ntag_34:\n    /* \"#utility.yul\":4070:4077   */\n  0x00\n    /* \"#utility.yul\":4099:4104   */\n  dup2\n    /* \"#utility.yul\":4088:4104   */\n  swap1\n  pop\n    /* \"#utility.yul\":4033:4110   */\n  swap2\n  swap1\n  pop\n  jump\t// out\n    /* \"#utility.yul\":4116:4296   */\ntag_35:\n    /* \"#utility.yul\":4164:4241   */\n  0x4e487b7100000000000000000000000000000000000000000000000000000000\n    /* \"#utility.yul\":4161:4162   */\n  0x00\n    /* \"#utility.yul\":4154:4242   */\n  mstore\n    /* \"#utility.yul\":4261:4265   */\n  0x11\n    /* \"#utility.yul\":4258:4259   */\n  0x04\n    /* \"#utility.yul\":4251:4266   */\n  mstore\n    /* \"#utility.yul\":4285:4289   */\n  0x24\n    /* \"#utility.yul\":4282:4283   */\n  0x00\n    /* \"#utility.yul\":4275:4290   */\n  revert\n    /* \"#utility.yul\":4302:4493   */\ntag_14:\n    /* \"#utility.yul\":4342:4345   */\n  0x00\n    /* \"#utility.yul\":4361:4381   */\n  tag_85\n    /* \"#utility.yul\":4379:4380   */\n  dup3\n    /* \"#utility.yul\":4361:4381   */\n  tag_34\n  jump\t// in\ntag_85:\n    /* \"#utility.yul\":4356:4381   */\n  swap2\n  pop\n    /* \"#utility.yul\":4395:4415   */\n  tag_86\n    /* \"#utility.yul\":4413:4414   */\n  dup4\n    /* \"#utility.yul\":4395:4415   */\n  tag_34\n  jump\t// in\ntag_86:\n    /* \"#utility.yul\":4390:4415   */\n  swap3\n  pop\n    /* \"#utility.yul\":4438:4439   */\n  dup3\n    /* \"#utility.yul\":4435:4436   */\n  dup3\n    /* \"#utility.yul\":4431:4440   */\n  add\n    /* \"#utility.yul\":4424:4440   */\n  swap1\n  pop\n    /* \"#utility.yul\":4459:4462   */\n  dup1\n    /* \"#utility.yul\":4456:4457   */\n  dup3\n    /* \"#utility.yul\":4453:4463   */\n  gt\n    /* \"#utility.yul\":4450:4486   */\n  iszero\n  tag_87\n  jumpi\n    /* \"#utility.yul\":4466:4484   */\n  tag_88\n  tag_35\n  jump\t// in\ntag_88:\n    /* \"#utility.yul\":4450:4486   */\ntag_87:\n    /* \"#utility.yul\":4302:4493   */\n  swap3\n  swap2\n  pop\n  pop\n  jump\t// out\n    /* \"contract/voting.sol\":102:9841  contract Election {... */\ntag_17:\n  dataSize(sub_0)\n  dup1\n  dataOffset(sub_0)\n  0x00\n  codecopy\n  0x00\n  return\nstop\n\nsub_0: assembly {\n        /* \"contract/voting.sol\":102:9841  contract Election {... */\n      mstore(0x40, 0x80)\n      callvalue\n      dup1\n      iszero\n      tag_1\n      jumpi\n      0x00\n      dup1\n      revert\n    tag_1:\n      pop\n      jumpi(tag_2, lt(calldatasize, 0x04))\n      shr(0xe0, calldataload(0x00))\n      dup1\n      0x59f78468\n      gt\n      tag_17\n      jumpi\n      dup1\n      0xbddf1ce9\n      gt\n      tag_18\n      jumpi\n      dup1\n      0xbddf1ce9\n      eq\n      tag_13\n      jumpi\n      dup1\n      0xd4133741\n      eq\n      tag_14\n      jumpi\n      dup1\n      0xf31ffe1e\n      eq\n      tag_15\n      jumpi\n      dup1\n      0xf927cc29\n      eq\n      tag_16\n      jumpi\n      jump(tag_2)\n    tag_18:\n      dup1\n      0x59f78468\n      eq\n      tag_10\n      jumpi\n      dup1\n      0x721f720c\n      eq\n      tag_11\n      jumpi\n      dup1\n      0x88c30cf2\n      eq\n      tag_12\n      jumpi\n      jump(tag_2)\n    tag_17:\n      dup1\n      0x1e974c69\n      gt\n      tag_19\n      jumpi\n      dup1\n      0x1e974c69\n      eq\n      tag_6\n      jumpi\n      dup1\n      0x26bb886d\n      eq\n      tag_7\n      jumpi\n      dup1\n      0x35b8e820\n      eq\n      tag_8\n      jumpi\n      dup1\n      0x3d946c53\n      eq\n      tag_9\n      jumpi\n      jump(tag_2)\n    tag_19:\n      dup1\n      0x0c1aebf8\n      eq\n      tag_3\n      jumpi\n      dup1\n      0x1169481a\n      eq\n      tag_4\n      jumpi\n      dup1\n      0x13852ab7\n      eq\n      tag_5\n      jumpi\n    tag_2:\n      0x00\n      dup1\n      revert\n        /* \"contract/voting.sol\":8287:9012  function voterDelegate(address _nonvoter) external {... */\n    tag_3:\n      tag_20\n      0x04\n      dup1\n      calldatasize\n      sub\n      dup2\n      add\n      swap1\n      tag_21\n      swap2\n      swap1\n      tag_22\n      jump\t// in\n    tag_21:\n      tag_23\n      jump\t// in\n    tag_20:\n      stop\n        /* \"contract/voting.sol\":9018:9839  function voteAsDelegate(address _candidate) external {... */\n    tag_4:\n      tag_24\n      0x04\n      dup1\n      calldatasize\n      sub\n      dup2\n      add\n      swap1\n      tag_25\n      swap2\n      swap1\n      tag_22\n      jump\t// in\n    tag_25:\n      tag_26\n      jump\t// in\n    tag_24:\n      stop\n        /* \"contract/voting.sol\":5763:6039  function realTimeVote() public view returns (uint[] memory _vote) {... */\n    tag_5:\n      tag_27\n      tag_28\n      jump\t// in\n    tag_27:\n      mload(0x40)\n      tag_29\n      swap2\n      swap1\n      tag_30\n      jump\t// in\n    tag_29:\n      mload(0x40)\n      dup1\n      swap2\n      sub\n      swap1\n      return\n        /* \"contract/voting.sol\":7940:8281  function eligibleVoters() public view returns (address[] memory _addresses) {... */\n    tag_6:\n      tag_31\n      tag_32\n      jump\t// in\n    tag_31:\n      mload(0x40)\n      tag_33\n      swap2\n      swap1\n      tag_34\n      jump\t// in\n    tag_33:\n      mload(0x40)\n      dup1\n      swap2\n      sub\n      swap1\n      return\n        /* \"contract/voting.sol\":2155:2897  function voteCandidate(address _candidate) external {... */\n    tag_7:\n      tag_35\n      0x04\n      dup1\n      calldatasize\n      sub\n      dup2\n      add\n      swap1\n      tag_36\n      swap2\n      swap1\n      tag_22\n      jump\t// in\n    tag_36:\n      tag_37\n      jump\t// in\n    tag_35:\n      stop\n        /* \"contract/voting.sol\":3164:3436  function getCandidate(uint _candidateId) public view returns (address) {... */\n    tag_8:\n      tag_38\n      0x04\n      dup1\n      calldatasize\n      sub\n      dup2\n      add\n      swap1\n      tag_39\n      swap2\n      swap1\n      tag_40\n      jump\t// in\n    tag_39:\n      tag_41\n      jump\t// in\n    tag_38:\n      mload(0x40)\n      tag_42\n      swap2\n      swap1\n      tag_43\n      jump\t// in\n    tag_42:\n      mload(0x40)\n      dup1\n      swap2\n      sub\n      swap1\n      return\n        /* \"contract/voting.sol\":4585:5361  function restartElection() external {... */\n    tag_9:\n      tag_44\n      tag_45\n      jump\t// in\n    tag_44:\n      stop\n        /* \"contract/voting.sol\":3442:4579  function endElection() external {... */\n    tag_10:\n      tag_46\n      tag_47\n      jump\t// in\n    tag_46:\n      stop\n        /* \"contract/voting.sol\":2903:3158  function electionCandidates() public view returns (address[] memory _addresses) {... */\n    tag_11:\n      tag_48\n      tag_49\n      jump\t// in\n    tag_48:\n      mload(0x40)\n      tag_50\n      swap2\n      swap1\n      tag_34\n      jump\t// in\n    tag_50:\n      mload(0x40)\n      dup1\n      swap2\n      sub\n      swap1\n      return\n        /* \"contract/voting.sol\":6045:6939  function voteChange(address _candidate) external {... */\n    tag_12:\n      tag_51\n      0x04\n      dup1\n      calldatasize\n      sub\n      dup2\n      add\n      swap1\n      tag_52\n      swap2\n      swap1\n      tag_22\n      jump\t// in\n    tag_52:\n      tag_53\n      jump\t// in\n    tag_51:\n      stop\n        /* \"contract/voting.sol\":1189:2149  function whitelistVoter(address _voter) external {... */\n    tag_13:\n      tag_54\n      0x04\n      dup1\n      calldatasize\n      sub\n      dup2\n      add\n      swap1\n      tag_55\n      swap2\n      swap1\n      tag_22\n      jump\t// in\n    tag_55:\n      tag_56\n      jump\t// in\n    tag_54:\n      stop\n        /* \"contract/voting.sol\":7599:7934  function votedVoters() public view returns (address[] memory _addresses) {... */\n    tag_14:\n      tag_57\n      tag_58\n      jump\t// in\n    tag_57:\n      mload(0x40)\n      tag_59\n      swap2\n      swap1\n      tag_34\n      jump\t// in\n    tag_59:\n      mload(0x40)\n      dup1\n      swap2\n      sub\n      swap1\n      return\n        /* \"contract/voting.sol\":6946:7593  function voteRevoke() external {... */\n    tag_15:\n      tag_60\n      tag_61\n      jump\t// in\n    tag_60:\n      stop\n        /* \"contract/voting.sol\":5367:5757  function getWinningCandidate() public view returns (address) {... */\n    tag_16:\n      tag_62\n      tag_63\n      jump\t// in\n    tag_62:\n      mload(0x40)\n      tag_64\n      swap2\n      swap1\n      tag_43\n      jump\t// in\n    tag_64:\n      mload(0x40)\n      dup1\n      swap2\n      sub\n      swap1\n      return\n        /* \"contract/voting.sol\":8287:9012  function voterDelegate(address _nonvoter) external {... */\n    tag_23:\n        /* \"contract/voting.sol\":8357:8365  finished */\n      0x06\n      0x00\n      swap1\n      sload\n      swap1\n      0x0100\n      exp\n      swap1\n      div\n      0xff\n      and\n        /* \"contract/voting.sol\":8356:8365  !finished */\n      iszero\n        /* \"contract/voting.sol\":8348:8399  require(!finished, \"Election has already finished\") */\n      tag_66\n      jumpi\n      mload(0x40)\n      0x08c379a000000000000000000000000000000000000000000000000000000000\n      dup2\n      mstore\n      0x04\n      add\n      tag_67\n      swap1\n      tag_68\n      jump\t// in\n    tag_67:\n      mload(0x40)\n      dup1\n      swap2\n      sub\n      swap1\n      revert\n    tag_66:\n        /* \"contract/voting.sol\":8444:8445  0 */\n      0x00\n        /* \"contract/voting.sol\":8417:8428  candidateId */\n      0x02\n        /* \"contract/voting.sol\":8417:8440  candidateId[msg.sender] */\n      0x00\n        /* \"contract/voting.sol\":8429:8439  msg.sender */\n      caller\n        /* \"contract/voting.sol\":8417:8440  candidateId[msg.sender] */\n      0xffffffffffffffffffffffffffffffffffffffff\n      and\n      0xffffffffffffffffffffffffffffffffffffffff\n      and\n      dup2\n      mstore\n      0x20\n      add\n      swap1\n      dup2\n      mstore\n      0x20\n      add\n      0x00\n      keccak256\n      sload\n        /* \"contract/voting.sol\":8417:8445  candidateId[msg.sender] == 0 */\n      eq\n        /* \"contract/voting.sol\":8409:8475  require(candidateId[msg.sender] == 0, \"Only voters can cast vote\") */\n      tag_69\n      jumpi\n      mload(0x40)\n      0x08c379a000000000000000000000000000000000000000000000000000000000\n      dup2\n      mstore\n      0x04\n      add\n      tag_70\n      swap1\n      tag_71\n      jump\t// in\n    tag_70:\n      mload(0x40)\n      dup1\n      swap2\n      sub\n      swap1\n      revert\n    tag_69:\n        /* \"contract/voting.sol\":8515:8516  0 */\n      0x00\n        /* \"contract/voting.sol\":8493:8500  voterId */\n      0x03\n        /* \"contract/voting.sol\":8493:8512  voterId[msg.sender] */\n      0x00\n        /* \"contract/voting.sol\":8501:8511  msg.sender */\n      caller\n        /* \"contract/voting.sol\":8493:8512  voterId[msg.sender] */\n      0xffffffffffffffffffffffffffffffffffffffff\n      and\n      0xffffffffffffffffffffffffffffffffffffffff\n      and\n      dup2\n      mstore\n      0x20\n      add\n      swap1\n      dup2\n      mstore\n      0x20\n      add\n      0x00\n      keccak256\n      sload\n        /* \"contract/voting.sol\":8493:8516  voterId[msg.sender] > 0 */\n      gt\n        /* \"contract/voting.sol\":8485:8555  require(voterId[msg.sender] > 0, \"Voter is not added in the election\") */\n      tag_72\n      jumpi\n      mload(0x40)\n      0x08c379a000000000000000000000000000000000000000000000000000000000\n      dup2\n      mstore\n      0x04\n      add\n      tag_73\n      swap1\n      tag_74\n      jump\t// in\n    tag_73:\n      mload(0x40)\n      dup1\n      swap2\n      sub\n      swap1\n      revert\n    tag_72:\n        /* \"contract/voting.sol\":8595:8596  0 */\n      0x00\n        /* \"contract/voting.sol\":8573:8580  voterId */\n      0x03\n        /* \"contract/voting.sol\":8573:8591  voterId[_nonvoter] */\n      0x00\n        /* \"contract/voting.sol\":8581:8590  _nonvoter */\n      dup4\n        /* \"contract/voting.sol\":8573:8591  voterId[_nonvoter] */\n      0xffffffffffffffffffffffffffffffffffffffff\n      and\n      0xffffffffffffffffffffffffffffffffffffffff\n      and\n      dup2\n      mstore\n      0x20\n      add\n      swap1\n      dup2\n      mstore\n      0x20\n      add\n      0x00\n      keccak256\n      sload\n        /* \"contract/voting.sol\":8573:8596  voterId[_nonvoter] == 0 */\n      eq\n        /* \"contract/voting.sol\":8565:8641  require(voterId[_nonvoter] == 0, \"Voter cannot be delegated by other voter\") */\n      tag_75\n      jumpi\n      mload(0x40)\n      0x08c379a000000000000000000000000000000000000000000000000000000000\n      dup2\n      mstore\n      0x04\n      add\n      tag_76\n      swap1\n      tag_77\n      jump\t// in\n    tag_76:\n      mload(0x40)\n      dup1\n      swap2\n      sub\n      swap1\n      revert\n    tag_75:\n        /* \"contract/voting.sol\":8685:8686  0 */\n      0x00\n        /* \"contract/voting.sol\":8659:8670  candidateId */\n      0x02\n        /* \"contract/voting.sol\":8659:8681  candidateId[_nonvoter] */\n      0x00\n        /* \"contract/voting.sol\":8671:8680  _nonvoter */\n      dup4\n        /* \"contract/voting.sol\":8659:8681  candidateId[_nonvoter] */\n      0xffffffffffffffffffffffffffffffffffffffff\n      and\n      0xffffffffffffffffffffffffffffffffffffffff\n      and\n      dup2\n      mstore\n      0x20\n      add\n      swap1\n      dup2\n      mstore\n      0x20\n      add\n      0x00\n      keccak256\n      sload\n        /* \"contract/voting.sol\":8659:8686  candidateId[_nonvoter] == 0 */\n      eq\n        /* \"contract/voting.sol\":8651:8712  require(candidateId[_nonvoter] == 0, \"Candidate cannot vote\") */\n      tag_78\n      jumpi\n      mload(0x40)\n      0x08c379a000000000000000000000000000000000000000000000000000000000\n      dup2\n      mstore\n      0x04\n      add\n      tag_79\n      swap1\n      tag_80\n      jump\t// in\n    tag_79:\n      mload(0x40)\n      dup1\n      swap2\n      sub\n      swap1\n      revert\n    tag_78:\n        /* \"contract/voting.sol\":8722:8741  Voter storage voter */\n      0x00\n        /* \"contract/voting.sol\":8744:8750  voters */\n      0x08\n        /* \"contract/voting.sol\":8773:8774  1 */\n      0x01\n        /* \"contract/voting.sol\":8751:8758  voterId */\n      0x03\n        /* \"contract/voting.sol\":8751:8770  voterId[msg.sender] */\n      0x00\n        /* \"contract/voting.sol\":8759:8769  msg.sender */\n      caller\n        /* \"contract/voting.sol\":8751:8770  voterId[msg.sender] */\n      0xffffffffffffffffffffffffffffffffffffffff\n      and\n      0xffffffffffffffffffffffffffffffffffffffff\n      and\n      dup2\n      mstore\n      0x20\n      add\n      swap1\n      dup2\n      mstore\n      0x20\n      add\n      0x00\n      keccak256\n      sload\n        /* \"contract/voting.sol\":8751:8774  voterId[msg.sender] - 1 */\n      tag_81\n      swap2\n      swap1\n      tag_82\n      jump\t// in\n    tag_81:\n        /* \"contract/voting.sol\":8744:8775  voters[voterId[msg.sender] - 1] */\n      dup2\n      sload\n      dup2\n      lt\n      tag_83\n      jumpi\n      tag_84\n      tag_85\n      jump\t// in\n    tag_84:\n    tag_83:\n      swap1\n      0x00\n      mstore\n      keccak256(0x00, 0x20)\n      swap1\n      0x04\n      mul\n      add\n        /* \"contract/voting.sol\":8722:8775  Voter storage voter = voters[voterId[msg.sender] - 1] */\n      swap1\n      pop\n        /* \"contract/voting.sol\":8793:8798  voter */\n      dup1\n        /* \"contract/voting.sol\":8793:8807  voter.eligible */\n      0x00\n      add\n      0x14\n      swap1\n      sload\n      swap1\n      0x0100\n      exp\n      swap1\n      div\n      0xff\n      and\n        /* \"contract/voting.sol\":8785:8850  require(voter.eligible, \"Voter is not yet eligible to cast vote\") */\n      tag_87\n      jumpi\n      mload(0x40)\n      0x08c379a000000000000000000000000000000000000000000000000000000000\n      dup2\n      mstore\n      0x04\n      add\n      tag_88\n      swap1\n      tag_89\n      jump\t// in\n    tag_88:\n      mload(0x40)\n      dup1\n      swap2\n      sub\n      swap1\n      revert\n    tag_87:\n        /* \"contract/voting.sol\":8869:8874  voter */\n      dup1\n        /* \"contract/voting.sol\":8869:8880  voter.voted */\n      0x00\n      add\n      0x15\n      swap1\n      sload\n      swap1\n      0x0100\n      exp\n      swap1\n      div\n      0xff\n      and\n        /* \"contract/voting.sol\":8868:8880  !voter.voted */\n      iszero\n        /* \"contract/voting.sol\":8860:8920  require(!voter.voted, \"Voter has already cast its vote yet\") */\n      tag_90\n      jumpi\n      mload(0x40)\n      0x08c379a000000000000000000000000000000000000000000000000000000000\n      dup2\n      mstore\n      0x04\n      add\n      tag_91\n      swap1\n      tag_92\n      jump\t// in\n    tag_91:\n      mload(0x40)\n      dup1\n      swap2\n      sub\n      swap1\n      revert\n    tag_90:\n        /* \"contract/voting.sol\":8948:8952  true */\n      0x01\n        /* \"contract/voting.sol\":8930:8935  voter */\n      dup2\n        /* \"contract/voting.sol\":8930:8945  voter.delegated */\n      0x00\n      add\n      0x16\n        /* \"contract/voting.sol\":8930:8952  voter.delegated = true */\n      0x0100\n      exp\n      dup2\n      sload\n      dup2\n      0xff\n      mul\n      not\n      and\n      swap1\n      dup4\n      iszero\n      iszero\n      mul\n      or\n      swap1\n      sstore\n      pop\n        /* \"contract/voting.sol\":8986:8993  voterId */\n      0x03\n        /* \"contract/voting.sol\":8986:9005  voterId[msg.sender] */\n      0x00\n        /* \"contract/voting.sol\":8994:9004  msg.sender */\n      caller\n        /* \"contract/voting.sol\":8986:9005  voterId[msg.sender] */\n      0xffffffffffffffffffffffffffffffffffffffff\n      and\n      0xffffffffffffffffffffffffffffffffffffffff\n      and\n      dup2\n      mstore\n      0x20\n      add\n      swap1\n      dup2\n      mstore\n      0x20\n      add\n      0x00\n      keccak256\n      sload\n        /* \"contract/voting.sol\":8962:8972  delegateId */\n      0x04\n        /* \"contract/voting.sol\":8962:8983  delegateId[_nonvoter] */\n      0x00\n        /* \"contract/voting.sol\":8973:8982  _nonvoter */\n      dup5\n        /* \"contract/voting.sol\":8962:8983  delegateId[_nonvoter] */\n      0xffffffffffffffffffffffffffffffffffffffff\n      and\n      0xffffffffffffffffffffffffffffffffffffffff\n      and\n      dup2\n      mstore\n      0x20\n      add\n      swap1\n      dup2\n      mstore\n      0x20\n      add\n      0x00\n      keccak256\n        /* \"contract/voting.sol\":8962:9005  delegateId[_nonvoter] = voterId[msg.sender] */\n      dup2\n      swap1\n      sstore\n      pop\n        /* \"contract/voting.sol\":8338:9012  {... */\n      pop\n        /* \"contract/voting.sol\":8287:9012  function voterDelegate(address _nonvoter) external {... */\n      pop\n      jump\t// out\n        /* \"contract/voting.sol\":9018:9839  function voteAsDelegate(address _candidate) external {... */\n    tag_26:\n        /* \"contract/voting.sol\":9090:9098  finished */\n      0x06\n      0x00\n      swap1\n      sload\n      swap1\n      0x0100\n      exp\n      swap1\n      div\n      0xff\n      and\n        /* \"contract/voting.sol\":9089:9098  !finished */\n      iszero\n        /* \"contract/voting.sol\":9081:9132  require(!finished, \"Election has already finished\") */\n      tag_94\n      jumpi\n      mload(0x40)\n      0x08c379a000000000000000000000000000000000000000000000000000000000\n      dup2\n      mstore\n      0x04\n      add\n      tag_95\n      swap1\n      tag_68\n      jump\t// in\n    tag_95:\n      mload(0x40)\n      dup1\n      swap2\n      sub\n      swap1\n      revert\n    tag_94:\n        /* \"contract/voting.sol\":9176:9177  0 */\n      0x00\n        /* \"contract/voting.sol\":9150:9161  candidateId */\n      0x02\n        /* \"contract/voting.sol\":9150:9173  candidateId[_candidate] */\n      0x00\n        /* \"contract/voting.sol\":9162:9172  _candidate */\n      dup4\n        /* \"contract/voting.sol\":9150:9173  candidateId[_candidate] */\n      0xffffffffffffffffffffffffffffffffffffffff\n      and\n      0xffffffffffffffffffffffffffffffffffffffff\n      and\n      dup2\n      mstore\n      0x20\n      add\n      swap1\n      dup2\n      mstore\n      0x20\n      add\n      0x00\n      keccak256\n      sload\n        /* \"contract/voting.sol\":9150:9177  candidateId[_candidate] > 0 */\n      gt\n        /* \"contract/voting.sol\":9142:9204  require(candidateId[_candidate] > 0, \"Candidate do not exist\") */\n      tag_96\n      jumpi\n      mload(0x40)\n      0x08c379a000000000000000000000000000000000000000000000000000000000\n      dup2\n      mstore\n      0x04\n      add\n      tag_97\n      swap1\n      tag_98\n      jump\t// in\n    tag_97:\n      mload(0x40)\n      dup1\n      swap2\n      sub\n      swap1\n      revert\n    tag_96:\n        /* \"contract/voting.sol\":9249:9250  0 */\n      0x00\n        /* \"contract/voting.sol\":9222:9233  candidateId */\n      0x02\n        /* \"contract/voting.sol\":9222:9245  candidateId[msg.sender] */\n      0x00\n        /* \"contract/voting.sol\":9234:9244  msg.sender */\n      caller\n        /* \"contract/voting.sol\":9222:9245  candidateId[msg.sender] */\n      0xffffffffffffffffffffffffffffffffffffffff\n      and\n      0xffffffffffffffffffffffffffffffffffffffff\n      and\n      dup2\n      mstore\n      0x20\n      add\n      swap1\n      dup2\n      mstore\n      0x20\n      add\n      0x00\n      keccak256\n      sload\n        /* \"contract/voting.sol\":9222:9250  candidateId[msg.sender] == 0 */\n      eq\n        /* \"contract/voting.sol\":9214:9280  require(candidateId[msg.sender] == 0, \"Only voters can cast vote\") */\n      tag_99\n      jumpi\n      mload(0x40)\n      0x08c379a000000000000000000000000000000000000000000000000000000000\n      dup2\n      mstore\n      0x04\n      add\n      tag_100\n      swap1\n      tag_71\n      jump\t// in\n    tag_100:\n      mload(0x40)\n      dup1\n      swap2\n      sub\n      swap1\n      revert\n    tag_99:\n        /* \"contract/voting.sol\":9323:9324  0 */\n      0x00\n        /* \"contract/voting.sol\":9298:9308  delegateId */\n      0x04\n        /* \"contract/voting.sol\":9298:9320  delegateId[msg.sender] */\n      0x00\n        /* \"contract/voting.sol\":9309:9319  msg.sender */\n      caller\n        /* \"contract/voting.sol\":9298:9320  delegateId[msg.sender] */\n      0xffffffffffffffffffffffffffffffffffffffff\n      and\n      0xffffffffffffffffffffffffffffffffffffffff\n      and\n      dup2\n      mstore\n      0x20\n      add\n      swap1\n      dup2\n      mstore\n      0x20\n      add\n      0x00\n      keccak256\n      sload\n        /* \"contract/voting.sol\":9298:9324  delegateId[msg.sender] > 0 */\n      gt\n        /* \"contract/voting.sol\":9290:9361  require(delegateId[msg.sender] > 0, \"No right to vote in the election\") */\n      tag_101\n      jumpi\n      mload(0x40)\n      0x08c379a000000000000000000000000000000000000000000000000000000000\n      dup2\n      mstore\n      0x04\n      add\n      tag_102\n      swap1\n      tag_103\n      jump\t// in\n    tag_102:\n      mload(0x40)\n      dup1\n      swap2\n      sub\n      swap1\n      revert\n    tag_101:\n        /* \"contract/voting.sol\":9371:9390  Voter storage voter */\n      0x00\n        /* \"contract/voting.sol\":9393:9399  voters */\n      0x08\n        /* \"contract/voting.sol\":9425:9426  1 */\n      0x01\n        /* \"contract/voting.sol\":9400:9410  delegateId */\n      0x04\n        /* \"contract/voting.sol\":9400:9422  delegateId[msg.sender] */\n      0x00\n        /* \"contract/voting.sol\":9411:9421  msg.sender */\n      caller\n        /* \"contract/voting.sol\":9400:9422  delegateId[msg.sender] */\n      0xffffffffffffffffffffffffffffffffffffffff\n      and\n      0xffffffffffffffffffffffffffffffffffffffff\n      and\n      dup2\n      mstore\n      0x20\n      add\n      swap1\n      dup2\n      mstore\n      0x20\n      add\n      0x00\n      keccak256\n      sload\n        /* \"contract/voting.sol\":9400:9426  delegateId[msg.sender] - 1 */\n      tag_104\n      swap2\n      swap1\n      tag_82\n      jump\t// in\n    tag_104:\n        /* \"contract/voting.sol\":9393:9427  voters[delegateId[msg.sender] - 1] */\n      dup2\n      sload\n      dup2\n      lt\n      tag_105\n      jumpi\n      tag_106\n      tag_85\n      jump\t// in\n    tag_106:\n    tag_105:\n      swap1\n      0x00\n      mstore\n      keccak256(0x00, 0x20)\n      swap1\n      0x04\n      mul\n      add\n        /* \"contract/voting.sol\":9371:9427  Voter storage voter = voters[delegateId[msg.sender] - 1] */\n      swap1\n      pop\n        /* \"contract/voting.sol\":9445:9450  voter */\n      dup1\n        /* \"contract/voting.sol\":9445:9459  voter.eligible */\n      0x00\n      add\n      0x14\n      swap1\n      sload\n      swap1\n      0x0100\n      exp\n      swap1\n      div\n      0xff\n      and\n        /* \"contract/voting.sol\":9437:9502  require(voter.eligible, \"Voter is not yet eligible to cast vote\") */\n      tag_108\n      jumpi\n      mload(0x40)\n      0x08c379a000000000000000000000000000000000000000000000000000000000\n      dup2\n      mstore\n      0x04\n      add\n      tag_109\n      swap1\n      tag_89\n      jump\t// in\n    tag_109:\n      mload(0x40)\n      dup1\n      swap2\n      sub\n      swap1\n      revert\n    tag_108:\n        /* \"contract/voting.sol\":9521:9526  voter */\n      dup1\n        /* \"contract/voting.sol\":9521:9532  voter.voted */\n      0x00\n      add\n      0x15\n      swap1\n      sload\n      swap1\n      0x0100\n      exp\n      swap1\n      div\n      0xff\n      and\n        /* \"contract/voting.sol\":9520:9532  !voter.voted */\n      iszero\n        /* \"contract/voting.sol\":9512:9572  require(!voter.voted, \"Voter has already cast its vote yet\") */\n      tag_110\n      jumpi\n      mload(0x40)\n      0x08c379a000000000000000000000000000000000000000000000000000000000\n      dup2\n      mstore\n      0x04\n      add\n      tag_111\n      swap1\n      tag_92\n      jump\t// in\n    tag_111:\n      mload(0x40)\n      dup1\n      swap2\n      sub\n      swap1\n      revert\n    tag_110:\n        /* \"contract/voting.sol\":9590:9595  voter */\n      dup1\n        /* \"contract/voting.sol\":9590:9605  voter.delegated */\n      0x00\n      add\n      0x16\n      swap1\n      sload\n      swap1\n      0x0100\n      exp\n      swap1\n      div\n      0xff\n      and\n        /* \"contract/voting.sol\":9582:9642  require(voter.delegated, \"Voter does not assign their vote\") */\n      tag_112\n      jumpi\n      mload(0x40)\n      0x08c379a000000000000000000000000000000000000000000000000000000000\n      dup2\n      mstore\n      0x04\n      add\n      tag_113\n      swap1\n      tag_114\n      jump\t// in\n    tag_113:\n      mload(0x40)\n      dup1\n      swap2\n      sub\n      swap1\n      revert\n    tag_112:\n        /* \"contract/voting.sol\":9672:9683  candidateId */\n      0x02\n        /* \"contract/voting.sol\":9672:9695  candidateId[_candidate] */\n      0x00\n        /* \"contract/voting.sol\":9684:9694  _candidate */\n      dup4\n        /* \"contract/voting.sol\":9672:9695  candidateId[_candidate] */\n      0xffffffffffffffffffffffffffffffffffffffff\n      and\n      0xffffffffffffffffffffffffffffffffffffffff\n      and\n      dup2\n      mstore\n      0x20\n      add\n      swap1\n      dup2\n      mstore\n      0x20\n      add\n      0x00\n      keccak256\n      sload\n        /* \"contract/voting.sol\":9652:9657  voter */\n      dup2\n        /* \"contract/voting.sol\":9652:9669  voter.candidateId */\n      0x01\n      add\n        /* \"contract/voting.sol\":9652:9695  voter.candidateId = candidateId[_candidate] */\n      dup2\n      swap1\n      sstore\n      pop\n        /* \"contract/voting.sol\":9719:9723  true */\n      0x01\n        /* \"contract/voting.sol\":9705:9710  voter */\n      dup2\n        /* \"contract/voting.sol\":9705:9716  voter.voted */\n      0x00\n      add\n      0x15\n        /* \"contract/voting.sol\":9705:9723  voter.voted = true */\n      0x0100\n      exp\n      dup2\n      sload\n      dup2\n      0xff\n      mul\n      not\n      and\n      swap1\n      dup4\n      iszero\n      iszero\n      mul\n      or\n      swap1\n      sstore\n      pop\n        /* \"contract/voting.sol\":9733:9760  Candidate storage candidate */\n      0x00\n        /* \"contract/voting.sol\":9763:9773  candidates */\n      0x07\n        /* \"contract/voting.sol\":9800:9801  1 */\n      0x01\n        /* \"contract/voting.sol\":9774:9785  candidateId */\n      0x02\n        /* \"contract/voting.sol\":9774:9797  candidateId[_candidate] */\n      0x00\n        /* \"contract/voting.sol\":9786:9796  _candidate */\n      dup7\n        /* \"contract/voting.sol\":9774:9797  candidateId[_candidate] */\n      0xffffffffffffffffffffffffffffffffffffffff\n      and\n      0xffffffffffffffffffffffffffffffffffffffff\n      and\n      dup2\n      mstore\n      0x20\n      add\n      swap1\n      dup2\n      mstore\n      0x20\n      add\n      0x00\n      keccak256\n      sload\n        /* \"contract/voting.sol\":9774:9801  candidateId[_candidate] - 1 */\n      tag_115\n      swap2\n      swap1\n      tag_82\n      jump\t// in\n    tag_115:\n        /* \"contract/voting.sol\":9763:9802  candidates[candidateId[_candidate] - 1] */\n      dup2\n      sload\n      dup2\n      lt\n      tag_116\n      jumpi\n      tag_117\n      tag_85\n      jump\t// in\n    tag_117:\n    tag_116:\n      swap1\n      0x00\n      mstore\n      keccak256(0x00, 0x20)\n      swap1\n      0x02\n      mul\n      add\n        /* \"contract/voting.sol\":9733:9802  Candidate storage candidate = candidates[candidateId[_candidate] - 1] */\n      swap1\n      pop\n        /* \"contract/voting.sol\":9831:9832  1 */\n      0x01\n        /* \"contract/voting.sol\":9812:9821  candidate */\n      dup2\n        /* \"contract/voting.sol\":9812:9827  candidate.votes */\n      0x01\n      add\n      0x00\n        /* \"contract/voting.sol\":9812:9832  candidate.votes += 1 */\n      dup3\n      dup3\n      sload\n      tag_119\n      swap2\n      swap1\n      tag_120\n      jump\t// in\n    tag_119:\n      swap3\n      pop\n      pop\n      dup2\n      swap1\n      sstore\n      pop\n        /* \"contract/voting.sol\":9071:9839  {... */\n      pop\n      pop\n        /* \"contract/voting.sol\":9018:9839  function voteAsDelegate(address _candidate) external {... */\n      pop\n      jump\t// out\n        /* \"contract/voting.sol\":5763:6039  function realTimeVote() public view returns (uint[] memory _vote) {... */\n    tag_28:\n        /* \"contract/voting.sol\":5808:5827  uint[] memory _vote */\n      0x60\n        /* \"contract/voting.sol\":5904:5914  candidates */\n      0x07\n        /* \"contract/voting.sol\":5904:5921  candidates.length */\n      dup1\n      sload\n      swap1\n      pop\n        /* \"contract/voting.sol\":5893:5922  new uint[](candidates.length) */\n      0xffffffffffffffff\n      dup2\n      gt\n      iszero\n      tag_122\n      jumpi\n      tag_123\n      tag_124\n      jump\t// in\n    tag_123:\n    tag_122:\n      mload(0x40)\n      swap1\n      dup1\n      dup3\n      mstore\n      dup1\n      0x20\n      mul\n      0x20\n      add\n      dup3\n      add\n      0x40\n      mstore\n      dup1\n      iszero\n      tag_125\n      jumpi\n      dup2\n      0x20\n      add\n      0x20\n      dup3\n      mul\n      dup1\n      calldatasize\n      dup4\n      calldatacopy\n      dup1\n      dup3\n      add\n      swap2\n      pop\n      pop\n      swap1\n      pop\n    tag_125:\n      pop\n        /* \"contract/voting.sol\":5885:5922  _vote = new uint[](candidates.length) */\n      swap1\n      pop\n        /* \"contract/voting.sol\":5936:5942  uint i */\n      0x00\n        /* \"contract/voting.sol\":5932:6032  for(uint i = 0; i < candidates.length; i ++) {... */\n    tag_126:\n        /* \"contract/voting.sol\":5952:5962  candidates */\n      0x07\n        /* \"contract/voting.sol\":5952:5969  candidates.length */\n      dup1\n      sload\n      swap1\n      pop\n        /* \"contract/voting.sol\":5948:5949  i */\n      dup2\n        /* \"contract/voting.sol\":5948:5969  i < candidates.length */\n      lt\n        /* \"contract/voting.sol\":5932:6032  for(uint i = 0; i < candidates.length; i ++) {... */\n      iszero\n      tag_127\n      jumpi\n        /* \"contract/voting.sol\":6002:6012  candidates */\n      0x07\n        /* \"contract/voting.sol\":6013:6014  i */\n      dup2\n        /* \"contract/voting.sol\":6002:6015  candidates[i] */\n      dup2\n      sload\n      dup2\n      lt\n      tag_129\n      jumpi\n      tag_130\n      tag_85\n      jump\t// in\n    tag_130:\n    tag_129:\n      swap1\n      0x00\n      mstore\n      keccak256(0x00, 0x20)\n      swap1\n      0x02\n      mul\n      add\n        /* \"contract/voting.sol\":6002:6021  candidates[i].votes */\n      0x01\n      add\n      sload\n        /* \"contract/voting.sol\":5991:5996  _vote */\n      dup3\n        /* \"contract/voting.sol\":5997:5998  i */\n      dup3\n        /* \"contract/voting.sol\":5991:5999  _vote[i] */\n      dup2\n      mload\n      dup2\n      lt\n      tag_132\n      jumpi\n      tag_133\n      tag_85\n      jump\t// in\n    tag_133:\n    tag_132:\n      0x20\n      mul\n      0x20\n      add\n      add\n        /* \"contract/voting.sol\":5991:6021  _vote[i] = candidates[i].votes */\n      dup2\n      dup2\n      mstore\n      pop\n      pop\n        /* \"contract/voting.sol\":5971:5975  i ++ */\n      dup1\n      dup1\n      0x01\n      add\n      swap2\n      pop\n      pop\n        /* \"contract/voting.sol\":5932:6032  for(uint i = 0; i < candidates.length; i ++) {... */\n      jump(tag_126)\n    tag_127:\n      pop\n        /* \"contract/voting.sol\":5763:6039  function realTimeVote() public view returns (uint[] memory _vote) {... */\n      swap1\n      jump\t// out\n        /* \"contract/voting.sol\":7940:8281  function eligibleVoters() public view returns (address[] memory _addresses) {... */\n    tag_32:\n        /* \"contract/voting.sol\":7987:8014  address[] memory _addresses */\n      0x60\n        /* \"contract/voting.sol\":8053:8059  voters */\n      0x08\n        /* \"contract/voting.sol\":8053:8066  voters.length */\n      dup1\n      sload\n      swap1\n      pop\n        /* \"contract/voting.sol\":8039:8067  new address[](voters.length) */\n      0xffffffffffffffff\n      dup2\n      gt\n      iszero\n      tag_135\n      jumpi\n      tag_136\n      tag_124\n      jump\t// in\n    tag_136:\n    tag_135:\n      mload(0x40)\n      swap1\n      dup1\n      dup3\n      mstore\n      dup1\n      0x20\n      mul\n      0x20\n      add\n      dup3\n      add\n      0x40\n      mstore\n      dup1\n      iszero\n      tag_137\n      jumpi\n      dup2\n      0x20\n      add\n      0x20\n      dup3\n      mul\n      dup1\n      calldatasize\n      dup4\n      calldatacopy\n      dup1\n      dup3\n      add\n      swap2\n      pop\n      pop\n      swap1\n      pop\n    tag_137:\n      pop\n        /* \"contract/voting.sol\":8026:8067  _addresses = new address[](voters.length) */\n      swap1\n      pop\n        /* \"contract/voting.sol\":8077:8083  uint j */\n      0x00\n        /* \"contract/voting.sol\":8101:8107  uint i */\n      dup1\n        /* \"contract/voting.sol\":8097:8275  for(uint i = 0; i < voters.length; i ++) {... */\n    tag_138:\n        /* \"contract/voting.sol\":8117:8123  voters */\n      0x08\n        /* \"contract/voting.sol\":8117:8130  voters.length */\n      dup1\n      sload\n      swap1\n      pop\n        /* \"contract/voting.sol\":8113:8114  i */\n      dup2\n        /* \"contract/voting.sol\":8113:8130  i < voters.length */\n      lt\n        /* \"contract/voting.sol\":8097:8275  for(uint i = 0; i < voters.length; i ++) {... */\n      iszero\n      tag_139\n      jumpi\n        /* \"contract/voting.sol\":8156:8162  voters */\n      0x08\n        /* \"contract/voting.sol\":8163:8164  i */\n      dup2\n        /* \"contract/voting.sol\":8156:8165  voters[i] */\n      dup2\n      sload\n      dup2\n      lt\n      tag_141\n      jumpi\n      tag_142\n      tag_85\n      jump\t// in\n    tag_142:\n    tag_141:\n      swap1\n      0x00\n      mstore\n      keccak256(0x00, 0x20)\n      swap1\n      0x04\n      mul\n      add\n        /* \"contract/voting.sol\":8156:8174  voters[i].eligible */\n      0x00\n      add\n      0x14\n      swap1\n      sload\n      swap1\n      0x0100\n      exp\n      swap1\n      div\n      0xff\n      and\n        /* \"contract/voting.sol\":8152:8263  if (voters[i].eligible) {... */\n      iszero\n      tag_144\n      jumpi\n        /* \"contract/voting.sol\":8210:8216  voters */\n      0x08\n        /* \"contract/voting.sol\":8217:8218  i */\n      dup2\n        /* \"contract/voting.sol\":8210:8219  voters[i] */\n      dup2\n      sload\n      dup2\n      lt\n      tag_145\n      jumpi\n      tag_146\n      tag_85\n      jump\t// in\n    tag_146:\n    tag_145:\n      swap1\n      0x00\n      mstore\n      keccak256(0x00, 0x20)\n      swap1\n      0x04\n      mul\n      add\n        /* \"contract/voting.sol\":8210:8224  voters[i].addr */\n      0x00\n      add\n      0x00\n      swap1\n      sload\n      swap1\n      0x0100\n      exp\n      swap1\n      div\n      0xffffffffffffffffffffffffffffffffffffffff\n      and\n        /* \"contract/voting.sol\":8194:8204  _addresses */\n      dup4\n        /* \"contract/voting.sol\":8205:8206  j */\n      dup4\n        /* \"contract/voting.sol\":8194:8207  _addresses[j] */\n      dup2\n      mload\n      dup2\n      lt\n      tag_148\n      jumpi\n      tag_149\n      tag_85\n      jump\t// in\n    tag_149:\n    tag_148:\n      0x20\n      mul\n      0x20\n      add\n      add\n        /* \"contract/voting.sol\":8194:8224  _addresses[j] = voters[i].addr */\n      swap1\n      0xffffffffffffffffffffffffffffffffffffffff\n      and\n      swap1\n      dup2\n      0xffffffffffffffffffffffffffffffffffffffff\n      and\n      dup2\n      mstore\n      pop\n      pop\n        /* \"contract/voting.sol\":8247:8248  1 */\n      0x01\n        /* \"contract/voting.sol\":8242:8248  j += 1 */\n      dup3\n      tag_150\n      swap2\n      swap1\n      tag_120\n      jump\t// in\n    tag_150:\n      swap2\n      pop\n        /* \"contract/voting.sol\":8152:8263  if (voters[i].eligible) {... */\n    tag_144:\n        /* \"contract/voting.sol\":8132:8136  i ++ */\n      dup1\n      dup1\n      0x01\n      add\n      swap2\n      pop\n      pop\n        /* \"contract/voting.sol\":8097:8275  for(uint i = 0; i < voters.length; i ++) {... */\n      jump(tag_138)\n    tag_139:\n      pop\n        /* \"contract/voting.sol\":8016:8281  {... */\n      pop\n        /* \"contract/voting.sol\":7940:8281  function eligibleVoters() public view returns (address[] memory _addresses) {... */\n      swap1\n      jump\t// out\n        /* \"contract/voting.sol\":2155:2897  function voteCandidate(address _candidate) external {... */\n    tag_37:\n        /* \"contract/voting.sol\":2226:2234  finished */\n      0x06\n      0x00\n      swap1\n      sload\n      swap1\n      0x0100\n      exp\n      swap1\n      div\n      0xff\n      and\n        /* \"contract/voting.sol\":2225:2234  !finished */\n      iszero\n        /* \"contract/voting.sol\":2217:2268  require(!finished, \"Election has already finished\") */\n      tag_152\n      jumpi\n      mload(0x40)\n      0x08c379a000000000000000000000000000000000000000000000000000000000\n      dup2\n      mstore\n      0x04\n      add\n      tag_153\n      swap1\n      tag_68\n      jump\t// in\n    tag_153:\n      mload(0x40)\n      dup1\n      swap2\n      sub\n      swap1\n      revert\n    tag_152:\n        /* \"contract/voting.sol\":2312:2313  0 */\n      0x00\n        /* \"contract/voting.sol\":2286:2297  candidateId */\n      0x02\n        /* \"contract/voting.sol\":2286:2309  candidateId[_candidate] */\n      0x00\n        /* \"contract/voting.sol\":2298:2308  _candidate */\n      dup4\n        /* \"contract/voting.sol\":2286:2309  candidateId[_candidate] */\n      0xffffffffffffffffffffffffffffffffffffffff\n      and\n      0xffffffffffffffffffffffffffffffffffffffff\n      and\n      dup2\n      mstore\n      0x20\n      add\n      swap1\n      dup2\n      mstore\n      0x20\n      add\n      0x00\n      keccak256\n      sload\n        /* \"contract/voting.sol\":2286:2313  candidateId[_candidate] > 0 */\n      gt\n        /* \"contract/voting.sol\":2278:2340  require(candidateId[_candidate] > 0, \"Candidate do not exist\") */\n      tag_154\n      jumpi\n      mload(0x40)\n      0x08c379a000000000000000000000000000000000000000000000000000000000\n      dup2\n      mstore\n      0x04\n      add\n      tag_155\n      swap1\n      tag_98\n      jump\t// in\n    tag_155:\n      mload(0x40)\n      dup1\n      swap2\n      sub\n      swap1\n      revert\n    tag_154:\n        /* \"contract/voting.sol\":2385:2386  0 */\n      0x00\n        /* \"contract/voting.sol\":2358:2369  candidateId */\n      0x02\n        /* \"contract/voting.sol\":2358:2381  candidateId[msg.sender] */\n      0x00\n        /* \"contract/voting.sol\":2370:2380  msg.sender */\n      caller\n        /* \"contract/voting.sol\":2358:2381  candidateId[msg.sender] */\n      0xffffffffffffffffffffffffffffffffffffffff\n      and\n      0xffffffffffffffffffffffffffffffffffffffff\n      and\n      dup2\n      mstore\n      0x20\n      add\n      swap1\n      dup2\n      mstore\n      0x20\n      add\n      0x00\n      keccak256\n      sload\n        /* \"contract/voting.sol\":2358:2386  candidateId[msg.sender] == 0 */\n      eq\n        /* \"contract/voting.sol\":2350:2416  require(candidateId[msg.sender] == 0, \"Only voters can cast vote\") */\n      tag_156\n      jumpi\n      mload(0x40)\n      0x08c379a000000000000000000000000000000000000000000000000000000000\n      dup2\n      mstore\n      0x04\n      add\n      tag_157\n      swap1\n      tag_71\n      jump\t// in\n    tag_157:\n      mload(0x40)\n      dup1\n      swap2\n      sub\n      swap1\n      revert\n    tag_156:\n        /* \"contract/voting.sol\":2456:2457  0 */\n      0x00\n        /* \"contract/voting.sol\":2434:2441  voterId */\n      0x03\n        /* \"contract/voting.sol\":2434:2453  voterId[msg.sender] */\n      0x00\n        /* \"contract/voting.sol\":2442:2452  msg.sender */\n      caller\n        /* \"contract/voting.sol\":2434:2453  voterId[msg.sender] */\n      0xffffffffffffffffffffffffffffffffffffffff\n      and\n      0xffffffffffffffffffffffffffffffffffffffff\n      and\n      dup2\n      mstore\n      0x20\n      add\n      swap1\n      dup2\n      mstore\n      0x20\n      add\n      0x00\n      keccak256\n      sload\n        /* \"contract/voting.sol\":2434:2457  voterId[msg.sender] > 0 */\n      gt\n        /* \"contract/voting.sol\":2426:2496  require(voterId[msg.sender] > 0, \"Voter is not added in the election\") */\n      tag_158\n      jumpi\n      mload(0x40)\n      0x08c379a000000000000000000000000000000000000000000000000000000000\n      dup2\n      mstore\n      0x04\n      add\n      tag_159\n      swap1\n      tag_74\n      jump\t// in\n    tag_159:\n      mload(0x40)\n      dup1\n      swap2\n      sub\n      swap1\n      revert\n    tag_158:\n        /* \"contract/voting.sol\":2506:2525  Voter storage voter */\n      0x00\n        /* \"contract/voting.sol\":2528:2534  voters */\n      0x08\n        /* \"contract/voting.sol\":2557:2558  1 */\n      0x01\n        /* \"contract/voting.sol\":2535:2542  voterId */\n      0x03\n        /* \"contract/voting.sol\":2535:2554  voterId[msg.sender] */\n      0x00\n        /* \"contract/voting.sol\":2543:2553  msg.sender */\n      caller\n        /* \"contract/voting.sol\":2535:2554  voterId[msg.sender] */\n      0xffffffffffffffffffffffffffffffffffffffff\n      and\n      0xffffffffffffffffffffffffffffffffffffffff\n      and\n      dup2\n      mstore\n      0x20\n      add\n      swap1\n      dup2\n      mstore\n      0x20\n      add\n      0x00\n      keccak256\n      sload\n        /* \"contract/voting.sol\":2535:2558  voterId[msg.sender] - 1 */\n      tag_160\n      swap2\n      swap1\n      tag_82\n      jump\t// in\n    tag_160:\n        /* \"contract/voting.sol\":2528:2559  voters[voterId[msg.sender] - 1] */\n      dup2\n      sload\n      dup2\n      lt\n      tag_161\n      jumpi\n      tag_162\n      tag_85\n      jump\t// in\n    tag_162:\n    tag_161:\n      swap1\n      0x00\n      mstore\n      keccak256(0x00, 0x20)\n      swap1\n      0x04\n      mul\n      add\n        /* \"contract/voting.sol\":2506:2559  Voter storage voter = voters[voterId[msg.sender] - 1] */\n      swap1\n      pop\n        /* \"contract/voting.sol\":2577:2582  voter */\n      dup1\n        /* \"contract/voting.sol\":2577:2591  voter.eligible */\n      0x00\n      add\n      0x14\n      swap1\n      sload\n      swap1\n      0x0100\n      exp\n      swap1\n      div\n      0xff\n      and\n        /* \"contract/voting.sol\":2569:2634  require(voter.eligible, \"Voter is not yet eligible to cast vote\") */\n      tag_164\n      jumpi\n      mload(0x40)\n      0x08c379a000000000000000000000000000000000000000000000000000000000\n      dup2\n      mstore\n      0x04\n      add\n      tag_165\n      swap1\n      tag_89\n      jump\t// in\n    tag_165:\n      mload(0x40)\n      dup1\n      swap2\n      sub\n      swap1\n      revert\n    tag_164:\n        /* \"contract/voting.sol\":2653:2658  voter */\n      dup1\n        /* \"contract/voting.sol\":2653:2664  voter.voted */\n      0x00\n      add\n      0x15\n      swap1\n      sload\n      swap1\n      0x0100\n      exp\n      swap1\n      div\n      0xff\n      and\n        /* \"contract/voting.sol\":2652:2664  !voter.voted */\n      iszero\n        /* \"contract/voting.sol\":2644:2700  require(!voter.voted, \"Voter has already cast its vote\") */\n      tag_166\n      jumpi\n      mload(0x40)\n      0x08c379a000000000000000000000000000000000000000000000000000000000\n      dup2\n      mstore\n      0x04\n      add\n      tag_167\n      swap1\n      tag_168\n      jump\t// in\n    tag_167:\n      mload(0x40)\n      dup1\n      swap2\n      sub\n      swap1\n      revert\n    tag_166:\n        /* \"contract/voting.sol\":2730:2741  candidateId */\n      0x02\n        /* \"contract/voting.sol\":2730:2753  candidateId[_candidate] */\n      0x00\n        /* \"contract/voting.sol\":2742:2752  _candidate */\n      dup4\n        /* \"contract/voting.sol\":2730:2753  candidateId[_candidate] */\n      0xffffffffffffffffffffffffffffffffffffffff\n      and\n      0xffffffffffffffffffffffffffffffffffffffff\n      and\n      dup2\n      mstore\n      0x20\n      add\n      swap1\n      dup2\n      mstore\n      0x20\n      add\n      0x00\n      keccak256\n      sload\n        /* \"contract/voting.sol\":2710:2715  voter */\n      dup2\n        /* \"contract/voting.sol\":2710:2727  voter.candidateId */\n      0x01\n      add\n        /* \"contract/voting.sol\":2710:2753  voter.candidateId = candidateId[_candidate] */\n      dup2\n      swap1\n      sstore\n      pop\n        /* \"contract/voting.sol\":2777:2781  true */\n      0x01\n        /* \"contract/voting.sol\":2763:2768  voter */\n      dup2\n        /* \"contract/voting.sol\":2763:2774  voter.voted */\n      0x00\n      add\n      0x15\n        /* \"contract/voting.sol\":2763:2781  voter.voted = true */\n      0x0100\n      exp\n      dup2\n      sload\n      dup2\n      0xff\n      mul\n      not\n      and\n      swap1\n      dup4\n      iszero\n      iszero\n      mul\n      or\n      swap1\n      sstore\n      pop\n        /* \"contract/voting.sol\":2791:2818  Candidate storage candidate */\n      0x00\n        /* \"contract/voting.sol\":2821:2831  candidates */\n      0x07\n        /* \"contract/voting.sol\":2858:2859  1 */\n      0x01\n        /* \"contract/voting.sol\":2832:2843  candidateId */\n      0x02\n        /* \"contract/voting.sol\":2832:2855  candidateId[_candidate] */\n      0x00\n        /* \"contract/voting.sol\":2844:2854  _candidate */\n      dup7\n        /* \"contract/voting.sol\":2832:2855  candidateId[_candidate] */\n      0xffffffffffffffffffffffffffffffffffffffff\n      and\n      0xffffffffffffffffffffffffffffffffffffffff\n      and\n      dup2\n      mstore\n      0x20\n      add\n      swap1\n      dup2\n      mstore\n      0x20\n      add\n      0x00\n      keccak256\n      sload\n        /* \"contract/voting.sol\":2832:2859  candidateId[_candidate] - 1 */\n      tag_169\n      swap2\n      swap1\n      tag_82\n      jump\t// in\n    tag_169:\n        /* \"contract/voting.sol\":2821:2860  candidates[candidateId[_candidate] - 1] */\n      dup2\n      sload\n      dup2\n      lt\n      tag_170\n      jumpi\n      tag_171\n      tag_85\n      jump\t// in\n    tag_171:\n    tag_170:\n      swap1\n      0x00\n      mstore\n      keccak256(0x00, 0x20)\n      swap1\n      0x02\n      mul\n      add\n        /* \"contract/voting.sol\":2791:2860  Candidate storage candidate = candidates[candidateId[_candidate] - 1] */\n      swap1\n      pop\n        /* \"contract/voting.sol\":2889:2890  1 */\n      0x01\n        /* \"contract/voting.sol\":2870:2879  candidate */\n      dup2\n        /* \"contract/voting.sol\":2870:2885  candidate.votes */\n      0x01\n      add\n      0x00\n        /* \"contract/voting.sol\":2870:2890  candidate.votes += 1 */\n      dup3\n      dup3\n      sload\n      tag_173\n      swap2\n      swap1\n      tag_120\n      jump\t// in\n    tag_173:\n      swap3\n      pop\n      pop\n      dup2\n      swap1\n      sstore\n      pop\n        /* \"contract/voting.sol\":2207:2897  {... */\n      pop\n      pop\n        /* \"contract/voting.sol\":2155:2897  function voteCandidate(address _candidate) external {... */\n      pop\n      jump\t// out\n        /* \"contract/voting.sol\":3164:3436  function getCandidate(uint _candidateId) public view returns (address) {... */\n    tag_41:\n        /* \"contract/voting.sol\":3226:3233  address */\n      0x00\n        /* \"contract/voting.sol\":3268:3269  0 */\n      dup1\n        /* \"contract/voting.sol\":3253:3265  _candidateId */\n      dup3\n        /* \"contract/voting.sol\":3253:3269  _candidateId > 0 */\n      gt\n        /* \"contract/voting.sol\":3245:3298  require(_candidateId > 0, \"Candidate Id must be > 0\") */\n      tag_175\n      jumpi\n      mload(0x40)\n      0x08c379a000000000000000000000000000000000000000000000000000000000\n      dup2\n      mstore\n      0x04\n      add\n      tag_176\n      swap1\n      tag_177\n      jump\t// in\n    tag_176:\n      mload(0x40)\n      dup1\n      swap2\n      sub\n      swap1\n      revert\n    tag_175:\n        /* \"contract/voting.sol\":3332:3342  candidates */\n      0x07\n        /* \"contract/voting.sol\":3332:3349  candidates.length */\n      dup1\n      sload\n      swap1\n      pop\n        /* \"contract/voting.sol\":3316:3328  _candidateId */\n      dup3\n        /* \"contract/voting.sol\":3316:3349  _candidateId <= candidates.length */\n      gt\n      iszero\n        /* \"contract/voting.sol\":3308:3379  require(_candidateId <= candidates.length, \"Candidate Id do not exist\") */\n      tag_178\n      jumpi\n      mload(0x40)\n      0x08c379a000000000000000000000000000000000000000000000000000000000\n      dup2\n      mstore\n      0x04\n      add\n      tag_179\n      swap1\n      tag_180\n      jump\t// in\n    tag_179:\n      mload(0x40)\n      dup1\n      swap2\n      sub\n      swap1\n      revert\n    tag_178:\n        /* \"contract/voting.sol\":3396:3406  candidates */\n      0x07\n        /* \"contract/voting.sol\":3422:3423  1 */\n      0x01\n        /* \"contract/voting.sol\":3407:3419  _candidateId */\n      dup4\n        /* \"contract/voting.sol\":3407:3423  _candidateId - 1 */\n      tag_181\n      swap2\n      swap1\n      tag_82\n      jump\t// in\n    tag_181:\n        /* \"contract/voting.sol\":3396:3424  candidates[_candidateId - 1] */\n      dup2\n      sload\n      dup2\n      lt\n      tag_182\n      jumpi\n      tag_183\n      tag_85\n      jump\t// in\n    tag_183:\n    tag_182:\n      swap1\n      0x00\n      mstore\n      keccak256(0x00, 0x20)\n      swap1\n      0x02\n      mul\n      add\n        /* \"contract/voting.sol\":3396:3429  candidates[_candidateId - 1].addr */\n      0x00\n      add\n      0x00\n      swap1\n      sload\n      swap1\n      0x0100\n      exp\n      swap1\n      div\n      0xffffffffffffffffffffffffffffffffffffffff\n      and\n        /* \"contract/voting.sol\":3389:3429  return candidates[_candidateId - 1].addr */\n      swap1\n      pop\n        /* \"contract/voting.sol\":3164:3436  function getCandidate(uint _candidateId) public view returns (address) {... */\n      swap2\n      swap1\n      pop\n      jump\t// out\n        /* \"contract/voting.sol\":4585:5361  function restartElection() external {... */\n    tag_45:\n        /* \"contract/voting.sol\":4671:4679  finished */\n      0x06\n      0x00\n      swap1\n      sload\n      swap1\n      0x0100\n      exp\n      swap1\n      div\n      0xff\n      and\n        /* \"contract/voting.sol\":4663:4713  require(finished, \"Election has not finished yet\") */\n      tag_186\n      jumpi\n      mload(0x40)\n      0x08c379a000000000000000000000000000000000000000000000000000000000\n      dup2\n      mstore\n      0x04\n      add\n      tag_187\n      swap1\n      tag_188\n      jump\t// in\n    tag_187:\n      mload(0x40)\n      dup1\n      swap2\n      sub\n      swap1\n      revert\n    tag_186:\n        /* \"contract/voting.sol\":4757:4758  0 */\n      0x00\n        /* \"contract/voting.sol\":4731:4742  candidateId */\n      0x02\n        /* \"contract/voting.sol\":4731:4754  candidateId[msg.sender] */\n      0x00\n        /* \"contract/voting.sol\":4743:4753  msg.sender */\n      caller\n        /* \"contract/voting.sol\":4731:4754  candidateId[msg.sender] */\n      0xffffffffffffffffffffffffffffffffffffffff\n      and\n      0xffffffffffffffffffffffffffffffffffffffff\n      and\n      dup2\n      mstore\n      0x20\n      add\n      swap1\n      dup2\n      mstore\n      0x20\n      add\n      0x00\n      keccak256\n      sload\n        /* \"contract/voting.sol\":4731:4758  candidateId[msg.sender] > 0 */\n      gt\n        /* \"contract/voting.sol\":4723:4800  require(candidateId[msg.sender] > 0, \"Only candidate can call this function\") */\n      tag_189\n      jumpi\n      mload(0x40)\n      0x08c379a000000000000000000000000000000000000000000000000000000000\n      dup2\n      mstore\n      0x04\n      add\n      tag_190\n      swap1\n      tag_191\n      jump\t// in\n    tag_190:\n      mload(0x40)\n      dup1\n      swap2\n      sub\n      swap1\n      revert\n    tag_189:\n        /* \"contract/voting.sol\":4853:4858  false */\n      0x00\n        /* \"contract/voting.sol\":4818:4858  callRestartElection[msg.sender] == false */\n      iszero\n      iszero\n        /* \"contract/voting.sol\":4818:4837  callRestartElection */\n      0x0a\n        /* \"contract/voting.sol\":4818:4849  callRestartElection[msg.sender] */\n      0x00\n        /* \"contract/voting.sol\":4838:4848  msg.sender */\n      caller\n        /* \"contract/voting.sol\":4818:4849  callRestartElection[msg.sender] */\n      0xffffffffffffffffffffffffffffffffffffffff\n      and\n      0xffffffffffffffffffffffffffffffffffffffff\n      and\n      dup2\n      mstore\n      0x20\n      add\n      swap1\n      dup2\n      mstore\n      0x20\n      add\n      0x00\n      keccak256\n      0x00\n      swap1\n      sload\n      swap1\n      0x0100\n      exp\n      swap1\n      div\n      0xff\n      and\n        /* \"contract/voting.sol\":4818:4858  callRestartElection[msg.sender] == false */\n      iszero\n      iszero\n      eq\n        /* \"contract/voting.sol\":4810:4955  require(callRestartElection[msg.sender] == false, \"You have already called this function. Wait for other candidates to call restart to election\") */\n      tag_192\n      jumpi\n      mload(0x40)\n      0x08c379a000000000000000000000000000000000000000000000000000000000\n      dup2\n      mstore\n      0x04\n      add\n      tag_193\n      swap1\n      tag_194\n      jump\t// in\n    tag_193:\n      mload(0x40)\n      dup1\n      swap2\n      sub\n      swap1\n      revert\n    tag_192:\n        /* \"contract/voting.sol\":4999:5003  true */\n      0x01\n        /* \"contract/voting.sol\":4965:4984  callRestartElection */\n      0x0a\n        /* \"contract/voting.sol\":4965:4996  callRestartElection[msg.sender] */\n      0x00\n        /* \"contract/voting.sol\":4985:4995  msg.sender */\n      caller\n        /* \"contract/voting.sol\":4965:4996  callRestartElection[msg.sender] */\n      0xffffffffffffffffffffffffffffffffffffffff\n      and\n      0xffffffffffffffffffffffffffffffffffffffff\n      and\n      dup2\n      mstore\n      0x20\n      add\n      swap1\n      dup2\n      mstore\n      0x20\n      add\n      0x00\n      keccak256\n      0x00\n        /* \"contract/voting.sol\":4965:5003  callRestartElection[msg.sender] = true */\n      0x0100\n      exp\n      dup2\n      sload\n      dup2\n      0xff\n      mul\n      not\n      and\n      swap1\n      dup4\n      iszero\n      iszero\n      mul\n      or\n      swap1\n      sstore\n      pop\n        /* \"contract/voting.sol\":5037:5038  1 */\n      0x01\n        /* \"contract/voting.sol\":5013:5033  restartElectionCount */\n      0x0c\n      0x00\n        /* \"contract/voting.sol\":5013:5038  restartElectionCount += 1 */\n      dup3\n      dup3\n      sload\n      tag_195\n      swap2\n      swap1\n      tag_120\n      jump\t// in\n    tag_195:\n      swap3\n      pop\n      pop\n      dup2\n      swap1\n      sstore\n      pop\n        /* \"contract/voting.sol\":5076:5089  numCandidates */\n      sload(0x00)\n        /* \"contract/voting.sol\":5052:5072  restartElectionCount */\n      sload(0x0c)\n        /* \"contract/voting.sol\":5052:5089  restartElectionCount == numCandidates */\n      sub\n        /* \"contract/voting.sol\":5048:5355  if (restartElectionCount == numCandidates) {... */\n      tag_196\n      jumpi\n        /* \"contract/voting.sol\":5159:5165  uint i */\n      0x00\n        /* \"contract/voting.sol\":5155:5276  for(uint i = 0; i < candidates.length; i ++) {... */\n    tag_197:\n        /* \"contract/voting.sol\":5175:5185  candidates */\n      0x07\n        /* \"contract/voting.sol\":5175:5192  candidates.length */\n      dup1\n      sload\n      swap1\n      pop\n        /* \"contract/voting.sol\":5171:5172  i */\n      dup2\n        /* \"contract/voting.sol\":5171:5192  i < candidates.length */\n      lt\n        /* \"contract/voting.sol\":5155:5276  for(uint i = 0; i < candidates.length; i ++) {... */\n      iszero\n      tag_198\n      jumpi\n        /* \"contract/voting.sol\":5256:5261  false */\n      0x00\n        /* \"contract/voting.sol\":5214:5233  callRestartElection */\n      0x0a\n        /* \"contract/voting.sol\":5214:5253  callRestartElection[candidates[i].addr] */\n      0x00\n        /* \"contract/voting.sol\":5234:5244  candidates */\n      0x07\n        /* \"contract/voting.sol\":5245:5246  i */\n      dup5\n        /* \"contract/voting.sol\":5234:5247  candidates[i] */\n      dup2\n      sload\n      dup2\n      lt\n      tag_200\n      jumpi\n      tag_201\n      tag_85\n      jump\t// in\n    tag_201:\n    tag_200:\n      swap1\n      0x00\n      mstore\n      keccak256(0x00, 0x20)\n      swap1\n      0x02\n      mul\n      add\n        /* \"contract/voting.sol\":5234:5252  candidates[i].addr */\n      0x00\n      add\n      0x00\n      swap1\n      sload\n      swap1\n      0x0100\n      exp\n      swap1\n      div\n      0xffffffffffffffffffffffffffffffffffffffff\n      and\n        /* \"contract/voting.sol\":5214:5253  callRestartElection[candidates[i].addr] */\n      0xffffffffffffffffffffffffffffffffffffffff\n      and\n      0xffffffffffffffffffffffffffffffffffffffff\n      and\n      dup2\n      mstore\n      0x20\n      add\n      swap1\n      dup2\n      mstore\n      0x20\n      add\n      0x00\n      keccak256\n      0x00\n        /* \"contract/voting.sol\":5214:5261  callRestartElection[candidates[i].addr] = false */\n      0x0100\n      exp\n      dup2\n      sload\n      dup2\n      0xff\n      mul\n      not\n      and\n      swap1\n      dup4\n      iszero\n      iszero\n      mul\n      or\n      swap1\n      sstore\n      pop\n        /* \"contract/voting.sol\":5194:5198  i ++ */\n      dup1\n      dup1\n      0x01\n      add\n      swap2\n      pop\n      pop\n        /* \"contract/voting.sol\":5155:5276  for(uint i = 0; i < candidates.length; i ++) {... */\n      jump(tag_197)\n    tag_198:\n      pop\n        /* \"contract/voting.sol\":5313:5314  0 */\n      0x00\n        /* \"contract/voting.sol\":5290:5310  restartElectionCount */\n      0x0c\n        /* \"contract/voting.sol\":5290:5314  restartElectionCount = 0 */\n      dup2\n      swap1\n      sstore\n      pop\n        /* \"contract/voting.sol\":5339:5344  false */\n      0x00\n        /* \"contract/voting.sol\":5328:5336  finished */\n      0x06\n      0x00\n        /* \"contract/voting.sol\":5328:5344  finished = false */\n      0x0100\n      exp\n      dup2\n      sload\n      dup2\n      0xff\n      mul\n      not\n      and\n      swap1\n      dup4\n      iszero\n      iszero\n      mul\n      or\n      swap1\n      sstore\n      pop\n        /* \"contract/voting.sol\":5048:5355  if (restartElectionCount == numCandidates) {... */\n    tag_196:\n        /* \"contract/voting.sol\":4585:5361  function restartElection() external {... */\n      jump\t// out\n        /* \"contract/voting.sol\":3442:4579  function endElection() external {... */\n    tag_47:\n        /* \"contract/voting.sol\":3609:3617  finished */\n      0x06\n      0x00\n      swap1\n      sload\n      swap1\n      0x0100\n      exp\n      swap1\n      div\n      0xff\n      and\n        /* \"contract/voting.sol\":3608:3617  !finished */\n      iszero\n        /* \"contract/voting.sol\":3600:3651  require(!finished, \"Election has already finished\") */\n      tag_204\n      jumpi\n      mload(0x40)\n      0x08c379a000000000000000000000000000000000000000000000000000000000\n      dup2\n      mstore\n      0x04\n      add\n      tag_205\n      swap1\n      tag_68\n      jump\t// in\n    tag_205:\n      mload(0x40)\n      dup1\n      swap2\n      sub\n      swap1\n      revert\n    tag_204:\n        /* \"contract/voting.sol\":3695:3696  0 */\n      0x00\n        /* \"contract/voting.sol\":3669:3680  candidateId */\n      0x02\n        /* \"contract/voting.sol\":3669:3692  candidateId[msg.sender] */\n      0x00\n        /* \"contract/voting.sol\":3681:3691  msg.sender */\n      caller\n        /* \"contract/voting.sol\":3669:3692  candidateId[msg.sender] */\n      0xffffffffffffffffffffffffffffffffffffffff\n      and\n      0xffffffffffffffffffffffffffffffffffffffff\n      and\n      dup2\n      mstore\n      0x20\n      add\n      swap1\n      dup2\n      mstore\n      0x20\n      add\n      0x00\n      keccak256\n      sload\n        /* \"contract/voting.sol\":3669:3696  candidateId[msg.sender] > 0 */\n      gt\n        /* \"contract/voting.sol\":3661:3738  require(candidateId[msg.sender] > 0, \"Only candidate can call this function\") */\n      tag_206\n      jumpi\n      mload(0x40)\n      0x08c379a000000000000000000000000000000000000000000000000000000000\n      dup2\n      mstore\n      0x04\n      add\n      tag_207\n      swap1\n      tag_191\n      jump\t// in\n    tag_207:\n      mload(0x40)\n      dup1\n      swap2\n      sub\n      swap1\n      revert\n    tag_206:\n        /* \"contract/voting.sol\":3787:3792  false */\n      0x00\n        /* \"contract/voting.sol\":3756:3792  callEndElection[msg.sender] == false */\n      iszero\n      iszero\n        /* \"contract/voting.sol\":3756:3771  callEndElection */\n      0x09\n        /* \"contract/voting.sol\":3756:3783  callEndElection[msg.sender] */\n      0x00\n        /* \"contract/voting.sol\":3772:3782  msg.sender */\n      caller\n        /* \"contract/voting.sol\":3756:3783  callEndElection[msg.sender] */\n      0xffffffffffffffffffffffffffffffffffffffff\n      and\n      0xffffffffffffffffffffffffffffffffffffffff\n      and\n      dup2\n      mstore\n      0x20\n      add\n      swap1\n      dup2\n      mstore\n      0x20\n      add\n      0x00\n      keccak256\n      0x00\n      swap1\n      sload\n      swap1\n      0x0100\n      exp\n      swap1\n      div\n      0xff\n      and\n        /* \"contract/voting.sol\":3756:3792  callEndElection[msg.sender] == false */\n      iszero\n      iszero\n      eq\n        /* \"contract/voting.sol\":3748:3885  require(callEndElection[msg.sender] == false, \"You have already called this function. Wait for other candidates to call end to election\") */\n      tag_208\n      jumpi\n      mload(0x40)\n      0x08c379a000000000000000000000000000000000000000000000000000000000\n      dup2\n      mstore\n      0x04\n      add\n      tag_209\n      swap1\n      tag_210\n      jump\t// in\n    tag_209:\n      mload(0x40)\n      dup1\n      swap2\n      sub\n      swap1\n      revert\n    tag_208:\n        /* \"contract/voting.sol\":3925:3929  true */\n      0x01\n        /* \"contract/voting.sol\":3895:3910  callEndElection */\n      0x09\n        /* \"contract/voting.sol\":3895:3922  callEndElection[msg.sender] */\n      0x00\n        /* \"contract/voting.sol\":3911:3921  msg.sender */\n      caller\n        /* \"contract/voting.sol\":3895:3922  callEndElection[msg.sender] */\n      0xffffffffffffffffffffffffffffffffffffffff\n      and\n      0xffffffffffffffffffffffffffffffffffffffff\n      and\n      dup2\n      mstore\n      0x20\n      add\n      swap1\n      dup2\n      mstore\n      0x20\n      add\n      0x00\n      keccak256\n      0x00\n        /* \"contract/voting.sol\":3895:3929  callEndElection[msg.sender] = true */\n      0x0100\n      exp\n      dup2\n      sload\n      dup2\n      0xff\n      mul\n      not\n      and\n      swap1\n      dup4\n      iszero\n      iszero\n      mul\n      or\n      swap1\n      sstore\n      pop\n        /* \"contract/voting.sol\":3959:3960  1 */\n      0x01\n        /* \"contract/voting.sol\":3939:3955  endElectionCount */\n      0x0b\n      0x00\n        /* \"contract/voting.sol\":3939:3960  endElectionCount += 1 */\n      dup3\n      dup3\n      sload\n      tag_211\n      swap2\n      swap1\n      tag_120\n      jump\t// in\n    tag_211:\n      swap3\n      pop\n      pop\n      dup2\n      swap1\n      sstore\n      pop\n        /* \"contract/voting.sol\":3994:4007  numCandidates */\n      sload(0x00)\n        /* \"contract/voting.sol\":3974:3990  endElectionCount */\n      sload(0x0b)\n        /* \"contract/voting.sol\":3974:4007  endElectionCount == numCandidates */\n      sub\n        /* \"contract/voting.sol\":3970:4573  if (endElectionCount == numCandidates) {... */\n      tag_212\n      jumpi\n        /* \"contract/voting.sol\":4120:4133  uint maxVotes */\n      0x00\n        /* \"contract/voting.sol\":4155:4161  uint i */\n      dup1\n        /* \"contract/voting.sol\":4151:4369  for(uint i = 0; i < numCandidates; i ++) {... */\n    tag_213:\n        /* \"contract/voting.sol\":4171:4184  numCandidates */\n      sload(0x00)\n        /* \"contract/voting.sol\":4167:4168  i */\n      dup2\n        /* \"contract/voting.sol\":4167:4184  i < numCandidates */\n      lt\n        /* \"contract/voting.sol\":4151:4369  for(uint i = 0; i < numCandidates; i ++) {... */\n      iszero\n      tag_214\n      jumpi\n        /* \"contract/voting.sol\":4236:4244  maxVotes */\n      dup2\n        /* \"contract/voting.sol\":4214:4224  candidates */\n      0x07\n        /* \"contract/voting.sol\":4225:4226  i */\n      dup3\n        /* \"contract/voting.sol\":4214:4227  candidates[i] */\n      dup2\n      sload\n      dup2\n      lt\n      tag_216\n      jumpi\n      tag_217\n      tag_85\n      jump\t// in\n    tag_217:\n    tag_216:\n      swap1\n      0x00\n      mstore\n      keccak256(0x00, 0x20)\n      swap1\n      0x02\n      mul\n      add\n        /* \"contract/voting.sol\":4214:4233  candidates[i].votes */\n      0x01\n      add\n      sload\n        /* \"contract/voting.sol\":4214:4244  candidates[i].votes > maxVotes */\n      gt\n        /* \"contract/voting.sol\":4210:4355  if (candidates[i].votes > maxVotes) {... */\n      iszero\n      tag_219\n      jumpi\n        /* \"contract/voting.sol\":4279:4289  candidates */\n      0x07\n        /* \"contract/voting.sol\":4290:4291  i */\n      dup2\n        /* \"contract/voting.sol\":4279:4292  candidates[i] */\n      dup2\n      sload\n      dup2\n      lt\n      tag_220\n      jumpi\n      tag_221\n      tag_85\n      jump\t// in\n    tag_221:\n    tag_220:\n      swap1\n      0x00\n      mstore\n      keccak256(0x00, 0x20)\n      swap1\n      0x02\n      mul\n      add\n        /* \"contract/voting.sol\":4279:4298  candidates[i].votes */\n      0x01\n      add\n      sload\n        /* \"contract/voting.sol\":4268:4298  maxVotes = candidates[i].votes */\n      swap2\n      pop\n        /* \"contract/voting.sol\":4335:4336  1 */\n      0x01\n        /* \"contract/voting.sol\":4331:4332  i */\n      dup2\n        /* \"contract/voting.sol\":4331:4336  i + 1 */\n      tag_223\n      swap2\n      swap1\n      tag_120\n      jump\t// in\n    tag_223:\n        /* \"contract/voting.sol\":4320:4328  winnerId */\n      0x05\n        /* \"contract/voting.sol\":4320:4336  winnerId = i + 1 */\n      dup2\n      swap1\n      sstore\n      pop\n        /* \"contract/voting.sol\":4210:4355  if (candidates[i].votes > maxVotes) {... */\n    tag_219:\n        /* \"contract/voting.sol\":4186:4190  i ++ */\n      dup1\n      dup1\n      0x01\n      add\n      swap2\n      pop\n      pop\n        /* \"contract/voting.sol\":4151:4369  for(uint i = 0; i < numCandidates; i ++) {... */\n      jump(tag_213)\n    tag_214:\n      pop\n        /* \"contract/voting.sol\":4386:4392  uint i */\n      0x00\n        /* \"contract/voting.sol\":4382:4499  for(uint i = 0; i < candidates.length; i ++) {... */\n    tag_224:\n        /* \"contract/voting.sol\":4402:4412  candidates */\n      0x07\n        /* \"contract/voting.sol\":4402:4419  candidates.length */\n      dup1\n      sload\n      swap1\n      pop\n        /* \"contract/voting.sol\":4398:4399  i */\n      dup2\n        /* \"contract/voting.sol\":4398:4419  i < candidates.length */\n      lt\n        /* \"contract/voting.sol\":4382:4499  for(uint i = 0; i < candidates.length; i ++) {... */\n      iszero\n      tag_225\n      jumpi\n        /* \"contract/voting.sol\":4479:4484  false */\n      0x00\n        /* \"contract/voting.sol\":4441:4456  callEndElection */\n      0x09\n        /* \"contract/voting.sol\":4441:4476  callEndElection[candidates[i].addr] */\n      0x00\n        /* \"contract/voting.sol\":4457:4467  candidates */\n      0x07\n        /* \"contract/voting.sol\":4468:4469  i */\n      dup5\n        /* \"contract/voting.sol\":4457:4470  candidates[i] */\n      dup2\n      sload\n      dup2\n      lt\n      tag_227\n      jumpi\n      tag_228\n      tag_85\n      jump\t// in\n    tag_228:\n    tag_227:\n      swap1\n      0x00\n      mstore\n      keccak256(0x00, 0x20)\n      swap1\n      0x02\n      mul\n      add\n        /* \"contract/voting.sol\":4457:4475  candidates[i].addr */\n      0x00\n      add\n      0x00\n      swap1\n      sload\n      swap1\n      0x0100\n      exp\n      swap1\n      div\n      0xffffffffffffffffffffffffffffffffffffffff\n      and\n        /* \"contract/voting.sol\":4441:4476  callEndElection[candidates[i].addr] */\n      0xffffffffffffffffffffffffffffffffffffffff\n      and\n      0xffffffffffffffffffffffffffffffffffffffff\n      and\n      dup2\n      mstore\n      0x20\n      add\n      swap1\n      dup2\n      mstore\n      0x20\n      add\n      0x00\n      keccak256\n      0x00\n        /* \"contract/voting.sol\":4441:4484  callEndElection[candidates[i].addr] = false */\n      0x0100\n      exp\n      dup2\n      sload\n      dup2\n      0xff\n      mul\n      not\n      and\n      swap1\n      dup4\n      iszero\n      iszero\n      mul\n      or\n      swap1\n      sstore\n      pop\n        /* \"contract/voting.sol\":4421:4425  i ++ */\n      dup1\n      dup1\n      0x01\n      add\n      swap2\n      pop\n      pop\n        /* \"contract/voting.sol\":4382:4499  for(uint i = 0; i < candidates.length; i ++) {... */\n      jump(tag_224)\n    tag_225:\n      pop\n        /* \"contract/voting.sol\":4532:4533  0 */\n      0x00\n        /* \"contract/voting.sol\":4513:4529  endElectionCount */\n      0x0b\n        /* \"contract/voting.sol\":4513:4533  endElectionCount = 0 */\n      dup2\n      swap1\n      sstore\n      pop\n        /* \"contract/voting.sol\":4558:4562  true */\n      0x01\n        /* \"contract/voting.sol\":4547:4555  finished */\n      0x06\n      0x00\n        /* \"contract/voting.sol\":4547:4562  finished = true */\n      0x0100\n      exp\n      dup2\n      sload\n      dup2\n      0xff\n      mul\n      not\n      and\n      swap1\n      dup4\n      iszero\n      iszero\n      mul\n      or\n      swap1\n      sstore\n      pop\n        /* \"contract/voting.sol\":4009:4573  {... */\n      pop\n        /* \"contract/voting.sol\":3970:4573  if (endElectionCount == numCandidates) {... */\n    tag_212:\n        /* \"contract/voting.sol\":3442:4579  function endElection() external {... */\n      jump\t// out\n        /* \"contract/voting.sol\":2903:3158  function electionCandidates() public view returns (address[] memory _addresses) {... */\n    tag_49:\n        /* \"contract/voting.sol\":2954:2981  address[] memory _addresses */\n      0x60\n        /* \"contract/voting.sol\":3020:3030  candidates */\n      0x07\n        /* \"contract/voting.sol\":3020:3037  candidates.length */\n      dup1\n      sload\n      swap1\n      pop\n        /* \"contract/voting.sol\":3006:3038  new address[](candidates.length) */\n      0xffffffffffffffff\n      dup2\n      gt\n      iszero\n      tag_231\n      jumpi\n      tag_232\n      tag_124\n      jump\t// in\n    tag_232:\n    tag_231:\n      mload(0x40)\n      swap1\n      dup1\n      dup3\n      mstore\n      dup1\n      0x20\n      mul\n      0x20\n      add\n      dup3\n      add\n      0x40\n      mstore\n      dup1\n      iszero\n      tag_233\n      jumpi\n      dup2\n      0x20\n      add\n      0x20\n      dup3\n      mul\n      dup1\n      calldatasize\n      dup4\n      calldatacopy\n      dup1\n      dup3\n      add\n      swap2\n      pop\n      pop\n      swap1\n      pop\n    tag_233:\n      pop\n        /* \"contract/voting.sol\":2993:3038  _addresses = new address[](candidates.length) */\n      swap1\n      pop\n        /* \"contract/voting.sol\":3052:3058  uint i */\n      0x00\n        /* \"contract/voting.sol\":3048:3152  for(uint i = 0; i < candidates.length; i ++) {... */\n    tag_234:\n        /* \"contract/voting.sol\":3068:3078  candidates */\n      0x07\n        /* \"contract/voting.sol\":3068:3085  candidates.length */\n      dup1\n      sload\n      swap1\n      pop\n        /* \"contract/voting.sol\":3064:3065  i */\n      dup2\n        /* \"contract/voting.sol\":3064:3085  i < candidates.length */\n      lt\n        /* \"contract/voting.sol\":3048:3152  for(uint i = 0; i < candidates.length; i ++) {... */\n      iszero\n      tag_235\n      jumpi\n        /* \"contract/voting.sol\":3123:3133  candidates */\n      0x07\n        /* \"contract/voting.sol\":3134:3135  i */\n      dup2\n        /* \"contract/voting.sol\":3123:3136  candidates[i] */\n      dup2\n      sload\n      dup2\n      lt\n      tag_237\n      jumpi\n      tag_238\n      tag_85\n      jump\t// in\n    tag_238:\n    tag_237:\n      swap1\n      0x00\n      mstore\n      keccak256(0x00, 0x20)\n      swap1\n      0x02\n      mul\n      add\n        /* \"contract/voting.sol\":3123:3141  candidates[i].addr */\n      0x00\n      add\n      0x00\n      swap1\n      sload\n      swap1\n      0x0100\n      exp\n      swap1\n      div\n      0xffffffffffffffffffffffffffffffffffffffff\n      and\n        /* \"contract/voting.sol\":3107:3117  _addresses */\n      dup3\n        /* \"contract/voting.sol\":3118:3119  i */\n      dup3\n        /* \"contract/voting.sol\":3107:3120  _addresses[i] */\n      dup2\n      mload\n      dup2\n      lt\n      tag_240\n      jumpi\n      tag_241\n      tag_85\n      jump\t// in\n    tag_241:\n    tag_240:\n      0x20\n      mul\n      0x20\n      add\n      add\n        /* \"contract/voting.sol\":3107:3141  _addresses[i] = candidates[i].addr */\n      swap1\n      0xffffffffffffffffffffffffffffffffffffffff\n      and\n      swap1\n      dup2\n      0xffffffffffffffffffffffffffffffffffffffff\n      and\n      dup2\n      mstore\n      pop\n      pop\n        /* \"contract/voting.sol\":3087:3091  i ++ */\n      dup1\n      dup1\n      0x01\n      add\n      swap2\n      pop\n      pop\n        /* \"contract/voting.sol\":3048:3152  for(uint i = 0; i < candidates.length; i ++) {... */\n      jump(tag_234)\n    tag_235:\n      pop\n        /* \"contract/voting.sol\":2903:3158  function electionCandidates() public view returns (address[] memory _addresses) {... */\n      swap1\n      jump\t// out\n        /* \"contract/voting.sol\":6045:6939  function voteChange(address _candidate) external {... */\n    tag_53:\n        /* \"contract/voting.sol\":6192:6200  finished */\n      0x06\n      0x00\n      swap1\n      sload\n      swap1\n      0x0100\n      exp\n      swap1\n      div\n      0xff\n      and\n        /* \"contract/voting.sol\":6191:6200  !finished */\n      iszero\n        /* \"contract/voting.sol\":6183:6234  require(!finished, \"Election has already finished\") */\n      tag_243\n      jumpi\n      mload(0x40)\n      0x08c379a000000000000000000000000000000000000000000000000000000000\n      dup2\n      mstore\n      0x04\n      add\n      tag_244\n      swap1\n      tag_68\n      jump\t// in\n    tag_244:\n      mload(0x40)\n      dup1\n      swap2\n      sub\n      swap1\n      revert\n    tag_243:\n        /* \"contract/voting.sol\":6278:6279  0 */\n      0x00\n        /* \"contract/voting.sol\":6252:6263  candidateId */\n      0x02\n        /* \"contract/voting.sol\":6252:6275  candidateId[_candidate] */\n      0x00\n        /* \"contract/voting.sol\":6264:6274  _candidate */\n      dup4\n        /* \"contract/voting.sol\":6252:6275  candidateId[_candidate] */\n      0xffffffffffffffffffffffffffffffffffffffff\n      and\n      0xffffffffffffffffffffffffffffffffffffffff\n      and\n      dup2\n      mstore\n      0x20\n      add\n      swap1\n      dup2\n      mstore\n      0x20\n      add\n      0x00\n      keccak256\n      sload\n        /* \"contract/voting.sol\":6252:6279  candidateId[_candidate] > 0 */\n      gt\n        /* \"contract/voting.sol\":6244:6306  require(candidateId[_candidate] > 0, \"Candidate do not exist\") */\n      tag_245\n      jumpi\n      mload(0x40)\n      0x08c379a000000000000000000000000000000000000000000000000000000000\n      dup2\n      mstore\n      0x04\n      add\n      tag_246\n      swap1\n      tag_98\n      jump\t// in\n    tag_246:\n      mload(0x40)\n      dup1\n      swap2\n      sub\n      swap1\n      revert\n    tag_245:\n        /* \"contract/voting.sol\":6351:6352  0 */\n      0x00\n        /* \"contract/voting.sol\":6324:6335  candidateId */\n      0x02\n        /* \"contract/voting.sol\":6324:6347  candidateId[msg.sender] */\n      0x00\n        /* \"contract/voting.sol\":6336:6346  msg.sender */\n      caller\n        /* \"contract/voting.sol\":6324:6347  candidateId[msg.sender] */\n      0xffffffffffffffffffffffffffffffffffffffff\n      and\n      0xffffffffffffffffffffffffffffffffffffffff\n      and\n      dup2\n      mstore\n      0x20\n      add\n      swap1\n      dup2\n      mstore\n      0x20\n      add\n      0x00\n      keccak256\n      sload\n        /* \"contract/voting.sol\":6324:6352  candidateId[msg.sender] == 0 */\n      eq\n        /* \"contract/voting.sol\":6316:6382  require(candidateId[msg.sender] == 0, \"Only voters can cast vote\") */\n      tag_247\n      jumpi\n      mload(0x40)\n      0x08c379a000000000000000000000000000000000000000000000000000000000\n      dup2\n      mstore\n      0x04\n      add\n      tag_248\n      swap1\n      tag_71\n      jump\t// in\n    tag_248:\n      mload(0x40)\n      dup1\n      swap2\n      sub\n      swap1\n      revert\n    tag_247:\n        /* \"contract/voting.sol\":6422:6423  0 */\n      0x00\n        /* \"contract/voting.sol\":6400:6407  voterId */\n      0x03\n        /* \"contract/voting.sol\":6400:6419  voterId[msg.sender] */\n      0x00\n        /* \"contract/voting.sol\":6408:6418  msg.sender */\n      caller\n        /* \"contract/voting.sol\":6400:6419  voterId[msg.sender] */\n      0xffffffffffffffffffffffffffffffffffffffff\n      and\n      0xffffffffffffffffffffffffffffffffffffffff\n      and\n      dup2\n      mstore\n      0x20\n      add\n      swap1\n      dup2\n      mstore\n      0x20\n      add\n      0x00\n      keccak256\n      sload\n        /* \"contract/voting.sol\":6400:6423  voterId[msg.sender] > 0 */\n      gt\n        /* \"contract/voting.sol\":6392:6462  require(voterId[msg.sender] > 0, \"Voter is not added in the election\") */\n      tag_249\n      jumpi\n      mload(0x40)\n      0x08c379a000000000000000000000000000000000000000000000000000000000\n      dup2\n      mstore\n      0x04\n      add\n      tag_250\n      swap1\n      tag_74\n      jump\t// in\n    tag_250:\n      mload(0x40)\n      dup1\n      swap2\n      sub\n      swap1\n      revert\n    tag_249:\n        /* \"contract/voting.sol\":6472:6491  Voter storage voter */\n      0x00\n        /* \"contract/voting.sol\":6494:6500  voters */\n      0x08\n        /* \"contract/voting.sol\":6523:6524  1 */\n      0x01\n        /* \"contract/voting.sol\":6501:6508  voterId */\n      0x03\n        /* \"contract/voting.sol\":6501:6520  voterId[msg.sender] */\n      0x00\n        /* \"contract/voting.sol\":6509:6519  msg.sender */\n      caller\n        /* \"contract/voting.sol\":6501:6520  voterId[msg.sender] */\n      0xffffffffffffffffffffffffffffffffffffffff\n      and\n      0xffffffffffffffffffffffffffffffffffffffff\n      and\n      dup2\n      mstore\n      0x20\n      add\n      swap1\n      dup2\n      mstore\n      0x20\n      add\n      0x00\n      keccak256\n      sload\n        /* \"contract/voting.sol\":6501:6524  voterId[msg.sender] - 1 */\n      tag_251\n      swap2\n      swap1\n      tag_82\n      jump\t// in\n    tag_251:\n        /* \"contract/voting.sol\":6494:6525  voters[voterId[msg.sender] - 1] */\n      dup2\n      sload\n      dup2\n      lt\n      tag_252\n      jumpi\n      tag_253\n      tag_85\n      jump\t// in\n    tag_253:\n    tag_252:\n      swap1\n      0x00\n      mstore\n      keccak256(0x00, 0x20)\n      swap1\n      0x04\n      mul\n      add\n        /* \"contract/voting.sol\":6472:6525  Voter storage voter = voters[voterId[msg.sender] - 1] */\n      swap1\n      pop\n        /* \"contract/voting.sol\":6543:6548  voter */\n      dup1\n        /* \"contract/voting.sol\":6543:6557  voter.eligible */\n      0x00\n      add\n      0x14\n      swap1\n      sload\n      swap1\n      0x0100\n      exp\n      swap1\n      div\n      0xff\n      and\n        /* \"contract/voting.sol\":6535:6600  require(voter.eligible, \"Voter is not yet eligible to cast vote\") */\n      tag_255\n      jumpi\n      mload(0x40)\n      0x08c379a000000000000000000000000000000000000000000000000000000000\n      dup2\n      mstore\n      0x04\n      add\n      tag_256\n      swap1\n      tag_89\n      jump\t// in\n    tag_256:\n      mload(0x40)\n      dup1\n      swap2\n      sub\n      swap1\n      revert\n    tag_255:\n        /* \"contract/voting.sol\":6618:6623  voter */\n      dup1\n        /* \"contract/voting.sol\":6618:6629  voter.voted */\n      0x00\n      add\n      0x15\n      swap1\n      sload\n      swap1\n      0x0100\n      exp\n      swap1\n      div\n      0xff\n      and\n        /* \"contract/voting.sol\":6610:6665  require(voter.voted, \"Voter has not cast its vote yet\") */\n      tag_257\n      jumpi\n      mload(0x40)\n      0x08c379a000000000000000000000000000000000000000000000000000000000\n      dup2\n      mstore\n      0x04\n      add\n      tag_258\n      swap1\n      tag_259\n      jump\t// in\n    tag_258:\n      mload(0x40)\n      dup1\n      swap2\n      sub\n      swap1\n      revert\n    tag_257:\n        /* \"contract/voting.sol\":6704:6715  candidateId */\n      0x02\n        /* \"contract/voting.sol\":6704:6727  candidateId[_candidate] */\n      0x00\n        /* \"contract/voting.sol\":6716:6726  _candidate */\n      dup4\n        /* \"contract/voting.sol\":6704:6727  candidateId[_candidate] */\n      0xffffffffffffffffffffffffffffffffffffffff\n      and\n      0xffffffffffffffffffffffffffffffffffffffff\n      and\n      dup2\n      mstore\n      0x20\n      add\n      swap1\n      dup2\n      mstore\n      0x20\n      add\n      0x00\n      keccak256\n      sload\n        /* \"contract/voting.sol\":6683:6688  voter */\n      dup2\n        /* \"contract/voting.sol\":6683:6700  voter.candidateId */\n      0x01\n      add\n      sload\n        /* \"contract/voting.sol\":6683:6727  voter.candidateId != candidateId[_candidate] */\n      sub\n        /* \"contract/voting.sol\":6675:6765  require(voter.candidateId != candidateId[_candidate], \"Voter vote for the same candidate\") */\n      tag_260\n      jumpi\n      mload(0x40)\n      0x08c379a000000000000000000000000000000000000000000000000000000000\n      dup2\n      mstore\n      0x04\n      add\n      tag_261\n      swap1\n      tag_262\n      jump\t// in\n    tag_261:\n      mload(0x40)\n      dup1\n      swap2\n      sub\n      swap1\n      revert\n    tag_260:\n        /* \"contract/voting.sol\":6818:6819  1 */\n      0x01\n        /* \"contract/voting.sol\":6775:6785  candidates */\n      0x07\n        /* \"contract/voting.sol\":6806:6807  1 */\n      0x01\n        /* \"contract/voting.sol\":6786:6791  voter */\n      dup4\n        /* \"contract/voting.sol\":6786:6803  voter.candidateId */\n      0x01\n      add\n      sload\n        /* \"contract/voting.sol\":6786:6807  voter.candidateId - 1 */\n      tag_263\n      swap2\n      swap1\n      tag_82\n      jump\t// in\n    tag_263:\n        /* \"contract/voting.sol\":6775:6808  candidates[voter.candidateId - 1] */\n      dup2\n      sload\n      dup2\n      lt\n      tag_264\n      jumpi\n      tag_265\n      tag_85\n      jump\t// in\n    tag_265:\n    tag_264:\n      swap1\n      0x00\n      mstore\n      keccak256(0x00, 0x20)\n      swap1\n      0x02\n      mul\n      add\n        /* \"contract/voting.sol\":6775:6814  candidates[voter.candidateId - 1].votes */\n      0x01\n      add\n      0x00\n        /* \"contract/voting.sol\":6775:6819  candidates[voter.candidateId - 1].votes -= 1 */\n      dup3\n      dup3\n      sload\n      tag_267\n      swap2\n      swap1\n      tag_82\n      jump\t// in\n    tag_267:\n      swap3\n      pop\n      pop\n      dup2\n      swap1\n      sstore\n      pop\n        /* \"contract/voting.sol\":6849:6860  candidateId */\n      0x02\n        /* \"contract/voting.sol\":6849:6872  candidateId[_candidate] */\n      0x00\n        /* \"contract/voting.sol\":6861:6871  _candidate */\n      dup4\n        /* \"contract/voting.sol\":6849:6872  candidateId[_candidate] */\n      0xffffffffffffffffffffffffffffffffffffffff\n      and\n      0xffffffffffffffffffffffffffffffffffffffff\n      and\n      dup2\n      mstore\n      0x20\n      add\n      swap1\n      dup2\n      mstore\n      0x20\n      add\n      0x00\n      keccak256\n      sload\n        /* \"contract/voting.sol\":6829:6834  voter */\n      dup2\n        /* \"contract/voting.sol\":6829:6846  voter.candidateId */\n      0x01\n      add\n        /* \"contract/voting.sol\":6829:6872  voter.candidateId = candidateId[_candidate] */\n      dup2\n      swap1\n      sstore\n      pop\n        /* \"contract/voting.sol\":6931:6932  1 */\n      0x01\n        /* \"contract/voting.sol\":6882:6892  candidates */\n      0x07\n        /* \"contract/voting.sol\":6919:6920  1 */\n      0x01\n        /* \"contract/voting.sol\":6893:6904  candidateId */\n      0x02\n        /* \"contract/voting.sol\":6893:6916  candidateId[_candidate] */\n      0x00\n        /* \"contract/voting.sol\":6905:6915  _candidate */\n      dup7\n        /* \"contract/voting.sol\":6893:6916  candidateId[_candidate] */\n      0xffffffffffffffffffffffffffffffffffffffff\n      and\n      0xffffffffffffffffffffffffffffffffffffffff\n      and\n      dup2\n      mstore\n      0x20\n      add\n      swap1\n      dup2\n      mstore\n      0x20\n      add\n      0x00\n      keccak256\n      sload\n        /* \"contract/voting.sol\":6893:6920  candidateId[_candidate] - 1 */\n      tag_268\n      swap2\n      swap1\n      tag_82\n      jump\t// in\n    tag_268:\n        /* \"contract/voting.sol\":6882:6921  candidates[candidateId[_candidate] - 1] */\n      dup2\n      sload\n      dup2\n      lt\n      tag_269\n      jumpi\n      tag_270\n      tag_85\n      jump\t// in\n    tag_270:\n    tag_269:\n      swap1\n      0x00\n      mstore\n      keccak256(0x00, 0x20)\n      swap1\n      0x02\n      mul\n      add\n        /* \"contract/voting.sol\":6882:6927  candidates[candidateId[_candidate] - 1].votes */\n      0x01\n      add\n      0x00\n        /* \"contract/voting.sol\":6882:6932  candidates[candidateId[_candidate] - 1].votes += 1 */\n      dup3\n      dup3\n      sload\n      tag_272\n      swap2\n      swap1\n      tag_120\n      jump\t// in\n    tag_272:\n      swap3\n      pop\n      pop\n      dup2\n      swap1\n      sstore\n      pop\n        /* \"contract/voting.sol\":6094:6939  {... */\n      pop\n        /* \"contract/voting.sol\":6045:6939  function voteChange(address _candidate) external {... */\n      pop\n      jump\t// out\n        /* \"contract/voting.sol\":1189:2149  function whitelistVoter(address _voter) external {... */\n    tag_56:\n        /* \"contract/voting.sol\":1257:1265  finished */\n      0x06\n      0x00\n      swap1\n      sload\n      swap1\n      0x0100\n      exp\n      swap1\n      div\n      0xff\n      and\n        /* \"contract/voting.sol\":1256:1265  !finished */\n      iszero\n        /* \"contract/voting.sol\":1248:1299  require(!finished, \"Election has already finished\") */\n      tag_274\n      jumpi\n      mload(0x40)\n      0x08c379a000000000000000000000000000000000000000000000000000000000\n      dup2\n      mstore\n      0x04\n      add\n      tag_275\n      swap1\n      tag_68\n      jump\t// in\n    tag_275:\n      mload(0x40)\n      dup1\n      swap2\n      sub\n      swap1\n      revert\n    tag_274:\n        /* \"contract/voting.sol\":1343:1344  0 */\n      0x00\n        /* \"contract/voting.sol\":1317:1328  candidateId */\n      0x02\n        /* \"contract/voting.sol\":1317:1340  candidateId[msg.sender] */\n      0x00\n        /* \"contract/voting.sol\":1329:1339  msg.sender */\n      caller\n        /* \"contract/voting.sol\":1317:1340  candidateId[msg.sender] */\n      0xffffffffffffffffffffffffffffffffffffffff\n      and\n      0xffffffffffffffffffffffffffffffffffffffff\n      and\n      dup2\n      mstore\n      0x20\n      add\n      swap1\n      dup2\n      mstore\n      0x20\n      add\n      0x00\n      keccak256\n      sload\n        /* \"contract/voting.sol\":1317:1344  candidateId[msg.sender] > 0 */\n      gt\n        /* \"contract/voting.sol\":1309:1387  require(candidateId[msg.sender] > 0, \"Only candidate can whitelist the voter\") */\n      tag_276\n      jumpi\n      mload(0x40)\n      0x08c379a000000000000000000000000000000000000000000000000000000000\n      dup2\n      mstore\n      0x04\n      add\n      tag_277\n      swap1\n      tag_278\n      jump\t// in\n    tag_277:\n      mload(0x40)\n      dup1\n      swap2\n      sub\n      swap1\n      revert\n    tag_276:\n        /* \"contract/voting.sol\":1419:1420  0 */\n      0x00\n        /* \"contract/voting.sol\":1400:1407  voterId */\n      0x03\n        /* \"contract/voting.sol\":1400:1415  voterId[_voter] */\n      0x00\n        /* \"contract/voting.sol\":1408:1414  _voter */\n      dup4\n        /* \"contract/voting.sol\":1400:1415  voterId[_voter] */\n      0xffffffffffffffffffffffffffffffffffffffff\n      and\n      0xffffffffffffffffffffffffffffffffffffffff\n      and\n      dup2\n      mstore\n      0x20\n      add\n      swap1\n      dup2\n      mstore\n      0x20\n      add\n      0x00\n      keccak256\n      sload\n        /* \"contract/voting.sol\":1400:1420  voterId[_voter] == 0 */\n      sub\n        /* \"contract/voting.sol\":1397:1644  if(voterId[_voter] == 0) {... */\n      tag_279\n      jumpi\n        /* \"contract/voting.sol\":1482:1488  voters */\n      0x08\n        /* \"contract/voting.sol\":1494:1563  Voter(_voter, false, false,false, 0, new address[](numCandidates), 0) */\n      mload(0x40)\n      dup1\n      0xe0\n      add\n      0x40\n      mstore\n      dup1\n        /* \"contract/voting.sol\":1500:1506  _voter */\n      dup4\n        /* \"contract/voting.sol\":1494:1563  Voter(_voter, false, false,false, 0, new address[](numCandidates), 0) */\n      0xffffffffffffffffffffffffffffffffffffffff\n      and\n      dup2\n      mstore\n      0x20\n      add\n        /* \"contract/voting.sol\":1508:1513  false */\n      0x00\n        /* \"contract/voting.sol\":1494:1563  Voter(_voter, false, false,false, 0, new address[](numCandidates), 0) */\n      iszero\n      iszero\n      dup2\n      mstore\n      0x20\n      add\n        /* \"contract/voting.sol\":1515:1520  false */\n      0x00\n        /* \"contract/voting.sol\":1494:1563  Voter(_voter, false, false,false, 0, new address[](numCandidates), 0) */\n      iszero\n      iszero\n      dup2\n      mstore\n      0x20\n      add\n        /* \"contract/voting.sol\":1521:1526  false */\n      0x00\n        /* \"contract/voting.sol\":1494:1563  Voter(_voter, false, false,false, 0, new address[](numCandidates), 0) */\n      iszero\n      iszero\n      dup2\n      mstore\n      0x20\n      add\n        /* \"contract/voting.sol\":1528:1529  0 */\n      0x00\n        /* \"contract/voting.sol\":1494:1563  Voter(_voter, false, false,false, 0, new address[](numCandidates), 0) */\n      dup2\n      mstore\n      0x20\n      add\n        /* \"contract/voting.sol\":1545:1558  numCandidates */\n      sload(0x00)\n        /* \"contract/voting.sol\":1531:1559  new address[](numCandidates) */\n      0xffffffffffffffff\n      dup2\n      gt\n      iszero\n      tag_280\n      jumpi\n      tag_281\n      tag_124\n      jump\t// in\n    tag_281:\n    tag_280:\n      mload(0x40)\n      swap1\n      dup1\n      dup3\n      mstore\n      dup1\n      0x20\n      mul\n      0x20\n      add\n      dup3\n      add\n      0x40\n      mstore\n      dup1\n      iszero\n      tag_282\n      jumpi\n      dup2\n      0x20\n      add\n      0x20\n      dup3\n      mul\n      dup1\n      calldatasize\n      dup4\n      calldatacopy\n      dup1\n      dup3\n      add\n      swap2\n      pop\n      pop\n      swap1\n      pop\n    tag_282:\n      pop\n        /* \"contract/voting.sol\":1494:1563  Voter(_voter, false, false,false, 0, new address[](numCandidates), 0) */\n      dup2\n      mstore\n      0x20\n      add\n        /* \"contract/voting.sol\":1561:1562  0 */\n      0x00\n        /* \"contract/voting.sol\":1494:1563  Voter(_voter, false, false,false, 0, new address[](numCandidates), 0) */\n      dup2\n      mstore\n      pop\n        /* \"contract/voting.sol\":1482:1564  voters.push(Voter(_voter, false, false,false, 0, new address[](numCandidates), 0)) */\n      swap1\n      dup1\n      0x01\n      dup2\n      sload\n      add\n      dup1\n      dup3\n      sstore\n      dup1\n      swap2\n      pop\n      pop\n      0x01\n      swap1\n      sub\n      swap1\n      0x00\n      mstore\n      keccak256(0x00, 0x20)\n      swap1\n      0x04\n      mul\n      add\n      0x00\n      swap1\n      swap2\n      swap1\n      swap2\n      swap1\n      swap2\n      pop\n      0x00\n      dup3\n      add\n      mload\n      dup2\n      0x00\n      add\n      exp(0x0100, 0x00)\n      dup2\n      sload\n      dup2\n      0xffffffffffffffffffffffffffffffffffffffff\n      mul\n      not\n      and\n      swap1\n      dup4\n      0xffffffffffffffffffffffffffffffffffffffff\n      and\n      mul\n      or\n      swap1\n      sstore\n      pop\n      0x20\n      dup3\n      add\n      mload\n      dup2\n      0x00\n      add\n      exp(0x0100, 0x14)\n      dup2\n      sload\n      dup2\n      0xff\n      mul\n      not\n      and\n      swap1\n      dup4\n      iszero\n      iszero\n      mul\n      or\n      swap1\n      sstore\n      pop\n      0x40\n      dup3\n      add\n      mload\n      dup2\n      0x00\n      add\n      exp(0x0100, 0x15)\n      dup2\n      sload\n      dup2\n      0xff\n      mul\n      not\n      and\n      swap1\n      dup4\n      iszero\n      iszero\n      mul\n      or\n      swap1\n      sstore\n      pop\n      0x60\n      dup3\n      add\n      mload\n      dup2\n      0x00\n      add\n      exp(0x0100, 0x16)\n      dup2\n      sload\n      dup2\n      0xff\n      mul\n      not\n      and\n      swap1\n      dup4\n      iszero\n      iszero\n      mul\n      or\n      swap1\n      sstore\n      pop\n      0x80\n      dup3\n      add\n      mload\n      dup2\n      0x01\n      add\n      sstore\n      0xa0\n      dup3\n      add\n      mload\n      dup2\n      0x02\n      add\n      swap1\n      dup1\n      mload\n      swap1\n      0x20\n      add\n      swap1\n      tag_284\n      swap3\n      swap2\n      swap1\n      tag_285\n      jump\t// in\n    tag_284:\n      pop\n      0xc0\n      dup3\n      add\n      mload\n      dup2\n      0x03\n      add\n      sstore\n      pop\n      pop\n        /* \"contract/voting.sol\":1591:1592  1 */\n      0x01\n        /* \"contract/voting.sol\":1578:1587  numVoters */\n      dup1\n      0x00\n        /* \"contract/voting.sol\":1578:1592  numVoters += 1 */\n      dup3\n      dup3\n      sload\n      tag_286\n      swap2\n      swap1\n      tag_120\n      jump\t// in\n    tag_286:\n      swap3\n      pop\n      pop\n      dup2\n      swap1\n      sstore\n      pop\n        /* \"contract/voting.sol\":1624:1633  numVoters */\n      sload(0x01)\n        /* \"contract/voting.sol\":1606:1613  voterId */\n      0x03\n        /* \"contract/voting.sol\":1606:1621  voterId[_voter] */\n      0x00\n        /* \"contract/voting.sol\":1614:1620  _voter */\n      dup4\n        /* \"contract/voting.sol\":1606:1621  voterId[_voter] */\n      0xffffffffffffffffffffffffffffffffffffffff\n      and\n      0xffffffffffffffffffffffffffffffffffffffff\n      and\n      dup2\n      mstore\n      0x20\n      add\n      swap1\n      dup2\n      mstore\n      0x20\n      add\n      0x00\n      keccak256\n        /* \"contract/voting.sol\":1606:1633  voterId[_voter] = numVoters */\n      dup2\n      swap1\n      sstore\n      pop\n        /* \"contract/voting.sol\":1397:1644  if(voterId[_voter] == 0) {... */\n    tag_279:\n        /* \"contract/voting.sol\":1653:1672  Voter storage voter */\n      0x00\n        /* \"contract/voting.sol\":1675:1681  voters */\n      0x08\n        /* \"contract/voting.sol\":1700:1701  1 */\n      0x01\n        /* \"contract/voting.sol\":1682:1689  voterId */\n      0x03\n        /* \"contract/voting.sol\":1682:1697  voterId[_voter] */\n      0x00\n        /* \"contract/voting.sol\":1690:1696  _voter */\n      dup6\n        /* \"contract/voting.sol\":1682:1697  voterId[_voter] */\n      0xffffffffffffffffffffffffffffffffffffffff\n      and\n      0xffffffffffffffffffffffffffffffffffffffff\n      and\n      dup2\n      mstore\n      0x20\n      add\n      swap1\n      dup2\n      mstore\n      0x20\n      add\n      0x00\n      keccak256\n      sload\n        /* \"contract/voting.sol\":1682:1701  voterId[_voter] - 1 */\n      tag_287\n      swap2\n      swap1\n      tag_82\n      jump\t// in\n    tag_287:\n        /* \"contract/voting.sol\":1675:1702  voters[voterId[_voter] - 1] */\n      dup2\n      sload\n      dup2\n      lt\n      tag_288\n      jumpi\n      tag_289\n      tag_85\n      jump\t// in\n    tag_289:\n    tag_288:\n      swap1\n      0x00\n      mstore\n      keccak256(0x00, 0x20)\n      swap1\n      0x04\n      mul\n      add\n        /* \"contract/voting.sol\":1653:1702  Voter storage voter = voters[voterId[_voter] - 1] */\n      swap1\n      pop\n        /* \"contract/voting.sol\":1721:1726  voter */\n      dup1\n        /* \"contract/voting.sol\":1721:1735  voter.eligible */\n      0x00\n      add\n      0x14\n      swap1\n      sload\n      swap1\n      0x0100\n      exp\n      swap1\n      div\n      0xff\n      and\n        /* \"contract/voting.sol\":1720:1735  !voter.eligible */\n      iszero\n        /* \"contract/voting.sol\":1712:1773  require(!voter.eligible, \"Voter is already eligible to vote\") */\n      tag_291\n      jumpi\n      mload(0x40)\n      0x08c379a000000000000000000000000000000000000000000000000000000000\n      dup2\n      mstore\n      0x04\n      add\n      tag_292\n      swap1\n      tag_293\n      jump\t// in\n    tag_292:\n      mload(0x40)\n      dup1\n      swap2\n      sub\n      swap1\n      revert\n    tag_291:\n        /* \"contract/voting.sol\":1787:1793  uint i */\n      0x00\n        /* \"contract/voting.sol\":1783:1946  for(uint i = 0; i < voter.whitelistCount; i ++) {... */\n    tag_294:\n        /* \"contract/voting.sol\":1803:1808  voter */\n      dup2\n        /* \"contract/voting.sol\":1803:1823  voter.whitelistCount */\n      0x03\n      add\n      sload\n        /* \"contract/voting.sol\":1799:1800  i */\n      dup2\n        /* \"contract/voting.sol\":1799:1823  i < voter.whitelistCount */\n      lt\n        /* \"contract/voting.sol\":1783:1946  for(uint i = 0; i < voter.whitelistCount; i ++) {... */\n      iszero\n      tag_295\n      jumpi\n        /* \"contract/voting.sol\":1867:1872  voter */\n      dup2\n        /* \"contract/voting.sol\":1867:1886  voter.whitelistedBy */\n      0x02\n      add\n        /* \"contract/voting.sol\":1887:1888  i */\n      dup2\n        /* \"contract/voting.sol\":1867:1889  voter.whitelistedBy[i] */\n      dup2\n      sload\n      dup2\n      lt\n      tag_297\n      jumpi\n      tag_298\n      tag_85\n      jump\t// in\n    tag_298:\n    tag_297:\n      swap1\n      0x00\n      mstore\n      keccak256(0x00, 0x20)\n      add\n      0x00\n      swap1\n      sload\n      swap1\n      0x0100\n      exp\n      swap1\n      div\n      0xffffffffffffffffffffffffffffffffffffffff\n      and\n        /* \"contract/voting.sol\":1853:1889  msg.sender != voter.whitelistedBy[i] */\n      0xffffffffffffffffffffffffffffffffffffffff\n      and\n        /* \"contract/voting.sol\":1853:1863  msg.sender */\n      caller\n        /* \"contract/voting.sol\":1853:1889  msg.sender != voter.whitelistedBy[i] */\n      0xffffffffffffffffffffffffffffffffffffffff\n      and\n      sub\n        /* \"contract/voting.sol\":1845:1935  require(msg.sender != voter.whitelistedBy[i], \"Voter has already been whitelisted by you\") */\n      tag_300\n      jumpi\n      mload(0x40)\n      0x08c379a000000000000000000000000000000000000000000000000000000000\n      dup2\n      mstore\n      0x04\n      add\n      tag_301\n      swap1\n      tag_302\n      jump\t// in\n    tag_301:\n      mload(0x40)\n      dup1\n      swap2\n      sub\n      swap1\n      revert\n    tag_300:\n        /* \"contract/voting.sol\":1825:1829  i ++ */\n      dup1\n      dup1\n      0x01\n      add\n      swap2\n      pop\n      pop\n        /* \"contract/voting.sol\":1783:1946  for(uint i = 0; i < voter.whitelistCount; i ++) {... */\n      jump(tag_294)\n    tag_295:\n      pop\n        /* \"contract/voting.sol\":1999:2009  msg.sender */\n      caller\n        /* \"contract/voting.sol\":1955:1960  voter */\n      dup2\n        /* \"contract/voting.sol\":1955:1974  voter.whitelistedBy */\n      0x02\n      add\n        /* \"contract/voting.sol\":1975:1980  voter */\n      dup3\n        /* \"contract/voting.sol\":1975:1995  voter.whitelistCount */\n      0x03\n      add\n      sload\n        /* \"contract/voting.sol\":1955:1996  voter.whitelistedBy[voter.whitelistCount] */\n      dup2\n      sload\n      dup2\n      lt\n      tag_303\n      jumpi\n      tag_304\n      tag_85\n      jump\t// in\n    tag_304:\n    tag_303:\n      swap1\n      0x00\n      mstore\n      keccak256(0x00, 0x20)\n      add\n      0x00\n        /* \"contract/voting.sol\":1955:2009  voter.whitelistedBy[voter.whitelistCount] = msg.sender */\n      0x0100\n      exp\n      dup2\n      sload\n      dup2\n      0xffffffffffffffffffffffffffffffffffffffff\n      mul\n      not\n      and\n      swap1\n      dup4\n      0xffffffffffffffffffffffffffffffffffffffff\n      and\n      mul\n      or\n      swap1\n      sstore\n      pop\n        /* \"contract/voting.sol\":2043:2044  1 */\n      0x01\n        /* \"contract/voting.sol\":2019:2024  voter */\n      dup2\n        /* \"contract/voting.sol\":2019:2039  voter.whitelistCount */\n      0x03\n      add\n      0x00\n        /* \"contract/voting.sol\":2019:2044  voter.whitelistCount += 1 */\n      dup3\n      dup3\n      sload\n      tag_306\n      swap2\n      swap1\n      tag_120\n      jump\t// in\n    tag_306:\n      swap3\n      pop\n      pop\n      dup2\n      swap1\n      sstore\n      pop\n        /* \"contract/voting.sol\":2082:2095  numCandidates */\n      sload(0x00)\n        /* \"contract/voting.sol\":2058:2063  voter */\n      dup2\n        /* \"contract/voting.sol\":2058:2078  voter.whitelistCount */\n      0x03\n      add\n      sload\n        /* \"contract/voting.sol\":2058:2095  voter.whitelistCount == numCandidates */\n      sub\n        /* \"contract/voting.sol\":2054:2143  if (voter.whitelistCount == numCandidates) {... */\n      tag_307\n      jumpi\n        /* \"contract/voting.sol\":2128:2132  true */\n      0x01\n        /* \"contract/voting.sol\":2111:2116  voter */\n      dup2\n        /* \"contract/voting.sol\":2111:2125  voter.eligible */\n      0x00\n      add\n      0x14\n        /* \"contract/voting.sol\":2111:2132  voter.eligible = true */\n      0x0100\n      exp\n      dup2\n      sload\n      dup2\n      0xff\n      mul\n      not\n      and\n      swap1\n      dup4\n      iszero\n      iszero\n      mul\n      or\n      swap1\n      sstore\n      pop\n        /* \"contract/voting.sol\":2054:2143  if (voter.whitelistCount == numCandidates) {... */\n    tag_307:\n        /* \"contract/voting.sol\":1238:2149  {... */\n      pop\n        /* \"contract/voting.sol\":1189:2149  function whitelistVoter(address _voter) external {... */\n      pop\n      jump\t// out\n        /* \"contract/voting.sol\":7599:7934  function votedVoters() public view returns (address[] memory _addresses) {... */\n    tag_58:\n        /* \"contract/voting.sol\":7643:7670  address[] memory _addresses */\n      0x60\n        /* \"contract/voting.sol\":7709:7715  voters */\n      0x08\n        /* \"contract/voting.sol\":7709:7722  voters.length */\n      dup1\n      sload\n      swap1\n      pop\n        /* \"contract/voting.sol\":7695:7723  new address[](voters.length) */\n      0xffffffffffffffff\n      dup2\n      gt\n      iszero\n      tag_309\n      jumpi\n      tag_310\n      tag_124\n      jump\t// in\n    tag_310:\n    tag_309:\n      mload(0x40)\n      swap1\n      dup1\n      dup3\n      mstore\n      dup1\n      0x20\n      mul\n      0x20\n      add\n      dup3\n      add\n      0x40\n      mstore\n      dup1\n      iszero\n      tag_311\n      jumpi\n      dup2\n      0x20\n      add\n      0x20\n      dup3\n      mul\n      dup1\n      calldatasize\n      dup4\n      calldatacopy\n      dup1\n      dup3\n      add\n      swap2\n      pop\n      pop\n      swap1\n      pop\n    tag_311:\n      pop\n        /* \"contract/voting.sol\":7682:7723  _addresses = new address[](voters.length) */\n      swap1\n      pop\n        /* \"contract/voting.sol\":7733:7739  uint j */\n      0x00\n        /* \"contract/voting.sol\":7757:7763  uint i */\n      dup1\n        /* \"contract/voting.sol\":7753:7928  for(uint i = 0; i < voters.length; i ++) {... */\n    tag_312:\n        /* \"contract/voting.sol\":7773:7779  voters */\n      0x08\n        /* \"contract/voting.sol\":7773:7786  voters.length */\n      dup1\n      sload\n      swap1\n      pop\n        /* \"contract/voting.sol\":7769:7770  i */\n      dup2\n        /* \"contract/voting.sol\":7769:7786  i < voters.length */\n      lt\n        /* \"contract/voting.sol\":7753:7928  for(uint i = 0; i < voters.length; i ++) {... */\n      iszero\n      tag_313\n      jumpi\n        /* \"contract/voting.sol\":7812:7818  voters */\n      0x08\n        /* \"contract/voting.sol\":7819:7820  i */\n      dup2\n        /* \"contract/voting.sol\":7812:7821  voters[i] */\n      dup2\n      sload\n      dup2\n      lt\n      tag_315\n      jumpi\n      tag_316\n      tag_85\n      jump\t// in\n    tag_316:\n    tag_315:\n      swap1\n      0x00\n      mstore\n      keccak256(0x00, 0x20)\n      swap1\n      0x04\n      mul\n      add\n        /* \"contract/voting.sol\":7812:7827  voters[i].voted */\n      0x00\n      add\n      0x15\n      swap1\n      sload\n      swap1\n      0x0100\n      exp\n      swap1\n      div\n      0xff\n      and\n        /* \"contract/voting.sol\":7808:7916  if (voters[i].voted) {... */\n      iszero\n      tag_318\n      jumpi\n        /* \"contract/voting.sol\":7863:7869  voters */\n      0x08\n        /* \"contract/voting.sol\":7870:7871  i */\n      dup2\n        /* \"contract/voting.sol\":7863:7872  voters[i] */\n      dup2\n      sload\n      dup2\n      lt\n      tag_319\n      jumpi\n      tag_320\n      tag_85\n      jump\t// in\n    tag_320:\n    tag_319:\n      swap1\n      0x00\n      mstore\n      keccak256(0x00, 0x20)\n      swap1\n      0x04\n      mul\n      add\n        /* \"contract/voting.sol\":7863:7877  voters[i].addr */\n      0x00\n      add\n      0x00\n      swap1\n      sload\n      swap1\n      0x0100\n      exp\n      swap1\n      div\n      0xffffffffffffffffffffffffffffffffffffffff\n      and\n        /* \"contract/voting.sol\":7847:7857  _addresses */\n      dup4\n        /* \"contract/voting.sol\":7858:7859  j */\n      dup4\n        /* \"contract/voting.sol\":7847:7860  _addresses[j] */\n      dup2\n      mload\n      dup2\n      lt\n      tag_322\n      jumpi\n      tag_323\n      tag_85\n      jump\t// in\n    tag_323:\n    tag_322:\n      0x20\n      mul\n      0x20\n      add\n      add\n        /* \"contract/voting.sol\":7847:7877  _addresses[j] = voters[i].addr */\n      swap1\n      0xffffffffffffffffffffffffffffffffffffffff\n      and\n      swap1\n      dup2\n      0xffffffffffffffffffffffffffffffffffffffff\n      and\n      dup2\n      mstore\n      pop\n      pop\n        /* \"contract/voting.sol\":7900:7901  1 */\n      0x01\n        /* \"contract/voting.sol\":7895:7901  j += 1 */\n      dup3\n      tag_324\n      swap2\n      swap1\n      tag_120\n      jump\t// in\n    tag_324:\n      swap2\n      pop\n        /* \"contract/voting.sol\":7808:7916  if (voters[i].voted) {... */\n    tag_318:\n        /* \"contract/voting.sol\":7788:7792  i ++ */\n      dup1\n      dup1\n      0x01\n      add\n      swap2\n      pop\n      pop\n        /* \"contract/voting.sol\":7753:7928  for(uint i = 0; i < voters.length; i ++) {... */\n      jump(tag_312)\n    tag_313:\n      pop\n        /* \"contract/voting.sol\":7672:7934  {... */\n      pop\n        /* \"contract/voting.sol\":7599:7934  function votedVoters() public view returns (address[] memory _addresses) {... */\n      swap1\n      jump\t// out\n        /* \"contract/voting.sol\":6946:7593  function voteRevoke() external {... */\n    tag_61:\n        /* \"contract/voting.sol\":7071:7079  finished */\n      0x06\n      0x00\n      swap1\n      sload\n      swap1\n      0x0100\n      exp\n      swap1\n      div\n      0xff\n      and\n        /* \"contract/voting.sol\":7070:7079  !finished */\n      iszero\n        /* \"contract/voting.sol\":7062:7113  require(!finished, \"Election has already finished\") */\n      tag_326\n      jumpi\n      mload(0x40)\n      0x08c379a000000000000000000000000000000000000000000000000000000000\n      dup2\n      mstore\n      0x04\n      add\n      tag_327\n      swap1\n      tag_68\n      jump\t// in\n    tag_327:\n      mload(0x40)\n      dup1\n      swap2\n      sub\n      swap1\n      revert\n    tag_326:\n        /* \"contract/voting.sol\":7158:7159  0 */\n      0x00\n        /* \"contract/voting.sol\":7131:7142  candidateId */\n      0x02\n        /* \"contract/voting.sol\":7131:7154  candidateId[msg.sender] */\n      0x00\n        /* \"contract/voting.sol\":7143:7153  msg.sender */\n      caller\n        /* \"contract/voting.sol\":7131:7154  candidateId[msg.sender] */\n      0xffffffffffffffffffffffffffffffffffffffff\n      and\n      0xffffffffffffffffffffffffffffffffffffffff\n      and\n      dup2\n      mstore\n      0x20\n      add\n      swap1\n      dup2\n      mstore\n      0x20\n      add\n      0x00\n      keccak256\n      sload\n        /* \"contract/voting.sol\":7131:7159  candidateId[msg.sender] == 0 */\n      eq\n        /* \"contract/voting.sol\":7123:7189  require(candidateId[msg.sender] == 0, \"Only voters can cast vote\") */\n      tag_328\n      jumpi\n      mload(0x40)\n      0x08c379a000000000000000000000000000000000000000000000000000000000\n      dup2\n      mstore\n      0x04\n      add\n      tag_329\n      swap1\n      tag_71\n      jump\t// in\n    tag_329:\n      mload(0x40)\n      dup1\n      swap2\n      sub\n      swap1\n      revert\n    tag_328:\n        /* \"contract/voting.sol\":7229:7230  0 */\n      0x00\n        /* \"contract/voting.sol\":7207:7214  voterId */\n      0x03\n        /* \"contract/voting.sol\":7207:7226  voterId[msg.sender] */\n      0x00\n        /* \"contract/voting.sol\":7215:7225  msg.sender */\n      caller\n        /* \"contract/voting.sol\":7207:7226  voterId[msg.sender] */\n      0xffffffffffffffffffffffffffffffffffffffff\n      and\n      0xffffffffffffffffffffffffffffffffffffffff\n      and\n      dup2\n      mstore\n      0x20\n      add\n      swap1\n      dup2\n      mstore\n      0x20\n      add\n      0x00\n      keccak256\n      sload\n        /* \"contract/voting.sol\":7207:7230  voterId[msg.sender] > 0 */\n      gt\n        /* \"contract/voting.sol\":7199:7269  require(voterId[msg.sender] > 0, \"Voter is not added in the election\") */\n      tag_330\n      jumpi\n      mload(0x40)\n      0x08c379a000000000000000000000000000000000000000000000000000000000\n      dup2\n      mstore\n      0x04\n      add\n      tag_331\n      swap1\n      tag_74\n      jump\t// in\n    tag_331:\n      mload(0x40)\n      dup1\n      swap2\n      sub\n      swap1\n      revert\n    tag_330:\n        /* \"contract/voting.sol\":7279:7298  Voter storage voter */\n      0x00\n        /* \"contract/voting.sol\":7301:7307  voters */\n      0x08\n        /* \"contract/voting.sol\":7330:7331  1 */\n      0x01\n        /* \"contract/voting.sol\":7308:7315  voterId */\n      0x03\n        /* \"contract/voting.sol\":7308:7327  voterId[msg.sender] */\n      0x00\n        /* \"contract/voting.sol\":7316:7326  msg.sender */\n      caller\n        /* \"contract/voting.sol\":7308:7327  voterId[msg.sender] */\n      0xffffffffffffffffffffffffffffffffffffffff\n      and\n      0xffffffffffffffffffffffffffffffffffffffff\n      and\n      dup2\n      mstore\n      0x20\n      add\n      swap1\n      dup2\n      mstore\n      0x20\n      add\n      0x00\n      keccak256\n      sload\n        /* \"contract/voting.sol\":7308:7331  voterId[msg.sender] - 1 */\n      tag_332\n      swap2\n      swap1\n      tag_82\n      jump\t// in\n    tag_332:\n        /* \"contract/voting.sol\":7301:7332  voters[voterId[msg.sender] - 1] */\n      dup2\n      sload\n      dup2\n      lt\n      tag_333\n      jumpi\n      tag_334\n      tag_85\n      jump\t// in\n    tag_334:\n    tag_333:\n      swap1\n      0x00\n      mstore\n      keccak256(0x00, 0x20)\n      swap1\n      0x04\n      mul\n      add\n        /* \"contract/voting.sol\":7279:7332  Voter storage voter = voters[voterId[msg.sender] - 1] */\n      swap1\n      pop\n        /* \"contract/voting.sol\":7350:7355  voter */\n      dup1\n        /* \"contract/voting.sol\":7350:7364  voter.eligible */\n      0x00\n      add\n      0x14\n      swap1\n      sload\n      swap1\n      0x0100\n      exp\n      swap1\n      div\n      0xff\n      and\n        /* \"contract/voting.sol\":7342:7407  require(voter.eligible, \"Voter is not yet eligible to cast vote\") */\n      tag_336\n      jumpi\n      mload(0x40)\n      0x08c379a000000000000000000000000000000000000000000000000000000000\n      dup2\n      mstore\n      0x04\n      add\n      tag_337\n      swap1\n      tag_89\n      jump\t// in\n    tag_337:\n      mload(0x40)\n      dup1\n      swap2\n      sub\n      swap1\n      revert\n    tag_336:\n        /* \"contract/voting.sol\":7425:7430  voter */\n      dup1\n        /* \"contract/voting.sol\":7425:7436  voter.voted */\n      0x00\n      add\n      0x15\n      swap1\n      sload\n      swap1\n      0x0100\n      exp\n      swap1\n      div\n      0xff\n      and\n        /* \"contract/voting.sol\":7417:7472  require(voter.voted, \"Voter has not cast its vote yet\") */\n      tag_338\n      jumpi\n      mload(0x40)\n      0x08c379a000000000000000000000000000000000000000000000000000000000\n      dup2\n      mstore\n      0x04\n      add\n      tag_339\n      swap1\n      tag_259\n      jump\t// in\n    tag_339:\n      mload(0x40)\n      dup1\n      swap2\n      sub\n      swap1\n      revert\n    tag_338:\n        /* \"contract/voting.sol\":7525:7526  1 */\n      0x01\n        /* \"contract/voting.sol\":7482:7492  candidates */\n      0x07\n        /* \"contract/voting.sol\":7513:7514  1 */\n      0x01\n        /* \"contract/voting.sol\":7493:7498  voter */\n      dup4\n        /* \"contract/voting.sol\":7493:7510  voter.candidateId */\n      0x01\n      add\n      sload\n        /* \"contract/voting.sol\":7493:7514  voter.candidateId - 1 */\n      tag_340\n      swap2\n      swap1\n      tag_82\n      jump\t// in\n    tag_340:\n        /* \"contract/voting.sol\":7482:7515  candidates[voter.candidateId - 1] */\n      dup2\n      sload\n      dup2\n      lt\n      tag_341\n      jumpi\n      tag_342\n      tag_85\n      jump\t// in\n    tag_342:\n    tag_341:\n      swap1\n      0x00\n      mstore\n      keccak256(0x00, 0x20)\n      swap1\n      0x02\n      mul\n      add\n        /* \"contract/voting.sol\":7482:7521  candidates[voter.candidateId - 1].votes */\n      0x01\n      add\n      0x00\n        /* \"contract/voting.sol\":7482:7526  candidates[voter.candidateId - 1].votes -= 1 */\n      dup3\n      dup3\n      sload\n      tag_344\n      swap2\n      swap1\n      tag_82\n      jump\t// in\n    tag_344:\n      swap3\n      pop\n      pop\n      dup2\n      swap1\n      sstore\n      pop\n        /* \"contract/voting.sol\":7550:7555  false */\n      0x00\n        /* \"contract/voting.sol\":7536:7541  voter */\n      dup2\n        /* \"contract/voting.sol\":7536:7547  voter.voted */\n      0x00\n      add\n      0x15\n        /* \"contract/voting.sol\":7536:7555  voter.voted = false */\n      0x0100\n      exp\n      dup2\n      sload\n      dup2\n      0xff\n      mul\n      not\n      and\n      swap1\n      dup4\n      iszero\n      iszero\n      mul\n      or\n      swap1\n      sstore\n      pop\n        /* \"contract/voting.sol\":7585:7586  0 */\n      0x00\n        /* \"contract/voting.sol\":7565:7570  voter */\n      dup2\n        /* \"contract/voting.sol\":7565:7582  voter.candidateId */\n      0x01\n      add\n        /* \"contract/voting.sol\":7565:7586  voter.candidateId = 0 */\n      dup2\n      swap1\n      sstore\n      pop\n        /* \"contract/voting.sol\":6977:7593  {... */\n      pop\n        /* \"contract/voting.sol\":6946:7593  function voteRevoke() external {... */\n      jump\t// out\n        /* \"contract/voting.sol\":5367:5757  function getWinningCandidate() public view returns (address) {... */\n    tag_63:\n        /* \"contract/voting.sol\":5419:5426  address */\n      0x00\n        /* \"contract/voting.sol\":5446:5454  finished */\n      0x06\n      0x00\n      swap1\n      sload\n      swap1\n      0x0100\n      exp\n      swap1\n      div\n      0xff\n      and\n        /* \"contract/voting.sol\":5438:5488  require(finished, \"The election is still running\") */\n      tag_346\n      jumpi\n      mload(0x40)\n      0x08c379a000000000000000000000000000000000000000000000000000000000\n      dup2\n      mstore\n      0x04\n      add\n      tag_347\n      swap1\n      tag_348\n      jump\t// in\n    tag_347:\n      mload(0x40)\n      dup1\n      swap2\n      sub\n      swap1\n      revert\n    tag_346:\n        /* \"contract/voting.sol\":5498:5516  uint votesrequired */\n      0x00\n        /* \"contract/voting.sol\":5531:5532  2 */\n      0x02\n        /* \"contract/voting.sol\":5519:5528  numVoters */\n      sload(0x01)\n        /* \"contract/voting.sol\":5519:5532  numVoters / 2 */\n      tag_349\n      swap2\n      swap1\n      tag_350\n      jump\t// in\n    tag_349:\n        /* \"contract/voting.sol\":5498:5532  uint votesrequired = numVoters / 2 */\n      swap1\n      pop\n        /* \"contract/voting.sol\":5656:5669  votesrequired */\n      dup1\n        /* \"contract/voting.sol\":5623:5633  candidates */\n      0x07\n        /* \"contract/voting.sol\":5645:5646  1 */\n      0x01\n        /* \"contract/voting.sol\":5634:5642  winnerId */\n      sload(0x05)\n        /* \"contract/voting.sol\":5634:5646  winnerId - 1 */\n      tag_351\n      swap2\n      swap1\n      tag_82\n      jump\t// in\n    tag_351:\n        /* \"contract/voting.sol\":5623:5647  candidates[winnerId - 1] */\n      dup2\n      sload\n      dup2\n      lt\n      tag_352\n      jumpi\n      tag_353\n      tag_85\n      jump\t// in\n    tag_353:\n    tag_352:\n      swap1\n      0x00\n      mstore\n      keccak256(0x00, 0x20)\n      swap1\n      0x02\n      mul\n      add\n        /* \"contract/voting.sol\":5623:5653  candidates[winnerId - 1].votes */\n      0x01\n      add\n      sload\n        /* \"contract/voting.sol\":5623:5669  candidates[winnerId - 1].votes > votesrequired */\n      gt\n        /* \"contract/voting.sol\":5615:5703  require(candidates[winnerId - 1].votes > votesrequired, \"No candidate win the election\") */\n      tag_355\n      jumpi\n      mload(0x40)\n      0x08c379a000000000000000000000000000000000000000000000000000000000\n      dup2\n      mstore\n      0x04\n      add\n      tag_356\n      swap1\n      tag_357\n      jump\t// in\n    tag_356:\n      mload(0x40)\n      dup1\n      swap2\n      sub\n      swap1\n      revert\n    tag_355:\n        /* \"contract/voting.sol\":5721:5731  candidates */\n      0x07\n        /* \"contract/voting.sol\":5743:5744  1 */\n      0x01\n        /* \"contract/voting.sol\":5732:5740  winnerId */\n      sload(0x05)\n        /* \"contract/voting.sol\":5732:5744  winnerId - 1 */\n      tag_358\n      swap2\n      swap1\n      tag_82\n      jump\t// in\n    tag_358:\n        /* \"contract/voting.sol\":5721:5745  candidates[winnerId - 1] */\n      dup2\n      sload\n      dup2\n      lt\n      tag_359\n      jumpi\n      tag_360\n      tag_85\n      jump\t// in\n    tag_360:\n    tag_359:\n      swap1\n      0x00\n      mstore\n      keccak256(0x00, 0x20)\n      swap1\n      0x02\n      mul\n      add\n        /* \"contract/voting.sol\":5721:5750  candidates[winnerId - 1].addr */\n      0x00\n      add\n      0x00\n      swap1\n      sload\n      swap1\n      0x0100\n      exp\n      swap1\n      div\n      0xffffffffffffffffffffffffffffffffffffffff\n      and\n        /* \"contract/voting.sol\":5714:5750  return candidates[winnerId - 1].addr */\n      swap2\n      pop\n      pop\n        /* \"contract/voting.sol\":5367:5757  function getWinningCandidate() public view returns (address) {... */\n      swap1\n      jump\t// out\n    tag_285:\n      dup3\n      dup1\n      sload\n      dup3\n      dup3\n      sstore\n      swap1\n      0x00\n      mstore\n      keccak256(0x00, 0x20)\n      swap1\n      dup2\n      add\n      swap3\n      dup3\n      iszero\n      tag_362\n      jumpi\n      swap2\n      0x20\n      mul\n      dup3\n      add\n    tag_363:\n      dup3\n      dup2\n      gt\n      iszero\n      tag_364\n      jumpi\n      dup3\n      mload\n      dup3\n      exp(0x0100, 0x00)\n      dup2\n      sload\n      dup2\n      0xffffffffffffffffffffffffffffffffffffffff\n      mul\n      not\n      and\n      swap1\n      dup4\n      0xffffffffffffffffffffffffffffffffffffffff\n      and\n      mul\n      or\n      swap1\n      sstore\n      pop\n      swap2\n      0x20\n      add\n      swap2\n      swap1\n      0x01\n      add\n      swap1\n      jump(tag_363)\n    tag_364:\n    tag_362:\n      pop\n      swap1\n      pop\n      tag_365\n      swap2\n      swap1\n      tag_366\n      jump\t// in\n    tag_365:\n      pop\n      swap1\n      jump\t// out\n    tag_366:\n    tag_367:\n      dup1\n      dup3\n      gt\n      iszero\n      tag_368\n      jumpi\n      0x00\n      dup2\n      0x00\n      swap1\n      sstore\n      pop\n      0x01\n      add\n      jump(tag_367)\n    tag_368:\n      pop\n      swap1\n      jump\t// out\n        /* \"#utility.yul\":88:205   */\n    tag_370:\n        /* \"#utility.yul\":197:198   */\n      0x00\n        /* \"#utility.yul\":194:195   */\n      dup1\n        /* \"#utility.yul\":187:199   */\n      revert\n        /* \"#utility.yul\":334:460   */\n    tag_372:\n        /* \"#utility.yul\":371:378   */\n      0x00\n        /* \"#utility.yul\":411:453   */\n      0xffffffffffffffffffffffffffffffffffffffff\n        /* \"#utility.yul\":404:409   */\n      dup3\n        /* \"#utility.yul\":400:454   */\n      and\n        /* \"#utility.yul\":389:454   */\n      swap1\n      pop\n        /* \"#utility.yul\":334:460   */\n      swap2\n      swap1\n      pop\n      jump\t// out\n        /* \"#utility.yul\":466:562   */\n    tag_373:\n        /* \"#utility.yul\":503:510   */\n      0x00\n        /* \"#utility.yul\":532:556   */\n      tag_451\n        /* \"#utility.yul\":550:555   */\n      dup3\n        /* \"#utility.yul\":532:556   */\n      tag_372\n      jump\t// in\n    tag_451:\n        /* \"#utility.yul\":521:556   */\n      swap1\n      pop\n        /* \"#utility.yul\":466:562   */\n      swap2\n      swap1\n      pop\n      jump\t// out\n        /* \"#utility.yul\":568:690   */\n    tag_374:\n        /* \"#utility.yul\":641:665   */\n      tag_453\n        /* \"#utility.yul\":659:664   */\n      dup2\n        /* \"#utility.yul\":641:665   */\n      tag_373\n      jump\t// in\n    tag_453:\n        /* \"#utility.yul\":634:639   */\n      dup2\n        /* \"#utility.yul\":631:666   */\n      eq\n        /* \"#utility.yul\":621:684   */\n      tag_454\n      jumpi\n        /* \"#utility.yul\":680:681   */\n      0x00\n        /* \"#utility.yul\":677:678   */\n      dup1\n        /* \"#utility.yul\":670:682   */\n      revert\n        /* \"#utility.yul\":621:684   */\n    tag_454:\n        /* \"#utility.yul\":568:690   */\n      pop\n      jump\t// out\n        /* \"#utility.yul\":696:835   */\n    tag_375:\n        /* \"#utility.yul\":742:747   */\n      0x00\n        /* \"#utility.yul\":780:786   */\n      dup2\n        /* \"#utility.yul\":767:787   */\n      calldataload\n        /* \"#utility.yul\":758:787   */\n      swap1\n      pop\n        /* \"#utility.yul\":796:829   */\n      tag_456\n        /* \"#utility.yul\":823:828   */\n      dup2\n        /* \"#utility.yul\":796:829   */\n      tag_374\n      jump\t// in\n    tag_456:\n        /* \"#utility.yul\":696:835   */\n      swap3\n      swap2\n      pop\n      pop\n      jump\t// out\n        /* \"#utility.yul\":841:1170   */\n    tag_22:\n        /* \"#utility.yul\":900:906   */\n      0x00\n        /* \"#utility.yul\":949:951   */\n      0x20\n        /* \"#utility.yul\":937:946   */\n      dup3\n        /* \"#utility.yul\":928:935   */\n      dup5\n        /* \"#utility.yul\":924:947   */\n      sub\n        /* \"#utility.yul\":920:952   */\n      slt\n        /* \"#utility.yul\":917:1036   */\n      iszero\n      tag_458\n      jumpi\n        /* \"#utility.yul\":955:1034   */\n      tag_459\n      tag_370\n      jump\t// in\n    tag_459:\n        /* \"#utility.yul\":917:1036   */\n    tag_458:\n        /* \"#utility.yul\":1075:1076   */\n      0x00\n        /* \"#utility.yul\":1100:1153   */\n      tag_460\n        /* \"#utility.yul\":1145:1152   */\n      dup5\n        /* \"#utility.yul\":1136:1142   */\n      dup3\n        /* \"#utility.yul\":1125:1134   */\n      dup6\n        /* \"#utility.yul\":1121:1143   */\n      add\n        /* \"#utility.yul\":1100:1153   */\n      tag_375\n      jump\t// in\n    tag_460:\n        /* \"#utility.yul\":1090:1153   */\n      swap2\n      pop\n        /* \"#utility.yul\":1046:1163   */\n      pop\n        /* \"#utility.yul\":841:1170   */\n      swap3\n      swap2\n      pop\n      pop\n      jump\t// out\n        /* \"#utility.yul\":1176:1290   */\n    tag_376:\n        /* \"#utility.yul\":1243:1249   */\n      0x00\n        /* \"#utility.yul\":1277:1282   */\n      dup2\n        /* \"#utility.yul\":1271:1283   */\n      mload\n        /* \"#utility.yul\":1261:1283   */\n      swap1\n      pop\n        /* \"#utility.yul\":1176:1290   */\n      swap2\n      swap1\n      pop\n      jump\t// out\n        /* \"#utility.yul\":1296:1480   */\n    tag_377:\n        /* \"#utility.yul\":1395:1406   */\n      0x00\n        /* \"#utility.yul\":1429:1435   */\n      dup3\n        /* \"#utility.yul\":1424:1427   */\n      dup3\n        /* \"#utility.yul\":1417:1436   */\n      mstore\n        /* \"#utility.yul\":1469:1473   */\n      0x20\n        /* \"#utility.yul\":1464:1467   */\n      dup3\n        /* \"#utility.yul\":1460:1474   */\n      add\n        /* \"#utility.yul\":1445:1474   */\n      swap1\n      pop\n        /* \"#utility.yul\":1296:1480   */\n      swap3\n      swap2\n      pop\n      pop\n      jump\t// out\n        /* \"#utility.yul\":1486:1618   */\n    tag_378:\n        /* \"#utility.yul\":1553:1557   */\n      0x00\n        /* \"#utility.yul\":1576:1579   */\n      dup2\n        /* \"#utility.yul\":1568:1579   */\n      swap1\n      pop\n        /* \"#utility.yul\":1606:1610   */\n      0x20\n        /* \"#utility.yul\":1601:1604   */\n      dup3\n        /* \"#utility.yul\":1597:1611   */\n      add\n        /* \"#utility.yul\":1589:1611   */\n      swap1\n      pop\n        /* \"#utility.yul\":1486:1618   */\n      swap2\n      swap1\n      pop\n      jump\t// out\n        /* \"#utility.yul\":1624:1701   */\n    tag_379:\n        /* \"#utility.yul\":1661:1668   */\n      0x00\n        /* \"#utility.yul\":1690:1695   */\n      dup2\n        /* \"#utility.yul\":1679:1695   */\n      swap1\n      pop\n        /* \"#utility.yul\":1624:1701   */\n      swap2\n      swap1\n      pop\n      jump\t// out\n        /* \"#utility.yul\":1707:1815   */\n    tag_380:\n        /* \"#utility.yul\":1784:1808   */\n      tag_466\n        /* \"#utility.yul\":1802:1807   */\n      dup2\n        /* \"#utility.yul\":1784:1808   */\n      tag_379\n      jump\t// in\n    tag_466:\n        /* \"#utility.yul\":1779:1782   */\n      dup3\n        /* \"#utility.yul\":1772:1809   */\n      mstore\n        /* \"#utility.yul\":1707:1815   */\n      pop\n      pop\n      jump\t// out\n        /* \"#utility.yul\":1821:2000   */\n    tag_381:\n        /* \"#utility.yul\":1890:1900   */\n      0x00\n        /* \"#utility.yul\":1911:1957   */\n      tag_468\n        /* \"#utility.yul\":1953:1956   */\n      dup4\n        /* \"#utility.yul\":1945:1951   */\n      dup4\n        /* \"#utility.yul\":1911:1957   */\n      tag_380\n      jump\t// in\n    tag_468:\n        /* \"#utility.yul\":1989:1993   */\n      0x20\n        /* \"#utility.yul\":1984:1987   */\n      dup4\n        /* \"#utility.yul\":1980:1994   */\n      add\n        /* \"#utility.yul\":1966:1994   */\n      swap1\n      pop\n        /* \"#utility.yul\":1821:2000   */\n      swap3\n      swap2\n      pop\n      pop\n      jump\t// out\n        /* \"#utility.yul\":2006:2119   */\n    tag_382:\n        /* \"#utility.yul\":2076:2080   */\n      0x00\n        /* \"#utility.yul\":2108:2112   */\n      0x20\n        /* \"#utility.yul\":2103:2106   */\n      dup3\n        /* \"#utility.yul\":2099:2113   */\n      add\n        /* \"#utility.yul\":2091:2113   */\n      swap1\n      pop\n        /* \"#utility.yul\":2006:2119   */\n      swap2\n      swap1\n      pop\n      jump\t// out\n        /* \"#utility.yul\":2155:2887   */\n    tag_383:\n        /* \"#utility.yul\":2274:2277   */\n      0x00\n        /* \"#utility.yul\":2303:2357   */\n      tag_471\n        /* \"#utility.yul\":2351:2356   */\n      dup3\n        /* \"#utility.yul\":2303:2357   */\n      tag_376\n      jump\t// in\n    tag_471:\n        /* \"#utility.yul\":2373:2459   */\n      tag_472\n        /* \"#utility.yul\":2452:2458   */\n      dup2\n        /* \"#utility.yul\":2447:2450   */\n      dup6\n        /* \"#utility.yul\":2373:2459   */\n      tag_377\n      jump\t// in\n    tag_472:\n        /* \"#utility.yul\":2366:2459   */\n      swap4\n      pop\n        /* \"#utility.yul\":2483:2539   */\n      tag_473\n        /* \"#utility.yul\":2533:2538   */\n      dup4\n        /* \"#utility.yul\":2483:2539   */\n      tag_378\n      jump\t// in\n    tag_473:\n        /* \"#utility.yul\":2562:2569   */\n      dup1\n        /* \"#utility.yul\":2593:2594   */\n      0x00\n        /* \"#utility.yul\":2578:2862   */\n    tag_474:\n        /* \"#utility.yul\":2603:2609   */\n      dup4\n        /* \"#utility.yul\":2600:2601   */\n      dup2\n        /* \"#utility.yul\":2597:2610   */\n      lt\n        /* \"#utility.yul\":2578:2862   */\n      iszero\n      tag_476\n      jumpi\n        /* \"#utility.yul\":2679:2685   */\n      dup2\n        /* \"#utility.yul\":2673:2686   */\n      mload\n        /* \"#utility.yul\":2706:2769   */\n      tag_477\n        /* \"#utility.yul\":2765:2768   */\n      dup9\n        /* \"#utility.yul\":2750:2763   */\n      dup3\n        /* \"#utility.yul\":2706:2769   */\n      tag_381\n      jump\t// in\n    tag_477:\n        /* \"#utility.yul\":2699:2769   */\n      swap8\n      pop\n        /* \"#utility.yul\":2792:2852   */\n      tag_478\n        /* \"#utility.yul\":2845:2851   */\n      dup4\n        /* \"#utility.yul\":2792:2852   */\n      tag_382\n      jump\t// in\n    tag_478:\n        /* \"#utility.yul\":2782:2852   */\n      swap3\n      pop\n        /* \"#utility.yul\":2638:2862   */\n      pop\n        /* \"#utility.yul\":2625:2626   */\n      0x01\n        /* \"#utility.yul\":2622:2623   */\n      dup2\n        /* \"#utility.yul\":2618:2627   */\n      add\n        /* \"#utility.yul\":2613:2627   */\n      swap1\n      pop\n        /* \"#utility.yul\":2578:2862   */\n      jump(tag_474)\n    tag_476:\n        /* \"#utility.yul\":2582:2596   */\n      pop\n        /* \"#utility.yul\":2878:2881   */\n      dup6\n        /* \"#utility.yul\":2871:2881   */\n      swap4\n      pop\n        /* \"#utility.yul\":2279:2887   */\n      pop\n      pop\n      pop\n        /* \"#utility.yul\":2155:2887   */\n      swap3\n      swap2\n      pop\n      pop\n      jump\t// out\n        /* \"#utility.yul\":2893:3266   */\n    tag_30:\n        /* \"#utility.yul\":3036:3040   */\n      0x00\n        /* \"#utility.yul\":3074:3076   */\n      0x20\n        /* \"#utility.yul\":3063:3072   */\n      dup3\n        /* \"#utility.yul\":3059:3077   */\n      add\n        /* \"#utility.yul\":3051:3077   */\n      swap1\n      pop\n        /* \"#utility.yul\":3123:3132   */\n      dup2\n        /* \"#utility.yul\":3117:3121   */\n      dup2\n        /* \"#utility.yul\":3113:3133   */\n      sub\n        /* \"#utility.yul\":3109:3110   */\n      0x00\n        /* \"#utility.yul\":3098:3107   */\n      dup4\n        /* \"#utility.yul\":3094:3111   */\n      add\n        /* \"#utility.yul\":3087:3134   */\n      mstore\n        /* \"#utility.yul\":3151:3259   */\n      tag_480\n        /* \"#utility.yul\":3254:3258   */\n      dup2\n        /* \"#utility.yul\":3245:3251   */\n      dup5\n        /* \"#utility.yul\":3151:3259   */\n      tag_383\n      jump\t// in\n    tag_480:\n        /* \"#utility.yul\":3143:3259   */\n      swap1\n      pop\n        /* \"#utility.yul\":2893:3266   */\n      swap3\n      swap2\n      pop\n      pop\n      jump\t// out\n        /* \"#utility.yul\":3272:3386   */\n    tag_384:\n        /* \"#utility.yul\":3339:3345   */\n      0x00\n        /* \"#utility.yul\":3373:3378   */\n      dup2\n        /* \"#utility.yul\":3367:3379   */\n      mload\n        /* \"#utility.yul\":3357:3379   */\n      swap1\n      pop\n        /* \"#utility.yul\":3272:3386   */\n      swap2\n      swap1\n      pop\n      jump\t// out\n        /* \"#utility.yul\":3392:3576   */\n    tag_385:\n        /* \"#utility.yul\":3491:3502   */\n      0x00\n        /* \"#utility.yul\":3525:3531   */\n      dup3\n        /* \"#utility.yul\":3520:3523   */\n      dup3\n        /* \"#utility.yul\":3513:3532   */\n      mstore\n        /* \"#utility.yul\":3565:3569   */\n      0x20\n        /* \"#utility.yul\":3560:3563   */\n      dup3\n        /* \"#utility.yul\":3556:3570   */\n      add\n        /* \"#utility.yul\":3541:3570   */\n      swap1\n      pop\n        /* \"#utility.yul\":3392:3576   */\n      swap3\n      swap2\n      pop\n      pop\n      jump\t// out\n        /* \"#utility.yul\":3582:3714   */\n    tag_386:\n        /* \"#utility.yul\":3649:3653   */\n      0x00\n        /* \"#utility.yul\":3672:3675   */\n      dup2\n        /* \"#utility.yul\":3664:3675   */\n      swap1\n      pop\n        /* \"#utility.yul\":3702:3706   */\n      0x20\n        /* \"#utility.yul\":3697:3700   */\n      dup3\n        /* \"#utility.yul\":3693:3707   */\n      add\n        /* \"#utility.yul\":3685:3707   */\n      swap1\n      pop\n        /* \"#utility.yul\":3582:3714   */\n      swap2\n      swap1\n      pop\n      jump\t// out\n        /* \"#utility.yul\":3720:3828   */\n    tag_387:\n        /* \"#utility.yul\":3797:3821   */\n      tag_485\n        /* \"#utility.yul\":3815:3820   */\n      dup2\n        /* \"#utility.yul\":3797:3821   */\n      tag_373\n      jump\t// in\n    tag_485:\n        /* \"#utility.yul\":3792:3795   */\n      dup3\n        /* \"#utility.yul\":3785:3822   */\n      mstore\n        /* \"#utility.yul\":3720:3828   */\n      pop\n      pop\n      jump\t// out\n        /* \"#utility.yul\":3834:4013   */\n    tag_388:\n        /* \"#utility.yul\":3903:3913   */\n      0x00\n        /* \"#utility.yul\":3924:3970   */\n      tag_487\n        /* \"#utility.yul\":3966:3969   */\n      dup4\n        /* \"#utility.yul\":3958:3964   */\n      dup4\n        /* \"#utility.yul\":3924:3970   */\n      tag_387\n      jump\t// in\n    tag_487:\n        /* \"#utility.yul\":4002:4006   */\n      0x20\n        /* \"#utility.yul\":3997:4000   */\n      dup4\n        /* \"#utility.yul\":3993:4007   */\n      add\n        /* \"#utility.yul\":3979:4007   */\n      swap1\n      pop\n        /* \"#utility.yul\":3834:4013   */\n      swap3\n      swap2\n      pop\n      pop\n      jump\t// out\n        /* \"#utility.yul\":4019:4132   */\n    tag_389:\n        /* \"#utility.yul\":4089:4093   */\n      0x00\n        /* \"#utility.yul\":4121:4125   */\n      0x20\n        /* \"#utility.yul\":4116:4119   */\n      dup3\n        /* \"#utility.yul\":4112:4126   */\n      add\n        /* \"#utility.yul\":4104:4126   */\n      swap1\n      pop\n        /* \"#utility.yul\":4019:4132   */\n      swap2\n      swap1\n      pop\n      jump\t// out\n        /* \"#utility.yul\":4168:4900   */\n    tag_390:\n        /* \"#utility.yul\":4287:4290   */\n      0x00\n        /* \"#utility.yul\":4316:4370   */\n      tag_490\n        /* \"#utility.yul\":4364:4369   */\n      dup3\n        /* \"#utility.yul\":4316:4370   */\n      tag_384\n      jump\t// in\n    tag_490:\n        /* \"#utility.yul\":4386:4472   */\n      tag_491\n        /* \"#utility.yul\":4465:4471   */\n      dup2\n        /* \"#utility.yul\":4460:4463   */\n      dup6\n        /* \"#utility.yul\":4386:4472   */\n      tag_385\n      jump\t// in\n    tag_491:\n        /* \"#utility.yul\":4379:4472   */\n      swap4\n      pop\n        /* \"#utility.yul\":4496:4552   */\n      tag_492\n        /* \"#utility.yul\":4546:4551   */\n      dup4\n        /* \"#utility.yul\":4496:4552   */\n      tag_386\n      jump\t// in\n    tag_492:\n        /* \"#utility.yul\":4575:4582   */\n      dup1\n        /* \"#utility.yul\":4606:4607   */\n      0x00\n        /* \"#utility.yul\":4591:4875   */\n    tag_493:\n        /* \"#utility.yul\":4616:4622   */\n      dup4\n        /* \"#utility.yul\":4613:4614   */\n      dup2\n        /* \"#utility.yul\":4610:4623   */\n      lt\n        /* \"#utility.yul\":4591:4875   */\n      iszero\n      tag_495\n      jumpi\n        /* \"#utility.yul\":4692:4698   */\n      dup2\n        /* \"#utility.yul\":4686:4699   */\n      mload\n        /* \"#utility.yul\":4719:4782   */\n      tag_496\n        /* \"#utility.yul\":4778:4781   */\n      dup9\n        /* \"#utility.yul\":4763:4776   */\n      dup3\n        /* \"#utility.yul\":4719:4782   */\n      tag_388\n      jump\t// in\n    tag_496:\n        /* \"#utility.yul\":4712:4782   */\n      swap8\n      pop\n        /* \"#utility.yul\":4805:4865   */\n      tag_497\n        /* \"#utility.yul\":4858:4864   */\n      dup4\n        /* \"#utility.yul\":4805:4865   */\n      tag_389\n      jump\t// in\n    tag_497:\n        /* \"#utility.yul\":4795:4865   */\n      swap3\n      pop\n        /* \"#utility.yul\":4651:4875   */\n      pop\n        /* \"#utility.yul\":4638:4639   */\n      0x01\n        /* \"#utility.yul\":4635:4636   */\n      dup2\n        /* \"#utility.yul\":4631:4640   */\n      add\n        /* \"#utility.yul\":4626:4640   */\n      swap1\n      pop\n        /* \"#utility.yul\":4591:4875   */\n      jump(tag_493)\n    tag_495:\n        /* \"#utility.yul\":4595:4609   */\n      pop\n        /* \"#utility.yul\":4891:4894   */\n      dup6\n        /* \"#utility.yul\":4884:4894   */\n      swap4\n      pop\n        /* \"#utility.yul\":4292:4900   */\n      pop\n      pop\n      pop\n        /* \"#utility.yul\":4168:4900   */\n      swap3\n      swap2\n      pop\n      pop\n      jump\t// out\n        /* \"#utility.yul\":4906:5279   */\n    tag_34:\n        /* \"#utility.yul\":5049:5053   */\n      0x00\n        /* \"#utility.yul\":5087:5089   */\n      0x20\n        /* \"#utility.yul\":5076:5085   */\n      dup3\n        /* \"#utility.yul\":5072:5090   */\n      add\n        /* \"#utility.yul\":5064:5090   */\n      swap1\n      pop\n        /* \"#utility.yul\":5136:5145   */\n      dup2\n        /* \"#utility.yul\":5130:5134   */\n      dup2\n        /* \"#utility.yul\":5126:5146   */\n      sub\n        /* \"#utility.yul\":5122:5123   */\n      0x00\n        /* \"#utility.yul\":5111:5120   */\n      dup4\n        /* \"#utility.yul\":5107:5124   */\n      add\n        /* \"#utility.yul\":5100:5147   */\n      mstore\n        /* \"#utility.yul\":5164:5272   */\n      tag_499\n        /* \"#utility.yul\":5267:5271   */\n      dup2\n        /* \"#utility.yul\":5258:5264   */\n      dup5\n        /* \"#utility.yul\":5164:5272   */\n      tag_390\n      jump\t// in\n    tag_499:\n        /* \"#utility.yul\":5156:5272   */\n      swap1\n      pop\n        /* \"#utility.yul\":4906:5279   */\n      swap3\n      swap2\n      pop\n      pop\n      jump\t// out\n        /* \"#utility.yul\":5285:5407   */\n    tag_391:\n        /* \"#utility.yul\":5358:5382   */\n      tag_501\n        /* \"#utility.yul\":5376:5381   */\n      dup2\n        /* \"#utility.yul\":5358:5382   */\n      tag_379\n      jump\t// in\n    tag_501:\n        /* \"#utility.yul\":5351:5356   */\n      dup2\n        /* \"#utility.yul\":5348:5383   */\n      eq\n        /* \"#utility.yul\":5338:5401   */\n      tag_502\n      jumpi\n        /* \"#utility.yul\":5397:5398   */\n      0x00\n        /* \"#utility.yul\":5394:5395   */\n      dup1\n        /* \"#utility.yul\":5387:5399   */\n      revert\n        /* \"#utility.yul\":5338:5401   */\n    tag_502:\n        /* \"#utility.yul\":5285:5407   */\n      pop\n      jump\t// out\n        /* \"#utility.yul\":5413:5552   */\n    tag_392:\n        /* \"#utility.yul\":5459:5464   */\n      0x00\n        /* \"#utility.yul\":5497:5503   */\n      dup2\n        /* \"#utility.yul\":5484:5504   */\n      calldataload\n        /* \"#utility.yul\":5475:5504   */\n      swap1\n      pop\n        /* \"#utility.yul\":5513:5546   */\n      tag_504\n        /* \"#utility.yul\":5540:5545   */\n      dup2\n        /* \"#utility.yul\":5513:5546   */\n      tag_391\n      jump\t// in\n    tag_504:\n        /* \"#utility.yul\":5413:5552   */\n      swap3\n      swap2\n      pop\n      pop\n      jump\t// out\n        /* \"#utility.yul\":5558:5887   */\n    tag_40:\n        /* \"#utility.yul\":5617:5623   */\n      0x00\n        /* \"#utility.yul\":5666:5668   */\n      0x20\n        /* \"#utility.yul\":5654:5663   */\n      dup3\n        /* \"#utility.yul\":5645:5652   */\n      dup5\n        /* \"#utility.yul\":5641:5664   */\n      sub\n        /* \"#utility.yul\":5637:5669   */\n      slt\n        /* \"#utility.yul\":5634:5753   */\n      iszero\n      tag_506\n      jumpi\n        /* \"#utility.yul\":5672:5751   */\n      tag_507\n      tag_370\n      jump\t// in\n    tag_507:\n        /* \"#utility.yul\":5634:5753   */\n    tag_506:\n        /* \"#utility.yul\":5792:5793   */\n      0x00\n        /* \"#utility.yul\":5817:5870   */\n      tag_508\n        /* \"#utility.yul\":5862:5869   */\n      dup5\n        /* \"#utility.yul\":5853:5859   */\n      dup3\n        /* \"#utility.yul\":5842:5851   */\n      dup6\n        /* \"#utility.yul\":5838:5860   */\n      add\n        /* \"#utility.yul\":5817:5870   */\n      tag_392\n      jump\t// in\n    tag_508:\n        /* \"#utility.yul\":5807:5870   */\n      swap2\n      pop\n        /* \"#utility.yul\":5763:5880   */\n      pop\n        /* \"#utility.yul\":5558:5887   */\n      swap3\n      swap2\n      pop\n      pop\n      jump\t// out\n        /* \"#utility.yul\":5893:6011   */\n    tag_393:\n        /* \"#utility.yul\":5980:6004   */\n      tag_510\n        /* \"#utility.yul\":5998:6003   */\n      dup2\n        /* \"#utility.yul\":5980:6004   */\n      tag_373\n      jump\t// in\n    tag_510:\n        /* \"#utility.yul\":5975:5978   */\n      dup3\n        /* \"#utility.yul\":5968:6005   */\n      mstore\n        /* \"#utility.yul\":5893:6011   */\n      pop\n      pop\n      jump\t// out\n        /* \"#utility.yul\":6017:6239   */\n    tag_43:\n        /* \"#utility.yul\":6110:6114   */\n      0x00\n        /* \"#utility.yul\":6148:6150   */\n      0x20\n        /* \"#utility.yul\":6137:6146   */\n      dup3\n        /* \"#utility.yul\":6133:6151   */\n      add\n        /* \"#utility.yul\":6125:6151   */\n      swap1\n      pop\n        /* \"#utility.yul\":6161:6232   */\n      tag_512\n        /* \"#utility.yul\":6229:6230   */\n      0x00\n        /* \"#utility.yul\":6218:6227   */\n      dup4\n        /* \"#utility.yul\":6214:6231   */\n      add\n        /* \"#utility.yul\":6205:6211   */\n      dup5\n        /* \"#utility.yul\":6161:6232   */\n      tag_393\n      jump\t// in\n    tag_512:\n        /* \"#utility.yul\":6017:6239   */\n      swap3\n      swap2\n      pop\n      pop\n      jump\t// out\n        /* \"#utility.yul\":6245:6414   */\n    tag_394:\n        /* \"#utility.yul\":6329:6340   */\n      0x00\n        /* \"#utility.yul\":6363:6369   */\n      dup3\n        /* \"#utility.yul\":6358:6361   */\n      dup3\n        /* \"#utility.yul\":6351:6370   */\n      mstore\n        /* \"#utility.yul\":6403:6407   */\n      0x20\n        /* \"#utility.yul\":6398:6401   */\n      dup3\n        /* \"#utility.yul\":6394:6408   */\n      add\n        /* \"#utility.yul\":6379:6408   */\n      swap1\n      pop\n        /* \"#utility.yul\":6245:6414   */\n      swap3\n      swap2\n      pop\n      pop\n      jump\t// out\n        /* \"#utility.yul\":6420:6599   */\n    tag_395:\n        /* \"#utility.yul\":6560:6591   */\n      0x456c656374696f6e2068617320616c72656164792066696e6973686564000000\n        /* \"#utility.yul\":6556:6557   */\n      0x00\n        /* \"#utility.yul\":6548:6554   */\n      dup3\n        /* \"#utility.yul\":6544:6558   */\n      add\n        /* \"#utility.yul\":6537:6592   */\n      mstore\n        /* \"#utility.yul\":6420:6599   */\n      pop\n      jump\t// out\n        /* \"#utility.yul\":6605:6971   */\n    tag_396:\n        /* \"#utility.yul\":6747:6750   */\n      0x00\n        /* \"#utility.yul\":6768:6835   */\n      tag_516\n        /* \"#utility.yul\":6832:6834   */\n      0x1d\n        /* \"#utility.yul\":6827:6830   */\n      dup4\n        /* \"#utility.yul\":6768:6835   */\n      tag_394\n      jump\t// in\n    tag_516:\n        /* \"#utility.yul\":6761:6835   */\n      swap2\n      pop\n        /* \"#utility.yul\":6844:6937   */\n      tag_517\n        /* \"#utility.yul\":6933:6936   */\n      dup3\n        /* \"#utility.yul\":6844:6937   */\n      tag_395\n      jump\t// in\n    tag_517:\n        /* \"#utility.yul\":6962:6964   */\n      0x20\n        /* \"#utility.yul\":6957:6960   */\n      dup3\n        /* \"#utility.yul\":6953:6965   */\n      add\n        /* \"#utility.yul\":6946:6965   */\n      swap1\n      pop\n        /* \"#utility.yul\":6605:6971   */\n      swap2\n      swap1\n      pop\n      jump\t// out\n        /* \"#utility.yul\":6977:7396   */\n    tag_68:\n        /* \"#utility.yul\":7143:7147   */\n      0x00\n        /* \"#utility.yul\":7181:7183   */\n      0x20\n        /* \"#utility.yul\":7170:7179   */\n      dup3\n        /* \"#utility.yul\":7166:7184   */\n      add\n        /* \"#utility.yul\":7158:7184   */\n      swap1\n      pop\n        /* \"#utility.yul\":7230:7239   */\n      dup2\n        /* \"#utility.yul\":7224:7228   */\n      dup2\n        /* \"#utility.yul\":7220:7240   */\n      sub\n        /* \"#utility.yul\":7216:7217   */\n      0x00\n        /* \"#utility.yul\":7205:7214   */\n      dup4\n        /* \"#utility.yul\":7201:7218   */\n      add\n        /* \"#utility.yul\":7194:7241   */\n      mstore\n        /* \"#utility.yul\":7258:7389   */\n      tag_519\n        /* \"#utility.yul\":7384:7388   */\n      dup2\n        /* \"#utility.yul\":7258:7389   */\n      tag_396\n      jump\t// in\n    tag_519:\n        /* \"#utility.yul\":7250:7389   */\n      swap1\n      pop\n        /* \"#utility.yul\":6977:7396   */\n      swap2\n      swap1\n      pop\n      jump\t// out\n        /* \"#utility.yul\":7402:7577   */\n    tag_397:\n        /* \"#utility.yul\":7542:7569   */\n      0x4f6e6c7920766f746572732063616e206361737420766f746500000000000000\n        /* \"#utility.yul\":7538:7539   */\n      0x00\n        /* \"#utility.yul\":7530:7536   */\n      dup3\n        /* \"#utility.yul\":7526:7540   */\n      add\n        /* \"#utility.yul\":7519:7570   */\n      mstore\n        /* \"#utility.yul\":7402:7577   */\n      pop\n      jump\t// out\n        /* \"#utility.yul\":7583:7949   */\n    tag_398:\n        /* \"#utility.yul\":7725:7728   */\n      0x00\n        /* \"#utility.yul\":7746:7813   */\n      tag_522\n        /* \"#utility.yul\":7810:7812   */\n      0x19\n        /* \"#utility.yul\":7805:7808   */\n      dup4\n        /* \"#utility.yul\":7746:7813   */\n      tag_394\n      jump\t// in\n    tag_522:\n        /* \"#utility.yul\":7739:7813   */\n      swap2\n      pop\n        /* \"#utility.yul\":7822:7915   */\n      tag_523\n        /* \"#utility.yul\":7911:7914   */\n      dup3\n        /* \"#utility.yul\":7822:7915   */\n      tag_397\n      jump\t// in\n    tag_523:\n        /* \"#utility.yul\":7940:7942   */\n      0x20\n        /* \"#utility.yul\":7935:7938   */\n      dup3\n        /* \"#utility.yul\":7931:7943   */\n      add\n        /* \"#utility.yul\":7924:7943   */\n      swap1\n      pop\n        /* \"#utility.yul\":7583:7949   */\n      swap2\n      swap1\n      pop\n      jump\t// out\n        /* \"#utility.yul\":7955:8374   */\n    tag_71:\n        /* \"#utility.yul\":8121:8125   */\n      0x00\n        /* \"#utility.yul\":8159:8161   */\n      0x20\n        /* \"#utility.yul\":8148:8157   */\n      dup3\n        /* \"#utility.yul\":8144:8162   */\n      add\n        /* \"#utility.yul\":8136:8162   */\n      swap1\n      pop\n        /* \"#utility.yul\":8208:8217   */\n      dup2\n        /* \"#utility.yul\":8202:8206   */\n      dup2\n        /* \"#utility.yul\":8198:8218   */\n      sub\n        /* \"#utility.yul\":8194:8195   */\n      0x00\n        /* \"#utility.yul\":8183:8192   */\n      dup4\n        /* \"#utility.yul\":8179:8196   */\n      add\n        /* \"#utility.yul\":8172:8219   */\n      mstore\n        /* \"#utility.yul\":8236:8367   */\n      tag_525\n        /* \"#utility.yul\":8362:8366   */\n      dup2\n        /* \"#utility.yul\":8236:8367   */\n      tag_398\n      jump\t// in\n    tag_525:\n        /* \"#utility.yul\":8228:8367   */\n      swap1\n      pop\n        /* \"#utility.yul\":7955:8374   */\n      swap2\n      swap1\n      pop\n      jump\t// out\n        /* \"#utility.yul\":8380:8601   */\n    tag_399:\n        /* \"#utility.yul\":8520:8554   */\n      0x566f746572206973206e6f7420616464656420696e2074686520656c65637469\n        /* \"#utility.yul\":8516:8517   */\n      0x00\n        /* \"#utility.yul\":8508:8514   */\n      dup3\n        /* \"#utility.yul\":8504:8518   */\n      add\n        /* \"#utility.yul\":8497:8555   */\n      mstore\n        /* \"#utility.yul\":8589:8593   */\n      0x6f6e000000000000000000000000000000000000000000000000000000000000\n        /* \"#utility.yul\":8584:8586   */\n      0x20\n        /* \"#utility.yul\":8576:8582   */\n      dup3\n        /* \"#utility.yul\":8572:8587   */\n      add\n        /* \"#utility.yul\":8565:8594   */\n      mstore\n        /* \"#utility.yul\":8380:8601   */\n      pop\n      jump\t// out\n        /* \"#utility.yul\":8607:8973   */\n    tag_400:\n        /* \"#utility.yul\":8749:8752   */\n      0x00\n        /* \"#utility.yul\":8770:8837   */\n      tag_528\n        /* \"#utility.yul\":8834:8836   */\n      0x22\n        /* \"#utility.yul\":8829:8832   */\n      dup4\n        /* \"#utility.yul\":8770:8837   */\n      tag_394\n      jump\t// in\n    tag_528:\n        /* \"#utility.yul\":8763:8837   */\n      swap2\n      pop\n        /* \"#utility.yul\":8846:8939   */\n      tag_529\n        /* \"#utility.yul\":8935:8938   */\n      dup3\n        /* \"#utility.yul\":8846:8939   */\n      tag_399\n      jump\t// in\n    tag_529:\n        /* \"#utility.yul\":8964:8966   */\n      0x40\n        /* \"#utility.yul\":8959:8962   */\n      dup3\n        /* \"#utility.yul\":8955:8967   */\n      add\n        /* \"#utility.yul\":8948:8967   */\n      swap1\n      pop\n        /* \"#utility.yul\":8607:8973   */\n      swap2\n      swap1\n      pop\n      jump\t// out\n        /* \"#utility.yul\":8979:9398   */\n    tag_74:\n        /* \"#utility.yul\":9145:9149   */\n      0x00\n        /* \"#utility.yul\":9183:9185   */\n      0x20\n        /* \"#utility.yul\":9172:9181   */\n      dup3\n        /* \"#utility.yul\":9168:9186   */\n      add\n        /* \"#utility.yul\":9160:9186   */\n      swap1\n      pop\n        /* \"#utility.yul\":9232:9241   */\n      dup2\n        /* \"#utility.yul\":9226:9230   */\n      dup2\n        /* \"#utility.yul\":9222:9242   */\n      sub\n        /* \"#utility.yul\":9218:9219   */\n      0x00\n        /* \"#utility.yul\":9207:9216   */\n      dup4\n        /* \"#utility.yul\":9203:9220   */\n      add\n        /* \"#utility.yul\":9196:9243   */\n      mstore\n        /* \"#utility.yul\":9260:9391   */\n      tag_531\n        /* \"#utility.yul\":9386:9390   */\n      dup2\n        /* \"#utility.yul\":9260:9391   */\n      tag_400\n      jump\t// in\n    tag_531:\n        /* \"#utility.yul\":9252:9391   */\n      swap1\n      pop\n        /* \"#utility.yul\":8979:9398   */\n      swap2\n      swap1\n      pop\n      jump\t// out\n        /* \"#utility.yul\":9404:9631   */\n    tag_401:\n        /* \"#utility.yul\":9544:9578   */\n      0x566f7465722063616e6e6f742062652064656c656761746564206279206f7468\n        /* \"#utility.yul\":9540:9541   */\n      0x00\n        /* \"#utility.yul\":9532:9538   */\n      dup3\n        /* \"#utility.yul\":9528:9542   */\n      add\n        /* \"#utility.yul\":9521:9579   */\n      mstore\n        /* \"#utility.yul\":9613:9623   */\n      0x657220766f746572000000000000000000000000000000000000000000000000\n        /* \"#utility.yul\":9608:9610   */\n      0x20\n        /* \"#utility.yul\":9600:9606   */\n      dup3\n        /* \"#utility.yul\":9596:9611   */\n      add\n        /* \"#utility.yul\":9589:9624   */\n      mstore\n        /* \"#utility.yul\":9404:9631   */\n      pop\n      jump\t// out\n        /* \"#utility.yul\":9637:10003   */\n    tag_402:\n        /* \"#utility.yul\":9779:9782   */\n      0x00\n        /* \"#utility.yul\":9800:9867   */\n      tag_534\n        /* \"#utility.yul\":9864:9866   */\n      0x28\n        /* \"#utility.yul\":9859:9862   */\n      dup4\n        /* \"#utility.yul\":9800:9867   */\n      tag_394\n      jump\t// in\n    tag_534:\n        /* \"#utility.yul\":9793:9867   */\n      swap2\n      pop\n        /* \"#utility.yul\":9876:9969   */\n      tag_535\n        /* \"#utility.yul\":9965:9968   */\n      dup3\n        /* \"#utility.yul\":9876:9969   */\n      tag_401\n      jump\t// in\n    tag_535:\n        /* \"#utility.yul\":9994:9996   */\n      0x40\n        /* \"#utility.yul\":9989:9992   */\n      dup3\n        /* \"#utility.yul\":9985:9997   */\n      add\n        /* \"#utility.yul\":9978:9997   */\n      swap1\n      pop\n        /* \"#utility.yul\":9637:10003   */\n      swap2\n      swap1\n      pop\n      jump\t// out\n        /* \"#utility.yul\":10009:10428   */\n    tag_77:\n        /* \"#utility.yul\":10175:10179   */\n      0x00\n        /* \"#utility.yul\":10213:10215   */\n      0x20\n        /* \"#utility.yul\":10202:10211   */\n      dup3\n        /* \"#utility.yul\":10198:10216   */\n      add\n        /* \"#utility.yul\":10190:10216   */\n      swap1\n      pop\n        /* \"#utility.yul\":10262:10271   */\n      dup2\n        /* \"#utility.yul\":10256:10260   */\n      dup2\n        /* \"#utility.yul\":10252:10272   */\n      sub\n        /* \"#utility.yul\":10248:10249   */\n      0x00\n        /* \"#utility.yul\":10237:10246   */\n      dup4\n        /* \"#utility.yul\":10233:10250   */\n      add\n        /* \"#utility.yul\":10226:10273   */\n      mstore\n        /* \"#utility.yul\":10290:10421   */\n      tag_537\n        /* \"#utility.yul\":10416:10420   */\n      dup2\n        /* \"#utility.yul\":10290:10421   */\n      tag_402\n      jump\t// in\n    tag_537:\n        /* \"#utility.yul\":10282:10421   */\n      swap1\n      pop\n        /* \"#utility.yul\":10009:10428   */\n      swap2\n      swap1\n      pop\n      jump\t// out\n        /* \"#utility.yul\":10434:10605   */\n    tag_403:\n        /* \"#utility.yul\":10574:10597   */\n      0x43616e6469646174652063616e6e6f7420766f74650000000000000000000000\n        /* \"#utility.yul\":10570:10571   */\n      0x00\n        /* \"#utility.yul\":10562:10568   */\n      dup3\n        /* \"#utility.yul\":10558:10572   */\n      add\n        /* \"#utility.yul\":10551:10598   */\n      mstore\n        /* \"#utility.yul\":10434:10605   */\n      pop\n      jump\t// out\n        /* \"#utility.yul\":10611:10977   */\n    tag_404:\n        /* \"#utility.yul\":10753:10756   */\n      0x00\n        /* \"#utility.yul\":10774:10841   */\n      tag_540\n        /* \"#utility.yul\":10838:10840   */\n      0x15\n        /* \"#utility.yul\":10833:10836   */\n      dup4\n        /* \"#utility.yul\":10774:10841   */\n      tag_394\n      jump\t// in\n    tag_540:\n        /* \"#utility.yul\":10767:10841   */\n      swap2\n      pop\n        /* \"#utility.yul\":10850:10943   */\n      tag_541\n        /* \"#utility.yul\":10939:10942   */\n      dup3\n        /* \"#utility.yul\":10850:10943   */\n      tag_403\n      jump\t// in\n    tag_541:\n        /* \"#utility.yul\":10968:10970   */\n      0x20\n        /* \"#utility.yul\":10963:10966   */\n      dup3\n        /* \"#utility.yul\":10959:10971   */\n      add\n        /* \"#utility.yul\":10952:10971   */\n      swap1\n      pop\n        /* \"#utility.yul\":10611:10977   */\n      swap2\n      swap1\n      pop\n      jump\t// out\n        /* \"#utility.yul\":10983:11402   */\n    tag_80:\n        /* \"#utility.yul\":11149:11153   */\n      0x00\n        /* \"#utility.yul\":11187:11189   */\n      0x20\n        /* \"#utility.yul\":11176:11185   */\n      dup3\n        /* \"#utility.yul\":11172:11190   */\n      add\n        /* \"#utility.yul\":11164:11190   */\n      swap1\n      pop\n        /* \"#utility.yul\":11236:11245   */\n      dup2\n        /* \"#utility.yul\":11230:11234   */\n      dup2\n        /* \"#utility.yul\":11226:11246   */\n      sub\n        /* \"#utility.yul\":11222:11223   */\n      0x00\n        /* \"#utility.yul\":11211:11220   */\n      dup4\n        /* \"#utility.yul\":11207:11224   */\n      add\n        /* \"#utility.yul\":11200:11247   */\n      mstore\n        /* \"#utility.yul\":11264:11395   */\n      tag_543\n        /* \"#utility.yul\":11390:11394   */\n      dup2\n        /* \"#utility.yul\":11264:11395   */\n      tag_404\n      jump\t// in\n    tag_543:\n        /* \"#utility.yul\":11256:11395   */\n      swap1\n      pop\n        /* \"#utility.yul\":10983:11402   */\n      swap2\n      swap1\n      pop\n      jump\t// out\n        /* \"#utility.yul\":11408:11588   */\n    tag_405:\n        /* \"#utility.yul\":11456:11533   */\n      0x4e487b7100000000000000000000000000000000000000000000000000000000\n        /* \"#utility.yul\":11453:11454   */\n      0x00\n        /* \"#utility.yul\":11446:11534   */\n      mstore\n        /* \"#utility.yul\":11553:11557   */\n      0x11\n        /* \"#utility.yul\":11550:11551   */\n      0x04\n        /* \"#utility.yul\":11543:11558   */\n      mstore\n        /* \"#utility.yul\":11577:11581   */\n      0x24\n        /* \"#utility.yul\":11574:11575   */\n      0x00\n        /* \"#utility.yul\":11567:11582   */\n      revert\n        /* \"#utility.yul\":11594:11788   */\n    tag_82:\n        /* \"#utility.yul\":11634:11638   */\n      0x00\n        /* \"#utility.yul\":11654:11674   */\n      tag_546\n        /* \"#utility.yul\":11672:11673   */\n      dup3\n        /* \"#utility.yul\":11654:11674   */\n      tag_379\n      jump\t// in\n    tag_546:\n        /* \"#utility.yul\":11649:11674   */\n      swap2\n      pop\n        /* \"#utility.yul\":11688:11708   */\n      tag_547\n        /* \"#utility.yul\":11706:11707   */\n      dup4\n        /* \"#utility.yul\":11688:11708   */\n      tag_379\n      jump\t// in\n    tag_547:\n        /* \"#utility.yul\":11683:11708   */\n      swap3\n      pop\n        /* \"#utility.yul\":11732:11733   */\n      dup3\n        /* \"#utility.yul\":11729:11730   */\n      dup3\n        /* \"#utility.yul\":11725:11734   */\n      sub\n        /* \"#utility.yul\":11717:11734   */\n      swap1\n      pop\n        /* \"#utility.yul\":11756:11757   */\n      dup2\n        /* \"#utility.yul\":11750:11754   */\n      dup2\n        /* \"#utility.yul\":11747:11758   */\n      gt\n        /* \"#utility.yul\":11744:11781   */\n      iszero\n      tag_548\n      jumpi\n        /* \"#utility.yul\":11761:11779   */\n      tag_549\n      tag_405\n      jump\t// in\n    tag_549:\n        /* \"#utility.yul\":11744:11781   */\n    tag_548:\n        /* \"#utility.yul\":11594:11788   */\n      swap3\n      swap2\n      pop\n      pop\n      jump\t// out\n        /* \"#utility.yul\":11794:11974   */\n    tag_85:\n        /* \"#utility.yul\":11842:11919   */\n      0x4e487b7100000000000000000000000000000000000000000000000000000000\n        /* \"#utility.yul\":11839:11840   */\n      0x00\n        /* \"#utility.yul\":11832:11920   */\n      mstore\n        /* \"#utility.yul\":11939:11943   */\n      0x32\n        /* \"#utility.yul\":11936:11937   */\n      0x04\n        /* \"#utility.yul\":11929:11944   */\n      mstore\n        /* \"#utility.yul\":11963:11967   */\n      0x24\n        /* \"#utility.yul\":11960:11961   */\n      0x00\n        /* \"#utility.yul\":11953:11968   */\n      revert\n        /* \"#utility.yul\":11980:12205   */\n    tag_406:\n        /* \"#utility.yul\":12120:12154   */\n      0x566f746572206973206e6f742079657420656c696769626c6520746f20636173\n        /* \"#utility.yul\":12116:12117   */\n      0x00\n        /* \"#utility.yul\":12108:12114   */\n      dup3\n        /* \"#utility.yul\":12104:12118   */\n      add\n        /* \"#utility.yul\":12097:12155   */\n      mstore\n        /* \"#utility.yul\":12189:12197   */\n      0x7420766f74650000000000000000000000000000000000000000000000000000\n        /* \"#utility.yul\":12184:12186   */\n      0x20\n        /* \"#utility.yul\":12176:12182   */\n      dup3\n        /* \"#utility.yul\":12172:12187   */\n      add\n        /* \"#utility.yul\":12165:12198   */\n      mstore\n        /* \"#utility.yul\":11980:12205   */\n      pop\n      jump\t// out\n        /* \"#utility.yul\":12211:12577   */\n    tag_407:\n        /* \"#utility.yul\":12353:12356   */\n      0x00\n        /* \"#utility.yul\":12374:12441   */\n      tag_553\n        /* \"#utility.yul\":12438:12440   */\n      0x26\n        /* \"#utility.yul\":12433:12436   */\n      dup4\n        /* \"#utility.yul\":12374:12441   */\n      tag_394\n      jump\t// in\n    tag_553:\n        /* \"#utility.yul\":12367:12441   */\n      swap2\n      pop\n        /* \"#utility.yul\":12450:12543   */\n      tag_554\n        /* \"#utility.yul\":12539:12542   */\n      dup3\n        /* \"#utility.yul\":12450:12543   */\n      tag_406\n      jump\t// in\n    tag_554:\n        /* \"#utility.yul\":12568:12570   */\n      0x40\n        /* \"#utility.yul\":12563:12566   */\n      dup3\n        /* \"#utility.yul\":12559:12571   */\n      add\n        /* \"#utility.yul\":12552:12571   */\n      swap1\n      pop\n        /* \"#utility.yul\":12211:12577   */\n      swap2\n      swap1\n      pop\n      jump\t// out\n        /* \"#utility.yul\":12583:13002   */\n    tag_89:\n        /* \"#utility.yul\":12749:12753   */\n      0x00\n        /* \"#utility.yul\":12787:12789   */\n      0x20\n        /* \"#utility.yul\":12776:12785   */\n      dup3\n        /* \"#utility.yul\":12772:12790   */\n      add\n        /* \"#utility.yul\":12764:12790   */\n      swap1\n      pop\n        /* \"#utility.yul\":12836:12845   */\n      dup2\n        /* \"#utility.yul\":12830:12834   */\n      dup2\n        /* \"#utility.yul\":12826:12846   */\n      sub\n        /* \"#utility.yul\":12822:12823   */\n      0x00\n        /* \"#utility.yul\":12811:12820   */\n      dup4\n        /* \"#utility.yul\":12807:12824   */\n      add\n        /* \"#utility.yul\":12800:12847   */\n      mstore\n        /* \"#utility.yul\":12864:12995   */\n      tag_556\n        /* \"#utility.yul\":12990:12994   */\n      dup2\n        /* \"#utility.yul\":12864:12995   */\n      tag_407\n      jump\t// in\n    tag_556:\n        /* \"#utility.yul\":12856:12995   */\n      swap1\n      pop\n        /* \"#utility.yul\":12583:13002   */\n      swap2\n      swap1\n      pop\n      jump\t// out\n        /* \"#utility.yul\":13008:13230   */\n    tag_408:\n        /* \"#utility.yul\":13148:13182   */\n      0x566f7465722068617320616c726561647920636173742069747320766f746520\n        /* \"#utility.yul\":13144:13145   */\n      0x00\n        /* \"#utility.yul\":13136:13142   */\n      dup3\n        /* \"#utility.yul\":13132:13146   */\n      add\n        /* \"#utility.yul\":13125:13183   */\n      mstore\n        /* \"#utility.yul\":13217:13222   */\n      0x7965740000000000000000000000000000000000000000000000000000000000\n        /* \"#utility.yul\":13212:13214   */\n      0x20\n        /* \"#utility.yul\":13204:13210   */\n      dup3\n        /* \"#utility.yul\":13200:13215   */\n      add\n        /* \"#utility.yul\":13193:13223   */\n      mstore\n        /* \"#utility.yul\":13008:13230   */\n      pop\n      jump\t// out\n        /* \"#utility.yul\":13236:13602   */\n    tag_409:\n        /* \"#utility.yul\":13378:13381   */\n      0x00\n        /* \"#utility.yul\":13399:13466   */\n      tag_559\n        /* \"#utility.yul\":13463:13465   */\n      0x23\n        /* \"#utility.yul\":13458:13461   */\n      dup4\n        /* \"#utility.yul\":13399:13466   */\n      tag_394\n      jump\t// in\n    tag_559:\n        /* \"#utility.yul\":13392:13466   */\n      swap2\n      pop\n        /* \"#utility.yul\":13475:13568   */\n      tag_560\n        /* \"#utility.yul\":13564:13567   */\n      dup3\n        /* \"#utility.yul\":13475:13568   */\n      tag_408\n      jump\t// in\n    tag_560:\n        /* \"#utility.yul\":13593:13595   */\n      0x40\n        /* \"#utility.yul\":13588:13591   */\n      dup3\n        /* \"#utility.yul\":13584:13596   */\n      add\n        /* \"#utility.yul\":13577:13596   */\n      swap1\n      pop\n        /* \"#utility.yul\":13236:13602   */\n      swap2\n      swap1\n      pop\n      jump\t// out\n        /* \"#utility.yul\":13608:14027   */\n    tag_92:\n        /* \"#utility.yul\":13774:13778   */\n      0x00\n        /* \"#utility.yul\":13812:13814   */\n      0x20\n        /* \"#utility.yul\":13801:13810   */\n      dup3\n        /* \"#utility.yul\":13797:13815   */\n      add\n        /* \"#utility.yul\":13789:13815   */\n      swap1\n      pop\n        /* \"#utility.yul\":13861:13870   */\n      dup2\n        /* \"#utility.yul\":13855:13859   */\n      dup2\n        /* \"#utility.yul\":13851:13871   */\n      sub\n        /* \"#utility.yul\":13847:13848   */\n      0x00\n        /* \"#utility.yul\":13836:13845   */\n      dup4\n        /* \"#utility.yul\":13832:13849   */\n      add\n        /* \"#utility.yul\":13825:13872   */\n      mstore\n        /* \"#utility.yul\":13889:14020   */\n      tag_562\n        /* \"#utility.yul\":14015:14019   */\n      dup2\n        /* \"#utility.yul\":13889:14020   */\n      tag_409\n      jump\t// in\n    tag_562:\n        /* \"#utility.yul\":13881:14020   */\n      swap1\n      pop\n        /* \"#utility.yul\":13608:14027   */\n      swap2\n      swap1\n      pop\n      jump\t// out\n        /* \"#utility.yul\":14033:14205   */\n    tag_410:\n        /* \"#utility.yul\":14173:14197   */\n      0x43616e64696461746520646f206e6f7420657869737400000000000000000000\n        /* \"#utility.yul\":14169:14170   */\n      0x00\n        /* \"#utility.yul\":14161:14167   */\n      dup3\n        /* \"#utility.yul\":14157:14171   */\n      add\n        /* \"#utility.yul\":14150:14198   */\n      mstore\n        /* \"#utility.yul\":14033:14205   */\n      pop\n      jump\t// out\n        /* \"#utility.yul\":14211:14577   */\n    tag_411:\n        /* \"#utility.yul\":14353:14356   */\n      0x00\n        /* \"#utility.yul\":14374:14441   */\n      tag_565\n        /* \"#utility.yul\":14438:14440   */\n      0x16\n        /* \"#utility.yul\":14433:14436   */\n      dup4\n        /* \"#utility.yul\":14374:14441   */\n      tag_394\n      jump\t// in\n    tag_565:\n        /* \"#utility.yul\":14367:14441   */\n      swap2\n      pop\n        /* \"#utility.yul\":14450:14543   */\n      tag_566\n        /* \"#utility.yul\":14539:14542   */\n      dup3\n        /* \"#utility.yul\":14450:14543   */\n      tag_410\n      jump\t// in\n    tag_566:\n        /* \"#utility.yul\":14568:14570   */\n      0x20\n        /* \"#utility.yul\":14563:14566   */\n      dup3\n        /* \"#utility.yul\":14559:14571   */\n      add\n        /* \"#utility.yul\":14552:14571   */\n      swap1\n      pop\n        /* \"#utility.yul\":14211:14577   */\n      swap2\n      swap1\n      pop\n      jump\t// out\n        /* \"#utility.yul\":14583:15002   */\n    tag_98:\n        /* \"#utility.yul\":14749:14753   */\n      0x00\n        /* \"#utility.yul\":14787:14789   */\n      0x20\n        /* \"#utility.yul\":14776:14785   */\n      dup3\n        /* \"#utility.yul\":14772:14790   */\n      add\n        /* \"#utility.yul\":14764:14790   */\n      swap1\n      pop\n        /* \"#utility.yul\":14836:14845   */\n      dup2\n        /* \"#utility.yul\":14830:14834   */\n      dup2\n        /* \"#utility.yul\":14826:14846   */\n      sub\n        /* \"#utility.yul\":14822:14823   */\n      0x00\n        /* \"#utility.yul\":14811:14820   */\n      dup4\n        /* \"#utility.yul\":14807:14824   */\n      add\n        /* \"#utility.yul\":14800:14847   */\n      mstore\n        /* \"#utility.yul\":14864:14995   */\n      tag_568\n        /* \"#utility.yul\":14990:14994   */\n      dup2\n        /* \"#utility.yul\":14864:14995   */\n      tag_411\n      jump\t// in\n    tag_568:\n        /* \"#utility.yul\":14856:14995   */\n      swap1\n      pop\n        /* \"#utility.yul\":14583:15002   */\n      swap2\n      swap1\n      pop\n      jump\t// out\n        /* \"#utility.yul\":15008:15190   */\n    tag_412:\n        /* \"#utility.yul\":15148:15182   */\n      0x4e6f20726967687420746f20766f746520696e2074686520656c656374696f6e\n        /* \"#utility.yul\":15144:15145   */\n      0x00\n        /* \"#utility.yul\":15136:15142   */\n      dup3\n        /* \"#utility.yul\":15132:15146   */\n      add\n        /* \"#utility.yul\":15125:15183   */\n      mstore\n        /* \"#utility.yul\":15008:15190   */\n      pop\n      jump\t// out\n        /* \"#utility.yul\":15196:15562   */\n    tag_413:\n        /* \"#utility.yul\":15338:15341   */\n      0x00\n        /* \"#utility.yul\":15359:15426   */\n      tag_571\n        /* \"#utility.yul\":15423:15425   */\n      0x20\n        /* \"#utility.yul\":15418:15421   */\n      dup4\n        /* \"#utility.yul\":15359:15426   */\n      tag_394\n      jump\t// in\n    tag_571:\n        /* \"#utility.yul\":15352:15426   */\n      swap2\n      pop\n        /* \"#utility.yul\":15435:15528   */\n      tag_572\n        /* \"#utility.yul\":15524:15527   */\n      dup3\n        /* \"#utility.yul\":15435:15528   */\n      tag_412\n      jump\t// in\n    tag_572:\n        /* \"#utility.yul\":15553:15555   */\n      0x20\n        /* \"#utility.yul\":15548:15551   */\n      dup3\n        /* \"#utility.yul\":15544:15556   */\n      add\n        /* \"#utility.yul\":15537:15556   */\n      swap1\n      pop\n        /* \"#utility.yul\":15196:15562   */\n      swap2\n      swap1\n      pop\n      jump\t// out\n        /* \"#utility.yul\":15568:15987   */\n    tag_103:\n        /* \"#utility.yul\":15734:15738   */\n      0x00\n        /* \"#utility.yul\":15772:15774   */\n      0x20\n        /* \"#utility.yul\":15761:15770   */\n      dup3\n        /* \"#utility.yul\":15757:15775   */\n      add\n        /* \"#utility.yul\":15749:15775   */\n      swap1\n      pop\n        /* \"#utility.yul\":15821:15830   */\n      dup2\n        /* \"#utility.yul\":15815:15819   */\n      dup2\n        /* \"#utility.yul\":15811:15831   */\n      sub\n        /* \"#utility.yul\":15807:15808   */\n      0x00\n        /* \"#utility.yul\":15796:15805   */\n      dup4\n        /* \"#utility.yul\":15792:15809   */\n      add\n        /* \"#utility.yul\":15785:15832   */\n      mstore\n        /* \"#utility.yul\":15849:15980   */\n      tag_574\n        /* \"#utility.yul\":15975:15979   */\n      dup2\n        /* \"#utility.yul\":15849:15980   */\n      tag_413\n      jump\t// in\n    tag_574:\n        /* \"#utility.yul\":15841:15980   */\n      swap1\n      pop\n        /* \"#utility.yul\":15568:15987   */\n      swap2\n      swap1\n      pop\n      jump\t// out\n        /* \"#utility.yul\":15993:16175   */\n    tag_414:\n        /* \"#utility.yul\":16133:16167   */\n      0x566f74657220646f6573206e6f742061737369676e20746865697220766f7465\n        /* \"#utility.yul\":16129:16130   */\n      0x00\n        /* \"#utility.yul\":16121:16127   */\n      dup3\n        /* \"#utility.yul\":16117:16131   */\n      add\n        /* \"#utility.yul\":16110:16168   */\n      mstore\n        /* \"#utility.yul\":15993:16175   */\n      pop\n      jump\t// out\n        /* \"#utility.yul\":16181:16547   */\n    tag_415:\n        /* \"#utility.yul\":16323:16326   */\n      0x00\n        /* \"#utility.yul\":16344:16411   */\n      tag_577\n        /* \"#utility.yul\":16408:16410   */\n      0x20\n        /* \"#utility.yul\":16403:16406   */\n      dup4\n        /* \"#utility.yul\":16344:16411   */\n      tag_394\n      jump\t// in\n    tag_577:\n        /* \"#utility.yul\":16337:16411   */\n      swap2\n      pop\n        /* \"#utility.yul\":16420:16513   */\n      tag_578\n        /* \"#utility.yul\":16509:16512   */\n      dup3\n        /* \"#utility.yul\":16420:16513   */\n      tag_414\n      jump\t// in\n    tag_578:\n        /* \"#utility.yul\":16538:16540   */\n      0x20\n        /* \"#utility.yul\":16533:16536   */\n      dup3\n        /* \"#utility.yul\":16529:16541   */\n      add\n        /* \"#utility.yul\":16522:16541   */\n      swap1\n      pop\n        /* \"#utility.yul\":16181:16547   */\n      swap2\n      swap1\n      pop\n      jump\t// out\n        /* \"#utility.yul\":16553:16972   */\n    tag_114:\n        /* \"#utility.yul\":16719:16723   */\n      0x00\n        /* \"#utility.yul\":16757:16759   */\n      0x20\n        /* \"#utility.yul\":16746:16755   */\n      dup3\n        /* \"#utility.yul\":16742:16760   */\n      add\n        /* \"#utility.yul\":16734:16760   */\n      swap1\n      pop\n        /* \"#utility.yul\":16806:16815   */\n      dup2\n        /* \"#utility.yul\":16800:16804   */\n      dup2\n        /* \"#utility.yul\":16796:16816   */\n      sub\n        /* \"#utility.yul\":16792:16793   */\n      0x00\n        /* \"#utility.yul\":16781:16790   */\n      dup4\n        /* \"#utility.yul\":16777:16794   */\n      add\n        /* \"#utility.yul\":16770:16817   */\n      mstore\n        /* \"#utility.yul\":16834:16965   */\n      tag_580\n        /* \"#utility.yul\":16960:16964   */\n      dup2\n        /* \"#utility.yul\":16834:16965   */\n      tag_415\n      jump\t// in\n    tag_580:\n        /* \"#utility.yul\":16826:16965   */\n      swap1\n      pop\n        /* \"#utility.yul\":16553:16972   */\n      swap2\n      swap1\n      pop\n      jump\t// out\n        /* \"#utility.yul\":16978:17169   */\n    tag_120:\n        /* \"#utility.yul\":17018:17021   */\n      0x00\n        /* \"#utility.yul\":17037:17057   */\n      tag_582\n        /* \"#utility.yul\":17055:17056   */\n      dup3\n        /* \"#utility.yul\":17037:17057   */\n      tag_379\n      jump\t// in\n    tag_582:\n        /* \"#utility.yul\":17032:17057   */\n      swap2\n      pop\n        /* \"#utility.yul\":17071:17091   */\n      tag_583\n        /* \"#utility.yul\":17089:17090   */\n      dup4\n        /* \"#utility.yul\":17071:17091   */\n      tag_379\n      jump\t// in\n    tag_583:\n        /* \"#utility.yul\":17066:17091   */\n      swap3\n      pop\n        /* \"#utility.yul\":17114:17115   */\n      dup3\n        /* \"#utility.yul\":17111:17112   */\n      dup3\n        /* \"#utility.yul\":17107:17116   */\n      add\n        /* \"#utility.yul\":17100:17116   */\n      swap1\n      pop\n        /* \"#utility.yul\":17135:17138   */\n      dup1\n        /* \"#utility.yul\":17132:17133   */\n      dup3\n        /* \"#utility.yul\":17129:17139   */\n      gt\n        /* \"#utility.yul\":17126:17162   */\n      iszero\n      tag_584\n      jumpi\n        /* \"#utility.yul\":17142:17160   */\n      tag_585\n      tag_405\n      jump\t// in\n    tag_585:\n        /* \"#utility.yul\":17126:17162   */\n    tag_584:\n        /* \"#utility.yul\":16978:17169   */\n      swap3\n      swap2\n      pop\n      pop\n      jump\t// out\n        /* \"#utility.yul\":17175:17355   */\n    tag_124:\n        /* \"#utility.yul\":17223:17300   */\n      0x4e487b7100000000000000000000000000000000000000000000000000000000\n        /* \"#utility.yul\":17220:17221   */\n      0x00\n        /* \"#utility.yul\":17213:17301   */\n      mstore\n        /* \"#utility.yul\":17320:17324   */\n      0x41\n        /* \"#utility.yul\":17317:17318   */\n      0x04\n        /* \"#utility.yul\":17310:17325   */\n      mstore\n        /* \"#utility.yul\":17344:17348   */\n      0x24\n        /* \"#utility.yul\":17341:17342   */\n      0x00\n        /* \"#utility.yul\":17334:17349   */\n      revert\n        /* \"#utility.yul\":17361:17542   */\n    tag_416:\n        /* \"#utility.yul\":17501:17534   */\n      0x566f7465722068617320616c726561647920636173742069747320766f746500\n        /* \"#utility.yul\":17497:17498   */\n      0x00\n        /* \"#utility.yul\":17489:17495   */\n      dup3\n        /* \"#utility.yul\":17485:17499   */\n      add\n        /* \"#utility.yul\":17478:17535   */\n      mstore\n        /* \"#utility.yul\":17361:17542   */\n      pop\n      jump\t// out\n        /* \"#utility.yul\":17548:17914   */\n    tag_417:\n        /* \"#utility.yul\":17690:17693   */\n      0x00\n        /* \"#utility.yul\":17711:17778   */\n      tag_589\n        /* \"#utility.yul\":17775:17777   */\n      0x1f\n        /* \"#utility.yul\":17770:17773   */\n      dup4\n        /* \"#utility.yul\":17711:17778   */\n      tag_394\n      jump\t// in\n    tag_589:\n        /* \"#utility.yul\":17704:17778   */\n      swap2\n      pop\n        /* \"#utility.yul\":17787:17880   */\n      tag_590\n        /* \"#utility.yul\":17876:17879   */\n      dup3\n        /* \"#utility.yul\":17787:17880   */\n      tag_416\n      jump\t// in\n    tag_590:\n        /* \"#utility.yul\":17905:17907   */\n      0x20\n        /* \"#utility.yul\":17900:17903   */\n      dup3\n        /* \"#utility.yul\":17896:17908   */\n      add\n        /* \"#utility.yul\":17889:17908   */\n      swap1\n      pop\n        /* \"#utility.yul\":17548:17914   */\n      swap2\n      swap1\n      pop\n      jump\t// out\n        /* \"#utility.yul\":17920:18339   */\n    tag_168:\n        /* \"#utility.yul\":18086:18090   */\n      0x00\n        /* \"#utility.yul\":18124:18126   */\n      0x20\n        /* \"#utility.yul\":18113:18122   */\n      dup3\n        /* \"#utility.yul\":18109:18127   */\n      add\n        /* \"#utility.yul\":18101:18127   */\n      swap1\n      pop\n        /* \"#utility.yul\":18173:18182   */\n      dup2\n        /* \"#utility.yul\":18167:18171   */\n      dup2\n        /* \"#utility.yul\":18163:18183   */\n      sub\n        /* \"#utility.yul\":18159:18160   */\n      0x00\n        /* \"#utility.yul\":18148:18157   */\n      dup4\n        /* \"#utility.yul\":18144:18161   */\n      add\n        /* \"#utility.yul\":18137:18184   */\n      mstore\n        /* \"#utility.yul\":18201:18332   */\n      tag_592\n        /* \"#utility.yul\":18327:18331   */\n      dup2\n        /* \"#utility.yul\":18201:18332   */\n      tag_417\n      jump\t// in\n    tag_592:\n        /* \"#utility.yul\":18193:18332   */\n      swap1\n      pop\n        /* \"#utility.yul\":17920:18339   */\n      swap2\n      swap1\n      pop\n      jump\t// out\n        /* \"#utility.yul\":18345:18519   */\n    tag_418:\n        /* \"#utility.yul\":18485:18511   */\n      0x43616e646964617465204964206d757374206265203e20300000000000000000\n        /* \"#utility.yul\":18481:18482   */\n      0x00\n        /* \"#utility.yul\":18473:18479   */\n      dup3\n        /* \"#utility.yul\":18469:18483   */\n      add\n        /* \"#utility.yul\":18462:18512   */\n      mstore\n        /* \"#utility.yul\":18345:18519   */\n      pop\n      jump\t// out\n        /* \"#utility.yul\":18525:18891   */\n    tag_419:\n        /* \"#utility.yul\":18667:18670   */\n      0x00\n        /* \"#utility.yul\":18688:18755   */\n      tag_595\n        /* \"#utility.yul\":18752:18754   */\n      0x18\n        /* \"#utility.yul\":18747:18750   */\n      dup4\n        /* \"#utility.yul\":18688:18755   */\n      tag_394\n      jump\t// in\n    tag_595:\n        /* \"#utility.yul\":18681:18755   */\n      swap2\n      pop\n        /* \"#utility.yul\":18764:18857   */\n      tag_596\n        /* \"#utility.yul\":18853:18856   */\n      dup3\n        /* \"#utility.yul\":18764:18857   */\n      tag_418\n      jump\t// in\n    tag_596:\n        /* \"#utility.yul\":18882:18884   */\n      0x20\n        /* \"#utility.yul\":18877:18880   */\n      dup3\n        /* \"#utility.yul\":18873:18885   */\n      add\n        /* \"#utility.yul\":18866:18885   */\n      swap1\n      pop\n        /* \"#utility.yul\":18525:18891   */\n      swap2\n      swap1\n      pop\n      jump\t// out\n        /* \"#utility.yul\":18897:19316   */\n    tag_177:\n        /* \"#utility.yul\":19063:19067   */\n      0x00\n        /* \"#utility.yul\":19101:19103   */\n      0x20\n        /* \"#utility.yul\":19090:19099   */\n      dup3\n        /* \"#utility.yul\":19086:19104   */\n      add\n        /* \"#utility.yul\":19078:19104   */\n      swap1\n      pop\n        /* \"#utility.yul\":19150:19159   */\n      dup2\n        /* \"#utility.yul\":19144:19148   */\n      dup2\n        /* \"#utility.yul\":19140:19160   */\n      sub\n        /* \"#utility.yul\":19136:19137   */\n      0x00\n        /* \"#utility.yul\":19125:19134   */\n      dup4\n        /* \"#utility.yul\":19121:19138   */\n      add\n        /* \"#utility.yul\":19114:19161   */\n      mstore\n        /* \"#utility.yul\":19178:19309   */\n      tag_598\n        /* \"#utility.yul\":19304:19308   */\n      dup2\n        /* \"#utility.yul\":19178:19309   */\n      tag_419\n      jump\t// in\n    tag_598:\n        /* \"#utility.yul\":19170:19309   */\n      swap1\n      pop\n        /* \"#utility.yul\":18897:19316   */\n      swap2\n      swap1\n      pop\n      jump\t// out\n        /* \"#utility.yul\":19322:19497   */\n    tag_420:\n        /* \"#utility.yul\":19462:19489   */\n      0x43616e64696461746520496420646f206e6f7420657869737400000000000000\n        /* \"#utility.yul\":19458:19459   */\n      0x00\n        /* \"#utility.yul\":19450:19456   */\n      dup3\n        /* \"#utility.yul\":19446:19460   */\n      add\n        /* \"#utility.yul\":19439:19490   */\n      mstore\n        /* \"#utility.yul\":19322:19497   */\n      pop\n      jump\t// out\n        /* \"#utility.yul\":19503:19869   */\n    tag_421:\n        /* \"#utility.yul\":19645:19648   */\n      0x00\n        /* \"#utility.yul\":19666:19733   */\n      tag_601\n        /* \"#utility.yul\":19730:19732   */\n      0x19\n        /* \"#utility.yul\":19725:19728   */\n      dup4\n        /* \"#utility.yul\":19666:19733   */\n      tag_394\n      jump\t// in\n    tag_601:\n        /* \"#utility.yul\":19659:19733   */\n      swap2\n      pop\n        /* \"#utility.yul\":19742:19835   */\n      tag_602\n        /* \"#utility.yul\":19831:19834   */\n      dup3\n        /* \"#utility.yul\":19742:19835   */\n      tag_420\n      jump\t// in\n    tag_602:\n        /* \"#utility.yul\":19860:19862   */\n      0x20\n        /* \"#utility.yul\":19855:19858   */\n      dup3\n        /* \"#utility.yul\":19851:19863   */\n      add\n        /* \"#utility.yul\":19844:19863   */\n      swap1\n      pop\n        /* \"#utility.yul\":19503:19869   */\n      swap2\n      swap1\n      pop\n      jump\t// out\n        /* \"#utility.yul\":19875:20294   */\n    tag_180:\n        /* \"#utility.yul\":20041:20045   */\n      0x00\n        /* \"#utility.yul\":20079:20081   */\n      0x20\n        /* \"#utility.yul\":20068:20077   */\n      dup3\n        /* \"#utility.yul\":20064:20082   */\n      add\n        /* \"#utility.yul\":20056:20082   */\n      swap1\n      pop\n        /* \"#utility.yul\":20128:20137   */\n      dup2\n        /* \"#utility.yul\":20122:20126   */\n      dup2\n        /* \"#utility.yul\":20118:20138   */\n      sub\n        /* \"#utility.yul\":20114:20115   */\n      0x00\n        /* \"#utility.yul\":20103:20112   */\n      dup4\n        /* \"#utility.yul\":20099:20116   */\n      add\n        /* \"#utility.yul\":20092:20139   */\n      mstore\n        /* \"#utility.yul\":20156:20287   */\n      tag_604\n        /* \"#utility.yul\":20282:20286   */\n      dup2\n        /* \"#utility.yul\":20156:20287   */\n      tag_421\n      jump\t// in\n    tag_604:\n        /* \"#utility.yul\":20148:20287   */\n      swap1\n      pop\n        /* \"#utility.yul\":19875:20294   */\n      swap2\n      swap1\n      pop\n      jump\t// out\n        /* \"#utility.yul\":20300:20479   */\n    tag_422:\n        /* \"#utility.yul\":20440:20471   */\n      0x456c656374696f6e20686173206e6f742066696e697368656420796574000000\n        /* \"#utility.yul\":20436:20437   */\n      0x00\n        /* \"#utility.yul\":20428:20434   */\n      dup3\n        /* \"#utility.yul\":20424:20438   */\n      add\n        /* \"#utility.yul\":20417:20472   */\n      mstore\n        /* \"#utility.yul\":20300:20479   */\n      pop\n      jump\t// out\n        /* \"#utility.yul\":20485:20851   */\n    tag_423:\n        /* \"#utility.yul\":20627:20630   */\n      0x00\n        /* \"#utility.yul\":20648:20715   */\n      tag_607\n        /* \"#utility.yul\":20712:20714   */\n      0x1d\n        /* \"#utility.yul\":20707:20710   */\n      dup4\n        /* \"#utility.yul\":20648:20715   */\n      tag_394\n      jump\t// in\n    tag_607:\n        /* \"#utility.yul\":20641:20715   */\n      swap2\n      pop\n        /* \"#utility.yul\":20724:20817   */\n      tag_608\n        /* \"#utility.yul\":20813:20816   */\n      dup3\n        /* \"#utility.yul\":20724:20817   */\n      tag_422\n      jump\t// in\n    tag_608:\n        /* \"#utility.yul\":20842:20844   */\n      0x20\n        /* \"#utility.yul\":20837:20840   */\n      dup3\n        /* \"#utility.yul\":20833:20845   */\n      add\n        /* \"#utility.yul\":20826:20845   */\n      swap1\n      pop\n        /* \"#utility.yul\":20485:20851   */\n      swap2\n      swap1\n      pop\n      jump\t// out\n        /* \"#utility.yul\":20857:21276   */\n    tag_188:\n        /* \"#utility.yul\":21023:21027   */\n      0x00\n        /* \"#utility.yul\":21061:21063   */\n      0x20\n        /* \"#utility.yul\":21050:21059   */\n      dup3\n        /* \"#utility.yul\":21046:21064   */\n      add\n        /* \"#utility.yul\":21038:21064   */\n      swap1\n      pop\n        /* \"#utility.yul\":21110:21119   */\n      dup2\n        /* \"#utility.yul\":21104:21108   */\n      dup2\n        /* \"#utility.yul\":21100:21120   */\n      sub\n        /* \"#utility.yul\":21096:21097   */\n      0x00\n        /* \"#utility.yul\":21085:21094   */\n      dup4\n        /* \"#utility.yul\":21081:21098   */\n      add\n        /* \"#utility.yul\":21074:21121   */\n      mstore\n        /* \"#utility.yul\":21138:21269   */\n      tag_610\n        /* \"#utility.yul\":21264:21268   */\n      dup2\n        /* \"#utility.yul\":21138:21269   */\n      tag_423\n      jump\t// in\n    tag_610:\n        /* \"#utility.yul\":21130:21269   */\n      swap1\n      pop\n        /* \"#utility.yul\":20857:21276   */\n      swap2\n      swap1\n      pop\n      jump\t// out\n        /* \"#utility.yul\":21282:21506   */\n    tag_424:\n        /* \"#utility.yul\":21422:21456   */\n      0x4f6e6c792063616e6469646174652063616e2063616c6c20746869732066756e\n        /* \"#utility.yul\":21418:21419   */\n      0x00\n        /* \"#utility.yul\":21410:21416   */\n      dup3\n        /* \"#utility.yul\":21406:21420   */\n      add\n        /* \"#utility.yul\":21399:21457   */\n      mstore\n        /* \"#utility.yul\":21491:21498   */\n      0x6374696f6e000000000000000000000000000000000000000000000000000000\n        /* \"#utility.yul\":21486:21488   */\n      0x20\n        /* \"#utility.yul\":21478:21484   */\n      dup3\n        /* \"#utility.yul\":21474:21489   */\n      add\n        /* \"#utility.yul\":21467:21499   */\n      mstore\n        /* \"#utility.yul\":21282:21506   */\n      pop\n      jump\t// out\n        /* \"#utility.yul\":21512:21878   */\n    tag_425:\n        /* \"#utility.yul\":21654:21657   */\n      0x00\n        /* \"#utility.yul\":21675:21742   */\n      tag_613\n        /* \"#utility.yul\":21739:21741   */\n      0x25\n        /* \"#utility.yul\":21734:21737   */\n      dup4\n        /* \"#utility.yul\":21675:21742   */\n      tag_394\n      jump\t// in\n    tag_613:\n        /* \"#utility.yul\":21668:21742   */\n      swap2\n      pop\n        /* \"#utility.yul\":21751:21844   */\n      tag_614\n        /* \"#utility.yul\":21840:21843   */\n      dup3\n        /* \"#utility.yul\":21751:21844   */\n      tag_424\n      jump\t// in\n    tag_614:\n        /* \"#utility.yul\":21869:21871   */\n      0x40\n        /* \"#utility.yul\":21864:21867   */\n      dup3\n        /* \"#utility.yul\":21860:21872   */\n      add\n        /* \"#utility.yul\":21853:21872   */\n      swap1\n      pop\n        /* \"#utility.yul\":21512:21878   */\n      swap2\n      swap1\n      pop\n      jump\t// out\n        /* \"#utility.yul\":21884:22303   */\n    tag_191:\n        /* \"#utility.yul\":22050:22054   */\n      0x00\n        /* \"#utility.yul\":22088:22090   */\n      0x20\n        /* \"#utility.yul\":22077:22086   */\n      dup3\n        /* \"#utility.yul\":22073:22091   */\n      add\n        /* \"#utility.yul\":22065:22091   */\n      swap1\n      pop\n        /* \"#utility.yul\":22137:22146   */\n      dup2\n        /* \"#utility.yul\":22131:22135   */\n      dup2\n        /* \"#utility.yul\":22127:22147   */\n      sub\n        /* \"#utility.yul\":22123:22124   */\n      0x00\n        /* \"#utility.yul\":22112:22121   */\n      dup4\n        /* \"#utility.yul\":22108:22125   */\n      add\n        /* \"#utility.yul\":22101:22148   */\n      mstore\n        /* \"#utility.yul\":22165:22296   */\n      tag_616\n        /* \"#utility.yul\":22291:22295   */\n      dup2\n        /* \"#utility.yul\":22165:22296   */\n      tag_425\n      jump\t// in\n    tag_616:\n        /* \"#utility.yul\":22157:22296   */\n      swap1\n      pop\n        /* \"#utility.yul\":21884:22303   */\n      swap2\n      swap1\n      pop\n      jump\t// out\n        /* \"#utility.yul\":22309:22625   */\n    tag_426:\n        /* \"#utility.yul\":22449:22483   */\n      0x596f75206861766520616c72656164792063616c6c656420746869732066756e\n        /* \"#utility.yul\":22445:22446   */\n      0x00\n        /* \"#utility.yul\":22437:22443   */\n      dup3\n        /* \"#utility.yul\":22433:22447   */\n      add\n        /* \"#utility.yul\":22426:22484   */\n      mstore\n        /* \"#utility.yul\":22518:22552   */\n      0x6374696f6e2e205761697420666f72206f746865722063616e64696461746573\n        /* \"#utility.yul\":22513:22515   */\n      0x20\n        /* \"#utility.yul\":22505:22511   */\n      dup3\n        /* \"#utility.yul\":22501:22516   */\n      add\n        /* \"#utility.yul\":22494:22553   */\n      mstore\n        /* \"#utility.yul\":22587:22617   */\n      0x20746f2063616c6c207265737461727420746f20656c656374696f6e00000000\n        /* \"#utility.yul\":22582:22584   */\n      0x40\n        /* \"#utility.yul\":22574:22580   */\n      dup3\n        /* \"#utility.yul\":22570:22585   */\n      add\n        /* \"#utility.yul\":22563:22618   */\n      mstore\n        /* \"#utility.yul\":22309:22625   */\n      pop\n      jump\t// out\n        /* \"#utility.yul\":22631:22997   */\n    tag_427:\n        /* \"#utility.yul\":22773:22776   */\n      0x00\n        /* \"#utility.yul\":22794:22861   */\n      tag_619\n        /* \"#utility.yul\":22858:22860   */\n      0x5c\n        /* \"#utility.yul\":22853:22856   */\n      dup4\n        /* \"#utility.yul\":22794:22861   */\n      tag_394\n      jump\t// in\n    tag_619:\n        /* \"#utility.yul\":22787:22861   */\n      swap2\n      pop\n        /* \"#utility.yul\":22870:22963   */\n      tag_620\n        /* \"#utility.yul\":22959:22962   */\n      dup3\n        /* \"#utility.yul\":22870:22963   */\n      tag_426\n      jump\t// in\n    tag_620:\n        /* \"#utility.yul\":22988:22990   */\n      0x60\n        /* \"#utility.yul\":22983:22986   */\n      dup3\n        /* \"#utility.yul\":22979:22991   */\n      add\n        /* \"#utility.yul\":22972:22991   */\n      swap1\n      pop\n        /* \"#utility.yul\":22631:22997   */\n      swap2\n      swap1\n      pop\n      jump\t// out\n        /* \"#utility.yul\":23003:23422   */\n    tag_194:\n        /* \"#utility.yul\":23169:23173   */\n      0x00\n        /* \"#utility.yul\":23207:23209   */\n      0x20\n        /* \"#utility.yul\":23196:23205   */\n      dup3\n        /* \"#utility.yul\":23192:23210   */\n      add\n        /* \"#utility.yul\":23184:23210   */\n      swap1\n      pop\n        /* \"#utility.yul\":23256:23265   */\n      dup2\n        /* \"#utility.yul\":23250:23254   */\n      dup2\n        /* \"#utility.yul\":23246:23266   */\n      sub\n        /* \"#utility.yul\":23242:23243   */\n      0x00\n        /* \"#utility.yul\":23231:23240   */\n      dup4\n        /* \"#utility.yul\":23227:23244   */\n      add\n        /* \"#utility.yul\":23220:23267   */\n      mstore\n        /* \"#utility.yul\":23284:23415   */\n      tag_622\n        /* \"#utility.yul\":23410:23414   */\n      dup2\n        /* \"#utility.yul\":23284:23415   */\n      tag_427\n      jump\t// in\n    tag_622:\n        /* \"#utility.yul\":23276:23415   */\n      swap1\n      pop\n        /* \"#utility.yul\":23003:23422   */\n      swap2\n      swap1\n      pop\n      jump\t// out\n        /* \"#utility.yul\":23428:23740   */\n    tag_428:\n        /* \"#utility.yul\":23568:23602   */\n      0x596f75206861766520616c72656164792063616c6c656420746869732066756e\n        /* \"#utility.yul\":23564:23565   */\n      0x00\n        /* \"#utility.yul\":23556:23562   */\n      dup3\n        /* \"#utility.yul\":23552:23566   */\n      add\n        /* \"#utility.yul\":23545:23603   */\n      mstore\n        /* \"#utility.yul\":23637:23671   */\n      0x6374696f6e2e205761697420666f72206f746865722063616e64696461746573\n        /* \"#utility.yul\":23632:23634   */\n      0x20\n        /* \"#utility.yul\":23624:23630   */\n      dup3\n        /* \"#utility.yul\":23620:23635   */\n      add\n        /* \"#utility.yul\":23613:23672   */\n      mstore\n        /* \"#utility.yul\":23706:23732   */\n      0x20746f2063616c6c20656e6420746f20656c656374696f6e0000000000000000\n        /* \"#utility.yul\":23701:23703   */\n      0x40\n        /* \"#utility.yul\":23693:23699   */\n      dup3\n        /* \"#utility.yul\":23689:23704   */\n      add\n        /* \"#utility.yul\":23682:23733   */\n      mstore\n        /* \"#utility.yul\":23428:23740   */\n      pop\n      jump\t// out\n        /* \"#utility.yul\":23746:24112   */\n    tag_429:\n        /* \"#utility.yul\":23888:23891   */\n      0x00\n        /* \"#utility.yul\":23909:23976   */\n      tag_625\n        /* \"#utility.yul\":23973:23975   */\n      0x58\n        /* \"#utility.yul\":23968:23971   */\n      dup4\n        /* \"#utility.yul\":23909:23976   */\n      tag_394\n      jump\t// in\n    tag_625:\n        /* \"#utility.yul\":23902:23976   */\n      swap2\n      pop\n        /* \"#utility.yul\":23985:24078   */\n      tag_626\n        /* \"#utility.yul\":24074:24077   */\n      dup3\n        /* \"#utility.yul\":23985:24078   */\n      tag_428\n      jump\t// in\n    tag_626:\n        /* \"#utility.yul\":24103:24105   */\n      0x60\n        /* \"#utility.yul\":24098:24101   */\n      dup3\n        /* \"#utility.yul\":24094:24106   */\n      add\n        /* \"#utility.yul\":24087:24106   */\n      swap1\n      pop\n        /* \"#utility.yul\":23746:24112   */\n      swap2\n      swap1\n      pop\n      jump\t// out\n        /* \"#utility.yul\":24118:24537   */\n    tag_210:\n        /* \"#utility.yul\":24284:24288   */\n      0x00\n        /* \"#utility.yul\":24322:24324   */\n      0x20\n        /* \"#utility.yul\":24311:24320   */\n      dup3\n        /* \"#utility.yul\":24307:24325   */\n      add\n        /* \"#utility.yul\":24299:24325   */\n      swap1\n      pop\n        /* \"#utility.yul\":24371:24380   */\n      dup2\n        /* \"#utility.yul\":24365:24369   */\n      dup2\n        /* \"#utility.yul\":24361:24381   */\n      sub\n        /* \"#utility.yul\":24357:24358   */\n      0x00\n        /* \"#utility.yul\":24346:24355   */\n      dup4\n        /* \"#utility.yul\":24342:24359   */\n      add\n        /* \"#utility.yul\":24335:24382   */\n      mstore\n        /* \"#utility.yul\":24399:24530   */\n      tag_628\n        /* \"#utility.yul\":24525:24529   */\n      dup2\n        /* \"#utility.yul\":24399:24530   */\n      tag_429\n      jump\t// in\n    tag_628:\n        /* \"#utility.yul\":24391:24530   */\n      swap1\n      pop\n        /* \"#utility.yul\":24118:24537   */\n      swap2\n      swap1\n      pop\n      jump\t// out\n        /* \"#utility.yul\":24543:24724   */\n    tag_430:\n        /* \"#utility.yul\":24683:24716   */\n      0x566f74657220686173206e6f7420636173742069747320766f74652079657400\n        /* \"#utility.yul\":24679:24680   */\n      0x00\n        /* \"#utility.yul\":24671:24677   */\n      dup3\n        /* \"#utility.yul\":24667:24681   */\n      add\n        /* \"#utility.yul\":24660:24717   */\n      mstore\n        /* \"#utility.yul\":24543:24724   */\n      pop\n      jump\t// out\n        /* \"#utility.yul\":24730:25096   */\n    tag_431:\n        /* \"#utility.yul\":24872:24875   */\n      0x00\n        /* \"#utility.yul\":24893:24960   */\n      tag_631\n        /* \"#utility.yul\":24957:24959   */\n      0x1f\n        /* \"#utility.yul\":24952:24955   */\n      dup4\n        /* \"#utility.yul\":24893:24960   */\n      tag_394\n      jump\t// in\n    tag_631:\n        /* \"#utility.yul\":24886:24960   */\n      swap2\n      pop\n        /* \"#utility.yul\":24969:25062   */\n      tag_632\n        /* \"#utility.yul\":25058:25061   */\n      dup3\n        /* \"#utility.yul\":24969:25062   */\n      tag_430\n      jump\t// in\n    tag_632:\n        /* \"#utility.yul\":25087:25089   */\n      0x20\n        /* \"#utility.yul\":25082:25085   */\n      dup3\n        /* \"#utility.yul\":25078:25090   */\n      add\n        /* \"#utility.yul\":25071:25090   */\n      swap1\n      pop\n        /* \"#utility.yul\":24730:25096   */\n      swap2\n      swap1\n      pop\n      jump\t// out\n        /* \"#utility.yul\":25102:25521   */\n    tag_259:\n        /* \"#utility.yul\":25268:25272   */\n      0x00\n        /* \"#utility.yul\":25306:25308   */\n      0x20\n        /* \"#utility.yul\":25295:25304   */\n      dup3\n        /* \"#utility.yul\":25291:25309   */\n      add\n        /* \"#utility.yul\":25283:25309   */\n      swap1\n      pop\n        /* \"#utility.yul\":25355:25364   */\n      dup2\n        /* \"#utility.yul\":25349:25353   */\n      dup2\n        /* \"#utility.yul\":25345:25365   */\n      sub\n        /* \"#utility.yul\":25341:25342   */\n      0x00\n        /* \"#utility.yul\":25330:25339   */\n      dup4\n        /* \"#utility.yul\":25326:25343   */\n      add\n        /* \"#utility.yul\":25319:25366   */\n      mstore\n        /* \"#utility.yul\":25383:25514   */\n      tag_634\n        /* \"#utility.yul\":25509:25513   */\n      dup2\n        /* \"#utility.yul\":25383:25514   */\n      tag_431\n      jump\t// in\n    tag_634:\n        /* \"#utility.yul\":25375:25514   */\n      swap1\n      pop\n        /* \"#utility.yul\":25102:25521   */\n      swap2\n      swap1\n      pop\n      jump\t// out\n        /* \"#utility.yul\":25527:25747   */\n    tag_432:\n        /* \"#utility.yul\":25667:25701   */\n      0x566f74657220766f746520666f72207468652073616d652063616e6469646174\n        /* \"#utility.yul\":25663:25664   */\n      0x00\n        /* \"#utility.yul\":25655:25661   */\n      dup3\n        /* \"#utility.yul\":25651:25665   */\n      add\n        /* \"#utility.yul\":25644:25702   */\n      mstore\n        /* \"#utility.yul\":25736:25739   */\n      0x6500000000000000000000000000000000000000000000000000000000000000\n        /* \"#utility.yul\":25731:25733   */\n      0x20\n        /* \"#utility.yul\":25723:25729   */\n      dup3\n        /* \"#utility.yul\":25719:25734   */\n      add\n        /* \"#utility.yul\":25712:25740   */\n      mstore\n        /* \"#utility.yul\":25527:25747   */\n      pop\n      jump\t// out\n        /* \"#utility.yul\":25753:26119   */\n    tag_433:\n        /* \"#utility.yul\":25895:25898   */\n      0x00\n        /* \"#utility.yul\":25916:25983   */\n      tag_637\n        /* \"#utility.yul\":25980:25982   */\n      0x21\n        /* \"#utility.yul\":25975:25978   */\n      dup4\n        /* \"#utility.yul\":25916:25983   */\n      tag_394\n      jump\t// in\n    tag_637:\n        /* \"#utility.yul\":25909:25983   */\n      swap2\n      pop\n        /* \"#utility.yul\":25992:26085   */\n      tag_638\n        /* \"#utility.yul\":26081:26084   */\n      dup3\n        /* \"#utility.yul\":25992:26085   */\n      tag_432\n      jump\t// in\n    tag_638:\n        /* \"#utility.yul\":26110:26112   */\n      0x40\n        /* \"#utility.yul\":26105:26108   */\n      dup3\n        /* \"#utility.yul\":26101:26113   */\n      add\n        /* \"#utility.yul\":26094:26113   */\n      swap1\n      pop\n        /* \"#utility.yul\":25753:26119   */\n      swap2\n      swap1\n      pop\n      jump\t// out\n        /* \"#utility.yul\":26125:26544   */\n    tag_262:\n        /* \"#utility.yul\":26291:26295   */\n      0x00\n        /* \"#utility.yul\":26329:26331   */\n      0x20\n        /* \"#utility.yul\":26318:26327   */\n      dup3\n        /* \"#utility.yul\":26314:26332   */\n      add\n        /* \"#utility.yul\":26306:26332   */\n      swap1\n      pop\n        /* \"#utility.yul\":26378:26387   */\n      dup2\n        /* \"#utility.yul\":26372:26376   */\n      dup2\n        /* \"#utility.yul\":26368:26388   */\n      sub\n        /* \"#utility.yul\":26364:26365   */\n      0x00\n        /* \"#utility.yul\":26353:26362   */\n      dup4\n        /* \"#utility.yul\":26349:26366   */\n      add\n        /* \"#utility.yul\":26342:26389   */\n      mstore\n        /* \"#utility.yul\":26406:26537   */\n      tag_640\n        /* \"#utility.yul\":26532:26536   */\n      dup2\n        /* \"#utility.yul\":26406:26537   */\n      tag_433\n      jump\t// in\n    tag_640:\n        /* \"#utility.yul\":26398:26537   */\n      swap1\n      pop\n        /* \"#utility.yul\":26125:26544   */\n      swap2\n      swap1\n      pop\n      jump\t// out\n        /* \"#utility.yul\":26550:26775   */\n    tag_434:\n        /* \"#utility.yul\":26690:26724   */\n      0x4f6e6c792063616e6469646174652063616e2077686974656c69737420746865\n        /* \"#utility.yul\":26686:26687   */\n      0x00\n        /* \"#utility.yul\":26678:26684   */\n      dup3\n        /* \"#utility.yul\":26674:26688   */\n      add\n        /* \"#utility.yul\":26667:26725   */\n      mstore\n        /* \"#utility.yul\":26759:26767   */\n      0x20766f7465720000000000000000000000000000000000000000000000000000\n        /* \"#utility.yul\":26754:26756   */\n      0x20\n        /* \"#utility.yul\":26746:26752   */\n      dup3\n        /* \"#utility.yul\":26742:26757   */\n      add\n        /* \"#utility.yul\":26735:26768   */\n      mstore\n        /* \"#utility.yul\":26550:26775   */\n      pop\n      jump\t// out\n        /* \"#utility.yul\":26781:27147   */\n    tag_435:\n        /* \"#utility.yul\":26923:26926   */\n      0x00\n        /* \"#utility.yul\":26944:27011   */\n      tag_643\n        /* \"#utility.yul\":27008:27010   */\n      0x26\n        /* \"#utility.yul\":27003:27006   */\n      dup4\n        /* \"#utility.yul\":26944:27011   */\n      tag_394\n      jump\t// in\n    tag_643:\n        /* \"#utility.yul\":26937:27011   */\n      swap2\n      pop\n        /* \"#utility.yul\":27020:27113   */\n      tag_644\n        /* \"#utility.yul\":27109:27112   */\n      dup3\n        /* \"#utility.yul\":27020:27113   */\n      tag_434\n      jump\t// in\n    tag_644:\n        /* \"#utility.yul\":27138:27140   */\n      0x40\n        /* \"#utility.yul\":27133:27136   */\n      dup3\n        /* \"#utility.yul\":27129:27141   */\n      add\n        /* \"#utility.yul\":27122:27141   */\n      swap1\n      pop\n        /* \"#utility.yul\":26781:27147   */\n      swap2\n      swap1\n      pop\n      jump\t// out\n        /* \"#utility.yul\":27153:27572   */\n    tag_278:\n        /* \"#utility.yul\":27319:27323   */\n      0x00\n        /* \"#utility.yul\":27357:27359   */\n      0x20\n        /* \"#utility.yul\":27346:27355   */\n      dup3\n        /* \"#utility.yul\":27342:27360   */\n      add\n        /* \"#utility.yul\":27334:27360   */\n      swap1\n      pop\n        /* \"#utility.yul\":27406:27415   */\n      dup2\n        /* \"#utility.yul\":27400:27404   */\n      dup2\n        /* \"#utility.yul\":27396:27416   */\n      sub\n        /* \"#utility.yul\":27392:27393   */\n      0x00\n        /* \"#utility.yul\":27381:27390   */\n      dup4\n        /* \"#utility.yul\":27377:27394   */\n      add\n        /* \"#utility.yul\":27370:27417   */\n      mstore\n        /* \"#utility.yul\":27434:27565   */\n      tag_646\n        /* \"#utility.yul\":27560:27564   */\n      dup2\n        /* \"#utility.yul\":27434:27565   */\n      tag_435\n      jump\t// in\n    tag_646:\n        /* \"#utility.yul\":27426:27565   */\n      swap1\n      pop\n        /* \"#utility.yul\":27153:27572   */\n      swap2\n      swap1\n      pop\n      jump\t// out\n        /* \"#utility.yul\":27578:27798   */\n    tag_436:\n        /* \"#utility.yul\":27718:27752   */\n      0x566f74657220697320616c726561647920656c696769626c6520746f20766f74\n        /* \"#utility.yul\":27714:27715   */\n      0x00\n        /* \"#utility.yul\":27706:27712   */\n      dup3\n        /* \"#utility.yul\":27702:27716   */\n      add\n        /* \"#utility.yul\":27695:27753   */\n      mstore\n        /* \"#utility.yul\":27787:27790   */\n      0x6500000000000000000000000000000000000000000000000000000000000000\n        /* \"#utility.yul\":27782:27784   */\n      0x20\n        /* \"#utility.yul\":27774:27780   */\n      dup3\n        /* \"#utility.yul\":27770:27785   */\n      add\n        /* \"#utility.yul\":27763:27791   */\n      mstore\n        /* \"#utility.yul\":27578:27798   */\n      pop\n      jump\t// out\n        /* \"#utility.yul\":27804:28170   */\n    tag_437:\n        /* \"#utility.yul\":27946:27949   */\n      0x00\n        /* \"#utility.yul\":27967:28034   */\n      tag_649\n        /* \"#utility.yul\":28031:28033   */\n      0x21\n        /* \"#utility.yul\":28026:28029   */\n      dup4\n        /* \"#utility.yul\":27967:28034   */\n      tag_394\n      jump\t// in\n    tag_649:\n        /* \"#utility.yul\":27960:28034   */\n      swap2\n      pop\n        /* \"#utility.yul\":28043:28136   */\n      tag_650\n        /* \"#utility.yul\":28132:28135   */\n      dup3\n        /* \"#utility.yul\":28043:28136   */\n      tag_436\n      jump\t// in\n    tag_650:\n        /* \"#utility.yul\":28161:28163   */\n      0x40\n        /* \"#utility.yul\":28156:28159   */\n      dup3\n        /* \"#utility.yul\":28152:28164   */\n      add\n        /* \"#utility.yul\":28145:28164   */\n      swap1\n      pop\n        /* \"#utility.yul\":27804:28170   */\n      swap2\n      swap1\n      pop\n      jump\t// out\n        /* \"#utility.yul\":28176:28595   */\n    tag_293:\n        /* \"#utility.yul\":28342:28346   */\n      0x00\n        /* \"#utility.yul\":28380:28382   */\n      0x20\n        /* \"#utility.yul\":28369:28378   */\n      dup3\n        /* \"#utility.yul\":28365:28383   */\n      add\n        /* \"#utility.yul\":28357:28383   */\n      swap1\n      pop\n        /* \"#utility.yul\":28429:28438   */\n      dup2\n        /* \"#utility.yul\":28423:28427   */\n      dup2\n        /* \"#utility.yul\":28419:28439   */\n      sub\n        /* \"#utility.yul\":28415:28416   */\n      0x00\n        /* \"#utility.yul\":28404:28413   */\n      dup4\n        /* \"#utility.yul\":28400:28417   */\n      add\n        /* \"#utility.yul\":28393:28440   */\n      mstore\n        /* \"#utility.yul\":28457:28588   */\n      tag_652\n        /* \"#utility.yul\":28583:28587   */\n      dup2\n        /* \"#utility.yul\":28457:28588   */\n      tag_437\n      jump\t// in\n    tag_652:\n        /* \"#utility.yul\":28449:28588   */\n      swap1\n      pop\n        /* \"#utility.yul\":28176:28595   */\n      swap2\n      swap1\n      pop\n      jump\t// out\n        /* \"#utility.yul\":28601:28829   */\n    tag_438:\n        /* \"#utility.yul\":28741:28775   */\n      0x566f7465722068617320616c7265616479206265656e2077686974656c697374\n        /* \"#utility.yul\":28737:28738   */\n      0x00\n        /* \"#utility.yul\":28729:28735   */\n      dup3\n        /* \"#utility.yul\":28725:28739   */\n      add\n        /* \"#utility.yul\":28718:28776   */\n      mstore\n        /* \"#utility.yul\":28810:28821   */\n      0x656420627920796f750000000000000000000000000000000000000000000000\n        /* \"#utility.yul\":28805:28807   */\n      0x20\n        /* \"#utility.yul\":28797:28803   */\n      dup3\n        /* \"#utility.yul\":28793:28808   */\n      add\n        /* \"#utility.yul\":28786:28822   */\n      mstore\n        /* \"#utility.yul\":28601:28829   */\n      pop\n      jump\t// out\n        /* \"#utility.yul\":28835:29201   */\n    tag_439:\n        /* \"#utility.yul\":28977:28980   */\n      0x00\n        /* \"#utility.yul\":28998:29065   */\n      tag_655\n        /* \"#utility.yul\":29062:29064   */\n      0x29\n        /* \"#utility.yul\":29057:29060   */\n      dup4\n        /* \"#utility.yul\":28998:29065   */\n      tag_394\n      jump\t// in\n    tag_655:\n        /* \"#utility.yul\":28991:29065   */\n      swap2\n      pop\n        /* \"#utility.yul\":29074:29167   */\n      tag_656\n        /* \"#utility.yul\":29163:29166   */\n      dup3\n        /* \"#utility.yul\":29074:29167   */\n      tag_438\n      jump\t// in\n    tag_656:\n        /* \"#utility.yul\":29192:29194   */\n      0x40\n        /* \"#utility.yul\":29187:29190   */\n      dup3\n        /* \"#utility.yul\":29183:29195   */\n      add\n        /* \"#utility.yul\":29176:29195   */\n      swap1\n      pop\n        /* \"#utility.yul\":28835:29201   */\n      swap2\n      swap1\n      pop\n      jump\t// out\n        /* \"#utility.yul\":29207:29626   */\n    tag_302:\n        /* \"#utility.yul\":29373:29377   */\n      0x00\n        /* \"#utility.yul\":29411:29413   */\n      0x20\n        /* \"#utility.yul\":29400:29409   */\n      dup3\n        /* \"#utility.yul\":29396:29414   */\n      add\n        /* \"#utility.yul\":29388:29414   */\n      swap1\n      pop\n        /* \"#utility.yul\":29460:29469   */\n      dup2\n        /* \"#utility.yul\":29454:29458   */\n      dup2\n        /* \"#utility.yul\":29450:29470   */\n      sub\n        /* \"#utility.yul\":29446:29447   */\n      0x00\n        /* \"#utility.yul\":29435:29444   */\n      dup4\n        /* \"#utility.yul\":29431:29448   */\n      add\n        /* \"#utility.yul\":29424:29471   */\n      mstore\n        /* \"#utility.yul\":29488:29619   */\n      tag_658\n        /* \"#utility.yul\":29614:29618   */\n      dup2\n        /* \"#utility.yul\":29488:29619   */\n      tag_439\n      jump\t// in\n    tag_658:\n        /* \"#utility.yul\":29480:29619   */\n      swap1\n      pop\n        /* \"#utility.yul\":29207:29626   */\n      swap2\n      swap1\n      pop\n      jump\t// out\n        /* \"#utility.yul\":29632:29811   */\n    tag_440:\n        /* \"#utility.yul\":29772:29803   */\n      0x54686520656c656374696f6e206973207374696c6c2072756e6e696e67000000\n        /* \"#utility.yul\":29768:29769   */\n      0x00\n        /* \"#utility.yul\":29760:29766   */\n      dup3\n        /* \"#utility.yul\":29756:29770   */\n      add\n        /* \"#utility.yul\":29749:29804   */\n      mstore\n        /* \"#utility.yul\":29632:29811   */\n      pop\n      jump\t// out\n        /* \"#utility.yul\":29817:30183   */\n    tag_441:\n        /* \"#utility.yul\":29959:29962   */\n      0x00\n        /* \"#utility.yul\":29980:30047   */\n      tag_661\n        /* \"#utility.yul\":30044:30046   */\n      0x1d\n        /* \"#utility.yul\":30039:30042   */\n      dup4\n        /* \"#utility.yul\":29980:30047   */\n      tag_394\n      jump\t// in\n    tag_661:\n        /* \"#utility.yul\":29973:30047   */\n      swap2\n      pop\n        /* \"#utility.yul\":30056:30149   */\n      tag_662\n        /* \"#utility.yul\":30145:30148   */\n      dup3\n        /* \"#utility.yul\":30056:30149   */\n      tag_440\n      jump\t// in\n    tag_662:\n        /* \"#utility.yul\":30174:30176   */\n      0x20\n        /* \"#utility.yul\":30169:30172   */\n      dup3\n        /* \"#utility.yul\":30165:30177   */\n      add\n        /* \"#utility.yul\":30158:30177   */\n      swap1\n      pop\n        /* \"#utility.yul\":29817:30183   */\n      swap2\n      swap1\n      pop\n      jump\t// out\n        /* \"#utility.yul\":30189:30608   */\n    tag_348:\n        /* \"#utility.yul\":30355:30359   */\n      0x00\n        /* \"#utility.yul\":30393:30395   */\n      0x20\n        /* \"#utility.yul\":30382:30391   */\n      dup3\n        /* \"#utility.yul\":30378:30396   */\n      add\n        /* \"#utility.yul\":30370:30396   */\n      swap1\n      pop\n        /* \"#utility.yul\":30442:30451   */\n      dup2\n        /* \"#utility.yul\":30436:30440   */\n      dup2\n        /* \"#utility.yul\":30432:30452   */\n      sub\n        /* \"#utility.yul\":30428:30429   */\n      0x00\n        /* \"#utility.yul\":30417:30426   */\n      dup4\n        /* \"#utility.yul\":30413:30430   */\n      add\n        /* \"#utility.yul\":30406:30453   */\n      mstore\n        /* \"#utility.yul\":30470:30601   */\n      tag_664\n        /* \"#utility.yul\":30596:30600   */\n      dup2\n        /* \"#utility.yul\":30470:30601   */\n      tag_441\n      jump\t// in\n    tag_664:\n        /* \"#utility.yul\":30462:30601   */\n      swap1\n      pop\n        /* \"#utility.yul\":30189:30608   */\n      swap2\n      swap1\n      pop\n      jump\t// out\n        /* \"#utility.yul\":30614:30794   */\n    tag_442:\n        /* \"#utility.yul\":30662:30739   */\n      0x4e487b7100000000000000000000000000000000000000000000000000000000\n        /* \"#utility.yul\":30659:30660   */\n      0x00\n        /* \"#utility.yul\":30652:30740   */\n      mstore\n        /* \"#utility.yul\":30759:30763   */\n      0x12\n        /* \"#utility.yul\":30756:30757   */\n      0x04\n        /* \"#utility.yul\":30749:30764   */\n      mstore\n        /* \"#utility.yul\":30783:30787   */\n      0x24\n        /* \"#utility.yul\":30780:30781   */\n      0x00\n        /* \"#utility.yul\":30773:30788   */\n      revert\n        /* \"#utility.yul\":30800:30985   */\n    tag_350:\n        /* \"#utility.yul\":30840:30841   */\n      0x00\n        /* \"#utility.yul\":30857:30877   */\n      tag_667\n        /* \"#utility.yul\":30875:30876   */\n      dup3\n        /* \"#utility.yul\":30857:30877   */\n      tag_379\n      jump\t// in\n    tag_667:\n        /* \"#utility.yul\":30852:30877   */\n      swap2\n      pop\n        /* \"#utility.yul\":30891:30911   */\n      tag_668\n        /* \"#utility.yul\":30909:30910   */\n      dup4\n        /* \"#utility.yul\":30891:30911   */\n      tag_379\n      jump\t// in\n    tag_668:\n        /* \"#utility.yul\":30886:30911   */\n      swap3\n      pop\n        /* \"#utility.yul\":30930:30931   */\n      dup3\n        /* \"#utility.yul\":30920:30955   */\n      tag_669\n      jumpi\n        /* \"#utility.yul\":30935:30953   */\n      tag_670\n      tag_442\n      jump\t// in\n    tag_670:\n        /* \"#utility.yul\":30920:30955   */\n    tag_669:\n        /* \"#utility.yul\":30977:30978   */\n      dup3\n        /* \"#utility.yul\":30974:30975   */\n      dup3\n        /* \"#utility.yul\":30970:30979   */\n      div\n        /* \"#utility.yul\":30965:30979   */\n      swap1\n      pop\n        /* \"#utility.yul\":30800:30985   */\n      swap3\n      swap2\n      pop\n      pop\n      jump\t// out\n        /* \"#utility.yul\":30991:31170   */\n    tag_443:\n        /* \"#utility.yul\":31131:31162   */\n      0x4e6f2063616e6469646174652077696e2074686520656c656374696f6e000000\n        /* \"#utility.yul\":31127:31128   */\n      0x00\n        /* \"#utility.yul\":31119:31125   */\n      dup3\n        /* \"#utility.yul\":31115:31129   */\n      add\n        /* \"#utility.yul\":31108:31163   */\n      mstore\n        /* \"#utility.yul\":30991:31170   */\n      pop\n      jump\t// out\n        /* \"#utility.yul\":31176:31542   */\n    tag_444:\n        /* \"#utility.yul\":31318:31321   */\n      0x00\n        /* \"#utility.yul\":31339:31406   */\n      tag_673\n        /* \"#utility.yul\":31403:31405   */\n      0x1d\n        /* \"#utility.yul\":31398:31401   */\n      dup4\n        /* \"#utility.yul\":31339:31406   */\n      tag_394\n      jump\t// in\n    tag_673:\n        /* \"#utility.yul\":31332:31406   */\n      swap2\n      pop\n        /* \"#utility.yul\":31415:31508   */\n      tag_674\n        /* \"#utility.yul\":31504:31507   */\n      dup3\n        /* \"#utility.yul\":31415:31508   */\n      tag_443\n      jump\t// in\n    tag_674:\n        /* \"#utility.yul\":31533:31535   */\n      0x20\n        /* \"#utility.yul\":31528:31531   */\n      dup3\n        /* \"#utility.yul\":31524:31536   */\n      add\n        /* \"#utility.yul\":31517:31536   */\n      swap1\n      pop\n        /* \"#utility.yul\":31176:31542   */\n      swap2\n      swap1\n      pop\n      jump\t// out\n        /* \"#utility.yul\":31548:31967   */\n    tag_357:\n        /* \"#utility.yul\":31714:31718   */\n      0x00\n        /* \"#utility.yul\":31752:31754   */\n      0x20\n        /* \"#utility.yul\":31741:31750   */\n      dup3\n        /* \"#utility.yul\":31737:31755   */\n      add\n        /* \"#utility.yul\":31729:31755   */\n      swap1\n      pop\n        /* \"#utility.yul\":31801:31810   */\n      dup2\n        /* \"#utility.yul\":31795:31799   */\n      dup2\n        /* \"#utility.yul\":31791:31811   */\n      sub\n        /* \"#utility.yul\":31787:31788   */\n      0x00\n        /* \"#utility.yul\":31776:31785   */\n      dup4\n        /* \"#utility.yul\":31772:31789   */\n      add\n        /* \"#utility.yul\":31765:31812   */\n      mstore\n        /* \"#utility.yul\":31829:31960   */\n      tag_676\n        /* \"#utility.yul\":31955:31959   */\n      dup2\n        /* \"#utility.yul\":31829:31960   */\n      tag_444\n      jump\t// in\n    tag_676:\n        /* \"#utility.yul\":31821:31960   */\n      swap1\n      pop\n        /* \"#utility.yul\":31548:31967   */\n      swap2\n      swap1\n      pop\n      jump\t// out\n\n    auxdata: 0xa26469706673582212207b2b9ddbfeccf3a0e0a05b1d89700e76d72a6567b6ed701c1f5c1135c371a0c064736f6c634300081a0033\n}\n",
				"bytecode": {
					"linkReferences": {},
					"object": "60806040525f80555f6001555f600b555f600c5534801561001e575f80fd5b50604051613bb3380380613bb38339818101604052810190610040919061036c565b5f5b815181101561018a576007604051806040016040528084848151811061006b5761006a6103b3565b5b602002602001015173ffffffffffffffffffffffffffffffffffffffff1681526020015f815250908060018154018082558091505060019003905f5260205f2090600202015f909190919091505f820151815f015f6101000a81548173ffffffffffffffffffffffffffffffffffffffff021916908373ffffffffffffffffffffffffffffffffffffffff16021790555060208201518160010155505060015f808282546101199190610416565b925050819055505f5460025f848481518110610138576101376103b3565b5b602002602001015173ffffffffffffffffffffffffffffffffffffffff1673ffffffffffffffffffffffffffffffffffffffff1681526020019081526020015f20819055508080600101915050610042565b505f60065f6101000a81548160ff0219169083151502179055505f60058190555050610449565b5f604051905090565b5f80fd5b5f80fd5b5f80fd5b5f601f19601f8301169050919050565b7f4e487b71000000000000000000000000000000000000000000000000000000005f52604160045260245ffd5b61020c826101c6565b810181811067ffffffffffffffff8211171561022b5761022a6101d6565b5b80604052505050565b5f61023d6101b1565b90506102498282610203565b919050565b5f67ffffffffffffffff821115610268576102676101d6565b5b602082029050602081019050919050565b5f80fd5b5f73ffffffffffffffffffffffffffffffffffffffff82169050919050565b5f6102a68261027d565b9050919050565b6102b68161029c565b81146102c0575f80fd5b50565b5f815190506102d1816102ad565b92915050565b5f6102e96102e48461024e565b610234565b9050808382526020820190506020840283018581111561030c5761030b610279565b5b835b81811015610335578061032188826102c3565b84526020840193505060208101905061030e565b5050509392505050565b5f82601f830112610353576103526101c2565b5b81516103638482602086016102d7565b91505092915050565b5f60208284031215610381576103806101ba565b5b5f82015167ffffffffffffffff81111561039e5761039d6101be565b5b6103aa8482850161033f565b91505092915050565b7f4e487b71000000000000000000000000000000000000000000000000000000005f52603260045260245ffd5b5f819050919050565b7f4e487b71000000000000000000000000000000000000000000000000000000005f52601160045260245ffd5b5f610420826103e0565b915061042b836103e0565b9250828201905080821115610443576104426103e9565b5b92915050565b61375d806104565f395ff3fe608060405234801561000f575f80fd5b50600436106100e8575f3560e01c806359f784681161008a578063bddf1ce911610064578063bddf1ce9146101fa578063d413374114610216578063f31ffe1e14610234578063f927cc291461023e576100e8565b806359f78468146101b6578063721f720c146101c057806388c30cf2146101de576100e8565b80631e974c69116100c65780631e974c691461014257806326bb886d1461016057806335b8e8201461017c5780633d946c53146101ac576100e8565b80630c1aebf8146100ec5780631169481a1461010857806313852ab714610124575b5f80fd5b610106600480360381019061010191906127c0565b61025c565b005b610122600480360381019061011d91906127c0565b610653565b005b61012c610a6a565b60405161013991906128ab565b60405180910390f35b61014a610b1f565b6040516101579190612982565b60405180910390f35b61017a600480360381019061017591906127c0565b610c67565b005b610196600480360381019061019191906129cc565b61102e565b6040516101a39190612a06565b60405180910390f35b6101b461110e565b005b6101be6113b7565b005b6101c86116e2565b6040516101d59190612982565b60405180910390f35b6101f860048036038101906101f391906127c0565b6117e3565b005b610214600480360381019061020f91906127c0565b611c55565b005b61021e612184565b60405161022b9190612982565b60405180910390f35b61023c6122cc565b005b610246612596565b6040516102539190612a06565b60405180910390f35b60065f9054906101000a900460ff16156102ab576040517f08c379a00000000000000000000000000000000000000000000000000000000081526004016102a290612a79565b60405180910390fd5b5f60025f3373ffffffffffffffffffffffffffffffffffffffff1673ffffffffffffffffffffffffffffffffffffffff1681526020019081526020015f20541461032a576040517f08c379a000000000000000000000000000000000000000000000000000000000815260040161032190612ae1565b60405180910390fd5b5f60035f3373ffffffffffffffffffffffffffffffffffffffff1673ffffffffffffffffffffffffffffffffffffffff1681526020019081526020015f2054116103a9576040517f08c379a00000000000000000000000000000000000000000000000000000000081526004016103a090612b6f565b60405180910390fd5b5f60035f8373ffffffffffffffffffffffffffffffffffffffff1673ffffffffffffffffffffffffffffffffffffffff1681526020019081526020015f205414610428576040517f08c379a000000000000000000000000000000000000000000000000000000000815260040161041f90612bfd565b60405180910390fd5b5f60025f8373ffffffffffffffffffffffffffffffffffffffff1673ffffffffffffffffffffffffffffffffffffffff1681526020019081526020015f2054146104a7576040517f08c379a000000000000000000000000000000000000000000000000000000000815260040161049e90612c65565b60405180910390fd5b5f6008600160035f3373ffffffffffffffffffffffffffffffffffffffff1673ffffffffffffffffffffffffffffffffffffffff1681526020019081526020015f20546104f49190612cb0565b8154811061050557610504612ce3565b5b905f5260205f2090600402019050805f0160149054906101000a900460ff16610563576040517f08c379a000000000000000000000000000000000000000000000000000000000815260040161055a90612d80565b60405180910390fd5b805f0160159054906101000a900460ff16156105b4576040517f08c379a00000000000000000000000000000000000000000000000000000000081526004016105ab90612e0e565b60405180910390fd5b6001815f0160166101000a81548160ff02191690831515021790555060035f3373ffffffffffffffffffffffffffffffffffffffff1673ffffffffffffffffffffffffffffffffffffffff1681526020019081526020015f205460045f8473ffffffffffffffffffffffffffffffffffffffff1673ffffffffffffffffffffffffffffffffffffffff1681526020019081526020015f20819055505050565b60065f9054906101000a900460ff16156106a2576040517f08c379a000000000000000000000000000000000000000000000000000000000815260040161069990612a79565b60405180910390fd5b5f60025f8373ffffffffffffffffffffffffffffffffffffffff1673ffffffffffffffffffffffffffffffffffffffff1681526020019081526020015f205411610721576040517f08c379a000000000000000000000000000000000000000000000000000000000815260040161071890612e76565b60405180910390fd5b5f60025f3373ffffffffffffffffffffffffffffffffffffffff1673ffffffffffffffffffffffffffffffffffffffff1681526020019081526020015f2054146107a0576040517f08c379a000000000000000000000000000000000000000000000000000000000815260040161079790612ae1565b60405180910390fd5b5f60045f3373ffffffffffffffffffffffffffffffffffffffff1673ffffffffffffffffffffffffffffffffffffffff1681526020019081526020015f20541161081f576040517f08c379a000000000000000000000000000000000000000000000000000000000815260040161081690612ede565b60405180910390fd5b5f6008600160045f3373ffffffffffffffffffffffffffffffffffffffff1673ffffffffffffffffffffffffffffffffffffffff1681526020019081526020015f205461086c9190612cb0565b8154811061087d5761087c612ce3565b5b905f5260205f2090600402019050805f0160149054906101000a900460ff166108db576040517f08c379a00000000000000000000000000000000000000000000000000000000081526004016108d290612d80565b60405180910390fd5b805f0160159054906101000a900460ff161561092c576040517f08c379a000000000000000000000000000000000000000000000000000000000815260040161092390612e0e565b60405180910390fd5b805f0160169054906101000a900460ff1661097c576040517f08c379a000000000000000000000000000000000000000000000000000000000815260040161097390612f46565b60405180910390fd5b60025f8373ffffffffffffffffffffffffffffffffffffffff1673ffffffffffffffffffffffffffffffffffffffff1681526020019081526020015f205481600101819055506001815f0160156101000a81548160ff0219169083151502179055505f6007600160025f8673ffffffffffffffffffffffffffffffffffffffff1673ffffffffffffffffffffffffffffffffffffffff1681526020019081526020015f2054610a2b9190612cb0565b81548110610a3c57610a3b612ce3565b5b905f5260205f20906002020190506001816001015f828254610a5e9190612f64565b92505081905550505050565b606060078054905067ffffffffffffffff811115610a8b57610a8a612f97565b5b604051908082528060200260200182016040528015610ab95781602001602082028036833780820191505090505b5090505f5b600780549050811015610b1b5760078181548110610adf57610ade612ce3565b5b905f5260205f20906002020160010154828281518110610b0257610b01612ce3565b5b6020026020010181815250508080600101915050610abe565b5090565b606060088054905067ffffffffffffffff811115610b4057610b3f612f97565b5b604051908082528060200260200182016040528015610b6e5781602001602082028036833780820191505090505b5090505f805b600880549050811015610c625760088181548110610b9557610b94612ce3565b5b905f5260205f2090600402015f0160149054906101000a900460ff1615610c555760088181548110610bca57610bc9612ce3565b5b905f5260205f2090600402015f015f9054906101000a900473ffffffffffffffffffffffffffffffffffffffff16838381518110610c0b57610c0a612ce3565b5b602002602001019073ffffffffffffffffffffffffffffffffffffffff16908173ffffffffffffffffffffffffffffffffffffffff1681525050600182610c529190612f64565b91505b8080600101915050610b74565b505090565b60065f9054906101000a900460ff1615610cb6576040517f08c379a0000000000000000000000000000000000000000000000000000000008152600401610cad90612a79565b60405180910390fd5b5f60025f8373ffffffffffffffffffffffffffffffffffffffff1673ffffffffffffffffffffffffffffffffffffffff1681526020019081526020015f205411610d35576040517f08c379a0000000000000000000000000000000000000000000000000000000008152600401610d2c90612e76565b60405180910390fd5b5f60025f3373ffffffffffffffffffffffffffffffffffffffff1673ffffffffffffffffffffffffffffffffffffffff1681526020019081526020015f205414610db4576040517f08c379a0000000000000000000000000000000000000000000000000000000008152600401610dab90612ae1565b60405180910390fd5b5f60035f3373ffffffffffffffffffffffffffffffffffffffff1673ffffffffffffffffffffffffffffffffffffffff1681526020019081526020015f205411610e33576040517f08c379a0000000000000000000000000000000000000000000000000000000008152600401610e2a90612b6f565b60405180910390fd5b5f6008600160035f3373ffffffffffffffffffffffffffffffffffffffff1673ffffffffffffffffffffffffffffffffffffffff1681526020019081526020015f2054610e809190612cb0565b81548110610e9157610e90612ce3565b5b905f5260205f2090600402019050805f0160149054906101000a900460ff16610eef576040517f08c379a0000000000000000000000000000000000000000000000000000000008152600401610ee690612d80565b60405180910390fd5b805f0160159054906101000a900460ff1615610f40576040517f08c379a0000000000000000000000000000000000000000000000000000000008152600401610f379061300e565b60405180910390fd5b60025f8373ffffffffffffffffffffffffffffffffffffffff1673ffffffffffffffffffffffffffffffffffffffff1681526020019081526020015f205481600101819055506001815f0160156101000a81548160ff0219169083151502179055505f6007600160025f8673ffffffffffffffffffffffffffffffffffffffff1673ffffffffffffffffffffffffffffffffffffffff1681526020019081526020015f2054610fef9190612cb0565b8154811061100057610fff612ce3565b5b905f5260205f20906002020190506001816001015f8282546110229190612f64565b92505081905550505050565b5f808211611071576040517f08c379a000000000000000000000000000000000000000000000000000000000815260040161106890613076565b60405180910390fd5b6007805490508211156110b9576040517f08c379a00000000000000000000000000000000000000000000000000000000081526004016110b0906130de565b60405180910390fd5b60076001836110c89190612cb0565b815481106110d9576110d8612ce3565b5b905f5260205f2090600202015f015f9054906101000a900473ffffffffffffffffffffffffffffffffffffffff169050919050565b60065f9054906101000a900460ff1661115c576040517f08c379a000000000000000000000000000000000000000000000000000000000815260040161115390613146565b60405180910390fd5b5f60025f3373ffffffffffffffffffffffffffffffffffffffff1673ffffffffffffffffffffffffffffffffffffffff1681526020019081526020015f2054116111db576040517f08c379a00000000000000000000000000000000000000000000000000000000081526004016111d2906131d4565b60405180910390fd5b5f1515600a5f3373ffffffffffffffffffffffffffffffffffffffff1673ffffffffffffffffffffffffffffffffffffffff1681526020019081526020015f205f9054906101000a900460ff1615151461126a576040517f08c379a000000000000000000000000000000000000000000000000000000000815260040161126190613288565b60405180910390fd5b6001600a5f3373ffffffffffffffffffffffffffffffffffffffff1673ffffffffffffffffffffffffffffffffffffffff1681526020019081526020015f205f6101000a81548160ff0219169083151502179055506001600c5f8282546112d19190612f64565b925050819055505f54600c54036113b5575f5b600780549050811015611393575f600a5f6007848154811061130957611308612ce3565b5b905f5260205f2090600202015f015f9054906101000a900473ffffffffffffffffffffffffffffffffffffffff1673ffffffffffffffffffffffffffffffffffffffff1673ffffffffffffffffffffffffffffffffffffffff1681526020019081526020015f205f6101000a81548160ff02191690831515021790555080806001019150506112e4565b505f600c819055505f60065f6101000a81548160ff0219169083151502179055505b565b60065f9054906101000a900460ff1615611406576040517f08c379a00000000000000000000000000000000000000000000000000000000081526004016113fd90612a79565b60405180910390fd5b5f60025f3373ffffffffffffffffffffffffffffffffffffffff1673ffffffffffffffffffffffffffffffffffffffff1681526020019081526020015f205411611485576040517f08c379a000000000000000000000000000000000000000000000000000000000815260040161147c906131d4565b60405180910390fd5b5f151560095f3373ffffffffffffffffffffffffffffffffffffffff1673ffffffffffffffffffffffffffffffffffffffff1681526020019081526020015f205f9054906101000a900460ff16151514611514576040517f08c379a000000000000000000000000000000000000000000000000000000000815260040161150b9061333c565b60405180910390fd5b600160095f3373ffffffffffffffffffffffffffffffffffffffff1673ffffffffffffffffffffffffffffffffffffffff1681526020019081526020015f205f6101000a81548160ff0219169083151502179055506001600b5f82825461157b9190612f64565b925050819055505f54600b54036116e0575f805b5f5481101561160a5781600782815481106115ad576115ac612ce3565b5b905f5260205f2090600202016001015411156115fd57600781815481106115d7576115d6612ce3565b5b905f5260205f2090600202016001015491506001816115f69190612f64565b6005819055505b808060010191505061158f565b505f5b6007805490508110156116bc575f60095f6007848154811061163257611631612ce3565b5b905f5260205f2090600202015f015f9054906101000a900473ffffffffffffffffffffffffffffffffffffffff1673ffffffffffffffffffffffffffffffffffffffff1673ffffffffffffffffffffffffffffffffffffffff1681526020019081526020015f205f6101000a81548160ff021916908315150217905550808060010191505061160d565b505f600b81905550600160065f6101000a81548160ff021916908315150217905550505b565b606060078054905067ffffffffffffffff81111561170357611702612f97565b5b6040519080825280602002602001820160405280156117315781602001602082028036833780820191505090505b5090505f5b6007805490508110156117df576007818154811061175757611756612ce3565b5b905f5260205f2090600202015f015f9054906101000a900473ffffffffffffffffffffffffffffffffffffffff1682828151811061179857611797612ce3565b5b602002602001019073ffffffffffffffffffffffffffffffffffffffff16908173ffffffffffffffffffffffffffffffffffffffff16815250508080600101915050611736565b5090565b60065f9054906101000a900460ff1615611832576040517f08c379a000000000000000000000000000000000000000000000000000000000815260040161182990612a79565b60405180910390fd5b5f60025f8373ffffffffffffffffffffffffffffffffffffffff1673ffffffffffffffffffffffffffffffffffffffff1681526020019081526020015f2054116118b1576040517f08c379a00000000000000000000000000000000000000000000000000000000081526004016118a890612e76565b60405180910390fd5b5f60025f3373ffffffffffffffffffffffffffffffffffffffff1673ffffffffffffffffffffffffffffffffffffffff1681526020019081526020015f205414611930576040517f08c379a000000000000000000000000000000000000000000000000000000000815260040161192790612ae1565b60405180910390fd5b5f60035f3373ffffffffffffffffffffffffffffffffffffffff1673ffffffffffffffffffffffffffffffffffffffff1681526020019081526020015f2054116119af576040517f08c379a00000000000000000000000000000000000000000000000000000000081526004016119a690612b6f565b60405180910390fd5b5f6008600160035f3373ffffffffffffffffffffffffffffffffffffffff1673ffffffffffffffffffffffffffffffffffffffff1681526020019081526020015f20546119fc9190612cb0565b81548110611a0d57611a0c612ce3565b5b905f5260205f2090600402019050805f0160149054906101000a900460ff16611a6b576040517f08c379a0000000000000000000000000000000000000000000000000000000008152600401611a6290612d80565b60405180910390fd5b805f0160159054906101000a900460ff16611abb576040517f08c379a0000000000000000000000000000000000000000000000000000000008152600401611ab2906133a4565b60405180910390fd5b60025f8373ffffffffffffffffffffffffffffffffffffffff1673ffffffffffffffffffffffffffffffffffffffff1681526020019081526020015f2054816001015403611b3e576040517f08c379a0000000000000000000000000000000000000000000000000000000008152600401611b3590613432565b60405180910390fd5b6001600760018360010154611b539190612cb0565b81548110611b6457611b63612ce3565b5b905f5260205f2090600202016001015f828254611b819190612cb0565b9250508190555060025f8373ffffffffffffffffffffffffffffffffffffffff1673ffffffffffffffffffffffffffffffffffffffff1681526020019081526020015f2054816001018190555060016007600160025f8673ffffffffffffffffffffffffffffffffffffffff1673ffffffffffffffffffffffffffffffffffffffff1681526020019081526020015f2054611c1c9190612cb0565b81548110611c2d57611c2c612ce3565b5b905f5260205f2090600202016001015f828254611c4a9190612f64565b925050819055505050565b60065f9054906101000a900460ff1615611ca4576040517f08c379a0000000000000000000000000000000000000000000000000000000008152600401611c9b90612a79565b60405180910390fd5b5f60025f3373ffffffffffffffffffffffffffffffffffffffff1673ffffffffffffffffffffffffffffffffffffffff1681526020019081526020015f205411611d23576040517f08c379a0000000000000000000000000000000000000000000000000000000008152600401611d1a906134c0565b60405180910390fd5b5f60035f8373ffffffffffffffffffffffffffffffffffffffff1673ffffffffffffffffffffffffffffffffffffffff1681526020019081526020015f205403611f585760086040518060e001604052808373ffffffffffffffffffffffffffffffffffffffff1681526020015f151581526020015f151581526020015f151581526020015f81526020015f5467ffffffffffffffff811115611dc957611dc8612f97565b5b604051908082528060200260200182016040528015611df75781602001602082028036833780820191505090505b5081526020015f815250908060018154018082558091505060019003905f5260205f2090600402015f909190919091505f820151815f015f6101000a81548173ffffffffffffffffffffffffffffffffffffffff021916908373ffffffffffffffffffffffffffffffffffffffff1602179055506020820151815f0160146101000a81548160ff0219169083151502179055506040820151815f0160156101000a81548160ff0219169083151502179055506060820151815f0160166101000a81548160ff0219169083151502179055506080820151816001015560a0820151816002019080519060200190611eee9291906126c0565b5060c0820151816003015550506001805f828254611f0c9190612f64565b9250508190555060015460035f8373ffffffffffffffffffffffffffffffffffffffff1673ffffffffffffffffffffffffffffffffffffffff1681526020019081526020015f20819055505b5f6008600160035f8573ffffffffffffffffffffffffffffffffffffffff1673ffffffffffffffffffffffffffffffffffffffff1681526020019081526020015f2054611fa59190612cb0565b81548110611fb657611fb5612ce3565b5b905f5260205f2090600402019050805f0160149054906101000a900460ff1615612015576040517f08c379a000000000000000000000000000000000000000000000000000000000815260040161200c9061354e565b60405180910390fd5b5f5b81600301548110156120db5781600201818154811061203957612038612ce3565b5b905f5260205f20015f9054906101000a900473ffffffffffffffffffffffffffffffffffffffff1673ffffffffffffffffffffffffffffffffffffffff163373ffffffffffffffffffffffffffffffffffffffff16036120ce576040517f08c379a00000000000000000000000000000000000000000000000000000000081526004016120c5906135dc565b60405180910390fd5b8080600101915050612017565b5033816002018260030154815481106120f7576120f6612ce3565b5b905f5260205f20015f6101000a81548173ffffffffffffffffffffffffffffffffffffffff021916908373ffffffffffffffffffffffffffffffffffffffff1602179055506001816003015f8282546121509190612f64565b925050819055505f54816003015403612180576001815f0160146101000a81548160ff0219169083151502179055505b5050565b606060088054905067ffffffffffffffff8111156121a5576121a4612f97565b5b6040519080825280602002602001820160405280156121d35781602001602082028036833780820191505090505b5090505f805b6008805490508110156122c757600881815481106121fa576121f9612ce3565b5b905f5260205f2090600402015f0160159054906101000a900460ff16156122ba576008818154811061222f5761222e612ce3565b5b905f5260205f2090600402015f015f9054906101000a900473ffffffffffffffffffffffffffffffffffffffff168383815181106122705761226f612ce3565b5b602002602001019073ffffffffffffffffffffffffffffffffffffffff16908173ffffffffffffffffffffffffffffffffffffffff16815250506001826122b79190612f64565b91505b80806001019150506121d9565b505090565b60065f9054906101000a900460ff161561231b576040517f08c379a000000000000000000000000000000000000000000000000000000000815260040161231290612a79565b60405180910390fd5b5f60025f3373ffffffffffffffffffffffffffffffffffffffff1673ffffffffffffffffffffffffffffffffffffffff1681526020019081526020015f20541461239a576040517f08c379a000000000000000000000000000000000000000000000000000000000815260040161239190612ae1565b60405180910390fd5b5f60035f3373ffffffffffffffffffffffffffffffffffffffff1673ffffffffffffffffffffffffffffffffffffffff1681526020019081526020015f205411612419576040517f08c379a000000000000000000000000000000000000000000000000000000000815260040161241090612b6f565b60405180910390fd5b5f6008600160035f3373ffffffffffffffffffffffffffffffffffffffff1673ffffffffffffffffffffffffffffffffffffffff1681526020019081526020015f20546124669190612cb0565b8154811061247757612476612ce3565b5b905f5260205f2090600402019050805f0160149054906101000a900460ff166124d5576040517f08c379a00000000000000000000000000000000000000000000000000000000081526004016124cc90612d80565b60405180910390fd5b805f0160159054906101000a900460ff16612525576040517f08c379a000000000000000000000000000000000000000000000000000000000815260040161251c906133a4565b60405180910390fd5b600160076001836001015461253a9190612cb0565b8154811061254b5761254a612ce3565b5b905f5260205f2090600202016001015f8282546125689190612cb0565b925050819055505f815f0160156101000a81548160ff0219169083151502179055505f816001018190555050565b5f60065f9054906101000a900460ff166125e5576040517f08c379a00000000000000000000000000000000000000000000000000000000081526004016125dc90613644565b60405180910390fd5b5f60026001546125f5919061368f565b905080600760016005546126099190612cb0565b8154811061261a57612619612ce3565b5b905f5260205f209060020201600101541161266a576040517f08c379a000000000000000000000000000000000000000000000000000000000815260040161266190613709565b60405180910390fd5b6007600160055461267b9190612cb0565b8154811061268c5761268b612ce3565b5b905f5260205f2090600202015f015f9054906101000a900473ffffffffffffffffffffffffffffffffffffffff1691505090565b828054828255905f5260205f20908101928215612736579160200282015b82811115612735578251825f6101000a81548173ffffffffffffffffffffffffffffffffffffffff021916908373ffffffffffffffffffffffffffffffffffffffff160217905550916020019190600101906126de565b5b5090506127439190612747565b5090565b5b8082111561275e575f815f905550600101612748565b5090565b5f80fd5b5f73ffffffffffffffffffffffffffffffffffffffff82169050919050565b5f61278f82612766565b9050919050565b61279f81612785565b81146127a9575f80fd5b50565b5f813590506127ba81612796565b92915050565b5f602082840312156127d5576127d4612762565b5b5f6127e2848285016127ac565b91505092915050565b5f81519050919050565b5f82825260208201905092915050565b5f819050602082019050919050565b5f819050919050565b61282681612814565b82525050565b5f612837838361281d565b60208301905092915050565b5f602082019050919050565b5f612859826127eb565b61286381856127f5565b935061286e83612805565b805f5b8381101561289e578151612885888261282c565b975061289083612843565b925050600181019050612871565b5085935050505092915050565b5f6020820190508181035f8301526128c3818461284f565b905092915050565b5f81519050919050565b5f82825260208201905092915050565b5f819050602082019050919050565b6128fd81612785565b82525050565b5f61290e83836128f4565b60208301905092915050565b5f602082019050919050565b5f612930826128cb565b61293a81856128d5565b9350612945836128e5565b805f5b8381101561297557815161295c8882612903565b97506129678361291a565b925050600181019050612948565b5085935050505092915050565b5f6020820190508181035f83015261299a8184612926565b905092915050565b6129ab81612814565b81146129b5575f80fd5b50565b5f813590506129c6816129a2565b92915050565b5f602082840312156129e1576129e0612762565b5b5f6129ee848285016129b8565b91505092915050565b612a0081612785565b82525050565b5f602082019050612a195f8301846129f7565b92915050565b5f82825260208201905092915050565b7f456c656374696f6e2068617320616c72656164792066696e69736865640000005f82015250565b5f612a63601d83612a1f565b9150612a6e82612a2f565b602082019050919050565b5f6020820190508181035f830152612a9081612a57565b9050919050565b7f4f6e6c7920766f746572732063616e206361737420766f7465000000000000005f82015250565b5f612acb601983612a1f565b9150612ad682612a97565b602082019050919050565b5f6020820190508181035f830152612af881612abf565b9050919050565b7f566f746572206973206e6f7420616464656420696e2074686520656c656374695f8201527f6f6e000000000000000000000000000000000000000000000000000000000000602082015250565b5f612b59602283612a1f565b9150612b6482612aff565b604082019050919050565b5f6020820190508181035f830152612b8681612b4d565b9050919050565b7f566f7465722063616e6e6f742062652064656c656761746564206279206f74685f8201527f657220766f746572000000000000000000000000000000000000000000000000602082015250565b5f612be7602883612a1f565b9150612bf282612b8d565b604082019050919050565b5f6020820190508181035f830152612c1481612bdb565b9050919050565b7f43616e6469646174652063616e6e6f7420766f746500000000000000000000005f82015250565b5f612c4f601583612a1f565b9150612c5a82612c1b565b602082019050919050565b5f6020820190508181035f830152612c7c81612c43565b9050919050565b7f4e487b71000000000000000000000000000000000000000000000000000000005f52601160045260245ffd5b5f612cba82612814565b9150612cc583612814565b9250828203905081811115612cdd57612cdc612c83565b5b92915050565b7f4e487b71000000000000000000000000000000000000000000000000000000005f52603260045260245ffd5b7f566f746572206973206e6f742079657420656c696769626c6520746f206361735f8201527f7420766f74650000000000000000000000000000000000000000000000000000602082015250565b5f612d6a602683612a1f565b9150612d7582612d10565b604082019050919050565b5f6020820190508181035f830152612d9781612d5e565b9050919050565b7f566f7465722068617320616c726561647920636173742069747320766f7465205f8201527f7965740000000000000000000000000000000000000000000000000000000000602082015250565b5f612df8602383612a1f565b9150612e0382612d9e565b604082019050919050565b5f6020820190508181035f830152612e2581612dec565b9050919050565b7f43616e64696461746520646f206e6f74206578697374000000000000000000005f82015250565b5f612e60601683612a1f565b9150612e6b82612e2c565b602082019050919050565b5f6020820190508181035f830152612e8d81612e54565b9050919050565b7f4e6f20726967687420746f20766f746520696e2074686520656c656374696f6e5f82015250565b5f612ec8602083612a1f565b9150612ed382612e94565b602082019050919050565b5f6020820190508181035f830152612ef581612ebc565b9050919050565b7f566f74657220646f6573206e6f742061737369676e20746865697220766f74655f82015250565b5f612f30602083612a1f565b9150612f3b82612efc565b602082019050919050565b5f6020820190508181035f830152612f5d81612f24565b9050919050565b5f612f6e82612814565b9150612f7983612814565b9250828201905080821115612f9157612f90612c83565b5b92915050565b7f4e487b71000000000000000000000000000000000000000000000000000000005f52604160045260245ffd5b7f566f7465722068617320616c726561647920636173742069747320766f7465005f82015250565b5f612ff8601f83612a1f565b915061300382612fc4565b602082019050919050565b5f6020820190508181035f83015261302581612fec565b9050919050565b7f43616e646964617465204964206d757374206265203e203000000000000000005f82015250565b5f613060601883612a1f565b915061306b8261302c565b602082019050919050565b5f6020820190508181035f83015261308d81613054565b9050919050565b7f43616e64696461746520496420646f206e6f74206578697374000000000000005f82015250565b5f6130c8601983612a1f565b91506130d382613094565b602082019050919050565b5f6020820190508181035f8301526130f5816130bc565b9050919050565b7f456c656374696f6e20686173206e6f742066696e6973686564207965740000005f82015250565b5f613130601d83612a1f565b915061313b826130fc565b602082019050919050565b5f6020820190508181035f83015261315d81613124565b9050919050565b7f4f6e6c792063616e6469646174652063616e2063616c6c20746869732066756e5f8201527f6374696f6e000000000000000000000000000000000000000000000000000000602082015250565b5f6131be602583612a1f565b91506131c982613164565b604082019050919050565b5f6020820190508181035f8301526131eb816131b2565b9050919050565b7f596f75206861766520616c72656164792063616c6c656420746869732066756e5f8201527f6374696f6e2e205761697420666f72206f746865722063616e6469646174657360208201527f20746f2063616c6c207265737461727420746f20656c656374696f6e00000000604082015250565b5f613272605c83612a1f565b915061327d826131f2565b606082019050919050565b5f6020820190508181035f83015261329f81613266565b9050919050565b7f596f75206861766520616c72656164792063616c6c656420746869732066756e5f8201527f6374696f6e2e205761697420666f72206f746865722063616e6469646174657360208201527f20746f2063616c6c20656e6420746f20656c656374696f6e0000000000000000604082015250565b5f613326605883612a1f565b9150613331826132a6565b606082019050919050565b5f6020820190508181035f8301526133538161331a565b9050919050565b7f566f74657220686173206e6f7420636173742069747320766f746520796574005f82015250565b5f61338e601f83612a1f565b91506133998261335a565b602082019050919050565b5f6020820190508181035f8301526133bb81613382565b9050919050565b7f566f74657220766f746520666f72207468652073616d652063616e64696461745f8201527f6500000000000000000000000000000000000000000000000000000000000000602082015250565b5f61341c602183612a1f565b9150613427826133c2565b604082019050919050565b5f6020820190508181035f83015261344981613410565b9050919050565b7f4f6e6c792063616e6469646174652063616e2077686974656c697374207468655f8201527f20766f7465720000000000000000000000000000000000000000000000000000602082015250565b5f6134aa602683612a1f565b91506134b582613450565b604082019050919050565b5f6020820190508181035f8301526134d78161349e565b9050919050565b7f566f74657220697320616c726561647920656c696769626c6520746f20766f745f8201527f6500000000000000000000000000000000000000000000000000000000000000602082015250565b5f613538602183612a1f565b9150613543826134de565b604082019050919050565b5f6020820190508181035f8301526135658161352c565b9050919050565b7f566f7465722068617320616c7265616479206265656e2077686974656c6973745f8201527f656420627920796f750000000000000000000000000000000000000000000000602082015250565b5f6135c6602983612a1f565b91506135d18261356c565b604082019050919050565b5f6020820190508181035f8301526135f3816135ba565b9050919050565b7f54686520656c656374696f6e206973207374696c6c2072756e6e696e670000005f82015250565b5f61362e601d83612a1f565b9150613639826135fa565b602082019050919050565b5f6020820190508181035f83015261365b81613622565b9050919050565b7f4e487b71000000000000000000000000000000000000000000000000000000005f52601260045260245ffd5b5f61369982612814565b91506136a483612814565b9250826136b4576136b3613662565b5b828204905092915050565b7f4e6f2063616e6469646174652077696e2074686520656c656374696f6e0000005f82015250565b5f6136f3601d83612a1f565b91506136fe826136bf565b602082019050919050565b5f6020820190508181035f830152613720816136e7565b905091905056fea26469706673582212207b2b9ddbfeccf3a0e0a05b1d89700e76d72a6567b6ed701c1f5c1135c371a0c064736f6c634300081a0033",
					"opcodes": "PUSH1 0x80 PUSH1 0x40 MSTORE PUSH0 DUP1 SSTORE PUSH0 PUSH1 0x1 SSTORE PUSH0 PUSH1 0xB SSTORE PUSH0 PUSH1 0xC SSTORE CALLVALUE DUP1 ISZERO PUSH2 0x1E JUMPI PUSH0 DUP1 REVERT JUMPDEST POP PUSH1 0x40 MLOAD PUSH2 0x3BB3 CODESIZE SUB DUP1 PUSH2 0x3BB3 DUP4 CODECOPY DUP2 DUP2 ADD PUSH1 0x40 MSTORE DUP2 ADD SWAP1 PUSH2 0x40 SWAP2 SWAP1 PUSH2 0x36C JUMP JUMPDEST PUSH0 JUMPDEST DUP2 MLOAD DUP2 LT ISZERO PUSH2 0x18A JUMPI PUSH1 0x7 PUSH1 0x40 MLOAD DUP1 PUSH1 0x40 ADD PUSH1 0x40 MSTORE DUP1 DUP5 DUP5 DUP2 MLOAD DUP2 LT PUSH2 0x6B JUMPI PUSH2 0x6A PUSH2 0x3B3 JUMP JUMPDEST JUMPDEST PUSH1 0x20 MUL PUSH1 0x20 ADD ADD MLOAD PUSH20 0xFFFFFFFFFFFFFFFFFFFFFFFFFFFFFFFFFFFFFFFF AND DUP2 MSTORE PUSH1 0x20 ADD PUSH0 DUP2 MSTORE POP SWAP1 DUP1 PUSH1 0x1 DUP2 SLOAD ADD DUP1 DUP3 SSTORE DUP1 SWAP2 POP POP PUSH1 0x1 SWAP1 SUB SWAP1 PUSH0 MSTORE PUSH1 0x20 PUSH0 KECCAK256 SWAP1 PUSH1 0x2 MUL ADD PUSH0 SWAP1 SWAP2 SWAP1 SWAP2 SWAP1 SWAP2 POP PUSH0 DUP3 ADD MLOAD DUP2 PUSH0 ADD PUSH0 PUSH2 0x100 EXP DUP2 SLOAD DUP2 PUSH20 0xFFFFFFFFFFFFFFFFFFFFFFFFFFFFFFFFFFFFFFFF MUL NOT AND SWAP1 DUP4 PUSH20 0xFFFFFFFFFFFFFFFFFFFFFFFFFFFFFFFFFFFFFFFF AND MUL OR SWAP1 SSTORE POP PUSH1 0x20 DUP3 ADD MLOAD DUP2 PUSH1 0x1 ADD SSTORE POP POP PUSH1 0x1 PUSH0 DUP1 DUP3 DUP3 SLOAD PUSH2 0x119 SWAP2 SWAP1 PUSH2 0x416 JUMP JUMPDEST SWAP3 POP POP DUP2 SWAP1 SSTORE POP PUSH0 SLOAD PUSH1 0x2 PUSH0 DUP5 DUP5 DUP2 MLOAD DUP2 LT PUSH2 0x138 JUMPI PUSH2 0x137 PUSH2 0x3B3 JUMP JUMPDEST JUMPDEST PUSH1 0x20 MUL PUSH1 0x20 ADD ADD MLOAD PUSH20 0xFFFFFFFFFFFFFFFFFFFFFFFFFFFFFFFFFFFFFFFF AND PUSH20 0xFFFFFFFFFFFFFFFFFFFFFFFFFFFFFFFFFFFFFFFF AND DUP2 MSTORE PUSH1 0x20 ADD SWAP1 DUP2 MSTORE PUSH1 0x20 ADD PUSH0 KECCAK256 DUP2 SWAP1 SSTORE POP DUP1 DUP1 PUSH1 0x1 ADD SWAP2 POP POP PUSH2 0x42 JUMP JUMPDEST POP PUSH0 PUSH1 0x6 PUSH0 PUSH2 0x100 EXP DUP2 SLOAD DUP2 PUSH1 0xFF MUL NOT AND SWAP1 DUP4 ISZERO ISZERO MUL OR SWAP1 SSTORE POP PUSH0 PUSH1 0x5 DUP2 SWAP1 SSTORE POP POP PUSH2 0x449 JUMP JUMPDEST PUSH0 PUSH1 0x40 MLOAD SWAP1 POP SWAP1 JUMP JUMPDEST PUSH0 DUP1 REVERT JUMPDEST PUSH0 DUP1 REVERT JUMPDEST PUSH0 DUP1 REVERT JUMPDEST PUSH0 PUSH1 0x1F NOT PUSH1 0x1F DUP4 ADD AND SWAP1 POP SWAP2 SWAP1 POP JUMP JUMPDEST PUSH32 0x4E487B7100000000000000000000000000000000000000000000000000000000 PUSH0 MSTORE PUSH1 0x41 PUSH1 0x4 MSTORE PUSH1 0x24 PUSH0 REVERT JUMPDEST PUSH2 0x20C DUP3 PUSH2 0x1C6 JUMP JUMPDEST DUP2 ADD DUP2 DUP2 LT PUSH8 0xFFFFFFFFFFFFFFFF DUP3 GT OR ISZERO PUSH2 0x22B JUMPI PUSH2 0x22A PUSH2 0x1D6 JUMP JUMPDEST JUMPDEST DUP1 PUSH1 0x40 MSTORE POP POP POP JUMP JUMPDEST PUSH0 PUSH2 0x23D PUSH2 0x1B1 JUMP JUMPDEST SWAP1 POP PUSH2 0x249 DUP3 DUP3 PUSH2 0x203 JUMP JUMPDEST SWAP2 SWAP1 POP JUMP JUMPDEST PUSH0 PUSH8 0xFFFFFFFFFFFFFFFF DUP3 GT ISZERO PUSH2 0x268 JUMPI PUSH2 0x267 PUSH2 0x1D6 JUMP JUMPDEST JUMPDEST PUSH1 0x20 DUP3 MUL SWAP1 POP PUSH1 0x20 DUP2 ADD SWAP1 POP SWAP2 SWAP1 POP JUMP JUMPDEST PUSH0 DUP1 REVERT JUMPDEST PUSH0 PUSH20 0xFFFFFFFFFFFFFFFFFFFFFFFFFFFFFFFFFFFFFFFF DUP3 AND SWAP1 POP SWAP2 SWAP1 POP JUMP JUMPDEST PUSH0 PUSH2 0x2A6 DUP3 PUSH2 0x27D JUMP JUMPDEST SWAP1 POP SWAP2 SWAP1 POP JUMP JUMPDEST PUSH2 0x2B6 DUP2 PUSH2 0x29C JUMP JUMPDEST DUP2 EQ PUSH2 0x2C0 JUMPI PUSH0 DUP1 REVERT JUMPDEST POP JUMP JUMPDEST PUSH0 DUP2 MLOAD SWAP1 POP PUSH2 0x2D1 DUP2 PUSH2 0x2AD JUMP JUMPDEST SWAP3 SWAP2 POP POP JUMP JUMPDEST PUSH0 PUSH2 0x2E9 PUSH2 0x2E4 DUP5 PUSH2 0x24E JUMP JUMPDEST PUSH2 0x234 JUMP JUMPDEST SWAP1 POP DUP1 DUP4 DUP3 MSTORE PUSH1 0x20 DUP3 ADD SWAP1 POP PUSH1 0x20 DUP5 MUL DUP4 ADD DUP6 DUP2 GT ISZERO PUSH2 0x30C JUMPI PUSH2 0x30B PUSH2 0x279 JUMP JUMPDEST JUMPDEST DUP4 JUMPDEST DUP2 DUP2 LT ISZERO PUSH2 0x335 JUMPI DUP1 PUSH2 0x321 DUP9 DUP3 PUSH2 0x2C3 JUMP JUMPDEST DUP5 MSTORE PUSH1 0x20 DUP5 ADD SWAP4 POP POP PUSH1 0x20 DUP2 ADD SWAP1 POP PUSH2 0x30E JUMP JUMPDEST POP POP POP SWAP4 SWAP3 POP POP POP JUMP JUMPDEST PUSH0 DUP3 PUSH1 0x1F DUP4 ADD SLT PUSH2 0x353 JUMPI PUSH2 0x352 PUSH2 0x1C2 JUMP JUMPDEST JUMPDEST DUP2 MLOAD PUSH2 0x363 DUP5 DUP3 PUSH1 0x20 DUP7 ADD PUSH2 0x2D7 JUMP JUMPDEST SWAP2 POP POP SWAP3 SWAP2 POP POP JUMP JUMPDEST PUSH0 PUSH1 0x20 DUP3 DUP5 SUB SLT ISZERO PUSH2 0x381 JUMPI PUSH2 0x380 PUSH2 0x1BA JUMP JUMPDEST JUMPDEST PUSH0 DUP3 ADD MLOAD PUSH8 0xFFFFFFFFFFFFFFFF DUP2 GT ISZERO PUSH2 0x39E JUMPI PUSH2 0x39D PUSH2 0x1BE JUMP JUMPDEST JUMPDEST PUSH2 0x3AA DUP5 DUP3 DUP6 ADD PUSH2 0x33F JUMP JUMPDEST SWAP2 POP POP SWAP3 SWAP2 POP POP JUMP JUMPDEST PUSH32 0x4E487B7100000000000000000000000000000000000000000000000000000000 PUSH0 MSTORE PUSH1 0x32 PUSH1 0x4 MSTORE PUSH1 0x24 PUSH0 REVERT JUMPDEST PUSH0 DUP2 SWAP1 POP SWAP2 SWAP1 POP JUMP JUMPDEST PUSH32 0x4E487B7100000000000000000000000000000000000000000000000000000000 PUSH0 MSTORE PUSH1 0x11 PUSH1 0x4 MSTORE PUSH1 0x24 PUSH0 REVERT JUMPDEST PUSH0 PUSH2 0x420 DUP3 PUSH2 0x3E0 JUMP JUMPDEST SWAP2 POP PUSH2 0x42B DUP4 PUSH2 0x3E0 JUMP JUMPDEST SWAP3 POP DUP3 DUP3 ADD SWAP1 POP DUP1 DUP3 GT ISZERO PUSH2 0x443 JUMPI PUSH2 0x442 PUSH2 0x3E9 JUMP JUMPDEST JUMPDEST SWAP3 SWAP2 POP POP JUMP JUMPDEST PUSH2 0x375D DUP1 PUSH2 0x456 PUSH0 CODECOPY PUSH0 RETURN INVALID PUSH1 0x80 PUSH1 0x40 MSTORE CALLVALUE DUP1 ISZERO PUSH2 0xF JUMPI PUSH0 DUP1 REVERT JUMPDEST POP PUSH1 0x4 CALLDATASIZE LT PUSH2 0xE8 JUMPI PUSH0 CALLDATALOAD PUSH1 0xE0 SHR DUP1 PUSH4 0x59F78468 GT PUSH2 0x8A JUMPI DUP1 PUSH4 0xBDDF1CE9 GT PUSH2 0x64 JUMPI DUP1 PUSH4 0xBDDF1CE9 EQ PUSH2 0x1FA JUMPI DUP1 PUSH4 0xD4133741 EQ PUSH2 0x216 JUMPI DUP1 PUSH4 0xF31FFE1E EQ PUSH2 0x234 JUMPI DUP1 PUSH4 0xF927CC29 EQ PUSH2 0x23E JUMPI PUSH2 0xE8 JUMP JUMPDEST DUP1 PUSH4 0x59F78468 EQ PUSH2 0x1B6 JUMPI DUP1 PUSH4 0x721F720C EQ PUSH2 0x1C0 JUMPI DUP1 PUSH4 0x88C30CF2 EQ PUSH2 0x1DE JUMPI PUSH2 0xE8 JUMP JUMPDEST DUP1 PUSH4 0x1E974C69 GT PUSH2 0xC6 JUMPI DUP1 PUSH4 0x1E974C69 EQ PUSH2 0x142 JUMPI DUP1 PUSH4 0x26BB886D EQ PUSH2 0x160 JUMPI DUP1 PUSH4 0x35B8E820 EQ PUSH2 0x17C JUMPI DUP1 PUSH4 0x3D946C53 EQ PUSH2 0x1AC JUMPI PUSH2 0xE8 JUMP JUMPDEST DUP1 PUSH4 0xC1AEBF8 EQ PUSH2 0xEC JUMPI DUP1 PUSH4 0x1169481A EQ PUSH2 0x108 JUMPI DUP1 PUSH4 0x13852AB7 EQ PUSH2 0x124 JUMPI JUMPDEST PUSH0 DUP1 REVERT JUMPDEST PUSH2 0x106 PUSH1 0x4 DUP1 CALLDATASIZE SUB DUP2 ADD SWAP1 PUSH2 0x101 SWAP2 SWAP1 PUSH2 0x27C0 JUMP JUMPDEST PUSH2 0x25C JUMP JUMPDEST STOP JUMPDEST PUSH2 0x122 PUSH1 0x4 DUP1 CALLDATASIZE SUB DUP2 ADD SWAP1 PUSH2 0x11D SWAP2 SWAP1 PUSH2 0x27C0 JUMP JUMPDEST PUSH2 0x653 JUMP JUMPDEST STOP JUMPDEST PUSH2 0x12C PUSH2 0xA6A JUMP JUMPDEST PUSH1 0x40 MLOAD PUSH2 0x139 SWAP2 SWAP1 PUSH2 0x28AB JUMP JUMPDEST PUSH1 0x40 MLOAD DUP1 SWAP2 SUB SWAP1 RETURN JUMPDEST PUSH2 0x14A PUSH2 0xB1F JUMP JUMPDEST PUSH1 0x40 MLOAD PUSH2 0x157 SWAP2 SWAP1 PUSH2 0x2982 JUMP JUMPDEST PUSH1 0x40 MLOAD DUP1 SWAP2 SUB SWAP1 RETURN JUMPDEST PUSH2 0x17A PUSH1 0x4 DUP1 CALLDATASIZE SUB DUP2 ADD SWAP1 PUSH2 0x175 SWAP2 SWAP1 PUSH2 0x27C0 JUMP JUMPDEST PUSH2 0xC67 JUMP JUMPDEST STOP JUMPDEST PUSH2 0x196 PUSH1 0x4 DUP1 CALLDATASIZE SUB DUP2 ADD SWAP1 PUSH2 0x191 SWAP2 SWAP1 PUSH2 0x29CC JUMP JUMPDEST PUSH2 0x102E JUMP JUMPDEST PUSH1 0x40 MLOAD PUSH2 0x1A3 SWAP2 SWAP1 PUSH2 0x2A06 JUMP JUMPDEST PUSH1 0x40 MLOAD DUP1 SWAP2 SUB SWAP1 RETURN JUMPDEST PUSH2 0x1B4 PUSH2 0x110E JUMP JUMPDEST STOP JUMPDEST PUSH2 0x1BE PUSH2 0x13B7 JUMP JUMPDEST STOP JUMPDEST PUSH2 0x1C8 PUSH2 0x16E2 JUMP JUMPDEST PUSH1 0x40 MLOAD PUSH2 0x1D5 SWAP2 SWAP1 PUSH2 0x2982 JUMP JUMPDEST PUSH1 0x40 MLOAD DUP1 SWAP2 SUB SWAP1 RETURN JUMPDEST PUSH2 0x1F8 PUSH1 0x4 DUP1 CALLDATASIZE SUB DUP2 ADD SWAP1 PUSH2 0x1F3 SWAP2 SWAP1 PUSH2 0x27C0 JUMP JUMPDEST PUSH2 0x17E3 JUMP JUMPDEST STOP JUMPDEST PUSH2 0x214 PUSH1 0x4 DUP1 CALLDATASIZE SUB DUP2 ADD SWAP1 PUSH2 0x20F SWAP2 SWAP1 PUSH2 0x27C0 JUMP JUMPDEST PUSH2 0x1C55 JUMP JUMPDEST STOP JUMPDEST PUSH2 0x21E PUSH2 0x2184 JUMP JUMPDEST PUSH1 0x40 MLOAD PUSH2 0x22B SWAP2 SWAP1 PUSH2 0x2982 JUMP JUMPDEST PUSH1 0x40 MLOAD DUP1 SWAP2 SUB SWAP1 RETURN JUMPDEST PUSH2 0x23C PUSH2 0x22CC JUMP JUMPDEST STOP JUMPDEST PUSH2 0x246 PUSH2 0x2596 JUMP JUMPDEST PUSH1 0x40 MLOAD PUSH2 0x253 SWAP2 SWAP1 PUSH2 0x2A06 JUMP JUMPDEST PUSH1 0x40 MLOAD DUP1 SWAP2 SUB SWAP1 RETURN JUMPDEST PUSH1 0x6 PUSH0 SWAP1 SLOAD SWAP1 PUSH2 0x100 EXP SWAP1 DIV PUSH1 0xFF AND ISZERO PUSH2 0x2AB JUMPI PUSH1 0x40 MLOAD PUSH32 0x8C379A000000000000000000000000000000000000000000000000000000000 DUP2 MSTORE PUSH1 0x4 ADD PUSH2 0x2A2 SWAP1 PUSH2 0x2A79 JUMP JUMPDEST PUSH1 0x40 MLOAD DUP1 SWAP2 SUB SWAP1 REVERT JUMPDEST PUSH0 PUSH1 0x2 PUSH0 CALLER PUSH20 0xFFFFFFFFFFFFFFFFFFFFFFFFFFFFFFFFFFFFFFFF AND PUSH20 0xFFFFFFFFFFFFFFFFFFFFFFFFFFFFFFFFFFFFFFFF AND DUP2 MSTORE PUSH1 0x20 ADD SWAP1 DUP2 MSTORE PUSH1 0x20 ADD PUSH0 KECCAK256 SLOAD EQ PUSH2 0x32A JUMPI PUSH1 0x40 MLOAD PUSH32 0x8C379A000000000000000000000000000000000000000000000000000000000 DUP2 MSTORE PUSH1 0x4 ADD PUSH2 0x321 SWAP1 PUSH2 0x2AE1 JUMP JUMPDEST PUSH1 0x40 MLOAD DUP1 SWAP2 SUB SWAP1 REVERT JUMPDEST PUSH0 PUSH1 0x3 PUSH0 CALLER PUSH20 0xFFFFFFFFFFFFFFFFFFFFFFFFFFFFFFFFFFFFFFFF AND PUSH20 0xFFFFFFFFFFFFFFFFFFFFFFFFFFFFFFFFFFFFFFFF AND DUP2 MSTORE PUSH1 0x20 ADD SWAP1 DUP2 MSTORE PUSH1 0x20 ADD PUSH0 KECCAK256 SLOAD GT PUSH2 0x3A9 JUMPI PUSH1 0x40 MLOAD PUSH32 0x8C379A000000000000000000000000000000000000000000000000000000000 DUP2 MSTORE PUSH1 0x4 ADD PUSH2 0x3A0 SWAP1 PUSH2 0x2B6F JUMP JUMPDEST PUSH1 0x40 MLOAD DUP1 SWAP2 SUB SWAP1 REVERT JUMPDEST PUSH0 PUSH1 0x3 PUSH0 DUP4 PUSH20 0xFFFFFFFFFFFFFFFFFFFFFFFFFFFFFFFFFFFFFFFF AND PUSH20 0xFFFFFFFFFFFFFFFFFFFFFFFFFFFFFFFFFFFFFFFF AND DUP2 MSTORE PUSH1 0x20 ADD SWAP1 DUP2 MSTORE PUSH1 0x20 ADD PUSH0 KECCAK256 SLOAD EQ PUSH2 0x428 JUMPI PUSH1 0x40 MLOAD PUSH32 0x8C379A000000000000000000000000000000000000000000000000000000000 DUP2 MSTORE PUSH1 0x4 ADD PUSH2 0x41F SWAP1 PUSH2 0x2BFD JUMP JUMPDEST PUSH1 0x40 MLOAD DUP1 SWAP2 SUB SWAP1 REVERT JUMPDEST PUSH0 PUSH1 0x2 PUSH0 DUP4 PUSH20 0xFFFFFFFFFFFFFFFFFFFFFFFFFFFFFFFFFFFFFFFF AND PUSH20 0xFFFFFFFFFFFFFFFFFFFFFFFFFFFFFFFFFFFFFFFF AND DUP2 MSTORE PUSH1 0x20 ADD SWAP1 DUP2 MSTORE PUSH1 0x20 ADD PUSH0 KECCAK256 SLOAD EQ PUSH2 0x4A7 JUMPI PUSH1 0x40 MLOAD PUSH32 0x8C379A000000000000000000000000000000000000000000000000000000000 DUP2 MSTORE PUSH1 0x4 ADD PUSH2 0x49E SWAP1 PUSH2 0x2C65 JUMP JUMPDEST PUSH1 0x40 MLOAD DUP1 SWAP2 SUB SWAP1 REVERT JUMPDEST PUSH0 PUSH1 0x8 PUSH1 0x1 PUSH1 0x3 PUSH0 CALLER PUSH20 0xFFFFFFFFFFFFFFFFFFFFFFFFFFFFFFFFFFFFFFFF AND PUSH20 0xFFFFFFFFFFFFFFFFFFFFFFFFFFFFFFFFFFFFFFFF AND DUP2 MSTORE PUSH1 0x20 ADD SWAP1 DUP2 MSTORE PUSH1 0x20 ADD PUSH0 KECCAK256 SLOAD PUSH2 0x4F4 SWAP2 SWAP1 PUSH2 0x2CB0 JUMP JUMPDEST DUP2 SLOAD DUP2 LT PUSH2 0x505 JUMPI PUSH2 0x504 PUSH2 0x2CE3 JUMP JUMPDEST JUMPDEST SWAP1 PUSH0 MSTORE PUSH1 0x20 PUSH0 KECCAK256 SWAP1 PUSH1 0x4 MUL ADD SWAP1 POP DUP1 PUSH0 ADD PUSH1 0x14 SWAP1 SLOAD SWAP1 PUSH2 0x100 EXP SWAP1 DIV PUSH1 0xFF AND PUSH2 0x563 JUMPI PUSH1 0x40 MLOAD PUSH32 0x8C379A000000000000000000000000000000000000000000000000000000000 DUP2 MSTORE PUSH1 0x4 ADD PUSH2 0x55A SWAP1 PUSH2 0x2D80 JUMP JUMPDEST PUSH1 0x40 MLOAD DUP1 SWAP2 SUB SWAP1 REVERT JUMPDEST DUP1 PUSH0 ADD PUSH1 0x15 SWAP1 SLOAD SWAP1 PUSH2 0x100 EXP SWAP1 DIV PUSH1 0xFF AND ISZERO PUSH2 0x5B4 JUMPI PUSH1 0x40 MLOAD PUSH32 0x8C379A000000000000000000000000000000000000000000000000000000000 DUP2 MSTORE PUSH1 0x4 ADD PUSH2 0x5AB SWAP1 PUSH2 0x2E0E JUMP JUMPDEST PUSH1 0x40 MLOAD DUP1 SWAP2 SUB SWAP1 REVERT JUMPDEST PUSH1 0x1 DUP2 PUSH0 ADD PUSH1 0x16 PUSH2 0x100 EXP DUP2 SLOAD DUP2 PUSH1 0xFF MUL NOT AND SWAP1 DUP4 ISZERO ISZERO MUL OR SWAP1 SSTORE POP PUSH1 0x3 PUSH0 CALLER PUSH20 0xFFFFFFFFFFFFFFFFFFFFFFFFFFFFFFFFFFFFFFFF AND PUSH20 0xFFFFFFFFFFFFFFFFFFFFFFFFFFFFFFFFFFFFFFFF AND DUP2 MSTORE PUSH1 0x20 ADD SWAP1 DUP2 MSTORE PUSH1 0x20 ADD PUSH0 KECCAK256 SLOAD PUSH1 0x4 PUSH0 DUP5 PUSH20 0xFFFFFFFFFFFFFFFFFFFFFFFFFFFFFFFFFFFFFFFF AND PUSH20 0xFFFFFFFFFFFFFFFFFFFFFFFFFFFFFFFFFFFFFFFF AND DUP2 MSTORE PUSH1 0x20 ADD SWAP1 DUP2 MSTORE PUSH1 0x20 ADD PUSH0 KECCAK256 DUP2 SWAP1 SSTORE POP POP POP JUMP JUMPDEST PUSH1 0x6 PUSH0 SWAP1 SLOAD SWAP1 PUSH2 0x100 EXP SWAP1 DIV PUSH1 0xFF AND ISZERO PUSH2 0x6A2 JUMPI PUSH1 0x40 MLOAD PUSH32 0x8C379A000000000000000000000000000000000000000000000000000000000 DUP2 MSTORE PUSH1 0x4 ADD PUSH2 0x699 SWAP1 PUSH2 0x2A79 JUMP JUMPDEST PUSH1 0x40 MLOAD DUP1 SWAP2 SUB SWAP1 REVERT JUMPDEST PUSH0 PUSH1 0x2 PUSH0 DUP4 PUSH20 0xFFFFFFFFFFFFFFFFFFFFFFFFFFFFFFFFFFFFFFFF AND PUSH20 0xFFFFFFFFFFFFFFFFFFFFFFFFFFFFFFFFFFFFFFFF AND DUP2 MSTORE PUSH1 0x20 ADD SWAP1 DUP2 MSTORE PUSH1 0x20 ADD PUSH0 KECCAK256 SLOAD GT PUSH2 0x721 JUMPI PUSH1 0x40 MLOAD PUSH32 0x8C379A000000000000000000000000000000000000000000000000000000000 DUP2 MSTORE PUSH1 0x4 ADD PUSH2 0x718 SWAP1 PUSH2 0x2E76 JUMP JUMPDEST PUSH1 0x40 MLOAD DUP1 SWAP2 SUB SWAP1 REVERT JUMPDEST PUSH0 PUSH1 0x2 PUSH0 CALLER PUSH20 0xFFFFFFFFFFFFFFFFFFFFFFFFFFFFFFFFFFFFFFFF AND PUSH20 0xFFFFFFFFFFFFFFFFFFFFFFFFFFFFFFFFFFFFFFFF AND DUP2 MSTORE PUSH1 0x20 ADD SWAP1 DUP2 MSTORE PUSH1 0x20 ADD PUSH0 KECCAK256 SLOAD EQ PUSH2 0x7A0 JUMPI PUSH1 0x40 MLOAD PUSH32 0x8C379A000000000000000000000000000000000000000000000000000000000 DUP2 MSTORE PUSH1 0x4 ADD PUSH2 0x797 SWAP1 PUSH2 0x2AE1 JUMP JUMPDEST PUSH1 0x40 MLOAD DUP1 SWAP2 SUB SWAP1 REVERT JUMPDEST PUSH0 PUSH1 0x4 PUSH0 CALLER PUSH20 0xFFFFFFFFFFFFFFFFFFFFFFFFFFFFFFFFFFFFFFFF AND PUSH20 0xFFFFFFFFFFFFFFFFFFFFFFFFFFFFFFFFFFFFFFFF AND DUP2 MSTORE PUSH1 0x20 ADD SWAP1 DUP2 MSTORE PUSH1 0x20 ADD PUSH0 KECCAK256 SLOAD GT PUSH2 0x81F JUMPI PUSH1 0x40 MLOAD PUSH32 0x8C379A000000000000000000000000000000000000000000000000000000000 DUP2 MSTORE PUSH1 0x4 ADD PUSH2 0x816 SWAP1 PUSH2 0x2EDE JUMP JUMPDEST PUSH1 0x40 MLOAD DUP1 SWAP2 SUB SWAP1 REVERT JUMPDEST PUSH0 PUSH1 0x8 PUSH1 0x1 PUSH1 0x4 PUSH0 CALLER PUSH20 0xFFFFFFFFFFFFFFFFFFFFFFFFFFFFFFFFFFFFFFFF AND PUSH20 0xFFFFFFFFFFFFFFFFFFFFFFFFFFFFFFFFFFFFFFFF AND DUP2 MSTORE PUSH1 0x20 ADD SWAP1 DUP2 MSTORE PUSH1 0x20 ADD PUSH0 KECCAK256 SLOAD PUSH2 0x86C SWAP2 SWAP1 PUSH2 0x2CB0 JUMP JUMPDEST DUP2 SLOAD DUP2 LT PUSH2 0x87D JUMPI PUSH2 0x87C PUSH2 0x2CE3 JUMP JUMPDEST JUMPDEST SWAP1 PUSH0 MSTORE PUSH1 0x20 PUSH0 KECCAK256 SWAP1 PUSH1 0x4 MUL ADD SWAP1 POP DUP1 PUSH0 ADD PUSH1 0x14 SWAP1 SLOAD SWAP1 PUSH2 0x100 EXP SWAP1 DIV PUSH1 0xFF AND PUSH2 0x8DB JUMPI PUSH1 0x40 MLOAD PUSH32 0x8C379A000000000000000000000000000000000000000000000000000000000 DUP2 MSTORE PUSH1 0x4 ADD PUSH2 0x8D2 SWAP1 PUSH2 0x2D80 JUMP JUMPDEST PUSH1 0x40 MLOAD DUP1 SWAP2 SUB SWAP1 REVERT JUMPDEST DUP1 PUSH0 ADD PUSH1 0x15 SWAP1 SLOAD SWAP1 PUSH2 0x100 EXP SWAP1 DIV PUSH1 0xFF AND ISZERO PUSH2 0x92C JUMPI PUSH1 0x40 MLOAD PUSH32 0x8C379A000000000000000000000000000000000000000000000000000000000 DUP2 MSTORE PUSH1 0x4 ADD PUSH2 0x923 SWAP1 PUSH2 0x2E0E JUMP JUMPDEST PUSH1 0x40 MLOAD DUP1 SWAP2 SUB SWAP1 REVERT JUMPDEST DUP1 PUSH0 ADD PUSH1 0x16 SWAP1 SLOAD SWAP1 PUSH2 0x100 EXP SWAP1 DIV PUSH1 0xFF AND PUSH2 0x97C JUMPI PUSH1 0x40 MLOAD PUSH32 0x8C379A000000000000000000000000000000000000000000000000000000000 DUP2 MSTORE PUSH1 0x4 ADD PUSH2 0x973 SWAP1 PUSH2 0x2F46 JUMP JUMPDEST PUSH1 0x40 MLOAD DUP1 SWAP2 SUB SWAP1 REVERT JUMPDEST PUSH1 0x2 PUSH0 DUP4 PUSH20 0xFFFFFFFFFFFFFFFFFFFFFFFFFFFFFFFFFFFFFFFF AND PUSH20 0xFFFFFFFFFFFFFFFFFFFFFFFFFFFFFFFFFFFFFFFF AND DUP2 MSTORE PUSH1 0x20 ADD SWAP1 DUP2 MSTORE PUSH1 0x20 ADD PUSH0 KECCAK256 SLOAD DUP2 PUSH1 0x1 ADD DUP2 SWAP1 SSTORE POP PUSH1 0x1 DUP2 PUSH0 ADD PUSH1 0x15 PUSH2 0x100 EXP DUP2 SLOAD DUP2 PUSH1 0xFF MUL NOT AND SWAP1 DUP4 ISZERO ISZERO MUL OR SWAP1 SSTORE POP PUSH0 PUSH1 0x7 PUSH1 0x1 PUSH1 0x2 PUSH0 DUP7 PUSH20 0xFFFFFFFFFFFFFFFFFFFFFFFFFFFFFFFFFFFFFFFF AND PUSH20 0xFFFFFFFFFFFFFFFFFFFFFFFFFFFFFFFFFFFFFFFF AND DUP2 MSTORE PUSH1 0x20 ADD SWAP1 DUP2 MSTORE PUSH1 0x20 ADD PUSH0 KECCAK256 SLOAD PUSH2 0xA2B SWAP2 SWAP1 PUSH2 0x2CB0 JUMP JUMPDEST DUP2 SLOAD DUP2 LT PUSH2 0xA3C JUMPI PUSH2 0xA3B PUSH2 0x2CE3 JUMP JUMPDEST JUMPDEST SWAP1 PUSH0 MSTORE PUSH1 0x20 PUSH0 KECCAK256 SWAP1 PUSH1 0x2 MUL ADD SWAP1 POP PUSH1 0x1 DUP2 PUSH1 0x1 ADD PUSH0 DUP3 DUP3 SLOAD PUSH2 0xA5E SWAP2 SWAP1 PUSH2 0x2F64 JUMP JUMPDEST SWAP3 POP POP DUP2 SWAP1 SSTORE POP POP POP POP JUMP JUMPDEST PUSH1 0x60 PUSH1 0x7 DUP1 SLOAD SWAP1 POP PUSH8 0xFFFFFFFFFFFFFFFF DUP2 GT ISZERO PUSH2 0xA8B JUMPI PUSH2 0xA8A PUSH2 0x2F97 JUMP JUMPDEST JUMPDEST PUSH1 0x40 MLOAD SWAP1 DUP1 DUP3 MSTORE DUP1 PUSH1 0x20 MUL PUSH1 0x20 ADD DUP3 ADD PUSH1 0x40 MSTORE DUP1 ISZERO PUSH2 0xAB9 JUMPI DUP2 PUSH1 0x20 ADD PUSH1 0x20 DUP3 MUL DUP1 CALLDATASIZE DUP4 CALLDATACOPY DUP1 DUP3 ADD SWAP2 POP POP SWAP1 POP JUMPDEST POP SWAP1 POP PUSH0 JUMPDEST PUSH1 0x7 DUP1 SLOAD SWAP1 POP DUP2 LT ISZERO PUSH2 0xB1B JUMPI PUSH1 0x7 DUP2 DUP2 SLOAD DUP2 LT PUSH2 0xADF JUMPI PUSH2 0xADE PUSH2 0x2CE3 JUMP JUMPDEST JUMPDEST SWAP1 PUSH0 MSTORE PUSH1 0x20 PUSH0 KECCAK256 SWAP1 PUSH1 0x2 MUL ADD PUSH1 0x1 ADD SLOAD DUP3 DUP3 DUP2 MLOAD DUP2 LT PUSH2 0xB02 JUMPI PUSH2 0xB01 PUSH2 0x2CE3 JUMP JUMPDEST JUMPDEST PUSH1 0x20 MUL PUSH1 0x20 ADD ADD DUP2 DUP2 MSTORE POP POP DUP1 DUP1 PUSH1 0x1 ADD SWAP2 POP POP PUSH2 0xABE JUMP JUMPDEST POP SWAP1 JUMP JUMPDEST PUSH1 0x60 PUSH1 0x8 DUP1 SLOAD SWAP1 POP PUSH8 0xFFFFFFFFFFFFFFFF DUP2 GT ISZERO PUSH2 0xB40 JUMPI PUSH2 0xB3F PUSH2 0x2F97 JUMP JUMPDEST JUMPDEST PUSH1 0x40 MLOAD SWAP1 DUP1 DUP3 MSTORE DUP1 PUSH1 0x20 MUL PUSH1 0x20 ADD DUP3 ADD PUSH1 0x40 MSTORE DUP1 ISZERO PUSH2 0xB6E JUMPI DUP2 PUSH1 0x20 ADD PUSH1 0x20 DUP3 MUL DUP1 CALLDATASIZE DUP4 CALLDATACOPY DUP1 DUP3 ADD SWAP2 POP POP SWAP1 POP JUMPDEST POP SWAP1 POP PUSH0 DUP1 JUMPDEST PUSH1 0x8 DUP1 SLOAD SWAP1 POP DUP2 LT ISZERO PUSH2 0xC62 JUMPI PUSH1 0x8 DUP2 DUP2 SLOAD DUP2 LT PUSH2 0xB95 JUMPI PUSH2 0xB94 PUSH2 0x2CE3 JUMP JUMPDEST JUMPDEST SWAP1 PUSH0 MSTORE PUSH1 0x20 PUSH0 KECCAK256 SWAP1 PUSH1 0x4 MUL ADD PUSH0 ADD PUSH1 0x14 SWAP1 SLOAD SWAP1 PUSH2 0x100 EXP SWAP1 DIV PUSH1 0xFF AND ISZERO PUSH2 0xC55 JUMPI PUSH1 0x8 DUP2 DUP2 SLOAD DUP2 LT PUSH2 0xBCA JUMPI PUSH2 0xBC9 PUSH2 0x2CE3 JUMP JUMPDEST JUMPDEST SWAP1 PUSH0 MSTORE PUSH1 0x20 PUSH0 KECCAK256 SWAP1 PUSH1 0x4 MUL ADD PUSH0 ADD PUSH0 SWAP1 SLOAD SWAP1 PUSH2 0x100 EXP SWAP1 DIV PUSH20 0xFFFFFFFFFFFFFFFFFFFFFFFFFFFFFFFFFFFFFFFF AND DUP4 DUP4 DUP2 MLOAD DUP2 LT PUSH2 0xC0B JUMPI PUSH2 0xC0A PUSH2 0x2CE3 JUMP JUMPDEST JUMPDEST PUSH1 0x20 MUL PUSH1 0x20 ADD ADD SWAP1 PUSH20 0xFFFFFFFFFFFFFFFFFFFFFFFFFFFFFFFFFFFFFFFF AND SWAP1 DUP2 PUSH20 0xFFFFFFFFFFFFFFFFFFFFFFFFFFFFFFFFFFFFFFFF AND DUP2 MSTORE POP POP PUSH1 0x1 DUP3 PUSH2 0xC52 SWAP2 SWAP1 PUSH2 0x2F64 JUMP JUMPDEST SWAP2 POP JUMPDEST DUP1 DUP1 PUSH1 0x1 ADD SWAP2 POP POP PUSH2 0xB74 JUMP JUMPDEST POP POP SWAP1 JUMP JUMPDEST PUSH1 0x6 PUSH0 SWAP1 SLOAD SWAP1 PUSH2 0x100 EXP SWAP1 DIV PUSH1 0xFF AND ISZERO PUSH2 0xCB6 JUMPI PUSH1 0x40 MLOAD PUSH32 0x8C379A000000000000000000000000000000000000000000000000000000000 DUP2 MSTORE PUSH1 0x4 ADD PUSH2 0xCAD SWAP1 PUSH2 0x2A79 JUMP JUMPDEST PUSH1 0x40 MLOAD DUP1 SWAP2 SUB SWAP1 REVERT JUMPDEST PUSH0 PUSH1 0x2 PUSH0 DUP4 PUSH20 0xFFFFFFFFFFFFFFFFFFFFFFFFFFFFFFFFFFFFFFFF AND PUSH20 0xFFFFFFFFFFFFFFFFFFFFFFFFFFFFFFFFFFFFFFFF AND DUP2 MSTORE PUSH1 0x20 ADD SWAP1 DUP2 MSTORE PUSH1 0x20 ADD PUSH0 KECCAK256 SLOAD GT PUSH2 0xD35 JUMPI PUSH1 0x40 MLOAD PUSH32 0x8C379A000000000000000000000000000000000000000000000000000000000 DUP2 MSTORE PUSH1 0x4 ADD PUSH2 0xD2C SWAP1 PUSH2 0x2E76 JUMP JUMPDEST PUSH1 0x40 MLOAD DUP1 SWAP2 SUB SWAP1 REVERT JUMPDEST PUSH0 PUSH1 0x2 PUSH0 CALLER PUSH20 0xFFFFFFFFFFFFFFFFFFFFFFFFFFFFFFFFFFFFFFFF AND PUSH20 0xFFFFFFFFFFFFFFFFFFFFFFFFFFFFFFFFFFFFFFFF AND DUP2 MSTORE PUSH1 0x20 ADD SWAP1 DUP2 MSTORE PUSH1 0x20 ADD PUSH0 KECCAK256 SLOAD EQ PUSH2 0xDB4 JUMPI PUSH1 0x40 MLOAD PUSH32 0x8C379A000000000000000000000000000000000000000000000000000000000 DUP2 MSTORE PUSH1 0x4 ADD PUSH2 0xDAB SWAP1 PUSH2 0x2AE1 JUMP JUMPDEST PUSH1 0x40 MLOAD DUP1 SWAP2 SUB SWAP1 REVERT JUMPDEST PUSH0 PUSH1 0x3 PUSH0 CALLER PUSH20 0xFFFFFFFFFFFFFFFFFFFFFFFFFFFFFFFFFFFFFFFF AND PUSH20 0xFFFFFFFFFFFFFFFFFFFFFFFFFFFFFFFFFFFFFFFF AND DUP2 MSTORE PUSH1 0x20 ADD SWAP1 DUP2 MSTORE PUSH1 0x20 ADD PUSH0 KECCAK256 SLOAD GT PUSH2 0xE33 JUMPI PUSH1 0x40 MLOAD PUSH32 0x8C379A000000000000000000000000000000000000000000000000000000000 DUP2 MSTORE PUSH1 0x4 ADD PUSH2 0xE2A SWAP1 PUSH2 0x2B6F JUMP JUMPDEST PUSH1 0x40 MLOAD DUP1 SWAP2 SUB SWAP1 REVERT JUMPDEST PUSH0 PUSH1 0x8 PUSH1 0x1 PUSH1 0x3 PUSH0 CALLER PUSH20 0xFFFFFFFFFFFFFFFFFFFFFFFFFFFFFFFFFFFFFFFF AND PUSH20 0xFFFFFFFFFFFFFFFFFFFFFFFFFFFFFFFFFFFFFFFF AND DUP2 MSTORE PUSH1 0x20 ADD SWAP1 DUP2 MSTORE PUSH1 0x20 ADD PUSH0 KECCAK256 SLOAD PUSH2 0xE80 SWAP2 SWAP1 PUSH2 0x2CB0 JUMP JUMPDEST DUP2 SLOAD DUP2 LT PUSH2 0xE91 JUMPI PUSH2 0xE90 PUSH2 0x2CE3 JUMP JUMPDEST JUMPDEST SWAP1 PUSH0 MSTORE PUSH1 0x20 PUSH0 KECCAK256 SWAP1 PUSH1 0x4 MUL ADD SWAP1 POP DUP1 PUSH0 ADD PUSH1 0x14 SWAP1 SLOAD SWAP1 PUSH2 0x100 EXP SWAP1 DIV PUSH1 0xFF AND PUSH2 0xEEF JUMPI PUSH1 0x40 MLOAD PUSH32 0x8C379A000000000000000000000000000000000000000000000000000000000 DUP2 MSTORE PUSH1 0x4 ADD PUSH2 0xEE6 SWAP1 PUSH2 0x2D80 JUMP JUMPDEST PUSH1 0x40 MLOAD DUP1 SWAP2 SUB SWAP1 REVERT JUMPDEST DUP1 PUSH0 ADD PUSH1 0x15 SWAP1 SLOAD SWAP1 PUSH2 0x100 EXP SWAP1 DIV PUSH1 0xFF AND ISZERO PUSH2 0xF40 JUMPI PUSH1 0x40 MLOAD PUSH32 0x8C379A000000000000000000000000000000000000000000000000000000000 DUP2 MSTORE PUSH1 0x4 ADD PUSH2 0xF37 SWAP1 PUSH2 0x300E JUMP JUMPDEST PUSH1 0x40 MLOAD DUP1 SWAP2 SUB SWAP1 REVERT JUMPDEST PUSH1 0x2 PUSH0 DUP4 PUSH20 0xFFFFFFFFFFFFFFFFFFFFFFFFFFFFFFFFFFFFFFFF AND PUSH20 0xFFFFFFFFFFFFFFFFFFFFFFFFFFFFFFFFFFFFFFFF AND DUP2 MSTORE PUSH1 0x20 ADD SWAP1 DUP2 MSTORE PUSH1 0x20 ADD PUSH0 KECCAK256 SLOAD DUP2 PUSH1 0x1 ADD DUP2 SWAP1 SSTORE POP PUSH1 0x1 DUP2 PUSH0 ADD PUSH1 0x15 PUSH2 0x100 EXP DUP2 SLOAD DUP2 PUSH1 0xFF MUL NOT AND SWAP1 DUP4 ISZERO ISZERO MUL OR SWAP1 SSTORE POP PUSH0 PUSH1 0x7 PUSH1 0x1 PUSH1 0x2 PUSH0 DUP7 PUSH20 0xFFFFFFFFFFFFFFFFFFFFFFFFFFFFFFFFFFFFFFFF AND PUSH20 0xFFFFFFFFFFFFFFFFFFFFFFFFFFFFFFFFFFFFFFFF AND DUP2 MSTORE PUSH1 0x20 ADD SWAP1 DUP2 MSTORE PUSH1 0x20 ADD PUSH0 KECCAK256 SLOAD PUSH2 0xFEF SWAP2 SWAP1 PUSH2 0x2CB0 JUMP JUMPDEST DUP2 SLOAD DUP2 LT PUSH2 0x1000 JUMPI PUSH2 0xFFF PUSH2 0x2CE3 JUMP JUMPDEST JUMPDEST SWAP1 PUSH0 MSTORE PUSH1 0x20 PUSH0 KECCAK256 SWAP1 PUSH1 0x2 MUL ADD SWAP1 POP PUSH1 0x1 DUP2 PUSH1 0x1 ADD PUSH0 DUP3 DUP3 SLOAD PUSH2 0x1022 SWAP2 SWAP1 PUSH2 0x2F64 JUMP JUMPDEST SWAP3 POP POP DUP2 SWAP1 SSTORE POP POP POP POP JUMP JUMPDEST PUSH0 DUP1 DUP3 GT PUSH2 0x1071 JUMPI PUSH1 0x40 MLOAD PUSH32 0x8C379A000000000000000000000000000000000000000000000000000000000 DUP2 MSTORE PUSH1 0x4 ADD PUSH2 0x1068 SWAP1 PUSH2 0x3076 JUMP JUMPDEST PUSH1 0x40 MLOAD DUP1 SWAP2 SUB SWAP1 REVERT JUMPDEST PUSH1 0x7 DUP1 SLOAD SWAP1 POP DUP3 GT ISZERO PUSH2 0x10B9 JUMPI PUSH1 0x40 MLOAD PUSH32 0x8C379A000000000000000000000000000000000000000000000000000000000 DUP2 MSTORE PUSH1 0x4 ADD PUSH2 0x10B0 SWAP1 PUSH2 0x30DE JUMP JUMPDEST PUSH1 0x40 MLOAD DUP1 SWAP2 SUB SWAP1 REVERT JUMPDEST PUSH1 0x7 PUSH1 0x1 DUP4 PUSH2 0x10C8 SWAP2 SWAP1 PUSH2 0x2CB0 JUMP JUMPDEST DUP2 SLOAD DUP2 LT PUSH2 0x10D9 JUMPI PUSH2 0x10D8 PUSH2 0x2CE3 JUMP JUMPDEST JUMPDEST SWAP1 PUSH0 MSTORE PUSH1 0x20 PUSH0 KECCAK256 SWAP1 PUSH1 0x2 MUL ADD PUSH0 ADD PUSH0 SWAP1 SLOAD SWAP1 PUSH2 0x100 EXP SWAP1 DIV PUSH20 0xFFFFFFFFFFFFFFFFFFFFFFFFFFFFFFFFFFFFFFFF AND SWAP1 POP SWAP2 SWAP1 POP JUMP JUMPDEST PUSH1 0x6 PUSH0 SWAP1 SLOAD SWAP1 PUSH2 0x100 EXP SWAP1 DIV PUSH1 0xFF AND PUSH2 0x115C JUMPI PUSH1 0x40 MLOAD PUSH32 0x8C379A000000000000000000000000000000000000000000000000000000000 DUP2 MSTORE PUSH1 0x4 ADD PUSH2 0x1153 SWAP1 PUSH2 0x3146 JUMP JUMPDEST PUSH1 0x40 MLOAD DUP1 SWAP2 SUB SWAP1 REVERT JUMPDEST PUSH0 PUSH1 0x2 PUSH0 CALLER PUSH20 0xFFFFFFFFFFFFFFFFFFFFFFFFFFFFFFFFFFFFFFFF AND PUSH20 0xFFFFFFFFFFFFFFFFFFFFFFFFFFFFFFFFFFFFFFFF AND DUP2 MSTORE PUSH1 0x20 ADD SWAP1 DUP2 MSTORE PUSH1 0x20 ADD PUSH0 KECCAK256 SLOAD GT PUSH2 0x11DB JUMPI PUSH1 0x40 MLOAD PUSH32 0x8C379A000000000000000000000000000000000000000000000000000000000 DUP2 MSTORE PUSH1 0x4 ADD PUSH2 0x11D2 SWAP1 PUSH2 0x31D4 JUMP JUMPDEST PUSH1 0x40 MLOAD DUP1 SWAP2 SUB SWAP1 REVERT JUMPDEST PUSH0 ISZERO ISZERO PUSH1 0xA PUSH0 CALLER PUSH20 0xFFFFFFFFFFFFFFFFFFFFFFFFFFFFFFFFFFFFFFFF AND PUSH20 0xFFFFFFFFFFFFFFFFFFFFFFFFFFFFFFFFFFFFFFFF AND DUP2 MSTORE PUSH1 0x20 ADD SWAP1 DUP2 MSTORE PUSH1 0x20 ADD PUSH0 KECCAK256 PUSH0 SWAP1 SLOAD SWAP1 PUSH2 0x100 EXP SWAP1 DIV PUSH1 0xFF AND ISZERO ISZERO EQ PUSH2 0x126A JUMPI PUSH1 0x40 MLOAD PUSH32 0x8C379A000000000000000000000000000000000000000000000000000000000 DUP2 MSTORE PUSH1 0x4 ADD PUSH2 0x1261 SWAP1 PUSH2 0x3288 JUMP JUMPDEST PUSH1 0x40 MLOAD DUP1 SWAP2 SUB SWAP1 REVERT JUMPDEST PUSH1 0x1 PUSH1 0xA PUSH0 CALLER PUSH20 0xFFFFFFFFFFFFFFFFFFFFFFFFFFFFFFFFFFFFFFFF AND PUSH20 0xFFFFFFFFFFFFFFFFFFFFFFFFFFFFFFFFFFFFFFFF AND DUP2 MSTORE PUSH1 0x20 ADD SWAP1 DUP2 MSTORE PUSH1 0x20 ADD PUSH0 KECCAK256 PUSH0 PUSH2 0x100 EXP DUP2 SLOAD DUP2 PUSH1 0xFF MUL NOT AND SWAP1 DUP4 ISZERO ISZERO MUL OR SWAP1 SSTORE POP PUSH1 0x1 PUSH1 0xC PUSH0 DUP3 DUP3 SLOAD PUSH2 0x12D1 SWAP2 SWAP1 PUSH2 0x2F64 JUMP JUMPDEST SWAP3 POP POP DUP2 SWAP1 SSTORE POP PUSH0 SLOAD PUSH1 0xC SLOAD SUB PUSH2 0x13B5 JUMPI PUSH0 JUMPDEST PUSH1 0x7 DUP1 SLOAD SWAP1 POP DUP2 LT ISZERO PUSH2 0x1393 JUMPI PUSH0 PUSH1 0xA PUSH0 PUSH1 0x7 DUP5 DUP2 SLOAD DUP2 LT PUSH2 0x1309 JUMPI PUSH2 0x1308 PUSH2 0x2CE3 JUMP JUMPDEST JUMPDEST SWAP1 PUSH0 MSTORE PUSH1 0x20 PUSH0 KECCAK256 SWAP1 PUSH1 0x2 MUL ADD PUSH0 ADD PUSH0 SWAP1 SLOAD SWAP1 PUSH2 0x100 EXP SWAP1 DIV PUSH20 0xFFFFFFFFFFFFFFFFFFFFFFFFFFFFFFFFFFFFFFFF AND PUSH20 0xFFFFFFFFFFFFFFFFFFFFFFFFFFFFFFFFFFFFFFFF AND PUSH20 0xFFFFFFFFFFFFFFFFFFFFFFFFFFFFFFFFFFFFFFFF AND DUP2 MSTORE PUSH1 0x20 ADD SWAP1 DUP2 MSTORE PUSH1 0x20 ADD PUSH0 KECCAK256 PUSH0 PUSH2 0x100 EXP DUP2 SLOAD DUP2 PUSH1 0xFF MUL NOT AND SWAP1 DUP4 ISZERO ISZERO MUL OR SWAP1 SSTORE POP DUP1 DUP1 PUSH1 0x1 ADD SWAP2 POP POP PUSH2 0x12E4 JUMP JUMPDEST POP PUSH0 PUSH1 0xC DUP2 SWAP1 SSTORE POP PUSH0 PUSH1 0x6 PUSH0 PUSH2 0x100 EXP DUP2 SLOAD DUP2 PUSH1 0xFF MUL NOT AND SWAP1 DUP4 ISZERO ISZERO MUL OR SWAP1 SSTORE POP JUMPDEST JUMP JUMPDEST PUSH1 0x6 PUSH0 SWAP1 SLOAD SWAP1 PUSH2 0x100 EXP SWAP1 DIV PUSH1 0xFF AND ISZERO PUSH2 0x1406 JUMPI PUSH1 0x40 MLOAD PUSH32 0x8C379A000000000000000000000000000000000000000000000000000000000 DUP2 MSTORE PUSH1 0x4 ADD PUSH2 0x13FD SWAP1 PUSH2 0x2A79 JUMP JUMPDEST PUSH1 0x40 MLOAD DUP1 SWAP2 SUB SWAP1 REVERT JUMPDEST PUSH0 PUSH1 0x2 PUSH0 CALLER PUSH20 0xFFFFFFFFFFFFFFFFFFFFFFFFFFFFFFFFFFFFFFFF AND PUSH20 0xFFFFFFFFFFFFFFFFFFFFFFFFFFFFFFFFFFFFFFFF AND DUP2 MSTORE PUSH1 0x20 ADD SWAP1 DUP2 MSTORE PUSH1 0x20 ADD PUSH0 KECCAK256 SLOAD GT PUSH2 0x1485 JUMPI PUSH1 0x40 MLOAD PUSH32 0x8C379A000000000000000000000000000000000000000000000000000000000 DUP2 MSTORE PUSH1 0x4 ADD PUSH2 0x147C SWAP1 PUSH2 0x31D4 JUMP JUMPDEST PUSH1 0x40 MLOAD DUP1 SWAP2 SUB SWAP1 REVERT JUMPDEST PUSH0 ISZERO ISZERO PUSH1 0x9 PUSH0 CALLER PUSH20 0xFFFFFFFFFFFFFFFFFFFFFFFFFFFFFFFFFFFFFFFF AND PUSH20 0xFFFFFFFFFFFFFFFFFFFFFFFFFFFFFFFFFFFFFFFF AND DUP2 MSTORE PUSH1 0x20 ADD SWAP1 DUP2 MSTORE PUSH1 0x20 ADD PUSH0 KECCAK256 PUSH0 SWAP1 SLOAD SWAP1 PUSH2 0x100 EXP SWAP1 DIV PUSH1 0xFF AND ISZERO ISZERO EQ PUSH2 0x1514 JUMPI PUSH1 0x40 MLOAD PUSH32 0x8C379A000000000000000000000000000000000000000000000000000000000 DUP2 MSTORE PUSH1 0x4 ADD PUSH2 0x150B SWAP1 PUSH2 0x333C JUMP JUMPDEST PUSH1 0x40 MLOAD DUP1 SWAP2 SUB SWAP1 REVERT JUMPDEST PUSH1 0x1 PUSH1 0x9 PUSH0 CALLER PUSH20 0xFFFFFFFFFFFFFFFFFFFFFFFFFFFFFFFFFFFFFFFF AND PUSH20 0xFFFFFFFFFFFFFFFFFFFFFFFFFFFFFFFFFFFFFFFF AND DUP2 MSTORE PUSH1 0x20 ADD SWAP1 DUP2 MSTORE PUSH1 0x20 ADD PUSH0 KECCAK256 PUSH0 PUSH2 0x100 EXP DUP2 SLOAD DUP2 PUSH1 0xFF MUL NOT AND SWAP1 DUP4 ISZERO ISZERO MUL OR SWAP1 SSTORE POP PUSH1 0x1 PUSH1 0xB PUSH0 DUP3 DUP3 SLOAD PUSH2 0x157B SWAP2 SWAP1 PUSH2 0x2F64 JUMP JUMPDEST SWAP3 POP POP DUP2 SWAP1 SSTORE POP PUSH0 SLOAD PUSH1 0xB SLOAD SUB PUSH2 0x16E0 JUMPI PUSH0 DUP1 JUMPDEST PUSH0 SLOAD DUP2 LT ISZERO PUSH2 0x160A JUMPI DUP2 PUSH1 0x7 DUP3 DUP2 SLOAD DUP2 LT PUSH2 0x15AD JUMPI PUSH2 0x15AC PUSH2 0x2CE3 JUMP JUMPDEST JUMPDEST SWAP1 PUSH0 MSTORE PUSH1 0x20 PUSH0 KECCAK256 SWAP1 PUSH1 0x2 MUL ADD PUSH1 0x1 ADD SLOAD GT ISZERO PUSH2 0x15FD JUMPI PUSH1 0x7 DUP2 DUP2 SLOAD DUP2 LT PUSH2 0x15D7 JUMPI PUSH2 0x15D6 PUSH2 0x2CE3 JUMP JUMPDEST JUMPDEST SWAP1 PUSH0 MSTORE PUSH1 0x20 PUSH0 KECCAK256 SWAP1 PUSH1 0x2 MUL ADD PUSH1 0x1 ADD SLOAD SWAP2 POP PUSH1 0x1 DUP2 PUSH2 0x15F6 SWAP2 SWAP1 PUSH2 0x2F64 JUMP JUMPDEST PUSH1 0x5 DUP2 SWAP1 SSTORE POP JUMPDEST DUP1 DUP1 PUSH1 0x1 ADD SWAP2 POP POP PUSH2 0x158F JUMP JUMPDEST POP PUSH0 JUMPDEST PUSH1 0x7 DUP1 SLOAD SWAP1 POP DUP2 LT ISZERO PUSH2 0x16BC JUMPI PUSH0 PUSH1 0x9 PUSH0 PUSH1 0x7 DUP5 DUP2 SLOAD DUP2 LT PUSH2 0x1632 JUMPI PUSH2 0x1631 PUSH2 0x2CE3 JUMP JUMPDEST JUMPDEST SWAP1 PUSH0 MSTORE PUSH1 0x20 PUSH0 KECCAK256 SWAP1 PUSH1 0x2 MUL ADD PUSH0 ADD PUSH0 SWAP1 SLOAD SWAP1 PUSH2 0x100 EXP SWAP1 DIV PUSH20 0xFFFFFFFFFFFFFFFFFFFFFFFFFFFFFFFFFFFFFFFF AND PUSH20 0xFFFFFFFFFFFFFFFFFFFFFFFFFFFFFFFFFFFFFFFF AND PUSH20 0xFFFFFFFFFFFFFFFFFFFFFFFFFFFFFFFFFFFFFFFF AND DUP2 MSTORE PUSH1 0x20 ADD SWAP1 DUP2 MSTORE PUSH1 0x20 ADD PUSH0 KECCAK256 PUSH0 PUSH2 0x100 EXP DUP2 SLOAD DUP2 PUSH1 0xFF MUL NOT AND SWAP1 DUP4 ISZERO ISZERO MUL OR SWAP1 SSTORE POP DUP1 DUP1 PUSH1 0x1 ADD SWAP2 POP POP PUSH2 0x160D JUMP JUMPDEST POP PUSH0 PUSH1 0xB DUP2 SWAP1 SSTORE POP PUSH1 0x1 PUSH1 0x6 PUSH0 PUSH2 0x100 EXP DUP2 SLOAD DUP2 PUSH1 0xFF MUL NOT AND SWAP1 DUP4 ISZERO ISZERO MUL OR SWAP1 SSTORE POP POP JUMPDEST JUMP JUMPDEST PUSH1 0x60 PUSH1 0x7 DUP1 SLOAD SWAP1 POP PUSH8 0xFFFFFFFFFFFFFFFF DUP2 GT ISZERO PUSH2 0x1703 JUMPI PUSH2 0x1702 PUSH2 0x2F97 JUMP JUMPDEST JUMPDEST PUSH1 0x40 MLOAD SWAP1 DUP1 DUP3 MSTORE DUP1 PUSH1 0x20 MUL PUSH1 0x20 ADD DUP3 ADD PUSH1 0x40 MSTORE DUP1 ISZERO PUSH2 0x1731 JUMPI DUP2 PUSH1 0x20 ADD PUSH1 0x20 DUP3 MUL DUP1 CALLDATASIZE DUP4 CALLDATACOPY DUP1 DUP3 ADD SWAP2 POP POP SWAP1 POP JUMPDEST POP SWAP1 POP PUSH0 JUMPDEST PUSH1 0x7 DUP1 SLOAD SWAP1 POP DUP2 LT ISZERO PUSH2 0x17DF JUMPI PUSH1 0x7 DUP2 DUP2 SLOAD DUP2 LT PUSH2 0x1757 JUMPI PUSH2 0x1756 PUSH2 0x2CE3 JUMP JUMPDEST JUMPDEST SWAP1 PUSH0 MSTORE PUSH1 0x20 PUSH0 KECCAK256 SWAP1 PUSH1 0x2 MUL ADD PUSH0 ADD PUSH0 SWAP1 SLOAD SWAP1 PUSH2 0x100 EXP SWAP1 DIV PUSH20 0xFFFFFFFFFFFFFFFFFFFFFFFFFFFFFFFFFFFFFFFF AND DUP3 DUP3 DUP2 MLOAD DUP2 LT PUSH2 0x1798 JUMPI PUSH2 0x1797 PUSH2 0x2CE3 JUMP JUMPDEST JUMPDEST PUSH1 0x20 MUL PUSH1 0x20 ADD ADD SWAP1 PUSH20 0xFFFFFFFFFFFFFFFFFFFFFFFFFFFFFFFFFFFFFFFF AND SWAP1 DUP2 PUSH20 0xFFFFFFFFFFFFFFFFFFFFFFFFFFFFFFFFFFFFFFFF AND DUP2 MSTORE POP POP DUP1 DUP1 PUSH1 0x1 ADD SWAP2 POP POP PUSH2 0x1736 JUMP JUMPDEST POP SWAP1 JUMP JUMPDEST PUSH1 0x6 PUSH0 SWAP1 SLOAD SWAP1 PUSH2 0x100 EXP SWAP1 DIV PUSH1 0xFF AND ISZERO PUSH2 0x1832 JUMPI PUSH1 0x40 MLOAD PUSH32 0x8C379A000000000000000000000000000000000000000000000000000000000 DUP2 MSTORE PUSH1 0x4 ADD PUSH2 0x1829 SWAP1 PUSH2 0x2A79 JUMP JUMPDEST PUSH1 0x40 MLOAD DUP1 SWAP2 SUB SWAP1 REVERT JUMPDEST PUSH0 PUSH1 0x2 PUSH0 DUP4 PUSH20 0xFFFFFFFFFFFFFFFFFFFFFFFFFFFFFFFFFFFFFFFF AND PUSH20 0xFFFFFFFFFFFFFFFFFFFFFFFFFFFFFFFFFFFFFFFF AND DUP2 MSTORE PUSH1 0x20 ADD SWAP1 DUP2 MSTORE PUSH1 0x20 ADD PUSH0 KECCAK256 SLOAD GT PUSH2 0x18B1 JUMPI PUSH1 0x40 MLOAD PUSH32 0x8C379A000000000000000000000000000000000000000000000000000000000 DUP2 MSTORE PUSH1 0x4 ADD PUSH2 0x18A8 SWAP1 PUSH2 0x2E76 JUMP JUMPDEST PUSH1 0x40 MLOAD DUP1 SWAP2 SUB SWAP1 REVERT JUMPDEST PUSH0 PUSH1 0x2 PUSH0 CALLER PUSH20 0xFFFFFFFFFFFFFFFFFFFFFFFFFFFFFFFFFFFFFFFF AND PUSH20 0xFFFFFFFFFFFFFFFFFFFFFFFFFFFFFFFFFFFFFFFF AND DUP2 MSTORE PUSH1 0x20 ADD SWAP1 DUP2 MSTORE PUSH1 0x20 ADD PUSH0 KECCAK256 SLOAD EQ PUSH2 0x1930 JUMPI PUSH1 0x40 MLOAD PUSH32 0x8C379A000000000000000000000000000000000000000000000000000000000 DUP2 MSTORE PUSH1 0x4 ADD PUSH2 0x1927 SWAP1 PUSH2 0x2AE1 JUMP JUMPDEST PUSH1 0x40 MLOAD DUP1 SWAP2 SUB SWAP1 REVERT JUMPDEST PUSH0 PUSH1 0x3 PUSH0 CALLER PUSH20 0xFFFFFFFFFFFFFFFFFFFFFFFFFFFFFFFFFFFFFFFF AND PUSH20 0xFFFFFFFFFFFFFFFFFFFFFFFFFFFFFFFFFFFFFFFF AND DUP2 MSTORE PUSH1 0x20 ADD SWAP1 DUP2 MSTORE PUSH1 0x20 ADD PUSH0 KECCAK256 SLOAD GT PUSH2 0x19AF JUMPI PUSH1 0x40 MLOAD PUSH32 0x8C379A000000000000000000000000000000000000000000000000000000000 DUP2 MSTORE PUSH1 0x4 ADD PUSH2 0x19A6 SWAP1 PUSH2 0x2B6F JUMP JUMPDEST PUSH1 0x40 MLOAD DUP1 SWAP2 SUB SWAP1 REVERT JUMPDEST PUSH0 PUSH1 0x8 PUSH1 0x1 PUSH1 0x3 PUSH0 CALLER PUSH20 0xFFFFFFFFFFFFFFFFFFFFFFFFFFFFFFFFFFFFFFFF AND PUSH20 0xFFFFFFFFFFFFFFFFFFFFFFFFFFFFFFFFFFFFFFFF AND DUP2 MSTORE PUSH1 0x20 ADD SWAP1 DUP2 MSTORE PUSH1 0x20 ADD PUSH0 KECCAK256 SLOAD PUSH2 0x19FC SWAP2 SWAP1 PUSH2 0x2CB0 JUMP JUMPDEST DUP2 SLOAD DUP2 LT PUSH2 0x1A0D JUMPI PUSH2 0x1A0C PUSH2 0x2CE3 JUMP JUMPDEST JUMPDEST SWAP1 PUSH0 MSTORE PUSH1 0x20 PUSH0 KECCAK256 SWAP1 PUSH1 0x4 MUL ADD SWAP1 POP DUP1 PUSH0 ADD PUSH1 0x14 SWAP1 SLOAD SWAP1 PUSH2 0x100 EXP SWAP1 DIV PUSH1 0xFF AND PUSH2 0x1A6B JUMPI PUSH1 0x40 MLOAD PUSH32 0x8C379A000000000000000000000000000000000000000000000000000000000 DUP2 MSTORE PUSH1 0x4 ADD PUSH2 0x1A62 SWAP1 PUSH2 0x2D80 JUMP JUMPDEST PUSH1 0x40 MLOAD DUP1 SWAP2 SUB SWAP1 REVERT JUMPDEST DUP1 PUSH0 ADD PUSH1 0x15 SWAP1 SLOAD SWAP1 PUSH2 0x100 EXP SWAP1 DIV PUSH1 0xFF AND PUSH2 0x1ABB JUMPI PUSH1 0x40 MLOAD PUSH32 0x8C379A000000000000000000000000000000000000000000000000000000000 DUP2 MSTORE PUSH1 0x4 ADD PUSH2 0x1AB2 SWAP1 PUSH2 0x33A4 JUMP JUMPDEST PUSH1 0x40 MLOAD DUP1 SWAP2 SUB SWAP1 REVERT JUMPDEST PUSH1 0x2 PUSH0 DUP4 PUSH20 0xFFFFFFFFFFFFFFFFFFFFFFFFFFFFFFFFFFFFFFFF AND PUSH20 0xFFFFFFFFFFFFFFFFFFFFFFFFFFFFFFFFFFFFFFFF AND DUP2 MSTORE PUSH1 0x20 ADD SWAP1 DUP2 MSTORE PUSH1 0x20 ADD PUSH0 KECCAK256 SLOAD DUP2 PUSH1 0x1 ADD SLOAD SUB PUSH2 0x1B3E JUMPI PUSH1 0x40 MLOAD PUSH32 0x8C379A000000000000000000000000000000000000000000000000000000000 DUP2 MSTORE PUSH1 0x4 ADD PUSH2 0x1B35 SWAP1 PUSH2 0x3432 JUMP JUMPDEST PUSH1 0x40 MLOAD DUP1 SWAP2 SUB SWAP1 REVERT JUMPDEST PUSH1 0x1 PUSH1 0x7 PUSH1 0x1 DUP4 PUSH1 0x1 ADD SLOAD PUSH2 0x1B53 SWAP2 SWAP1 PUSH2 0x2CB0 JUMP JUMPDEST DUP2 SLOAD DUP2 LT PUSH2 0x1B64 JUMPI PUSH2 0x1B63 PUSH2 0x2CE3 JUMP JUMPDEST JUMPDEST SWAP1 PUSH0 MSTORE PUSH1 0x20 PUSH0 KECCAK256 SWAP1 PUSH1 0x2 MUL ADD PUSH1 0x1 ADD PUSH0 DUP3 DUP3 SLOAD PUSH2 0x1B81 SWAP2 SWAP1 PUSH2 0x2CB0 JUMP JUMPDEST SWAP3 POP POP DUP2 SWAP1 SSTORE POP PUSH1 0x2 PUSH0 DUP4 PUSH20 0xFFFFFFFFFFFFFFFFFFFFFFFFFFFFFFFFFFFFFFFF AND PUSH20 0xFFFFFFFFFFFFFFFFFFFFFFFFFFFFFFFFFFFFFFFF AND DUP2 MSTORE PUSH1 0x20 ADD SWAP1 DUP2 MSTORE PUSH1 0x20 ADD PUSH0 KECCAK256 SLOAD DUP2 PUSH1 0x1 ADD DUP2 SWAP1 SSTORE POP PUSH1 0x1 PUSH1 0x7 PUSH1 0x1 PUSH1 0x2 PUSH0 DUP7 PUSH20 0xFFFFFFFFFFFFFFFFFFFFFFFFFFFFFFFFFFFFFFFF AND PUSH20 0xFFFFFFFFFFFFFFFFFFFFFFFFFFFFFFFFFFFFFFFF AND DUP2 MSTORE PUSH1 0x20 ADD SWAP1 DUP2 MSTORE PUSH1 0x20 ADD PUSH0 KECCAK256 SLOAD PUSH2 0x1C1C SWAP2 SWAP1 PUSH2 0x2CB0 JUMP JUMPDEST DUP2 SLOAD DUP2 LT PUSH2 0x1C2D JUMPI PUSH2 0x1C2C PUSH2 0x2CE3 JUMP JUMPDEST JUMPDEST SWAP1 PUSH0 MSTORE PUSH1 0x20 PUSH0 KECCAK256 SWAP1 PUSH1 0x2 MUL ADD PUSH1 0x1 ADD PUSH0 DUP3 DUP3 SLOAD PUSH2 0x1C4A SWAP2 SWAP1 PUSH2 0x2F64 JUMP JUMPDEST SWAP3 POP POP DUP2 SWAP1 SSTORE POP POP POP JUMP JUMPDEST PUSH1 0x6 PUSH0 SWAP1 SLOAD SWAP1 PUSH2 0x100 EXP SWAP1 DIV PUSH1 0xFF AND ISZERO PUSH2 0x1CA4 JUMPI PUSH1 0x40 MLOAD PUSH32 0x8C379A000000000000000000000000000000000000000000000000000000000 DUP2 MSTORE PUSH1 0x4 ADD PUSH2 0x1C9B SWAP1 PUSH2 0x2A79 JUMP JUMPDEST PUSH1 0x40 MLOAD DUP1 SWAP2 SUB SWAP1 REVERT JUMPDEST PUSH0 PUSH1 0x2 PUSH0 CALLER PUSH20 0xFFFFFFFFFFFFFFFFFFFFFFFFFFFFFFFFFFFFFFFF AND PUSH20 0xFFFFFFFFFFFFFFFFFFFFFFFFFFFFFFFFFFFFFFFF AND DUP2 MSTORE PUSH1 0x20 ADD SWAP1 DUP2 MSTORE PUSH1 0x20 ADD PUSH0 KECCAK256 SLOAD GT PUSH2 0x1D23 JUMPI PUSH1 0x40 MLOAD PUSH32 0x8C379A000000000000000000000000000000000000000000000000000000000 DUP2 MSTORE PUSH1 0x4 ADD PUSH2 0x1D1A SWAP1 PUSH2 0x34C0 JUMP JUMPDEST PUSH1 0x40 MLOAD DUP1 SWAP2 SUB SWAP1 REVERT JUMPDEST PUSH0 PUSH1 0x3 PUSH0 DUP4 PUSH20 0xFFFFFFFFFFFFFFFFFFFFFFFFFFFFFFFFFFFFFFFF AND PUSH20 0xFFFFFFFFFFFFFFFFFFFFFFFFFFFFFFFFFFFFFFFF AND DUP2 MSTORE PUSH1 0x20 ADD SWAP1 DUP2 MSTORE PUSH1 0x20 ADD PUSH0 KECCAK256 SLOAD SUB PUSH2 0x1F58 JUMPI PUSH1 0x8 PUSH1 0x40 MLOAD DUP1 PUSH1 0xE0 ADD PUSH1 0x40 MSTORE DUP1 DUP4 PUSH20 0xFFFFFFFFFFFFFFFFFFFFFFFFFFFFFFFFFFFFFFFF AND DUP2 MSTORE PUSH1 0x20 ADD PUSH0 ISZERO ISZERO DUP2 MSTORE PUSH1 0x20 ADD PUSH0 ISZERO ISZERO DUP2 MSTORE PUSH1 0x20 ADD PUSH0 ISZERO ISZERO DUP2 MSTORE PUSH1 0x20 ADD PUSH0 DUP2 MSTORE PUSH1 0x20 ADD PUSH0 SLOAD PUSH8 0xFFFFFFFFFFFFFFFF DUP2 GT ISZERO PUSH2 0x1DC9 JUMPI PUSH2 0x1DC8 PUSH2 0x2F97 JUMP JUMPDEST JUMPDEST PUSH1 0x40 MLOAD SWAP1 DUP1 DUP3 MSTORE DUP1 PUSH1 0x20 MUL PUSH1 0x20 ADD DUP3 ADD PUSH1 0x40 MSTORE DUP1 ISZERO PUSH2 0x1DF7 JUMPI DUP2 PUSH1 0x20 ADD PUSH1 0x20 DUP3 MUL DUP1 CALLDATASIZE DUP4 CALLDATACOPY DUP1 DUP3 ADD SWAP2 POP POP SWAP1 POP JUMPDEST POP DUP2 MSTORE PUSH1 0x20 ADD PUSH0 DUP2 MSTORE POP SWAP1 DUP1 PUSH1 0x1 DUP2 SLOAD ADD DUP1 DUP3 SSTORE DUP1 SWAP2 POP POP PUSH1 0x1 SWAP1 SUB SWAP1 PUSH0 MSTORE PUSH1 0x20 PUSH0 KECCAK256 SWAP1 PUSH1 0x4 MUL ADD PUSH0 SWAP1 SWAP2 SWAP1 SWAP2 SWAP1 SWAP2 POP PUSH0 DUP3 ADD MLOAD DUP2 PUSH0 ADD PUSH0 PUSH2 0x100 EXP DUP2 SLOAD DUP2 PUSH20 0xFFFFFFFFFFFFFFFFFFFFFFFFFFFFFFFFFFFFFFFF MUL NOT AND SWAP1 DUP4 PUSH20 0xFFFFFFFFFFFFFFFFFFFFFFFFFFFFFFFFFFFFFFFF AND MUL OR SWAP1 SSTORE POP PUSH1 0x20 DUP3 ADD MLOAD DUP2 PUSH0 ADD PUSH1 0x14 PUSH2 0x100 EXP DUP2 SLOAD DUP2 PUSH1 0xFF MUL NOT AND SWAP1 DUP4 ISZERO ISZERO MUL OR SWAP1 SSTORE POP PUSH1 0x40 DUP3 ADD MLOAD DUP2 PUSH0 ADD PUSH1 0x15 PUSH2 0x100 EXP DUP2 SLOAD DUP2 PUSH1 0xFF MUL NOT AND SWAP1 DUP4 ISZERO ISZERO MUL OR SWAP1 SSTORE POP PUSH1 0x60 DUP3 ADD MLOAD DUP2 PUSH0 ADD PUSH1 0x16 PUSH2 0x100 EXP DUP2 SLOAD DUP2 PUSH1 0xFF MUL NOT AND SWAP1 DUP4 ISZERO ISZERO MUL OR SWAP1 SSTORE POP PUSH1 0x80 DUP3 ADD MLOAD DUP2 PUSH1 0x1 ADD SSTORE PUSH1 0xA0 DUP3 ADD MLOAD DUP2 PUSH1 0x2 ADD SWAP1 DUP1 MLOAD SWAP1 PUSH1 0x20 ADD SWAP1 PUSH2 0x1EEE SWAP3 SWAP2 SWAP1 PUSH2 0x26C0 JUMP JUMPDEST POP PUSH1 0xC0 DUP3 ADD MLOAD DUP2 PUSH1 0x3 ADD SSTORE POP POP PUSH1 0x1 DUP1 PUSH0 DUP3 DUP3 SLOAD PUSH2 0x1F0C SWAP2 SWAP1 PUSH2 0x2F64 JUMP JUMPDEST SWAP3 POP POP DUP2 SWAP1 SSTORE POP PUSH1 0x1 SLOAD PUSH1 0x3 PUSH0 DUP4 PUSH20 0xFFFFFFFFFFFFFFFFFFFFFFFFFFFFFFFFFFFFFFFF AND PUSH20 0xFFFFFFFFFFFFFFFFFFFFFFFFFFFFFFFFFFFFFFFF AND DUP2 MSTORE PUSH1 0x20 ADD SWAP1 DUP2 MSTORE PUSH1 0x20 ADD PUSH0 KECCAK256 DUP2 SWAP1 SSTORE POP JUMPDEST PUSH0 PUSH1 0x8 PUSH1 0x1 PUSH1 0x3 PUSH0 DUP6 PUSH20 0xFFFFFFFFFFFFFFFFFFFFFFFFFFFFFFFFFFFFFFFF AND PUSH20 0xFFFFFFFFFFFFFFFFFFFFFFFFFFFFFFFFFFFFFFFF AND DUP2 MSTORE PUSH1 0x20 ADD SWAP1 DUP2 MSTORE PUSH1 0x20 ADD PUSH0 KECCAK256 SLOAD PUSH2 0x1FA5 SWAP2 SWAP1 PUSH2 0x2CB0 JUMP JUMPDEST DUP2 SLOAD DUP2 LT PUSH2 0x1FB6 JUMPI PUSH2 0x1FB5 PUSH2 0x2CE3 JUMP JUMPDEST JUMPDEST SWAP1 PUSH0 MSTORE PUSH1 0x20 PUSH0 KECCAK256 SWAP1 PUSH1 0x4 MUL ADD SWAP1 POP DUP1 PUSH0 ADD PUSH1 0x14 SWAP1 SLOAD SWAP1 PUSH2 0x100 EXP SWAP1 DIV PUSH1 0xFF AND ISZERO PUSH2 0x2015 JUMPI PUSH1 0x40 MLOAD PUSH32 0x8C379A000000000000000000000000000000000000000000000000000000000 DUP2 MSTORE PUSH1 0x4 ADD PUSH2 0x200C SWAP1 PUSH2 0x354E JUMP JUMPDEST PUSH1 0x40 MLOAD DUP1 SWAP2 SUB SWAP1 REVERT JUMPDEST PUSH0 JUMPDEST DUP2 PUSH1 0x3 ADD SLOAD DUP2 LT ISZERO PUSH2 0x20DB JUMPI DUP2 PUSH1 0x2 ADD DUP2 DUP2 SLOAD DUP2 LT PUSH2 0x2039 JUMPI PUSH2 0x2038 PUSH2 0x2CE3 JUMP JUMPDEST JUMPDEST SWAP1 PUSH0 MSTORE PUSH1 0x20 PUSH0 KECCAK256 ADD PUSH0 SWAP1 SLOAD SWAP1 PUSH2 0x100 EXP SWAP1 DIV PUSH20 0xFFFFFFFFFFFFFFFFFFFFFFFFFFFFFFFFFFFFFFFF AND PUSH20 0xFFFFFFFFFFFFFFFFFFFFFFFFFFFFFFFFFFFFFFFF AND CALLER PUSH20 0xFFFFFFFFFFFFFFFFFFFFFFFFFFFFFFFFFFFFFFFF AND SUB PUSH2 0x20CE JUMPI PUSH1 0x40 MLOAD PUSH32 0x8C379A000000000000000000000000000000000000000000000000000000000 DUP2 MSTORE PUSH1 0x4 ADD PUSH2 0x20C5 SWAP1 PUSH2 0x35DC JUMP JUMPDEST PUSH1 0x40 MLOAD DUP1 SWAP2 SUB SWAP1 REVERT JUMPDEST DUP1 DUP1 PUSH1 0x1 ADD SWAP2 POP POP PUSH2 0x2017 JUMP JUMPDEST POP CALLER DUP2 PUSH1 0x2 ADD DUP3 PUSH1 0x3 ADD SLOAD DUP2 SLOAD DUP2 LT PUSH2 0x20F7 JUMPI PUSH2 0x20F6 PUSH2 0x2CE3 JUMP JUMPDEST JUMPDEST SWAP1 PUSH0 MSTORE PUSH1 0x20 PUSH0 KECCAK256 ADD PUSH0 PUSH2 0x100 EXP DUP2 SLOAD DUP2 PUSH20 0xFFFFFFFFFFFFFFFFFFFFFFFFFFFFFFFFFFFFFFFF MUL NOT AND SWAP1 DUP4 PUSH20 0xFFFFFFFFFFFFFFFFFFFFFFFFFFFFFFFFFFFFFFFF AND MUL OR SWAP1 SSTORE POP PUSH1 0x1 DUP2 PUSH1 0x3 ADD PUSH0 DUP3 DUP3 SLOAD PUSH2 0x2150 SWAP2 SWAP1 PUSH2 0x2F64 JUMP JUMPDEST SWAP3 POP POP DUP2 SWAP1 SSTORE POP PUSH0 SLOAD DUP2 PUSH1 0x3 ADD SLOAD SUB PUSH2 0x2180 JUMPI PUSH1 0x1 DUP2 PUSH0 ADD PUSH1 0x14 PUSH2 0x100 EXP DUP2 SLOAD DUP2 PUSH1 0xFF MUL NOT AND SWAP1 DUP4 ISZERO ISZERO MUL OR SWAP1 SSTORE POP JUMPDEST POP POP JUMP JUMPDEST PUSH1 0x60 PUSH1 0x8 DUP1 SLOAD SWAP1 POP PUSH8 0xFFFFFFFFFFFFFFFF DUP2 GT ISZERO PUSH2 0x21A5 JUMPI PUSH2 0x21A4 PUSH2 0x2F97 JUMP JUMPDEST JUMPDEST PUSH1 0x40 MLOAD SWAP1 DUP1 DUP3 MSTORE DUP1 PUSH1 0x20 MUL PUSH1 0x20 ADD DUP3 ADD PUSH1 0x40 MSTORE DUP1 ISZERO PUSH2 0x21D3 JUMPI DUP2 PUSH1 0x20 ADD PUSH1 0x20 DUP3 MUL DUP1 CALLDATASIZE DUP4 CALLDATACOPY DUP1 DUP3 ADD SWAP2 POP POP SWAP1 POP JUMPDEST POP SWAP1 POP PUSH0 DUP1 JUMPDEST PUSH1 0x8 DUP1 SLOAD SWAP1 POP DUP2 LT ISZERO PUSH2 0x22C7 JUMPI PUSH1 0x8 DUP2 DUP2 SLOAD DUP2 LT PUSH2 0x21FA JUMPI PUSH2 0x21F9 PUSH2 0x2CE3 JUMP JUMPDEST JUMPDEST SWAP1 PUSH0 MSTORE PUSH1 0x20 PUSH0 KECCAK256 SWAP1 PUSH1 0x4 MUL ADD PUSH0 ADD PUSH1 0x15 SWAP1 SLOAD SWAP1 PUSH2 0x100 EXP SWAP1 DIV PUSH1 0xFF AND ISZERO PUSH2 0x22BA JUMPI PUSH1 0x8 DUP2 DUP2 SLOAD DUP2 LT PUSH2 0x222F JUMPI PUSH2 0x222E PUSH2 0x2CE3 JUMP JUMPDEST JUMPDEST SWAP1 PUSH0 MSTORE PUSH1 0x20 PUSH0 KECCAK256 SWAP1 PUSH1 0x4 MUL ADD PUSH0 ADD PUSH0 SWAP1 SLOAD SWAP1 PUSH2 0x100 EXP SWAP1 DIV PUSH20 0xFFFFFFFFFFFFFFFFFFFFFFFFFFFFFFFFFFFFFFFF AND DUP4 DUP4 DUP2 MLOAD DUP2 LT PUSH2 0x2270 JUMPI PUSH2 0x226F PUSH2 0x2CE3 JUMP JUMPDEST JUMPDEST PUSH1 0x20 MUL PUSH1 0x20 ADD ADD SWAP1 PUSH20 0xFFFFFFFFFFFFFFFFFFFFFFFFFFFFFFFFFFFFFFFF AND SWAP1 DUP2 PUSH20 0xFFFFFFFFFFFFFFFFFFFFFFFFFFFFFFFFFFFFFFFF AND DUP2 MSTORE POP POP PUSH1 0x1 DUP3 PUSH2 0x22B7 SWAP2 SWAP1 PUSH2 0x2F64 JUMP JUMPDEST SWAP2 POP JUMPDEST DUP1 DUP1 PUSH1 0x1 ADD SWAP2 POP POP PUSH2 0x21D9 JUMP JUMPDEST POP POP SWAP1 JUMP JUMPDEST PUSH1 0x6 PUSH0 SWAP1 SLOAD SWAP1 PUSH2 0x100 EXP SWAP1 DIV PUSH1 0xFF AND ISZERO PUSH2 0x231B JUMPI PUSH1 0x40 MLOAD PUSH32 0x8C379A000000000000000000000000000000000000000000000000000000000 DUP2 MSTORE PUSH1 0x4 ADD PUSH2 0x2312 SWAP1 PUSH2 0x2A79 JUMP JUMPDEST PUSH1 0x40 MLOAD DUP1 SWAP2 SUB SWAP1 REVERT JUMPDEST PUSH0 PUSH1 0x2 PUSH0 CALLER PUSH20 0xFFFFFFFFFFFFFFFFFFFFFFFFFFFFFFFFFFFFFFFF AND PUSH20 0xFFFFFFFFFFFFFFFFFFFFFFFFFFFFFFFFFFFFFFFF AND DUP2 MSTORE PUSH1 0x20 ADD SWAP1 DUP2 MSTORE PUSH1 0x20 ADD PUSH0 KECCAK256 SLOAD EQ PUSH2 0x239A JUMPI PUSH1 0x40 MLOAD PUSH32 0x8C379A000000000000000000000000000000000000000000000000000000000 DUP2 MSTORE PUSH1 0x4 ADD PUSH2 0x2391 SWAP1 PUSH2 0x2AE1 JUMP JUMPDEST PUSH1 0x40 MLOAD DUP1 SWAP2 SUB SWAP1 REVERT JUMPDEST PUSH0 PUSH1 0x3 PUSH0 CALLER PUSH20 0xFFFFFFFFFFFFFFFFFFFFFFFFFFFFFFFFFFFFFFFF AND PUSH20 0xFFFFFFFFFFFFFFFFFFFFFFFFFFFFFFFFFFFFFFFF AND DUP2 MSTORE PUSH1 0x20 ADD SWAP1 DUP2 MSTORE PUSH1 0x20 ADD PUSH0 KECCAK256 SLOAD GT PUSH2 0x2419 JUMPI PUSH1 0x40 MLOAD PUSH32 0x8C379A000000000000000000000000000000000000000000000000000000000 DUP2 MSTORE PUSH1 0x4 ADD PUSH2 0x2410 SWAP1 PUSH2 0x2B6F JUMP JUMPDEST PUSH1 0x40 MLOAD DUP1 SWAP2 SUB SWAP1 REVERT JUMPDEST PUSH0 PUSH1 0x8 PUSH1 0x1 PUSH1 0x3 PUSH0 CALLER PUSH20 0xFFFFFFFFFFFFFFFFFFFFFFFFFFFFFFFFFFFFFFFF AND PUSH20 0xFFFFFFFFFFFFFFFFFFFFFFFFFFFFFFFFFFFFFFFF AND DUP2 MSTORE PUSH1 0x20 ADD SWAP1 DUP2 MSTORE PUSH1 0x20 ADD PUSH0 KECCAK256 SLOAD PUSH2 0x2466 SWAP2 SWAP1 PUSH2 0x2CB0 JUMP JUMPDEST DUP2 SLOAD DUP2 LT PUSH2 0x2477 JUMPI PUSH2 0x2476 PUSH2 0x2CE3 JUMP JUMPDEST JUMPDEST SWAP1 PUSH0 MSTORE PUSH1 0x20 PUSH0 KECCAK256 SWAP1 PUSH1 0x4 MUL ADD SWAP1 POP DUP1 PUSH0 ADD PUSH1 0x14 SWAP1 SLOAD SWAP1 PUSH2 0x100 EXP SWAP1 DIV PUSH1 0xFF AND PUSH2 0x24D5 JUMPI PUSH1 0x40 MLOAD PUSH32 0x8C379A000000000000000000000000000000000000000000000000000000000 DUP2 MSTORE PUSH1 0x4 ADD PUSH2 0x24CC SWAP1 PUSH2 0x2D80 JUMP JUMPDEST PUSH1 0x40 MLOAD DUP1 SWAP2 SUB SWAP1 REVERT JUMPDEST DUP1 PUSH0 ADD PUSH1 0x15 SWAP1 SLOAD SWAP1 PUSH2 0x100 EXP SWAP1 DIV PUSH1 0xFF AND PUSH2 0x2525 JUMPI PUSH1 0x40 MLOAD PUSH32 0x8C379A000000000000000000000000000000000000000000000000000000000 DUP2 MSTORE PUSH1 0x4 ADD PUSH2 0x251C SWAP1 PUSH2 0x33A4 JUMP JUMPDEST PUSH1 0x40 MLOAD DUP1 SWAP2 SUB SWAP1 REVERT JUMPDEST PUSH1 0x1 PUSH1 0x7 PUSH1 0x1 DUP4 PUSH1 0x1 ADD SLOAD PUSH2 0x253A SWAP2 SWAP1 PUSH2 0x2CB0 JUMP JUMPDEST DUP2 SLOAD DUP2 LT PUSH2 0x254B JUMPI PUSH2 0x254A PUSH2 0x2CE3 JUMP JUMPDEST JUMPDEST SWAP1 PUSH0 MSTORE PUSH1 0x20 PUSH0 KECCAK256 SWAP1 PUSH1 0x2 MUL ADD PUSH1 0x1 ADD PUSH0 DUP3 DUP3 SLOAD PUSH2 0x2568 SWAP2 SWAP1 PUSH2 0x2CB0 JUMP JUMPDEST SWAP3 POP POP DUP2 SWAP1 SSTORE POP PUSH0 DUP2 PUSH0 ADD PUSH1 0x15 PUSH2 0x100 EXP DUP2 SLOAD DUP2 PUSH1 0xFF MUL NOT AND SWAP1 DUP4 ISZERO ISZERO MUL OR SWAP1 SSTORE POP PUSH0 DUP2 PUSH1 0x1 ADD DUP2 SWAP1 SSTORE POP POP JUMP JUMPDEST PUSH0 PUSH1 0x6 PUSH0 SWAP1 SLOAD SWAP1 PUSH2 0x100 EXP SWAP1 DIV PUSH1 0xFF AND PUSH2 0x25E5 JUMPI PUSH1 0x40 MLOAD PUSH32 0x8C379A000000000000000000000000000000000000000000000000000000000 DUP2 MSTORE PUSH1 0x4 ADD PUSH2 0x25DC SWAP1 PUSH2 0x3644 JUMP JUMPDEST PUSH1 0x40 MLOAD DUP1 SWAP2 SUB SWAP1 REVERT JUMPDEST PUSH0 PUSH1 0x2 PUSH1 0x1 SLOAD PUSH2 0x25F5 SWAP2 SWAP1 PUSH2 0x368F JUMP JUMPDEST SWAP1 POP DUP1 PUSH1 0x7 PUSH1 0x1 PUSH1 0x5 SLOAD PUSH2 0x2609 SWAP2 SWAP1 PUSH2 0x2CB0 JUMP JUMPDEST DUP2 SLOAD DUP2 LT PUSH2 0x261A JUMPI PUSH2 0x2619 PUSH2 0x2CE3 JUMP JUMPDEST JUMPDEST SWAP1 PUSH0 MSTORE PUSH1 0x20 PUSH0 KECCAK256 SWAP1 PUSH1 0x2 MUL ADD PUSH1 0x1 ADD SLOAD GT PUSH2 0x266A JUMPI PUSH1 0x40 MLOAD PUSH32 0x8C379A000000000000000000000000000000000000000000000000000000000 DUP2 MSTORE PUSH1 0x4 ADD PUSH2 0x2661 SWAP1 PUSH2 0x3709 JUMP JUMPDEST PUSH1 0x40 MLOAD DUP1 SWAP2 SUB SWAP1 REVERT JUMPDEST PUSH1 0x7 PUSH1 0x1 PUSH1 0x5 SLOAD PUSH2 0x267B SWAP2 SWAP1 PUSH2 0x2CB0 JUMP JUMPDEST DUP2 SLOAD DUP2 LT PUSH2 0x268C JUMPI PUSH2 0x268B PUSH2 0x2CE3 JUMP JUMPDEST JUMPDEST SWAP1 PUSH0 MSTORE PUSH1 0x20 PUSH0 KECCAK256 SWAP1 PUSH1 0x2 MUL ADD PUSH0 ADD PUSH0 SWAP1 SLOAD SWAP1 PUSH2 0x100 EXP SWAP1 DIV PUSH20 0xFFFFFFFFFFFFFFFFFFFFFFFFFFFFFFFFFFFFFFFF AND SWAP2 POP POP SWAP1 JUMP JUMPDEST DUP3 DUP1 SLOAD DUP3 DUP3 SSTORE SWAP1 PUSH0 MSTORE PUSH1 0x20 PUSH0 KECCAK256 SWAP1 DUP2 ADD SWAP3 DUP3 ISZERO PUSH2 0x2736 JUMPI SWAP2 PUSH1 0x20 MUL DUP3 ADD JUMPDEST DUP3 DUP2 GT ISZERO PUSH2 0x2735 JUMPI DUP3 MLOAD DUP3 PUSH0 PUSH2 0x100 EXP DUP2 SLOAD DUP2 PUSH20 0xFFFFFFFFFFFFFFFFFFFFFFFFFFFFFFFFFFFFFFFF MUL NOT AND SWAP1 DUP4 PUSH20 0xFFFFFFFFFFFFFFFFFFFFFFFFFFFFFFFFFFFFFFFF AND MUL OR SWAP1 SSTORE POP SWAP2 PUSH1 0x20 ADD SWAP2 SWAP1 PUSH1 0x1 ADD SWAP1 PUSH2 0x26DE JUMP JUMPDEST JUMPDEST POP SWAP1 POP PUSH2 0x2743 SWAP2 SWAP1 PUSH2 0x2747 JUMP JUMPDEST POP SWAP1 JUMP JUMPDEST JUMPDEST DUP1 DUP3 GT ISZERO PUSH2 0x275E JUMPI PUSH0 DUP2 PUSH0 SWAP1 SSTORE POP PUSH1 0x1 ADD PUSH2 0x2748 JUMP JUMPDEST POP SWAP1 JUMP JUMPDEST PUSH0 DUP1 REVERT JUMPDEST PUSH0 PUSH20 0xFFFFFFFFFFFFFFFFFFFFFFFFFFFFFFFFFFFFFFFF DUP3 AND SWAP1 POP SWAP2 SWAP1 POP JUMP JUMPDEST PUSH0 PUSH2 0x278F DUP3 PUSH2 0x2766 JUMP JUMPDEST SWAP1 POP SWAP2 SWAP1 POP JUMP JUMPDEST PUSH2 0x279F DUP2 PUSH2 0x2785 JUMP JUMPDEST DUP2 EQ PUSH2 0x27A9 JUMPI PUSH0 DUP1 REVERT JUMPDEST POP JUMP JUMPDEST PUSH0 DUP2 CALLDATALOAD SWAP1 POP PUSH2 0x27BA DUP2 PUSH2 0x2796 JUMP JUMPDEST SWAP3 SWAP2 POP POP JUMP JUMPDEST PUSH0 PUSH1 0x20 DUP3 DUP5 SUB SLT ISZERO PUSH2 0x27D5 JUMPI PUSH2 0x27D4 PUSH2 0x2762 JUMP JUMPDEST JUMPDEST PUSH0 PUSH2 0x27E2 DUP5 DUP3 DUP6 ADD PUSH2 0x27AC JUMP JUMPDEST SWAP2 POP POP SWAP3 SWAP2 POP POP JUMP JUMPDEST PUSH0 DUP2 MLOAD SWAP1 POP SWAP2 SWAP1 POP JUMP JUMPDEST PUSH0 DUP3 DUP3 MSTORE PUSH1 0x20 DUP3 ADD SWAP1 POP SWAP3 SWAP2 POP POP JUMP JUMPDEST PUSH0 DUP2 SWAP1 POP PUSH1 0x20 DUP3 ADD SWAP1 POP SWAP2 SWAP1 POP JUMP JUMPDEST PUSH0 DUP2 SWAP1 POP SWAP2 SWAP1 POP JUMP JUMPDEST PUSH2 0x2826 DUP2 PUSH2 0x2814 JUMP JUMPDEST DUP3 MSTORE POP POP JUMP JUMPDEST PUSH0 PUSH2 0x2837 DUP4 DUP4 PUSH2 0x281D JUMP JUMPDEST PUSH1 0x20 DUP4 ADD SWAP1 POP SWAP3 SWAP2 POP POP JUMP JUMPDEST PUSH0 PUSH1 0x20 DUP3 ADD SWAP1 POP SWAP2 SWAP1 POP JUMP JUMPDEST PUSH0 PUSH2 0x2859 DUP3 PUSH2 0x27EB JUMP JUMPDEST PUSH2 0x2863 DUP2 DUP6 PUSH2 0x27F5 JUMP JUMPDEST SWAP4 POP PUSH2 0x286E DUP4 PUSH2 0x2805 JUMP JUMPDEST DUP1 PUSH0 JUMPDEST DUP4 DUP2 LT ISZERO PUSH2 0x289E JUMPI DUP2 MLOAD PUSH2 0x2885 DUP9 DUP3 PUSH2 0x282C JUMP JUMPDEST SWAP8 POP PUSH2 0x2890 DUP4 PUSH2 0x2843 JUMP JUMPDEST SWAP3 POP POP PUSH1 0x1 DUP2 ADD SWAP1 POP PUSH2 0x2871 JUMP JUMPDEST POP DUP6 SWAP4 POP POP POP POP SWAP3 SWAP2 POP POP JUMP JUMPDEST PUSH0 PUSH1 0x20 DUP3 ADD SWAP1 POP DUP2 DUP2 SUB PUSH0 DUP4 ADD MSTORE PUSH2 0x28C3 DUP2 DUP5 PUSH2 0x284F JUMP JUMPDEST SWAP1 POP SWAP3 SWAP2 POP POP JUMP JUMPDEST PUSH0 DUP2 MLOAD SWAP1 POP SWAP2 SWAP1 POP JUMP JUMPDEST PUSH0 DUP3 DUP3 MSTORE PUSH1 0x20 DUP3 ADD SWAP1 POP SWAP3 SWAP2 POP POP JUMP JUMPDEST PUSH0 DUP2 SWAP1 POP PUSH1 0x20 DUP3 ADD SWAP1 POP SWAP2 SWAP1 POP JUMP JUMPDEST PUSH2 0x28FD DUP2 PUSH2 0x2785 JUMP JUMPDEST DUP3 MSTORE POP POP JUMP JUMPDEST PUSH0 PUSH2 0x290E DUP4 DUP4 PUSH2 0x28F4 JUMP JUMPDEST PUSH1 0x20 DUP4 ADD SWAP1 POP SWAP3 SWAP2 POP POP JUMP JUMPDEST PUSH0 PUSH1 0x20 DUP3 ADD SWAP1 POP SWAP2 SWAP1 POP JUMP JUMPDEST PUSH0 PUSH2 0x2930 DUP3 PUSH2 0x28CB JUMP JUMPDEST PUSH2 0x293A DUP2 DUP6 PUSH2 0x28D5 JUMP JUMPDEST SWAP4 POP PUSH2 0x2945 DUP4 PUSH2 0x28E5 JUMP JUMPDEST DUP1 PUSH0 JUMPDEST DUP4 DUP2 LT ISZERO PUSH2 0x2975 JUMPI DUP2 MLOAD PUSH2 0x295C DUP9 DUP3 PUSH2 0x2903 JUMP JUMPDEST SWAP8 POP PUSH2 0x2967 DUP4 PUSH2 0x291A JUMP JUMPDEST SWAP3 POP POP PUSH1 0x1 DUP2 ADD SWAP1 POP PUSH2 0x2948 JUMP JUMPDEST POP DUP6 SWAP4 POP POP POP POP SWAP3 SWAP2 POP POP JUMP JUMPDEST PUSH0 PUSH1 0x20 DUP3 ADD SWAP1 POP DUP2 DUP2 SUB PUSH0 DUP4 ADD MSTORE PUSH2 0x299A DUP2 DUP5 PUSH2 0x2926 JUMP JUMPDEST SWAP1 POP SWAP3 SWAP2 POP POP JUMP JUMPDEST PUSH2 0x29AB DUP2 PUSH2 0x2814 JUMP JUMPDEST DUP2 EQ PUSH2 0x29B5 JUMPI PUSH0 DUP1 REVERT JUMPDEST POP JUMP JUMPDEST PUSH0 DUP2 CALLDATALOAD SWAP1 POP PUSH2 0x29C6 DUP2 PUSH2 0x29A2 JUMP JUMPDEST SWAP3 SWAP2 POP POP JUMP JUMPDEST PUSH0 PUSH1 0x20 DUP3 DUP5 SUB SLT ISZERO PUSH2 0x29E1 JUMPI PUSH2 0x29E0 PUSH2 0x2762 JUMP JUMPDEST JUMPDEST PUSH0 PUSH2 0x29EE DUP5 DUP3 DUP6 ADD PUSH2 0x29B8 JUMP JUMPDEST SWAP2 POP POP SWAP3 SWAP2 POP POP JUMP JUMPDEST PUSH2 0x2A00 DUP2 PUSH2 0x2785 JUMP JUMPDEST DUP3 MSTORE POP POP JUMP JUMPDEST PUSH0 PUSH1 0x20 DUP3 ADD SWAP1 POP PUSH2 0x2A19 PUSH0 DUP4 ADD DUP5 PUSH2 0x29F7 JUMP JUMPDEST SWAP3 SWAP2 POP POP JUMP JUMPDEST PUSH0 DUP3 DUP3 MSTORE PUSH1 0x20 DUP3 ADD SWAP1 POP SWAP3 SWAP2 POP POP JUMP JUMPDEST PUSH32 0x456C656374696F6E2068617320616C72656164792066696E6973686564000000 PUSH0 DUP3 ADD MSTORE POP JUMP JUMPDEST PUSH0 PUSH2 0x2A63 PUSH1 0x1D DUP4 PUSH2 0x2A1F JUMP JUMPDEST SWAP2 POP PUSH2 0x2A6E DUP3 PUSH2 0x2A2F JUMP JUMPDEST PUSH1 0x20 DUP3 ADD SWAP1 POP SWAP2 SWAP1 POP JUMP JUMPDEST PUSH0 PUSH1 0x20 DUP3 ADD SWAP1 POP DUP2 DUP2 SUB PUSH0 DUP4 ADD MSTORE PUSH2 0x2A90 DUP2 PUSH2 0x2A57 JUMP JUMPDEST SWAP1 POP SWAP2 SWAP1 POP JUMP JUMPDEST PUSH32 0x4F6E6C7920766F746572732063616E206361737420766F746500000000000000 PUSH0 DUP3 ADD MSTORE POP JUMP JUMPDEST PUSH0 PUSH2 0x2ACB PUSH1 0x19 DUP4 PUSH2 0x2A1F JUMP JUMPDEST SWAP2 POP PUSH2 0x2AD6 DUP3 PUSH2 0x2A97 JUMP JUMPDEST PUSH1 0x20 DUP3 ADD SWAP1 POP SWAP2 SWAP1 POP JUMP JUMPDEST PUSH0 PUSH1 0x20 DUP3 ADD SWAP1 POP DUP2 DUP2 SUB PUSH0 DUP4 ADD MSTORE PUSH2 0x2AF8 DUP2 PUSH2 0x2ABF JUMP JUMPDEST SWAP1 POP SWAP2 SWAP1 POP JUMP JUMPDEST PUSH32 0x566F746572206973206E6F7420616464656420696E2074686520656C65637469 PUSH0 DUP3 ADD MSTORE PUSH32 0x6F6E000000000000000000000000000000000000000000000000000000000000 PUSH1 0x20 DUP3 ADD MSTORE POP JUMP JUMPDEST PUSH0 PUSH2 0x2B59 PUSH1 0x22 DUP4 PUSH2 0x2A1F JUMP JUMPDEST SWAP2 POP PUSH2 0x2B64 DUP3 PUSH2 0x2AFF JUMP JUMPDEST PUSH1 0x40 DUP3 ADD SWAP1 POP SWAP2 SWAP1 POP JUMP JUMPDEST PUSH0 PUSH1 0x20 DUP3 ADD SWAP1 POP DUP2 DUP2 SUB PUSH0 DUP4 ADD MSTORE PUSH2 0x2B86 DUP2 PUSH2 0x2B4D JUMP JUMPDEST SWAP1 POP SWAP2 SWAP1 POP JUMP JUMPDEST PUSH32 0x566F7465722063616E6E6F742062652064656C656761746564206279206F7468 PUSH0 DUP3 ADD MSTORE PUSH32 0x657220766F746572000000000000000000000000000000000000000000000000 PUSH1 0x20 DUP3 ADD MSTORE POP JUMP JUMPDEST PUSH0 PUSH2 0x2BE7 PUSH1 0x28 DUP4 PUSH2 0x2A1F JUMP JUMPDEST SWAP2 POP PUSH2 0x2BF2 DUP3 PUSH2 0x2B8D JUMP JUMPDEST PUSH1 0x40 DUP3 ADD SWAP1 POP SWAP2 SWAP1 POP JUMP JUMPDEST PUSH0 PUSH1 0x20 DUP3 ADD SWAP1 POP DUP2 DUP2 SUB PUSH0 DUP4 ADD MSTORE PUSH2 0x2C14 DUP2 PUSH2 0x2BDB JUMP JUMPDEST SWAP1 POP SWAP2 SWAP1 POP JUMP JUMPDEST PUSH32 0x43616E6469646174652063616E6E6F7420766F74650000000000000000000000 PUSH0 DUP3 ADD MSTORE POP JUMP JUMPDEST PUSH0 PUSH2 0x2C4F PUSH1 0x15 DUP4 PUSH2 0x2A1F JUMP JUMPDEST SWAP2 POP PUSH2 0x2C5A DUP3 PUSH2 0x2C1B JUMP JUMPDEST PUSH1 0x20 DUP3 ADD SWAP1 POP SWAP2 SWAP1 POP JUMP JUMPDEST PUSH0 PUSH1 0x20 DUP3 ADD SWAP1 POP DUP2 DUP2 SUB PUSH0 DUP4 ADD MSTORE PUSH2 0x2C7C DUP2 PUSH2 0x2C43 JUMP JUMPDEST SWAP1 POP SWAP2 SWAP1 POP JUMP JUMPDEST PUSH32 0x4E487B7100000000000000000000000000000000000000000000000000000000 PUSH0 MSTORE PUSH1 0x11 PUSH1 0x4 MSTORE PUSH1 0x24 PUSH0 REVERT JUMPDEST PUSH0 PUSH2 0x2CBA DUP3 PUSH2 0x2814 JUMP JUMPDEST SWAP2 POP PUSH2 0x2CC5 DUP4 PUSH2 0x2814 JUMP JUMPDEST SWAP3 POP DUP3 DUP3 SUB SWAP1 POP DUP2 DUP2 GT ISZERO PUSH2 0x2CDD JUMPI PUSH2 0x2CDC PUSH2 0x2C83 JUMP JUMPDEST JUMPDEST SWAP3 SWAP2 POP POP JUMP JUMPDEST PUSH32 0x4E487B7100000000000000000000000000000000000000000000000000000000 PUSH0 MSTORE PUSH1 0x32 PUSH1 0x4 MSTORE PUSH1 0x24 PUSH0 REVERT JUMPDEST PUSH32 0x566F746572206973206E6F742079657420656C696769626C6520746F20636173 PUSH0 DUP3 ADD MSTORE PUSH32 0x7420766F74650000000000000000000000000000000000000000000000000000 PUSH1 0x20 DUP3 ADD MSTORE POP JUMP JUMPDEST PUSH0 PUSH2 0x2D6A PUSH1 0x26 DUP4 PUSH2 0x2A1F JUMP JUMPDEST SWAP2 POP PUSH2 0x2D75 DUP3 PUSH2 0x2D10 JUMP JUMPDEST PUSH1 0x40 DUP3 ADD SWAP1 POP SWAP2 SWAP1 POP JUMP JUMPDEST PUSH0 PUSH1 0x20 DUP3 ADD SWAP1 POP DUP2 DUP2 SUB PUSH0 DUP4 ADD MSTORE PUSH2 0x2D97 DUP2 PUSH2 0x2D5E JUMP JUMPDEST SWAP1 POP SWAP2 SWAP1 POP JUMP JUMPDEST PUSH32 0x566F7465722068617320616C726561647920636173742069747320766F746520 PUSH0 DUP3 ADD MSTORE PUSH32 0x7965740000000000000000000000000000000000000000000000000000000000 PUSH1 0x20 DUP3 ADD MSTORE POP JUMP JUMPDEST PUSH0 PUSH2 0x2DF8 PUSH1 0x23 DUP4 PUSH2 0x2A1F JUMP JUMPDEST SWAP2 POP PUSH2 0x2E03 DUP3 PUSH2 0x2D9E JUMP JUMPDEST PUSH1 0x40 DUP3 ADD SWAP1 POP SWAP2 SWAP1 POP JUMP JUMPDEST PUSH0 PUSH1 0x20 DUP3 ADD SWAP1 POP DUP2 DUP2 SUB PUSH0 DUP4 ADD MSTORE PUSH2 0x2E25 DUP2 PUSH2 0x2DEC JUMP JUMPDEST SWAP1 POP SWAP2 SWAP1 POP JUMP JUMPDEST PUSH32 0x43616E64696461746520646F206E6F7420657869737400000000000000000000 PUSH0 DUP3 ADD MSTORE POP JUMP JUMPDEST PUSH0 PUSH2 0x2E60 PUSH1 0x16 DUP4 PUSH2 0x2A1F JUMP JUMPDEST SWAP2 POP PUSH2 0x2E6B DUP3 PUSH2 0x2E2C JUMP JUMPDEST PUSH1 0x20 DUP3 ADD SWAP1 POP SWAP2 SWAP1 POP JUMP JUMPDEST PUSH0 PUSH1 0x20 DUP3 ADD SWAP1 POP DUP2 DUP2 SUB PUSH0 DUP4 ADD MSTORE PUSH2 0x2E8D DUP2 PUSH2 0x2E54 JUMP JUMPDEST SWAP1 POP SWAP2 SWAP1 POP JUMP JUMPDEST PUSH32 0x4E6F20726967687420746F20766F746520696E2074686520656C656374696F6E PUSH0 DUP3 ADD MSTORE POP JUMP JUMPDEST PUSH0 PUSH2 0x2EC8 PUSH1 0x20 DUP4 PUSH2 0x2A1F JUMP JUMPDEST SWAP2 POP PUSH2 0x2ED3 DUP3 PUSH2 0x2E94 JUMP JUMPDEST PUSH1 0x20 DUP3 ADD SWAP1 POP SWAP2 SWAP1 POP JUMP JUMPDEST PUSH0 PUSH1 0x20 DUP3 ADD SWAP1 POP DUP2 DUP2 SUB PUSH0 DUP4 ADD MSTORE PUSH2 0x2EF5 DUP2 PUSH2 0x2EBC JUMP JUMPDEST SWAP1 POP SWAP2 SWAP1 POP JUMP JUMPDEST PUSH32 0x566F74657220646F6573206E6F742061737369676E20746865697220766F7465 PUSH0 DUP3 ADD MSTORE POP JUMP JUMPDEST PUSH0 PUSH2 0x2F30 PUSH1 0x20 DUP4 PUSH2 0x2A1F JUMP JUMPDEST SWAP2 POP PUSH2 0x2F3B DUP3 PUSH2 0x2EFC JUMP JUMPDEST PUSH1 0x20 DUP3 ADD SWAP1 POP SWAP2 SWAP1 POP JUMP JUMPDEST PUSH0 PUSH1 0x20 DUP3 ADD SWAP1 POP DUP2 DUP2 SUB PUSH0 DUP4 ADD MSTORE PUSH2 0x2F5D DUP2 PUSH2 0x2F24 JUMP JUMPDEST SWAP1 POP SWAP2 SWAP1 POP JUMP JUMPDEST PUSH0 PUSH2 0x2F6E DUP3 PUSH2 0x2814 JUMP JUMPDEST SWAP2 POP PUSH2 0x2F79 DUP4 PUSH2 0x2814 JUMP JUMPDEST SWAP3 POP DUP3 DUP3 ADD SWAP1 POP DUP1 DUP3 GT ISZERO PUSH2 0x2F91 JUMPI PUSH2 0x2F90 PUSH2 0x2C83 JUMP JUMPDEST JUMPDEST SWAP3 SWAP2 POP POP JUMP JUMPDEST PUSH32 0x4E487B7100000000000000000000000000000000000000000000000000000000 PUSH0 MSTORE PUSH1 0x41 PUSH1 0x4 MSTORE PUSH1 0x24 PUSH0 REVERT JUMPDEST PUSH32 0x566F7465722068617320616C726561647920636173742069747320766F746500 PUSH0 DUP3 ADD MSTORE POP JUMP JUMPDEST PUSH0 PUSH2 0x2FF8 PUSH1 0x1F DUP4 PUSH2 0x2A1F JUMP JUMPDEST SWAP2 POP PUSH2 0x3003 DUP3 PUSH2 0x2FC4 JUMP JUMPDEST PUSH1 0x20 DUP3 ADD SWAP1 POP SWAP2 SWAP1 POP JUMP JUMPDEST PUSH0 PUSH1 0x20 DUP3 ADD SWAP1 POP DUP2 DUP2 SUB PUSH0 DUP4 ADD MSTORE PUSH2 0x3025 DUP2 PUSH2 0x2FEC JUMP JUMPDEST SWAP1 POP SWAP2 SWAP1 POP JUMP JUMPDEST PUSH32 0x43616E646964617465204964206D757374206265203E20300000000000000000 PUSH0 DUP3 ADD MSTORE POP JUMP JUMPDEST PUSH0 PUSH2 0x3060 PUSH1 0x18 DUP4 PUSH2 0x2A1F JUMP JUMPDEST SWAP2 POP PUSH2 0x306B DUP3 PUSH2 0x302C JUMP JUMPDEST PUSH1 0x20 DUP3 ADD SWAP1 POP SWAP2 SWAP1 POP JUMP JUMPDEST PUSH0 PUSH1 0x20 DUP3 ADD SWAP1 POP DUP2 DUP2 SUB PUSH0 DUP4 ADD MSTORE PUSH2 0x308D DUP2 PUSH2 0x3054 JUMP JUMPDEST SWAP1 POP SWAP2 SWAP1 POP JUMP JUMPDEST PUSH32 0x43616E64696461746520496420646F206E6F7420657869737400000000000000 PUSH0 DUP3 ADD MSTORE POP JUMP JUMPDEST PUSH0 PUSH2 0x30C8 PUSH1 0x19 DUP4 PUSH2 0x2A1F JUMP JUMPDEST SWAP2 POP PUSH2 0x30D3 DUP3 PUSH2 0x3094 JUMP JUMPDEST PUSH1 0x20 DUP3 ADD SWAP1 POP SWAP2 SWAP1 POP JUMP JUMPDEST PUSH0 PUSH1 0x20 DUP3 ADD SWAP1 POP DUP2 DUP2 SUB PUSH0 DUP4 ADD MSTORE PUSH2 0x30F5 DUP2 PUSH2 0x30BC JUMP JUMPDEST SWAP1 POP SWAP2 SWAP1 POP JUMP JUMPDEST PUSH32 0x456C656374696F6E20686173206E6F742066696E697368656420796574000000 PUSH0 DUP3 ADD MSTORE POP JUMP JUMPDEST PUSH0 PUSH2 0x3130 PUSH1 0x1D DUP4 PUSH2 0x2A1F JUMP JUMPDEST SWAP2 POP PUSH2 0x313B DUP3 PUSH2 0x30FC JUMP JUMPDEST PUSH1 0x20 DUP3 ADD SWAP1 POP SWAP2 SWAP1 POP JUMP JUMPDEST PUSH0 PUSH1 0x20 DUP3 ADD SWAP1 POP DUP2 DUP2 SUB PUSH0 DUP4 ADD MSTORE PUSH2 0x315D DUP2 PUSH2 0x3124 JUMP JUMPDEST SWAP1 POP SWAP2 SWAP1 POP JUMP JUMPDEST PUSH32 0x4F6E6C792063616E6469646174652063616E2063616C6C20746869732066756E PUSH0 DUP3 ADD MSTORE PUSH32 0x6374696F6E000000000000000000000000000000000000000000000000000000 PUSH1 0x20 DUP3 ADD MSTORE POP JUMP JUMPDEST PUSH0 PUSH2 0x31BE PUSH1 0x25 DUP4 PUSH2 0x2A1F JUMP JUMPDEST SWAP2 POP PUSH2 0x31C9 DUP3 PUSH2 0x3164 JUMP JUMPDEST PUSH1 0x40 DUP3 ADD SWAP1 POP SWAP2 SWAP1 POP JUMP JUMPDEST PUSH0 PUSH1 0x20 DUP3 ADD SWAP1 POP DUP2 DUP2 SUB PUSH0 DUP4 ADD MSTORE PUSH2 0x31EB DUP2 PUSH2 0x31B2 JUMP JUMPDEST SWAP1 POP SWAP2 SWAP1 POP JUMP JUMPDEST PUSH32 0x596F75206861766520616C72656164792063616C6C656420746869732066756E PUSH0 DUP3 ADD MSTORE PUSH32 0x6374696F6E2E205761697420666F72206F746865722063616E64696461746573 PUSH1 0x20 DUP3 ADD MSTORE PUSH32 0x20746F2063616C6C207265737461727420746F20656C656374696F6E00000000 PUSH1 0x40 DUP3 ADD MSTORE POP JUMP JUMPDEST PUSH0 PUSH2 0x3272 PUSH1 0x5C DUP4 PUSH2 0x2A1F JUMP JUMPDEST SWAP2 POP PUSH2 0x327D DUP3 PUSH2 0x31F2 JUMP JUMPDEST PUSH1 0x60 DUP3 ADD SWAP1 POP SWAP2 SWAP1 POP JUMP JUMPDEST PUSH0 PUSH1 0x20 DUP3 ADD SWAP1 POP DUP2 DUP2 SUB PUSH0 DUP4 ADD MSTORE PUSH2 0x329F DUP2 PUSH2 0x3266 JUMP JUMPDEST SWAP1 POP SWAP2 SWAP1 POP JUMP JUMPDEST PUSH32 0x596F75206861766520616C72656164792063616C6C656420746869732066756E PUSH0 DUP3 ADD MSTORE PUSH32 0x6374696F6E2E205761697420666F72206F746865722063616E64696461746573 PUSH1 0x20 DUP3 ADD MSTORE PUSH32 0x20746F2063616C6C20656E6420746F20656C656374696F6E0000000000000000 PUSH1 0x40 DUP3 ADD MSTORE POP JUMP JUMPDEST PUSH0 PUSH2 0x3326 PUSH1 0x58 DUP4 PUSH2 0x2A1F JUMP JUMPDEST SWAP2 POP PUSH2 0x3331 DUP3 PUSH2 0x32A6 JUMP JUMPDEST PUSH1 0x60 DUP3 ADD SWAP1 POP SWAP2 SWAP1 POP JUMP JUMPDEST PUSH0 PUSH1 0x20 DUP3 ADD SWAP1 POP DUP2 DUP2 SUB PUSH0 DUP4 ADD MSTORE PUSH2 0x3353 DUP2 PUSH2 0x331A JUMP JUMPDEST SWAP1 POP SWAP2 SWAP1 POP JUMP JUMPDEST PUSH32 0x566F74657220686173206E6F7420636173742069747320766F74652079657400 PUSH0 DUP3 ADD MSTORE POP JUMP JUMPDEST PUSH0 PUSH2 0x338E PUSH1 0x1F DUP4 PUSH2 0x2A1F JUMP JUMPDEST SWAP2 POP PUSH2 0x3399 DUP3 PUSH2 0x335A JUMP JUMPDEST PUSH1 0x20 DUP3 ADD SWAP1 POP SWAP2 SWAP1 POP JUMP JUMPDEST PUSH0 PUSH1 0x20 DUP3 ADD SWAP1 POP DUP2 DUP2 SUB PUSH0 DUP4 ADD MSTORE PUSH2 0x33BB DUP2 PUSH2 0x3382 JUMP JUMPDEST SWAP1 POP SWAP2 SWAP1 POP JUMP JUMPDEST PUSH32 0x566F74657220766F746520666F72207468652073616D652063616E6469646174 PUSH0 DUP3 ADD MSTORE PUSH32 0x6500000000000000000000000000000000000000000000000000000000000000 PUSH1 0x20 DUP3 ADD MSTORE POP JUMP JUMPDEST PUSH0 PUSH2 0x341C PUSH1 0x21 DUP4 PUSH2 0x2A1F JUMP JUMPDEST SWAP2 POP PUSH2 0x3427 DUP3 PUSH2 0x33C2 JUMP JUMPDEST PUSH1 0x40 DUP3 ADD SWAP1 POP SWAP2 SWAP1 POP JUMP JUMPDEST PUSH0 PUSH1 0x20 DUP3 ADD SWAP1 POP DUP2 DUP2 SUB PUSH0 DUP4 ADD MSTORE PUSH2 0x3449 DUP2 PUSH2 0x3410 JUMP JUMPDEST SWAP1 POP SWAP2 SWAP1 POP JUMP JUMPDEST PUSH32 0x4F6E6C792063616E6469646174652063616E2077686974656C69737420746865 PUSH0 DUP3 ADD MSTORE PUSH32 0x20766F7465720000000000000000000000000000000000000000000000000000 PUSH1 0x20 DUP3 ADD MSTORE POP JUMP JUMPDEST PUSH0 PUSH2 0x34AA PUSH1 0x26 DUP4 PUSH2 0x2A1F JUMP JUMPDEST SWAP2 POP PUSH2 0x34B5 DUP3 PUSH2 0x3450 JUMP JUMPDEST PUSH1 0x40 DUP3 ADD SWAP1 POP SWAP2 SWAP1 POP JUMP JUMPDEST PUSH0 PUSH1 0x20 DUP3 ADD SWAP1 POP DUP2 DUP2 SUB PUSH0 DUP4 ADD MSTORE PUSH2 0x34D7 DUP2 PUSH2 0x349E JUMP JUMPDEST SWAP1 POP SWAP2 SWAP1 POP JUMP JUMPDEST PUSH32 0x566F74657220697320616C726561647920656C696769626C6520746F20766F74 PUSH0 DUP3 ADD MSTORE PUSH32 0x6500000000000000000000000000000000000000000000000000000000000000 PUSH1 0x20 DUP3 ADD MSTORE POP JUMP JUMPDEST PUSH0 PUSH2 0x3538 PUSH1 0x21 DUP4 PUSH2 0x2A1F JUMP JUMPDEST SWAP2 POP PUSH2 0x3543 DUP3 PUSH2 0x34DE JUMP JUMPDEST PUSH1 0x40 DUP3 ADD SWAP1 POP SWAP2 SWAP1 POP JUMP JUMPDEST PUSH0 PUSH1 0x20 DUP3 ADD SWAP1 POP DUP2 DUP2 SUB PUSH0 DUP4 ADD MSTORE PUSH2 0x3565 DUP2 PUSH2 0x352C JUMP JUMPDEST SWAP1 POP SWAP2 SWAP1 POP JUMP JUMPDEST PUSH32 0x566F7465722068617320616C7265616479206265656E2077686974656C697374 PUSH0 DUP3 ADD MSTORE PUSH32 0x656420627920796F750000000000000000000000000000000000000000000000 PUSH1 0x20 DUP3 ADD MSTORE POP JUMP JUMPDEST PUSH0 PUSH2 0x35C6 PUSH1 0x29 DUP4 PUSH2 0x2A1F JUMP JUMPDEST SWAP2 POP PUSH2 0x35D1 DUP3 PUSH2 0x356C JUMP JUMPDEST PUSH1 0x40 DUP3 ADD SWAP1 POP SWAP2 SWAP1 POP JUMP JUMPDEST PUSH0 PUSH1 0x20 DUP3 ADD SWAP1 POP DUP2 DUP2 SUB PUSH0 DUP4 ADD MSTORE PUSH2 0x35F3 DUP2 PUSH2 0x35BA JUMP JUMPDEST SWAP1 POP SWAP2 SWAP1 POP JUMP JUMPDEST PUSH32 0x54686520656C656374696F6E206973207374696C6C2072756E6E696E67000000 PUSH0 DUP3 ADD MSTORE POP JUMP JUMPDEST PUSH0 PUSH2 0x362E PUSH1 0x1D DUP4 PUSH2 0x2A1F JUMP JUMPDEST SWAP2 POP PUSH2 0x3639 DUP3 PUSH2 0x35FA JUMP JUMPDEST PUSH1 0x20 DUP3 ADD SWAP1 POP SWAP2 SWAP1 POP JUMP JUMPDEST PUSH0 PUSH1 0x20 DUP3 ADD SWAP1 POP DUP2 DUP2 SUB PUSH0 DUP4 ADD MSTORE PUSH2 0x365B DUP2 PUSH2 0x3622 JUMP JUMPDEST SWAP1 POP SWAP2 SWAP1 POP JUMP JUMPDEST PUSH32 0x4E487B7100000000000000000000000000000000000000000000000000000000 PUSH0 MSTORE PUSH1 0x12 PUSH1 0x4 MSTORE PUSH1 0x24 PUSH0 REVERT JUMPDEST PUSH0 PUSH2 0x3699 DUP3 PUSH2 0x2814 JUMP JUMPDEST SWAP2 POP PUSH2 0x36A4 DUP4 PUSH2 0x2814 JUMP JUMPDEST SWAP3 POP DUP3 PUSH2 0x36B4 JUMPI PUSH2 0x36B3 PUSH2 0x3662 JUMP JUMPDEST JUMPDEST DUP3 DUP3 DIV SWAP1 POP SWAP3 SWAP2 POP POP JUMP JUMPDEST PUSH32 0x4E6F2063616E6469646174652077696E2074686520656C656374696F6E000000 PUSH0 DUP3 ADD MSTORE POP JUMP JUMPDEST PUSH0 PUSH2 0x36F3 PUSH1 0x1D DUP4 PUSH2 0x2A1F JUMP JUMPDEST SWAP2 POP PUSH2 0x36FE DUP3 PUSH2 0x36BF JUMP JUMPDEST PUSH1 0x20 DUP3 ADD SWAP1 POP SWAP2 SWAP1 POP JUMP JUMPDEST PUSH0 PUSH1 0x20 DUP3 ADD SWAP1 POP DUP2 DUP2 SUB PUSH0 DUP4 ADD MSTORE PUSH2 0x3720 DUP2 PUSH2 0x36E7 JUMP JUMPDEST SWAP1 POP SWAP2 SWAP1 POP JUMP INVALID LOG2 PUSH5 0x6970667358 0x22 SLT KECCAK256 PUSH28 0x2B9DDBFECCF3A0E0A05B1D89700E76D72A6567B6ED701C1F5C1135C3 PUSH18 0xA0C064736F6C634300081A00330000000000 "
				},
				"gasEstimates": {
					"creation": {
						"codeDepositCost": "2834600",
						"executionCost": "infinite",
						"totalCost": "infinite"
					},
					"external": {
						"electionCandidates()": "infinite",
						"eligibleVoters()": "infinite",
						"endElection()": "infinite",
						"getCandidate(uint256)": "infinite",
						"getWinningCandidate()": "infinite",
						"realTimeVote()": "infinite",
						"restartElection()": "infinite",
						"voteAsDelegate(address)": "infinite",
						"voteCandidate(address)": "infinite",
						"voteChange(address)": "infinite",
						"voteRevoke()": "infinite",
						"votedVoters()": "infinite",
						"voterDelegate(address)": "infinite",
						"whitelistVoter(address)": "infinite"
					}
				},
				"methodIdentifiers": {
					"electionCandidates()": "721f720c",
					"eligibleVoters()": "1e974c69",
					"endElection()": "59f78468",
					"getCandidate(uint256)": "35b8e820",
					"getWinningCandidate()": "f927cc29",
					"realTimeVote()": "13852ab7",
					"restartElection()": "3d946c53",
					"voteAsDelegate(address)": "1169481a",
					"voteCandidate(address)": "26bb886d",
					"voteChange(address)": "88c30cf2",
					"voteRevoke()": "f31ffe1e",
					"votedVoters()": "d4133741",
					"voterDelegate(address)": "0c1aebf8",
					"whitelistVoter(address)": "bddf1ce9"
				}
			},
			"storageLayout": {
				"storage": [
					{
						"astId": 25,
						"contract": "contract/voting.sol:Election",
						"label": "numCandidates",
						"offset": 0,
						"slot": "0",
						"type": "t_uint256"
					},
					{
						"astId": 28,
						"contract": "contract/voting.sol:Election",
						"label": "numVoters",
						"offset": 0,
						"slot": "1",
						"type": "t_uint256"
					},
					{
						"astId": 32,
						"contract": "contract/voting.sol:Election",
						"label": "candidateId",
						"offset": 0,
						"slot": "2",
						"type": "t_mapping(t_address,t_uint256)"
					},
					{
						"astId": 36,
						"contract": "contract/voting.sol:Election",
						"label": "voterId",
						"offset": 0,
						"slot": "3",
						"type": "t_mapping(t_address,t_uint256)"
					},
					{
						"astId": 40,
						"contract": "contract/voting.sol:Election",
						"label": "delegateId",
						"offset": 0,
						"slot": "4",
						"type": "t_mapping(t_address,t_uint256)"
					},
					{
						"astId": 42,
						"contract": "contract/voting.sol:Election",
						"label": "winnerId",
						"offset": 0,
						"slot": "5",
						"type": "t_uint256"
					},
					{
						"astId": 44,
						"contract": "contract/voting.sol:Election",
						"label": "finished",
						"offset": 0,
						"slot": "6",
						"type": "t_bool"
					},
					{
						"astId": 48,
						"contract": "contract/voting.sol:Election",
						"label": "candidates",
						"offset": 0,
						"slot": "7",
						"type": "t_array(t_struct(Candidate)6_storage)dyn_storage"
					},
					{
						"astId": 52,
						"contract": "contract/voting.sol:Election",
						"label": "voters",
						"offset": 0,
						"slot": "8",
						"type": "t_array(t_struct(Voter)22_storage)dyn_storage"
					},
					{
						"astId": 56,
						"contract": "contract/voting.sol:Election",
						"label": "callEndElection",
						"offset": 0,
						"slot": "9",
						"type": "t_mapping(t_address,t_bool)"
					},
					{
						"astId": 60,
						"contract": "contract/voting.sol:Election",
						"label": "callRestartElection",
						"offset": 0,
						"slot": "10",
						"type": "t_mapping(t_address,t_bool)"
					},
					{
						"astId": 63,
						"contract": "contract/voting.sol:Election",
						"label": "endElectionCount",
						"offset": 0,
						"slot": "11",
						"type": "t_uint256"
					},
					{
						"astId": 66,
						"contract": "contract/voting.sol:Election",
						"label": "restartElectionCount",
						"offset": 0,
						"slot": "12",
						"type": "t_uint256"
					}
				],
				"types": {
					"t_address": {
						"encoding": "inplace",
						"label": "address",
						"numberOfBytes": "20"
					},
					"t_array(t_address)dyn_storage": {
						"base": "t_address",
						"encoding": "dynamic_array",
						"label": "address[]",
						"numberOfBytes": "32"
					},
					"t_array(t_struct(Candidate)6_storage)dyn_storage": {
						"base": "t_struct(Candidate)6_storage",
						"encoding": "dynamic_array",
						"label": "struct Election.Candidate[]",
						"numberOfBytes": "32"
					},
					"t_array(t_struct(Voter)22_storage)dyn_storage": {
						"base": "t_struct(Voter)22_storage",
						"encoding": "dynamic_array",
						"label": "struct Election.Voter[]",
						"numberOfBytes": "32"
					},
					"t_bool": {
						"encoding": "inplace",
						"label": "bool",
						"numberOfBytes": "1"
					},
					"t_mapping(t_address,t_bool)": {
						"encoding": "mapping",
						"key": "t_address",
						"label": "mapping(address => bool)",
						"numberOfBytes": "32",
						"value": "t_bool"
					},
					"t_mapping(t_address,t_uint256)": {
						"encoding": "mapping",
						"key": "t_address",
						"label": "mapping(address => uint256)",
						"numberOfBytes": "32",
						"value": "t_uint256"
					},
					"t_struct(Candidate)6_storage": {
						"encoding": "inplace",
						"label": "struct Election.Candidate",
						"members": [
							{
								"astId": 3,
								"contract": "contract/voting.sol:Election",
								"label": "addr",
								"offset": 0,
								"slot": "0",
								"type": "t_address"
							},
							{
								"astId": 5,
								"contract": "contract/voting.sol:Election",
								"label": "votes",
								"offset": 0,
								"slot": "1",
								"type": "t_uint256"
							}
						],
						"numberOfBytes": "64"
					},
					"t_struct(Voter)22_storage": {
						"encoding": "inplace",
						"label": "struct Election.Voter",
						"members": [
							{
								"astId": 8,
								"contract": "contract/voting.sol:Election",
								"label": "addr",
								"offset": 0,
								"slot": "0",
								"type": "t_address"
							},
							{
								"astId": 10,
								"contract": "contract/voting.sol:Election",
								"label": "eligible",
								"offset": 20,
								"slot": "0",
								"type": "t_bool"
							},
							{
								"astId": 12,
								"contract": "contract/voting.sol:Election",
								"label": "voted",
								"offset": 21,
								"slot": "0",
								"type": "t_bool"
							},
							{
								"astId": 14,
								"contract": "contract/voting.sol:Election",
								"label": "delegated",
								"offset": 22,
								"slot": "0",
								"type": "t_bool"
							},
							{
								"astId": 16,
								"contract": "contract/voting.sol:Election",
								"label": "candidateId",
								"offset": 0,
								"slot": "1",
								"type": "t_uint256"
							},
							{
								"astId": 19,
								"contract": "contract/voting.sol:Election",
								"label": "whitelistedBy",
								"offset": 0,
								"slot": "2",
								"type": "t_array(t_address)dyn_storage"
							},
							{
								"astId": 21,
								"contract": "contract/voting.sol:Election",
								"label": "whitelistCount",
								"offset": 0,
								"slot": "3",
								"type": "t_uint256"
							}
						],
						"numberOfBytes": "128"
					},
					"t_uint256": {
						"encoding": "inplace",
						"label": "uint256",
						"numberOfBytes": "32"
					}
				}
			},
			"userdoc": {
				"kind": "user",
				"methods": {},
				"version": 1
			}
		}
	}
}